{"abi":[{"inputs":[{"internalType":"string","name":"_description","type":"string"},{"internalType":"uint256","name":"_minInvest","type":"uint256"},{"internalType":"uint256","name":"_maxInvest","type":"uint256"},{"internalType":"uint256","name":"_goal","type":"uint256"},{"internalType":"address","name":"_owner","type":"address"}],"stateMutability":"nonpayable","type":"constructor"},{"inputs":[{"internalType":"uint256","name":"index","type":"uint256"}],"name":"approvePayment","outputs":[],"stateMutability":"nonpayable","type":"function"},{"inputs":[],"name":"contribute","outputs":[],"stateMutability":"payable","type":"function"},{"inputs":[{"internalType":"string","name":"_description","type":"string"},{"internalType":"uint256","name":"_amount","type":"uint256"},{"internalType":"address payable","name":"_receiver","type":"address"}],"name":"createPayment","outputs":[],"stateMutability":"nonpayable","type":"function"},{"inputs":[],"name":"description","outputs":[{"internalType":"string","name":"","type":"string"}],"stateMutability":"view","type":"function"},{"inputs":[{"internalType":"uint256","name":"index","type":"uint256"}],"name":"disApprovePayment","outputs":[],"stateMutability":"nonpayable","type":"function"},{"inputs":[{"internalType":"uint256","name":"index","type":"uint256"}],"name":"doPayment","outputs":[],"stateMutability":"nonpayable","type":"function"},{"inputs":[],"name":"getSummary","outputs":[{"internalType":"string","name":"","type":"string"},{"internalType":"uint256","name":"","type":"uint256"},{"internalType":"uint256","name":"","type":"uint256"},{"internalType":"uint256","name":"","type":"uint256"},{"internalType":"uint256","name":"","type":"uint256"},{"internalType":"uint256","name":"","type":"uint256"},{"internalType":"uint256","name":"","type":"uint256"},{"internalType":"address","name":"","type":"address"}],"stateMutability":"view","type":"function"},{"inputs":[],"name":"goal","outputs":[{"internalType":"uint256","name":"","type":"uint256"}],"stateMutability":"view","type":"function"},{"inputs":[],"name":"investorCount","outputs":[{"internalType":"uint256","name":"","type":"uint256"}],"stateMutability":"view","type":"function"},{"inputs":[{"internalType":"address","name":"","type":"address"}],"name":"investors","outputs":[{"internalType":"uint256","name":"","type":"uint256"}],"stateMutability":"view","type":"function"},{"inputs":[],"name":"maxInvest","outputs":[{"internalType":"uint256","name":"","type":"uint256"}],"stateMutability":"view","type":"function"},{"inputs":[],"name":"minInvest","outputs":[{"internalType":"uint256","name":"","type":"uint256"}],"stateMutability":"view","type":"function"},{"inputs":[],"name":"owner","outputs":[{"internalType":"address","name":"","type":"address"}],"stateMutability":"view","type":"function"},{"inputs":[{"internalType":"uint256","name":"","type":"uint256"}],"name":"payments","outputs":[{"internalType":"string","name":"description","type":"string"},{"internalType":"uint256","name":"amount","type":"uint256"},{"internalType":"uint256","name":"voterCount","type":"uint256"},{"internalType":"address payable","name":"receiver","type":"address"},{"internalType":"bool","name":"completed","type":"bool"},{"internalType":"string","name":"approve","type":"string"},{"internalType":"string","name":"disApprove","type":"string"}],"stateMutability":"view","type":"function"},{"inputs":[{"internalType":"address","name":"account","type":"address"}],"name":"toString","outputs":[{"internalType":"string","name":"","type":"string"}],"stateMutability":"pure","type":"function"},{"inputs":[{"internalType":"uint256","name":"value","type":"uint256"}],"name":"toString","outputs":[{"internalType":"string","name":"","type":"string"}],"stateMutability":"pure","type":"function"},{"inputs":[{"internalType":"bytes","name":"data","type":"bytes"}],"name":"toString","outputs":[{"internalType":"string","name":"","type":"string"}],"stateMutability":"pure","type":"function"},{"inputs":[{"internalType":"bytes32","name":"value","type":"bytes32"}],"name":"toString","outputs":[{"internalType":"string","name":"","type":"string"}],"stateMutability":"pure","type":"function"}],"devdoc":{"kind":"dev","methods":{},"version":1},"evm":{"assembly":"    /* \"Project.sol\":83:4739  contract Project {... */\n  mstore(0x40, 0x80)\n    /* \"Project.sol\":698:1008  constructor(... */\n  callvalue\n  dup1\n  iszero\n  tag_1\n  jumpi\n  0x00\n  dup1\n  revert\ntag_1:\n  pop\n  mload(0x40)\n  sub(codesize, bytecodeSize)\n  dup1\n  bytecodeSize\n  dup4\n  codecopy\n  dup2\n  dup2\n  add\n  0x40\n  mstore\n  dup2\n  add\n  swap1\n  tag_2\n  swap2\n  swap1\n  tag_3\n  jump\t// in\ntag_2:\n    /* \"Project.sol\":873:879  _owner */\n  dup1\n    /* \"Project.sol\":865:870  owner */\n  0x00\n  dup1\n    /* \"Project.sol\":865:879  owner = _owner */\n  0x0100\n  exp\n  dup2\n  sload\n  dup2\n  0xffffffffffffffffffffffffffffffffffffffff\n  mul\n  not\n  and\n  swap1\n  dup4\n  0xffffffffffffffffffffffffffffffffffffffff\n  and\n  mul\n  or\n  swap1\n  sstore\n  pop\n    /* \"Project.sol\":903:915  _description */\n  dup5\n    /* \"Project.sol\":889:900  description */\n  0x01\n    /* \"Project.sol\":889:915  description = _description */\n  swap1\n  dup1\n  mload\n  swap1\n  0x20\n  add\n  swap1\n  tag_6\n  swap3\n  swap2\n  swap1\n  tag_7\n  jump\t// in\ntag_6:\n  pop\n    /* \"Project.sol\":937:947  _minInvest */\n  dup4\n    /* \"Project.sol\":925:934  minInvest */\n  0x02\n    /* \"Project.sol\":925:947  minInvest = _minInvest */\n  dup2\n  swap1\n  sstore\n  pop\n    /* \"Project.sol\":969:979  _maxInvest */\n  dup3\n    /* \"Project.sol\":957:966  maxInvest */\n  0x03\n    /* \"Project.sol\":957:979  maxInvest = _maxInvest */\n  dup2\n  swap1\n  sstore\n  pop\n    /* \"Project.sol\":996:1001  _goal */\n  dup2\n    /* \"Project.sol\":989:993  goal */\n  0x04\n    /* \"Project.sol\":989:1001  goal = _goal */\n  dup2\n  swap1\n  sstore\n  pop\n    /* \"Project.sol\":698:1008  constructor(... */\n  pop\n  pop\n  pop\n  pop\n  pop\n    /* \"Project.sol\":83:4739  contract Project {... */\n  jump(tag_8)\ntag_7:\n  dup3\n  dup1\n  sload\n  tag_9\n  swap1\n  tag_10\n  jump\t// in\ntag_9:\n  swap1\n  0x00\n  mstore\n  keccak256(0x00, 0x20)\n  swap1\n  0x1f\n  add\n  0x20\n  swap1\n  div\n  dup2\n  add\n  swap3\n  dup3\n  tag_12\n  jumpi\n  0x00\n  dup6\n  sstore\n  jump(tag_11)\ntag_12:\n  dup3\n  0x1f\n  lt\n  tag_13\n  jumpi\n  dup1\n  mload\n  not(0xff)\n  and\n  dup4\n  dup1\n  add\n  or\n  dup6\n  sstore\n  jump(tag_11)\ntag_13:\n  dup3\n  dup1\n  add\n  0x01\n  add\n  dup6\n  sstore\n  dup3\n  iszero\n  tag_11\n  jumpi\n  swap2\n  dup3\n  add\ntag_14:\n  dup3\n  dup2\n  gt\n  iszero\n  tag_15\n  jumpi\n  dup3\n  mload\n  dup3\n  sstore\n  swap2\n  0x20\n  add\n  swap2\n  swap1\n  0x01\n  add\n  swap1\n  jump(tag_14)\ntag_15:\ntag_11:\n  pop\n  swap1\n  pop\n  tag_16\n  swap2\n  swap1\n  tag_17\n  jump\t// in\ntag_16:\n  pop\n  swap1\n  jump\t// out\ntag_17:\ntag_18:\n  dup1\n  dup3\n  gt\n  iszero\n  tag_19\n  jumpi\n  0x00\n  dup2\n  0x00\n  swap1\n  sstore\n  pop\n  0x01\n  add\n  jump(tag_18)\ntag_19:\n  pop\n  swap1\n  jump\t// out\n    /* \"#utility.yul\":7:82   */\ntag_20:\n    /* \"#utility.yul\":40:46   */\n  0x00\n    /* \"#utility.yul\":73:75   */\n  0x40\n    /* \"#utility.yul\":67:76   */\n  mload\n    /* \"#utility.yul\":57:76   */\n  swap1\n  pop\n    /* \"#utility.yul\":7:82   */\n  swap1\n  jump\t// out\n    /* \"#utility.yul\":88:205   */\ntag_21:\n    /* \"#utility.yul\":197:198   */\n  0x00\n    /* \"#utility.yul\":194:195   */\n  dup1\n    /* \"#utility.yul\":187:199   */\n  revert\n    /* \"#utility.yul\":211:328   */\ntag_22:\n    /* \"#utility.yul\":320:321   */\n  0x00\n    /* \"#utility.yul\":317:318   */\n  dup1\n    /* \"#utility.yul\":310:322   */\n  revert\n    /* \"#utility.yul\":334:451   */\ntag_23:\n    /* \"#utility.yul\":443:444   */\n  0x00\n    /* \"#utility.yul\":440:441   */\n  dup1\n    /* \"#utility.yul\":433:445   */\n  revert\n    /* \"#utility.yul\":457:574   */\ntag_24:\n    /* \"#utility.yul\":566:567   */\n  0x00\n    /* \"#utility.yul\":563:564   */\n  dup1\n    /* \"#utility.yul\":556:568   */\n  revert\n    /* \"#utility.yul\":580:682   */\ntag_25:\n    /* \"#utility.yul\":621:627   */\n  0x00\n    /* \"#utility.yul\":672:674   */\n  0x1f\n    /* \"#utility.yul\":668:675   */\n  not\n    /* \"#utility.yul\":663:665   */\n  0x1f\n    /* \"#utility.yul\":656:661   */\n  dup4\n    /* \"#utility.yul\":652:666   */\n  add\n    /* \"#utility.yul\":648:676   */\n  and\n    /* \"#utility.yul\":638:676   */\n  swap1\n  pop\n    /* \"#utility.yul\":580:682   */\n  swap2\n  swap1\n  pop\n  jump\t// out\n    /* \"#utility.yul\":688:868   */\ntag_26:\n    /* \"#utility.yul\":736:813   */\n  0x4e487b7100000000000000000000000000000000000000000000000000000000\n    /* \"#utility.yul\":733:734   */\n  0x00\n    /* \"#utility.yul\":726:814   */\n  mstore\n    /* \"#utility.yul\":833:837   */\n  0x41\n    /* \"#utility.yul\":830:831   */\n  0x04\n    /* \"#utility.yul\":823:838   */\n  mstore\n    /* \"#utility.yul\":857:861   */\n  0x24\n    /* \"#utility.yul\":854:855   */\n  0x00\n    /* \"#utility.yul\":847:862   */\n  revert\n    /* \"#utility.yul\":874:1155   */\ntag_27:\n    /* \"#utility.yul\":957:984   */\n  tag_50\n    /* \"#utility.yul\":979:983   */\n  dup3\n    /* \"#utility.yul\":957:984   */\n  tag_25\n  jump\t// in\ntag_50:\n    /* \"#utility.yul\":949:955   */\n  dup2\n    /* \"#utility.yul\":945:985   */\n  add\n    /* \"#utility.yul\":1087:1093   */\n  dup2\n    /* \"#utility.yul\":1075:1085   */\n  dup2\n    /* \"#utility.yul\":1072:1094   */\n  lt\n    /* \"#utility.yul\":1051:1069   */\n  0xffffffffffffffff\n    /* \"#utility.yul\":1039:1049   */\n  dup3\n    /* \"#utility.yul\":1036:1070   */\n  gt\n    /* \"#utility.yul\":1033:1095   */\n  or\n    /* \"#utility.yul\":1030:1118   */\n  iszero\n  tag_51\n  jumpi\n    /* \"#utility.yul\":1098:1116   */\n  tag_52\n  tag_26\n  jump\t// in\ntag_52:\n    /* \"#utility.yul\":1030:1118   */\ntag_51:\n    /* \"#utility.yul\":1138:1148   */\n  dup1\n    /* \"#utility.yul\":1134:1136   */\n  0x40\n    /* \"#utility.yul\":1127:1149   */\n  mstore\n    /* \"#utility.yul\":917:1155   */\n  pop\n    /* \"#utility.yul\":874:1155   */\n  pop\n  pop\n  jump\t// out\n    /* \"#utility.yul\":1161:1290   */\ntag_28:\n    /* \"#utility.yul\":1195:1201   */\n  0x00\n    /* \"#utility.yul\":1222:1242   */\n  tag_54\n  tag_20\n  jump\t// in\ntag_54:\n    /* \"#utility.yul\":1212:1242   */\n  swap1\n  pop\n    /* \"#utility.yul\":1251:1284   */\n  tag_55\n    /* \"#utility.yul\":1279:1283   */\n  dup3\n    /* \"#utility.yul\":1271:1277   */\n  dup3\n    /* \"#utility.yul\":1251:1284   */\n  tag_27\n  jump\t// in\ntag_55:\n    /* \"#utility.yul\":1161:1290   */\n  swap2\n  swap1\n  pop\n  jump\t// out\n    /* \"#utility.yul\":1296:1604   */\ntag_29:\n    /* \"#utility.yul\":1358:1362   */\n  0x00\n    /* \"#utility.yul\":1448:1466   */\n  0xffffffffffffffff\n    /* \"#utility.yul\":1440:1446   */\n  dup3\n    /* \"#utility.yul\":1437:1467   */\n  gt\n    /* \"#utility.yul\":1434:1490   */\n  iszero\n  tag_57\n  jumpi\n    /* \"#utility.yul\":1470:1488   */\n  tag_58\n  tag_26\n  jump\t// in\ntag_58:\n    /* \"#utility.yul\":1434:1490   */\ntag_57:\n    /* \"#utility.yul\":1508:1537   */\n  tag_59\n    /* \"#utility.yul\":1530:1536   */\n  dup3\n    /* \"#utility.yul\":1508:1537   */\n  tag_25\n  jump\t// in\ntag_59:\n    /* \"#utility.yul\":1500:1537   */\n  swap1\n  pop\n    /* \"#utility.yul\":1592:1596   */\n  0x20\n    /* \"#utility.yul\":1586:1590   */\n  dup2\n    /* \"#utility.yul\":1582:1597   */\n  add\n    /* \"#utility.yul\":1574:1597   */\n  swap1\n  pop\n    /* \"#utility.yul\":1296:1604   */\n  swap2\n  swap1\n  pop\n  jump\t// out\n    /* \"#utility.yul\":1610:1917   */\ntag_30:\n    /* \"#utility.yul\":1678:1679   */\n  0x00\n    /* \"#utility.yul\":1688:1801   */\ntag_61:\n    /* \"#utility.yul\":1702:1708   */\n  dup4\n    /* \"#utility.yul\":1699:1700   */\n  dup2\n    /* \"#utility.yul\":1696:1709   */\n  lt\n    /* \"#utility.yul\":1688:1801   */\n  iszero\n  tag_63\n  jumpi\n    /* \"#utility.yul\":1787:1788   */\n  dup1\n    /* \"#utility.yul\":1782:1785   */\n  dup3\n    /* \"#utility.yul\":1778:1789   */\n  add\n    /* \"#utility.yul\":1772:1790   */\n  mload\n    /* \"#utility.yul\":1768:1769   */\n  dup2\n    /* \"#utility.yul\":1763:1766   */\n  dup5\n    /* \"#utility.yul\":1759:1770   */\n  add\n    /* \"#utility.yul\":1752:1791   */\n  mstore\n    /* \"#utility.yul\":1724:1726   */\n  0x20\n    /* \"#utility.yul\":1721:1722   */\n  dup2\n    /* \"#utility.yul\":1717:1727   */\n  add\n    /* \"#utility.yul\":1712:1727   */\n  swap1\n  pop\n    /* \"#utility.yul\":1688:1801   */\n  jump(tag_61)\ntag_63:\n    /* \"#utility.yul\":1819:1825   */\n  dup4\n    /* \"#utility.yul\":1816:1817   */\n  dup2\n    /* \"#utility.yul\":1813:1826   */\n  gt\n    /* \"#utility.yul\":1810:1911   */\n  iszero\n  tag_64\n  jumpi\n    /* \"#utility.yul\":1899:1900   */\n  0x00\n    /* \"#utility.yul\":1890:1896   */\n  dup5\n    /* \"#utility.yul\":1885:1888   */\n  dup5\n    /* \"#utility.yul\":1881:1897   */\n  add\n    /* \"#utility.yul\":1874:1901   */\n  mstore\n    /* \"#utility.yul\":1810:1911   */\ntag_64:\n    /* \"#utility.yul\":1659:1917   */\n  pop\n    /* \"#utility.yul\":1610:1917   */\n  pop\n  pop\n  pop\n  jump\t// out\n    /* \"#utility.yul\":1923:2344   */\ntag_31:\n    /* \"#utility.yul\":2012:2017   */\n  0x00\n    /* \"#utility.yul\":2037:2103   */\n  tag_66\n    /* \"#utility.yul\":2053:2102   */\n  tag_67\n    /* \"#utility.yul\":2095:2101   */\n  dup5\n    /* \"#utility.yul\":2053:2102   */\n  tag_29\n  jump\t// in\ntag_67:\n    /* \"#utility.yul\":2037:2103   */\n  tag_28\n  jump\t// in\ntag_66:\n    /* \"#utility.yul\":2028:2103   */\n  swap1\n  pop\n    /* \"#utility.yul\":2126:2132   */\n  dup3\n    /* \"#utility.yul\":2119:2124   */\n  dup2\n    /* \"#utility.yul\":2112:2133   */\n  mstore\n    /* \"#utility.yul\":2164:2168   */\n  0x20\n    /* \"#utility.yul\":2157:2162   */\n  dup2\n    /* \"#utility.yul\":2153:2169   */\n  add\n    /* \"#utility.yul\":2202:2205   */\n  dup5\n    /* \"#utility.yul\":2193:2199   */\n  dup5\n    /* \"#utility.yul\":2188:2191   */\n  dup5\n    /* \"#utility.yul\":2184:2200   */\n  add\n    /* \"#utility.yul\":2181:2206   */\n  gt\n    /* \"#utility.yul\":2178:2290   */\n  iszero\n  tag_68\n  jumpi\n    /* \"#utility.yul\":2209:2288   */\n  tag_69\n  tag_24\n  jump\t// in\ntag_69:\n    /* \"#utility.yul\":2178:2290   */\ntag_68:\n    /* \"#utility.yul\":2299:2338   */\n  tag_70\n    /* \"#utility.yul\":2331:2337   */\n  dup5\n    /* \"#utility.yul\":2326:2329   */\n  dup3\n    /* \"#utility.yul\":2321:2324   */\n  dup6\n    /* \"#utility.yul\":2299:2338   */\n  tag_30\n  jump\t// in\ntag_70:\n    /* \"#utility.yul\":2018:2344   */\n  pop\n    /* \"#utility.yul\":1923:2344   */\n  swap4\n  swap3\n  pop\n  pop\n  pop\n  jump\t// out\n    /* \"#utility.yul\":2364:2719   */\ntag_32:\n    /* \"#utility.yul\":2431:2436   */\n  0x00\n    /* \"#utility.yul\":2480:2483   */\n  dup3\n    /* \"#utility.yul\":2473:2477   */\n  0x1f\n    /* \"#utility.yul\":2465:2471   */\n  dup4\n    /* \"#utility.yul\":2461:2478   */\n  add\n    /* \"#utility.yul\":2457:2484   */\n  slt\n    /* \"#utility.yul\":2447:2569   */\n  tag_72\n  jumpi\n    /* \"#utility.yul\":2488:2567   */\n  tag_73\n  tag_23\n  jump\t// in\ntag_73:\n    /* \"#utility.yul\":2447:2569   */\ntag_72:\n    /* \"#utility.yul\":2598:2604   */\n  dup2\n    /* \"#utility.yul\":2592:2605   */\n  mload\n    /* \"#utility.yul\":2623:2713   */\n  tag_74\n    /* \"#utility.yul\":2709:2712   */\n  dup5\n    /* \"#utility.yul\":2701:2707   */\n  dup3\n    /* \"#utility.yul\":2694:2698   */\n  0x20\n    /* \"#utility.yul\":2686:2692   */\n  dup7\n    /* \"#utility.yul\":2682:2699   */\n  add\n    /* \"#utility.yul\":2623:2713   */\n  tag_31\n  jump\t// in\ntag_74:\n    /* \"#utility.yul\":2614:2713   */\n  swap2\n  pop\n    /* \"#utility.yul\":2437:2719   */\n  pop\n    /* \"#utility.yul\":2364:2719   */\n  swap3\n  swap2\n  pop\n  pop\n  jump\t// out\n    /* \"#utility.yul\":2725:2802   */\ntag_33:\n    /* \"#utility.yul\":2762:2769   */\n  0x00\n    /* \"#utility.yul\":2791:2796   */\n  dup2\n    /* \"#utility.yul\":2780:2796   */\n  swap1\n  pop\n    /* \"#utility.yul\":2725:2802   */\n  swap2\n  swap1\n  pop\n  jump\t// out\n    /* \"#utility.yul\":2808:2930   */\ntag_34:\n    /* \"#utility.yul\":2881:2905   */\n  tag_77\n    /* \"#utility.yul\":2899:2904   */\n  dup2\n    /* \"#utility.yul\":2881:2905   */\n  tag_33\n  jump\t// in\ntag_77:\n    /* \"#utility.yul\":2874:2879   */\n  dup2\n    /* \"#utility.yul\":2871:2906   */\n  eq\n    /* \"#utility.yul\":2861:2924   */\n  tag_78\n  jumpi\n    /* \"#utility.yul\":2920:2921   */\n  0x00\n    /* \"#utility.yul\":2917:2918   */\n  dup1\n    /* \"#utility.yul\":2910:2922   */\n  revert\n    /* \"#utility.yul\":2861:2924   */\ntag_78:\n    /* \"#utility.yul\":2808:2930   */\n  pop\n  jump\t// out\n    /* \"#utility.yul\":2936:3079   */\ntag_35:\n    /* \"#utility.yul\":2993:2998   */\n  0x00\n    /* \"#utility.yul\":3024:3030   */\n  dup2\n    /* \"#utility.yul\":3018:3031   */\n  mload\n    /* \"#utility.yul\":3009:3031   */\n  swap1\n  pop\n    /* \"#utility.yul\":3040:3073   */\n  tag_80\n    /* \"#utility.yul\":3067:3072   */\n  dup2\n    /* \"#utility.yul\":3040:3073   */\n  tag_34\n  jump\t// in\ntag_80:\n    /* \"#utility.yul\":2936:3079   */\n  swap3\n  swap2\n  pop\n  pop\n  jump\t// out\n    /* \"#utility.yul\":3085:3211   */\ntag_36:\n    /* \"#utility.yul\":3122:3129   */\n  0x00\n    /* \"#utility.yul\":3162:3204   */\n  0xffffffffffffffffffffffffffffffffffffffff\n    /* \"#utility.yul\":3155:3160   */\n  dup3\n    /* \"#utility.yul\":3151:3205   */\n  and\n    /* \"#utility.yul\":3140:3205   */\n  swap1\n  pop\n    /* \"#utility.yul\":3085:3211   */\n  swap2\n  swap1\n  pop\n  jump\t// out\n    /* \"#utility.yul\":3217:3313   */\ntag_37:\n    /* \"#utility.yul\":3254:3261   */\n  0x00\n    /* \"#utility.yul\":3283:3307   */\n  tag_83\n    /* \"#utility.yul\":3301:3306   */\n  dup3\n    /* \"#utility.yul\":3283:3307   */\n  tag_36\n  jump\t// in\ntag_83:\n    /* \"#utility.yul\":3272:3307   */\n  swap1\n  pop\n    /* \"#utility.yul\":3217:3313   */\n  swap2\n  swap1\n  pop\n  jump\t// out\n    /* \"#utility.yul\":3319:3441   */\ntag_38:\n    /* \"#utility.yul\":3392:3416   */\n  tag_85\n    /* \"#utility.yul\":3410:3415   */\n  dup2\n    /* \"#utility.yul\":3392:3416   */\n  tag_37\n  jump\t// in\ntag_85:\n    /* \"#utility.yul\":3385:3390   */\n  dup2\n    /* \"#utility.yul\":3382:3417   */\n  eq\n    /* \"#utility.yul\":3372:3435   */\n  tag_86\n  jumpi\n    /* \"#utility.yul\":3431:3432   */\n  0x00\n    /* \"#utility.yul\":3428:3429   */\n  dup1\n    /* \"#utility.yul\":3421:3433   */\n  revert\n    /* \"#utility.yul\":3372:3435   */\ntag_86:\n    /* \"#utility.yul\":3319:3441   */\n  pop\n  jump\t// out\n    /* \"#utility.yul\":3447:3590   */\ntag_39:\n    /* \"#utility.yul\":3504:3509   */\n  0x00\n    /* \"#utility.yul\":3535:3541   */\n  dup2\n    /* \"#utility.yul\":3529:3542   */\n  mload\n    /* \"#utility.yul\":3520:3542   */\n  swap1\n  pop\n    /* \"#utility.yul\":3551:3584   */\n  tag_88\n    /* \"#utility.yul\":3578:3583   */\n  dup2\n    /* \"#utility.yul\":3551:3584   */\n  tag_38\n  jump\t// in\ntag_88:\n    /* \"#utility.yul\":3447:3590   */\n  swap3\n  swap2\n  pop\n  pop\n  jump\t// out\n    /* \"#utility.yul\":3596:4746   */\ntag_3:\n    /* \"#utility.yul\":3712:3718   */\n  0x00\n    /* \"#utility.yul\":3720:3726   */\n  dup1\n    /* \"#utility.yul\":3728:3734   */\n  0x00\n    /* \"#utility.yul\":3736:3742   */\n  dup1\n    /* \"#utility.yul\":3744:3750   */\n  0x00\n    /* \"#utility.yul\":3793:3796   */\n  0xa0\n    /* \"#utility.yul\":3781:3790   */\n  dup7\n    /* \"#utility.yul\":3772:3779   */\n  dup9\n    /* \"#utility.yul\":3768:3791   */\n  sub\n    /* \"#utility.yul\":3764:3797   */\n  slt\n    /* \"#utility.yul\":3761:3881   */\n  iszero\n  tag_90\n  jumpi\n    /* \"#utility.yul\":3800:3879   */\n  tag_91\n  tag_21\n  jump\t// in\ntag_91:\n    /* \"#utility.yul\":3761:3881   */\ntag_90:\n    /* \"#utility.yul\":3941:3942   */\n  0x00\n    /* \"#utility.yul\":3930:3939   */\n  dup7\n    /* \"#utility.yul\":3926:3943   */\n  add\n    /* \"#utility.yul\":3920:3944   */\n  mload\n    /* \"#utility.yul\":3971:3989   */\n  0xffffffffffffffff\n    /* \"#utility.yul\":3963:3969   */\n  dup2\n    /* \"#utility.yul\":3960:3990   */\n  gt\n    /* \"#utility.yul\":3957:4074   */\n  iszero\n  tag_92\n  jumpi\n    /* \"#utility.yul\":3993:4072   */\n  tag_93\n  tag_22\n  jump\t// in\ntag_93:\n    /* \"#utility.yul\":3957:4074   */\ntag_92:\n    /* \"#utility.yul\":4098:4172   */\n  tag_94\n    /* \"#utility.yul\":4164:4171   */\n  dup9\n    /* \"#utility.yul\":4155:4161   */\n  dup3\n    /* \"#utility.yul\":4144:4153   */\n  dup10\n    /* \"#utility.yul\":4140:4162   */\n  add\n    /* \"#utility.yul\":4098:4172   */\n  tag_32\n  jump\t// in\ntag_94:\n    /* \"#utility.yul\":4088:4172   */\n  swap6\n  pop\n    /* \"#utility.yul\":3891:4182   */\n  pop\n    /* \"#utility.yul\":4221:4223   */\n  0x20\n    /* \"#utility.yul\":4247:4311   */\n  tag_95\n    /* \"#utility.yul\":4303:4310   */\n  dup9\n    /* \"#utility.yul\":4294:4300   */\n  dup3\n    /* \"#utility.yul\":4283:4292   */\n  dup10\n    /* \"#utility.yul\":4279:4301   */\n  add\n    /* \"#utility.yul\":4247:4311   */\n  tag_35\n  jump\t// in\ntag_95:\n    /* \"#utility.yul\":4237:4311   */\n  swap5\n  pop\n    /* \"#utility.yul\":4192:4321   */\n  pop\n    /* \"#utility.yul\":4360:4362   */\n  0x40\n    /* \"#utility.yul\":4386:4450   */\n  tag_96\n    /* \"#utility.yul\":4442:4449   */\n  dup9\n    /* \"#utility.yul\":4433:4439   */\n  dup3\n    /* \"#utility.yul\":4422:4431   */\n  dup10\n    /* \"#utility.yul\":4418:4440   */\n  add\n    /* \"#utility.yul\":4386:4450   */\n  tag_35\n  jump\t// in\ntag_96:\n    /* \"#utility.yul\":4376:4450   */\n  swap4\n  pop\n    /* \"#utility.yul\":4331:4460   */\n  pop\n    /* \"#utility.yul\":4499:4501   */\n  0x60\n    /* \"#utility.yul\":4525:4589   */\n  tag_97\n    /* \"#utility.yul\":4581:4588   */\n  dup9\n    /* \"#utility.yul\":4572:4578   */\n  dup3\n    /* \"#utility.yul\":4561:4570   */\n  dup10\n    /* \"#utility.yul\":4557:4579   */\n  add\n    /* \"#utility.yul\":4525:4589   */\n  tag_35\n  jump\t// in\ntag_97:\n    /* \"#utility.yul\":4515:4589   */\n  swap3\n  pop\n    /* \"#utility.yul\":4470:4599   */\n  pop\n    /* \"#utility.yul\":4638:4641   */\n  0x80\n    /* \"#utility.yul\":4665:4729   */\n  tag_98\n    /* \"#utility.yul\":4721:4728   */\n  dup9\n    /* \"#utility.yul\":4712:4718   */\n  dup3\n    /* \"#utility.yul\":4701:4710   */\n  dup10\n    /* \"#utility.yul\":4697:4719   */\n  add\n    /* \"#utility.yul\":4665:4729   */\n  tag_39\n  jump\t// in\ntag_98:\n    /* \"#utility.yul\":4655:4729   */\n  swap2\n  pop\n    /* \"#utility.yul\":4609:4739   */\n  pop\n    /* \"#utility.yul\":3596:4746   */\n  swap3\n  swap6\n  pop\n  swap3\n  swap6\n  swap1\n  swap4\n  pop\n  jump\t// out\n    /* \"#utility.yul\":4752:4932   */\ntag_40:\n    /* \"#utility.yul\":4800:4877   */\n  0x4e487b7100000000000000000000000000000000000000000000000000000000\n    /* \"#utility.yul\":4797:4798   */\n  0x00\n    /* \"#utility.yul\":4790:4878   */\n  mstore\n    /* \"#utility.yul\":4897:4901   */\n  0x22\n    /* \"#utility.yul\":4894:4895   */\n  0x04\n    /* \"#utility.yul\":4887:4902   */\n  mstore\n    /* \"#utility.yul\":4921:4925   */\n  0x24\n    /* \"#utility.yul\":4918:4919   */\n  0x00\n    /* \"#utility.yul\":4911:4926   */\n  revert\n    /* \"#utility.yul\":4938:5258   */\ntag_10:\n    /* \"#utility.yul\":4982:4988   */\n  0x00\n    /* \"#utility.yul\":5019:5020   */\n  0x02\n    /* \"#utility.yul\":5013:5017   */\n  dup3\n    /* \"#utility.yul\":5009:5021   */\n  div\n    /* \"#utility.yul\":4999:5021   */\n  swap1\n  pop\n    /* \"#utility.yul\":5066:5067   */\n  0x01\n    /* \"#utility.yul\":5060:5064   */\n  dup3\n    /* \"#utility.yul\":5056:5068   */\n  and\n    /* \"#utility.yul\":5087:5105   */\n  dup1\n    /* \"#utility.yul\":5077:5158   */\n  tag_101\n  jumpi\n    /* \"#utility.yul\":5143:5147   */\n  0x7f\n    /* \"#utility.yul\":5135:5141   */\n  dup3\n    /* \"#utility.yul\":5131:5148   */\n  and\n    /* \"#utility.yul\":5121:5148   */\n  swap2\n  pop\n    /* \"#utility.yul\":5077:5158   */\ntag_101:\n    /* \"#utility.yul\":5205:5207   */\n  0x20\n    /* \"#utility.yul\":5197:5203   */\n  dup3\n    /* \"#utility.yul\":5194:5208   */\n  lt\n    /* \"#utility.yul\":5174:5192   */\n  dup2\n    /* \"#utility.yul\":5171:5209   */\n  eq\n    /* \"#utility.yul\":5168:5252   */\n  iszero\n  tag_102\n  jumpi\n    /* \"#utility.yul\":5224:5242   */\n  tag_103\n  tag_40\n  jump\t// in\ntag_103:\n    /* \"#utility.yul\":5168:5252   */\ntag_102:\n    /* \"#utility.yul\":4989:5258   */\n  pop\n    /* \"#utility.yul\":4938:5258   */\n  swap2\n  swap1\n  pop\n  jump\t// out\n    /* \"Project.sol\":83:4739  contract Project {... */\ntag_8:\n  dataSize(sub_0)\n  dup1\n  dataOffset(sub_0)\n  0x00\n  codecopy\n  0x00\n  return\nstop\n\nsub_0: assembly {\n        /* \"Project.sol\":83:4739  contract Project {... */\n      mstore(0x40, 0x80)\n      jumpi(tag_1, lt(calldatasize, 0x04))\n      shr(0xe0, calldataload(0x00))\n      dup1\n      0x7284e416\n      gt\n      tag_20\n      jumpi\n      dup1\n      0xb11a19e8\n      gt\n      tag_21\n      jumpi\n      dup1\n      0xb11a19e8\n      eq\n      tag_15\n      jumpi\n      dup1\n      0xd2b8b867\n      eq\n      tag_16\n      jumpi\n      dup1\n      0xd7bb99ba\n      eq\n      tag_17\n      jumpi\n      dup1\n      0xd7e64c00\n      eq\n      tag_18\n      jumpi\n      dup1\n      0xde14c818\n      eq\n      tag_19\n      jumpi\n      jump(tag_1)\n    tag_21:\n      dup1\n      0x7284e416\n      eq\n      tag_11\n      jumpi\n      dup1\n      0x8323406b\n      eq\n      tag_12\n      jumpi\n      dup1\n      0x87d81789\n      eq\n      tag_13\n      jumpi\n      dup1\n      0x8da5cb5b\n      eq\n      tag_14\n      jumpi\n      jump(tag_1)\n    tag_20:\n      dup1\n      0x56ca623e\n      gt\n      tag_22\n      jumpi\n      dup1\n      0x56ca623e\n      eq\n      tag_6\n      jumpi\n      dup1\n      0x63fd9e38\n      eq\n      tag_7\n      jumpi\n      dup1\n      0x6900a3ae\n      eq\n      tag_8\n      jumpi\n      dup1\n      0x6f7bc9be\n      eq\n      tag_9\n      jumpi\n      dup1\n      0x71aad10d\n      eq\n      tag_10\n      jumpi\n      jump(tag_1)\n    tag_22:\n      dup1\n      0x03120d46\n      eq\n      tag_2\n      jumpi\n      dup1\n      0x3110235a\n      eq\n      tag_3\n      jumpi\n      dup1\n      0x40193883\n      eq\n      tag_4\n      jumpi\n      dup1\n      0x4051ddac\n      eq\n      tag_5\n      jumpi\n    tag_1:\n      0x00\n      dup1\n      revert\n        /* \"Project.sol\":1494:1978  function createPayment(... */\n    tag_2:\n      callvalue\n      dup1\n      iszero\n      tag_23\n      jumpi\n      0x00\n      dup1\n      revert\n    tag_23:\n      pop\n      tag_24\n      0x04\n      dup1\n      calldatasize\n      sub\n      dup2\n      add\n      swap1\n      tag_25\n      swap2\n      swap1\n      tag_26\n      jump\t// in\n    tag_25:\n      tag_27\n      jump\t// in\n    tag_24:\n      stop\n        /* \"Project.sol\":443:467  uint256 public maxInvest */\n    tag_3:\n      callvalue\n      dup1\n      iszero\n      tag_28\n      jumpi\n      0x00\n      dup1\n      revert\n    tag_28:\n      pop\n      tag_29\n      tag_30\n      jump\t// in\n    tag_29:\n      mload(0x40)\n      tag_31\n      swap2\n      swap1\n      tag_32\n      jump\t// in\n    tag_31:\n      mload(0x40)\n      dup1\n      swap2\n      sub\n      swap1\n      return\n        /* \"Project.sol\":473:492  uint256 public goal */\n    tag_4:\n      callvalue\n      dup1\n      iszero\n      tag_33\n      jumpi\n      0x00\n      dup1\n      revert\n    tag_33:\n      pop\n      tag_34\n      tag_35\n      jump\t// in\n    tag_34:\n      mload(0x40)\n      tag_36\n      swap2\n      swap1\n      tag_32\n      jump\t// in\n    tag_36:\n      mload(0x40)\n      dup1\n      swap2\n      sub\n      swap1\n      return\n        /* \"Project.sol\":3179:3667  function getSummary()... */\n    tag_5:\n      callvalue\n      dup1\n      iszero\n      tag_37\n      jumpi\n      0x00\n      dup1\n      revert\n    tag_37:\n      pop\n      tag_38\n      tag_39\n      jump\t// in\n    tag_38:\n      mload(0x40)\n      tag_40\n      swap9\n      swap8\n      swap7\n      swap6\n      swap5\n      swap4\n      swap3\n      swap2\n      swap1\n      tag_41\n      jump\t// in\n    tag_40:\n      mload(0x40)\n      dup1\n      swap2\n      sub\n      swap1\n      return\n        /* \"Project.sol\":3871:4001  function toString(address account) public pure returns (string memory) {... */\n    tag_6:\n      callvalue\n      dup1\n      iszero\n      tag_42\n      jumpi\n      0x00\n      dup1\n      revert\n    tag_42:\n      pop\n      tag_43\n      0x04\n      dup1\n      calldatasize\n      sub\n      dup2\n      add\n      swap1\n      tag_44\n      swap2\n      swap1\n      tag_45\n      jump\t// in\n    tag_44:\n      tag_46\n      jump\t// in\n    tag_43:\n      mload(0x40)\n      tag_47\n      swap2\n      swap1\n      tag_48\n      jump\t// in\n    tag_47:\n      mload(0x40)\n      dup1\n      swap2\n      sub\n      swap1\n      return\n        /* \"Project.sol\":413:437  uint256 public minInvest */\n    tag_7:\n      callvalue\n      dup1\n      iszero\n      tag_49\n      jumpi\n      0x00\n      dup1\n      revert\n    tag_49:\n      pop\n      tag_50\n      tag_51\n      jump\t// in\n    tag_50:\n      mload(0x40)\n      tag_52\n      swap2\n      swap1\n      tag_32\n      jump\t// in\n    tag_52:\n      mload(0x40)\n      dup1\n      swap2\n      sub\n      swap1\n      return\n        /* \"Project.sol\":4007:4133  function toString(uint256 value) public pure returns (string memory) {... */\n    tag_8:\n      callvalue\n      dup1\n      iszero\n      tag_53\n      jumpi\n      0x00\n      dup1\n      revert\n    tag_53:\n      pop\n      tag_54\n      0x04\n      dup1\n      calldatasize\n      sub\n      dup2\n      add\n      swap1\n      tag_55\n      swap2\n      swap1\n      tag_56\n      jump\t// in\n    tag_55:\n      tag_57\n      jump\t// in\n    tag_54:\n      mload(0x40)\n      tag_58\n      swap2\n      swap1\n      tag_48\n      jump\t// in\n    tag_58:\n      mload(0x40)\n      dup1\n      swap2\n      sub\n      swap1\n      return\n        /* \"Project.sol\":532:576  mapping(address => uint256) public investors */\n    tag_9:\n      callvalue\n      dup1\n      iszero\n      tag_59\n      jumpi\n      0x00\n      dup1\n      revert\n    tag_59:\n      pop\n      tag_60\n      0x04\n      dup1\n      calldatasize\n      sub\n      dup2\n      add\n      swap1\n      tag_61\n      swap2\n      swap1\n      tag_45\n      jump\t// in\n    tag_61:\n      tag_62\n      jump\t// in\n    tag_60:\n      mload(0x40)\n      tag_63\n      swap2\n      swap1\n      tag_32\n      jump\t// in\n    tag_63:\n      mload(0x40)\n      dup1\n      swap2\n      sub\n      swap1\n      return\n        /* \"Project.sol\":4271:4737  function toString(bytes memory data) public pure returns (string memory) {... */\n    tag_10:\n      callvalue\n      dup1\n      iszero\n      tag_64\n      jumpi\n      0x00\n      dup1\n      revert\n    tag_64:\n      pop\n      tag_65\n      0x04\n      dup1\n      calldatasize\n      sub\n      dup2\n      add\n      swap1\n      tag_66\n      swap2\n      swap1\n      tag_67\n      jump\t// in\n    tag_66:\n      tag_68\n      jump\t// in\n    tag_65:\n      mload(0x40)\n      tag_69\n      swap2\n      swap1\n      tag_48\n      jump\t// in\n    tag_69:\n      mload(0x40)\n      dup1\n      swap2\n      sub\n      swap1\n      return\n        /* \"Project.sol\":382:407  string public description */\n    tag_11:\n      callvalue\n      dup1\n      iszero\n      tag_70\n      jumpi\n      0x00\n      dup1\n      revert\n    tag_70:\n      pop\n      tag_71\n      tag_72\n      jump\t// in\n    tag_71:\n      mload(0x40)\n      tag_73\n      swap2\n      swap1\n      tag_48\n      jump\t// in\n    tag_73:\n      mload(0x40)\n      dup1\n      swap2\n      sub\n      swap1\n      return\n        /* \"Project.sol\":2393:2818  function disApprovePayment(uint256 index) public {... */\n    tag_12:\n      callvalue\n      dup1\n      iszero\n      tag_74\n      jumpi\n      0x00\n      dup1\n      revert\n    tag_74:\n      pop\n      tag_75\n      0x04\n      dup1\n      calldatasize\n      sub\n      dup2\n      add\n      swap1\n      tag_76\n      swap2\n      swap1\n      tag_56\n      jump\t// in\n    tag_76:\n      tag_77\n      jump\t// in\n    tag_75:\n      stop\n        /* \"Project.sol\":583:608  Payment[] public payments */\n    tag_13:\n      callvalue\n      dup1\n      iszero\n      tag_78\n      jumpi\n      0x00\n      dup1\n      revert\n    tag_78:\n      pop\n      tag_79\n      0x04\n      dup1\n      calldatasize\n      sub\n      dup2\n      add\n      swap1\n      tag_80\n      swap2\n      swap1\n      tag_56\n      jump\t// in\n    tag_80:\n      tag_81\n      jump\t// in\n    tag_79:\n      mload(0x40)\n      tag_82\n      swap8\n      swap7\n      swap6\n      swap5\n      swap4\n      swap3\n      swap2\n      swap1\n      tag_83\n      jump\t// in\n    tag_82:\n      mload(0x40)\n      dup1\n      swap2\n      sub\n      swap1\n      return\n        /* \"Project.sol\":356:376  address public owner */\n    tag_14:\n      callvalue\n      dup1\n      iszero\n      tag_84\n      jumpi\n      0x00\n      dup1\n      revert\n    tag_84:\n      pop\n      tag_85\n      tag_86\n      jump\t// in\n    tag_85:\n      mload(0x40)\n      tag_87\n      swap2\n      swap1\n      tag_88\n      jump\t// in\n    tag_87:\n      mload(0x40)\n      dup1\n      swap2\n      sub\n      swap1\n      return\n        /* \"Project.sol\":4139:4265  function toString(bytes32 value) public pure returns (string memory) {... */\n    tag_15:\n      callvalue\n      dup1\n      iszero\n      tag_89\n      jumpi\n      0x00\n      dup1\n      revert\n    tag_89:\n      pop\n      tag_90\n      0x04\n      dup1\n      calldatasize\n      sub\n      dup2\n      add\n      swap1\n      tag_91\n      swap2\n      swap1\n      tag_92\n      jump\t// in\n    tag_91:\n      tag_93\n      jump\t// in\n    tag_90:\n      mload(0x40)\n      tag_94\n      swap2\n      swap1\n      tag_48\n      jump\t// in\n    tag_94:\n      mload(0x40)\n      dup1\n      swap2\n      sub\n      swap1\n      return\n        /* \"Project.sol\":2824:3173  function doPayment(uint256 index) public ownerOnly {... */\n    tag_16:\n      callvalue\n      dup1\n      iszero\n      tag_95\n      jumpi\n      0x00\n      dup1\n      revert\n    tag_95:\n      pop\n      tag_96\n      0x04\n      dup1\n      calldatasize\n      sub\n      dup2\n      add\n      swap1\n      tag_97\n      swap2\n      swap1\n      tag_56\n      jump\t// in\n    tag_97:\n      tag_98\n      jump\t// in\n    tag_96:\n      stop\n        /* \"Project.sol\":1014:1488  function contribute() public payable {... */\n    tag_17:\n      tag_99\n      tag_100\n      jump\t// in\n    tag_99:\n      stop\n        /* \"Project.sol\":498:526  uint256 public investorCount */\n    tag_18:\n      callvalue\n      dup1\n      iszero\n      tag_101\n      jumpi\n      0x00\n      dup1\n      revert\n    tag_101:\n      pop\n      tag_102\n      tag_103\n      jump\t// in\n    tag_102:\n      mload(0x40)\n      tag_104\n      swap2\n      swap1\n      tag_32\n      jump\t// in\n    tag_104:\n      mload(0x40)\n      dup1\n      swap2\n      sub\n      swap1\n      return\n        /* \"Project.sol\":1984:2387  function approvePayment(uint256 index) public {... */\n    tag_19:\n      callvalue\n      dup1\n      iszero\n      tag_105\n      jumpi\n      0x00\n      dup1\n      revert\n    tag_105:\n      pop\n      tag_106\n      0x04\n      dup1\n      calldatasize\n      sub\n      dup2\n      add\n      swap1\n      tag_107\n      swap2\n      swap1\n      tag_56\n      jump\t// in\n    tag_107:\n      tag_108\n      jump\t// in\n    tag_106:\n      stop\n        /* \"Project.sol\":1494:1978  function createPayment(... */\n    tag_27:\n        /* \"Project.sol\":668:673  owner */\n      0x00\n      dup1\n      sload\n      swap1\n      0x0100\n      exp\n      swap1\n      div\n      0xffffffffffffffffffffffffffffffffffffffff\n      and\n        /* \"Project.sol\":654:673  msg.sender == owner */\n      0xffffffffffffffffffffffffffffffffffffffff\n      and\n        /* \"Project.sol\":654:664  msg.sender */\n      caller\n        /* \"Project.sol\":654:673  msg.sender == owner */\n      0xffffffffffffffffffffffffffffffffffffffff\n      and\n      eq\n        /* \"Project.sol\":646:674  require(msg.sender == owner) */\n      tag_110\n      jumpi\n      0x00\n      dup1\n      revert\n    tag_110:\n        /* \"Project.sol\":1646:1667  uint256 paymentsCount */\n      0x00\n        /* \"Project.sol\":1670:1678  payments */\n      0x07\n        /* \"Project.sol\":1670:1685  payments.length */\n      dup1\n      sload\n      swap1\n      pop\n        /* \"Project.sol\":1646:1685  uint256 paymentsCount = payments.length */\n      swap1\n      pop\n        /* \"Project.sol\":1695:1703  payments */\n      0x07\n        /* \"Project.sol\":1695:1710  payments.push() */\n      0x01\n      dup2\n      0x01\n      dup2\n      sload\n      add\n      dup1\n      dup3\n      sstore\n      dup1\n      swap2\n      pop\n      pop\n      sub\n      swap1\n      0x00\n      mstore\n      keccak256(0x00, 0x20)\n      swap1\n      pop\n      pop\n        /* \"Project.sol\":1721:1747  Payment storage newPayment */\n      0x00\n        /* \"Project.sol\":1750:1758  payments */\n      0x07\n        /* \"Project.sol\":1759:1772  paymentsCount */\n      dup3\n        /* \"Project.sol\":1750:1773  payments[paymentsCount] */\n      dup2\n      sload\n      dup2\n      lt\n      tag_113\n      jumpi\n      tag_114\n      tag_115\n      jump\t// in\n    tag_114:\n    tag_113:\n      swap1\n      0x00\n      mstore\n      keccak256(0x00, 0x20)\n      swap1\n      0x06\n      mul\n      add\n        /* \"Project.sol\":1721:1773  Payment storage newPayment = payments[paymentsCount] */\n      swap1\n      pop\n        /* \"Project.sol\":1808:1820  _description */\n      dup5\n        /* \"Project.sol\":1783:1793  newPayment */\n      dup2\n        /* \"Project.sol\":1783:1805  newPayment.description */\n      0x00\n      add\n        /* \"Project.sol\":1783:1820  newPayment.description = _description */\n      swap1\n      dup1\n      mload\n      swap1\n      0x20\n      add\n      swap1\n      tag_117\n      swap3\n      swap2\n      swap1\n      tag_118\n      jump\t// in\n    tag_117:\n      pop\n        /* \"Project.sol\":1850:1857  _amount */\n      dup4\n        /* \"Project.sol\":1830:1840  newPayment */\n      dup2\n        /* \"Project.sol\":1830:1847  newPayment.amount */\n      0x01\n      add\n        /* \"Project.sol\":1830:1857  newPayment.amount = _amount */\n      dup2\n      swap1\n      sstore\n      pop\n        /* \"Project.sol\":1889:1898  _receiver */\n      dup3\n        /* \"Project.sol\":1867:1877  newPayment */\n      dup2\n        /* \"Project.sol\":1867:1886  newPayment.receiver */\n      0x03\n      add\n      0x00\n        /* \"Project.sol\":1867:1898  newPayment.receiver = _receiver */\n      0x0100\n      exp\n      dup2\n      sload\n      dup2\n      0xffffffffffffffffffffffffffffffffffffffff\n      mul\n      not\n      and\n      swap1\n      dup4\n      0xffffffffffffffffffffffffffffffffffffffff\n      and\n      mul\n      or\n      swap1\n      sstore\n      pop\n        /* \"Project.sol\":1931:1936  false */\n      0x00\n        /* \"Project.sol\":1908:1918  newPayment */\n      dup2\n        /* \"Project.sol\":1908:1928  newPayment.completed */\n      0x03\n      add\n      0x14\n        /* \"Project.sol\":1908:1936  newPayment.completed = false */\n      0x0100\n      exp\n      dup2\n      sload\n      dup2\n      0xff\n      mul\n      not\n      and\n      swap1\n      dup4\n      iszero\n      iszero\n      mul\n      or\n      swap1\n      sstore\n      pop\n        /* \"Project.sol\":1970:1971  0 */\n      0x00\n        /* \"Project.sol\":1946:1956  newPayment */\n      dup2\n        /* \"Project.sol\":1946:1967  newPayment.voterCount */\n      0x02\n      add\n        /* \"Project.sol\":1946:1971  newPayment.voterCount = 0 */\n      dup2\n      swap1\n      sstore\n      pop\n        /* \"Project.sol\":1636:1978  {... */\n      pop\n      pop\n        /* \"Project.sol\":1494:1978  function createPayment(... */\n      pop\n      pop\n      pop\n      jump\t// out\n        /* \"Project.sol\":443:467  uint256 public maxInvest */\n    tag_30:\n      sload(0x03)\n      dup2\n      jump\t// out\n        /* \"Project.sol\":473:492  uint256 public goal */\n    tag_35:\n      sload(0x04)\n      dup2\n      jump\t// out\n        /* \"Project.sol\":3179:3667  function getSummary()... */\n    tag_39:\n        /* \"Project.sol\":3259:3272  string memory */\n      0x60\n        /* \"Project.sol\":3286:3293  uint256 */\n      0x00\n        /* \"Project.sol\":3307:3314  uint256 */\n      dup1\n        /* \"Project.sol\":3328:3335  uint256 */\n      0x00\n        /* \"Project.sol\":3349:3356  uint256 */\n      dup1\n        /* \"Project.sol\":3370:3377  uint256 */\n      0x00\n        /* \"Project.sol\":3391:3398  uint256 */\n      dup1\n        /* \"Project.sol\":3412:3419  address */\n      0x00\n        /* \"Project.sol\":3465:3476  description */\n      0x01\n        /* \"Project.sol\":3490:3499  minInvest */\n      sload(0x02)\n        /* \"Project.sol\":3513:3522  maxInvest */\n      sload(0x03)\n        /* \"Project.sol\":3536:3540  goal */\n      sload(0x04)\n        /* \"Project.sol\":3554:3575  address(this).balance */\n      selfbalance\n        /* \"Project.sol\":3589:3602  investorCount */\n      sload(0x05)\n        /* \"Project.sol\":3616:3624  payments */\n      0x07\n        /* \"Project.sol\":3616:3631  payments.length */\n      dup1\n      sload\n      swap1\n      pop\n        /* \"Project.sol\":3645:3650  owner */\n      0x00\n      dup1\n      sload\n      swap1\n      0x0100\n      exp\n      swap1\n      div\n      0xffffffffffffffffffffffffffffffffffffffff\n      and\n        /* \"Project.sol\":3444:3660  return (... */\n      dup8\n      dup1\n      sload\n      tag_120\n      swap1\n      tag_121\n      jump\t// in\n    tag_120:\n      dup1\n      0x1f\n      add\n      0x20\n      dup1\n      swap2\n      div\n      mul\n      0x20\n      add\n      mload(0x40)\n      swap1\n      dup2\n      add\n      0x40\n      mstore\n      dup1\n      swap3\n      swap2\n      swap1\n      dup2\n      dup2\n      mstore\n      0x20\n      add\n      dup3\n      dup1\n      sload\n      tag_122\n      swap1\n      tag_121\n      jump\t// in\n    tag_122:\n      dup1\n      iszero\n      tag_123\n      jumpi\n      dup1\n      0x1f\n      lt\n      tag_124\n      jumpi\n      0x0100\n      dup1\n      dup4\n      sload\n      div\n      mul\n      dup4\n      mstore\n      swap2\n      0x20\n      add\n      swap2\n      jump(tag_123)\n    tag_124:\n      dup3\n      add\n      swap2\n      swap1\n      0x00\n      mstore\n      keccak256(0x00, 0x20)\n      swap1\n    tag_125:\n      dup2\n      sload\n      dup2\n      mstore\n      swap1\n      0x01\n      add\n      swap1\n      0x20\n      add\n      dup1\n      dup4\n      gt\n      tag_125\n      jumpi\n      dup3\n      swap1\n      sub\n      0x1f\n      and\n      dup3\n      add\n      swap2\n    tag_123:\n      pop\n      pop\n      pop\n      pop\n      pop\n      swap8\n      pop\n      swap8\n      pop\n      swap8\n      pop\n      swap8\n      pop\n      swap8\n      pop\n      swap8\n      pop\n      swap8\n      pop\n      swap8\n      pop\n      swap8\n      pop\n        /* \"Project.sol\":3179:3667  function getSummary()... */\n      swap1\n      swap2\n      swap3\n      swap4\n      swap5\n      swap6\n      swap7\n      swap8\n      jump\t// out\n        /* \"Project.sol\":3871:4001  function toString(address account) public pure returns (string memory) {... */\n    tag_46:\n        /* \"Project.sol\":3927:3940  string memory */\n      0x60\n        /* \"Project.sol\":3959:3994  toString(abi.encodePacked(account)) */\n      tag_127\n        /* \"Project.sol\":3985:3992  account */\n      dup3\n        /* \"Project.sol\":3968:3993  abi.encodePacked(account) */\n      add(0x20, mload(0x40))\n      tag_128\n      swap2\n      swap1\n      tag_129\n      jump\t// in\n    tag_128:\n      mload(0x40)\n      0x20\n      dup2\n      dup4\n      sub\n      sub\n      dup2\n      mstore\n      swap1\n      0x40\n      mstore\n        /* \"Project.sol\":3959:3967  toString */\n      tag_68\n        /* \"Project.sol\":3959:3994  toString(abi.encodePacked(account)) */\n      jump\t// in\n    tag_127:\n        /* \"Project.sol\":3952:3994  return toString(abi.encodePacked(account)) */\n      swap1\n      pop\n        /* \"Project.sol\":3871:4001  function toString(address account) public pure returns (string memory) {... */\n      swap2\n      swap1\n      pop\n      jump\t// out\n        /* \"Project.sol\":413:437  uint256 public minInvest */\n    tag_51:\n      sload(0x02)\n      dup2\n      jump\t// out\n        /* \"Project.sol\":4007:4133  function toString(uint256 value) public pure returns (string memory) {... */\n    tag_57:\n        /* \"Project.sol\":4061:4074  string memory */\n      0x60\n        /* \"Project.sol\":4093:4126  toString(abi.encodePacked(value)) */\n      tag_131\n        /* \"Project.sol\":4119:4124  value */\n      dup3\n        /* \"Project.sol\":4102:4125  abi.encodePacked(value) */\n      add(0x20, mload(0x40))\n      tag_132\n      swap2\n      swap1\n      tag_133\n      jump\t// in\n    tag_132:\n      mload(0x40)\n      0x20\n      dup2\n      dup4\n      sub\n      sub\n      dup2\n      mstore\n      swap1\n      0x40\n      mstore\n        /* \"Project.sol\":4093:4101  toString */\n      tag_68\n        /* \"Project.sol\":4093:4126  toString(abi.encodePacked(value)) */\n      jump\t// in\n    tag_131:\n        /* \"Project.sol\":4086:4126  return toString(abi.encodePacked(value)) */\n      swap1\n      pop\n        /* \"Project.sol\":4007:4133  function toString(uint256 value) public pure returns (string memory) {... */\n      swap2\n      swap1\n      pop\n      jump\t// out\n        /* \"Project.sol\":532:576  mapping(address => uint256) public investors */\n    tag_62:\n      mstore(0x20, 0x06)\n      dup1\n      0x00\n      mstore\n      keccak256(0x00, 0x40)\n      0x00\n      swap2\n      pop\n      swap1\n      pop\n      sload\n      dup2\n      jump\t// out\n        /* \"Project.sol\":4271:4737  function toString(bytes memory data) public pure returns (string memory) {... */\n    tag_68:\n        /* \"Project.sol\":4329:4342  string memory */\n      0x60\n        /* \"Project.sol\":4354:4375  bytes memory alphabet */\n      0x00\n        /* \"Project.sol\":4354:4396  bytes memory alphabet = \"0123456789abcdef\" */\n      mload(0x40)\n      dup1\n      0x40\n      add\n      0x40\n      mstore\n      dup1\n      0x10\n      dup2\n      mstore\n      0x20\n      add\n      0x3031323334353637383961626364656600000000000000000000000000000000\n      dup2\n      mstore\n      pop\n      swap1\n      pop\n        /* \"Project.sol\":4407:4423  bytes memory str */\n      0x00\n        /* \"Project.sol\":4454:4455  2 */\n      0x02\n        /* \"Project.sol\":4440:4444  data */\n      dup5\n        /* \"Project.sol\":4440:4451  data.length */\n      mload\n        /* \"Project.sol\":4440:4455  data.length * 2 */\n      tag_135\n      swap2\n      swap1\n      tag_136\n      jump\t// in\n    tag_135:\n        /* \"Project.sol\":4436:4437  2 */\n      0x02\n        /* \"Project.sol\":4436:4455  2 + data.length * 2 */\n      tag_137\n      swap2\n      swap1\n      tag_138\n      jump\t// in\n    tag_137:\n        /* \"Project.sol\":4426:4456  new bytes(2 + data.length * 2) */\n      0xffffffffffffffff\n      dup2\n      gt\n      iszero\n      tag_139\n      jumpi\n      tag_140\n      tag_141\n      jump\t// in\n    tag_140:\n    tag_139:\n      mload(0x40)\n      swap1\n      dup1\n      dup3\n      mstore\n      dup1\n      0x1f\n      add\n      not(0x1f)\n      and\n      0x20\n      add\n      dup3\n      add\n      0x40\n      mstore\n      dup1\n      iszero\n      tag_142\n      jumpi\n      dup2\n      0x20\n      add\n      0x01\n      dup3\n      mul\n      dup1\n      calldatasize\n      dup4\n      calldatacopy\n      dup1\n      dup3\n      add\n      swap2\n      pop\n      pop\n      swap1\n      pop\n    tag_142:\n      pop\n        /* \"Project.sol\":4407:4456  bytes memory str = new bytes(2 + data.length * 2) */\n      swap1\n      pop\n        /* \"Project.sol\":4466:4478  str[0] = \"0\" */\n      0x3000000000000000000000000000000000000000000000000000000000000000\n        /* \"Project.sol\":4466:4469  str */\n      dup2\n        /* \"Project.sol\":4470:4471  0 */\n      0x00\n        /* \"Project.sol\":4466:4472  str[0] */\n      dup2\n      mload\n      dup2\n      lt\n      tag_143\n      jumpi\n      tag_144\n      tag_115\n      jump\t// in\n    tag_144:\n    tag_143:\n      0x20\n      add\n      add\n        /* \"Project.sol\":4466:4478  str[0] = \"0\" */\n      swap1\n      not(0xffffffffffffffffffffffffffffffffffffffffffffffffffffffffffffff)\n      and\n      swap1\n      dup2\n      0x00\n      byte\n      swap1\n      mstore8\n      pop\n        /* \"Project.sol\":4488:4500  str[1] = \"x\" */\n      0x7800000000000000000000000000000000000000000000000000000000000000\n        /* \"Project.sol\":4488:4491  str */\n      dup2\n        /* \"Project.sol\":4492:4493  1 */\n      0x01\n        /* \"Project.sol\":4488:4494  str[1] */\n      dup2\n      mload\n      dup2\n      lt\n      tag_145\n      jumpi\n      tag_146\n      tag_115\n      jump\t// in\n    tag_146:\n    tag_145:\n      0x20\n      add\n      add\n        /* \"Project.sol\":4488:4500  str[1] = \"x\" */\n      swap1\n      not(0xffffffffffffffffffffffffffffffffffffffffffffffffffffffffffffff)\n      and\n      swap1\n      dup2\n      0x00\n      byte\n      swap1\n      mstore8\n      pop\n        /* \"Project.sol\":4515:4524  uint256 i */\n      0x00\n        /* \"Project.sol\":4510:4703  for (uint256 i = 0; i < data.length; i++) {... */\n    tag_147:\n        /* \"Project.sol\":4534:4538  data */\n      dup5\n        /* \"Project.sol\":4534:4545  data.length */\n      mload\n        /* \"Project.sol\":4530:4531  i */\n      dup2\n        /* \"Project.sol\":4530:4545  i < data.length */\n      lt\n        /* \"Project.sol\":4510:4703  for (uint256 i = 0; i < data.length; i++) {... */\n      iszero\n      tag_148\n      jumpi\n        /* \"Project.sol\":4583:4591  alphabet */\n      dup3\n        /* \"Project.sol\":4617:4618  4 */\n      0x04\n        /* \"Project.sol\":4606:4610  data */\n      dup7\n        /* \"Project.sol\":4611:4612  i */\n      dup4\n        /* \"Project.sol\":4606:4613  data[i] */\n      dup2\n      mload\n      dup2\n      lt\n      tag_150\n      jumpi\n      tag_151\n      tag_115\n      jump\t// in\n    tag_151:\n    tag_150:\n      0x20\n      add\n      add\n      mload\n      0xf8\n      shr\n      0xf8\n      shl\n        /* \"Project.sol\":4606:4618  data[i] >> 4 */\n      not(0xffffffffffffffffffffffffffffffffffffffffffffffffffffffffffffff)\n      and\n      swap1\n      shr\n        /* \"Project.sol\":4600:4619  uint8(data[i] >> 4) */\n      0xf8\n      shr\n        /* \"Project.sol\":4592:4620  uint256(uint8(data[i] >> 4)) */\n      0xff\n      and\n        /* \"Project.sol\":4583:4621  alphabet[uint256(uint8(data[i] >> 4))] */\n      dup2\n      mload\n      dup2\n      lt\n      tag_152\n      jumpi\n      tag_153\n      tag_115\n      jump\t// in\n    tag_153:\n    tag_152:\n      0x20\n      add\n      add\n      mload\n      0xf8\n      shr\n      0xf8\n      shl\n        /* \"Project.sol\":4566:4569  str */\n      dup3\n        /* \"Project.sol\":4578:4579  2 */\n      0x02\n        /* \"Project.sol\":4574:4575  i */\n      dup4\n        /* \"Project.sol\":4574:4579  i * 2 */\n      tag_154\n      swap2\n      swap1\n      tag_136\n      jump\t// in\n    tag_154:\n        /* \"Project.sol\":4570:4571  2 */\n      0x02\n        /* \"Project.sol\":4570:4579  2 + i * 2 */\n      tag_155\n      swap2\n      swap1\n      tag_138\n      jump\t// in\n    tag_155:\n        /* \"Project.sol\":4566:4580  str[2 + i * 2] */\n      dup2\n      mload\n      dup2\n      lt\n      tag_156\n      jumpi\n      tag_157\n      tag_115\n      jump\t// in\n    tag_157:\n    tag_156:\n      0x20\n      add\n      add\n        /* \"Project.sol\":4566:4621  str[2 + i * 2] = alphabet[uint256(uint8(data[i] >> 4))] */\n      swap1\n      not(0xffffffffffffffffffffffffffffffffffffffffffffffffffffffffffffff)\n      and\n      swap1\n      dup2\n      0x00\n      byte\n      swap1\n      mstore8\n      pop\n        /* \"Project.sol\":4652:4660  alphabet */\n      dup3\n        /* \"Project.sol\":4685:4689  0x0f */\n      0x0f\n        /* \"Project.sol\":4675:4689  data[i] & 0x0f */\n      0xf8\n      shl\n        /* \"Project.sol\":4675:4679  data */\n      dup7\n        /* \"Project.sol\":4680:4681  i */\n      dup4\n        /* \"Project.sol\":4675:4682  data[i] */\n      dup2\n      mload\n      dup2\n      lt\n      tag_158\n      jumpi\n      tag_159\n      tag_115\n      jump\t// in\n    tag_159:\n    tag_158:\n      0x20\n      add\n      add\n      mload\n      0xf8\n      shr\n      0xf8\n      shl\n        /* \"Project.sol\":4675:4689  data[i] & 0x0f */\n      and\n        /* \"Project.sol\":4669:4690  uint8(data[i] & 0x0f) */\n      0xf8\n      shr\n        /* \"Project.sol\":4661:4691  uint256(uint8(data[i] & 0x0f)) */\n      0xff\n      and\n        /* \"Project.sol\":4652:4692  alphabet[uint256(uint8(data[i] & 0x0f))] */\n      dup2\n      mload\n      dup2\n      lt\n      tag_160\n      jumpi\n      tag_161\n      tag_115\n      jump\t// in\n    tag_161:\n    tag_160:\n      0x20\n      add\n      add\n      mload\n      0xf8\n      shr\n      0xf8\n      shl\n        /* \"Project.sol\":4635:4638  str */\n      dup3\n        /* \"Project.sol\":4647:4648  2 */\n      0x02\n        /* \"Project.sol\":4643:4644  i */\n      dup4\n        /* \"Project.sol\":4643:4648  i * 2 */\n      tag_162\n      swap2\n      swap1\n      tag_136\n      jump\t// in\n    tag_162:\n        /* \"Project.sol\":4639:4640  3 */\n      0x03\n        /* \"Project.sol\":4639:4648  3 + i * 2 */\n      tag_163\n      swap2\n      swap1\n      tag_138\n      jump\t// in\n    tag_163:\n        /* \"Project.sol\":4635:4649  str[3 + i * 2] */\n      dup2\n      mload\n      dup2\n      lt\n      tag_164\n      jumpi\n      tag_165\n      tag_115\n      jump\t// in\n    tag_165:\n    tag_164:\n      0x20\n      add\n      add\n        /* \"Project.sol\":4635:4692  str[3 + i * 2] = alphabet[uint256(uint8(data[i] & 0x0f))] */\n      swap1\n      not(0xffffffffffffffffffffffffffffffffffffffffffffffffffffffffffffff)\n      and\n      swap1\n      dup2\n      0x00\n      byte\n      swap1\n      mstore8\n      pop\n        /* \"Project.sol\":4547:4550  i++ */\n      dup1\n      dup1\n      tag_166\n      swap1\n      tag_167\n      jump\t// in\n    tag_166:\n      swap2\n      pop\n      pop\n        /* \"Project.sol\":4510:4703  for (uint256 i = 0; i < data.length; i++) {... */\n      jump(tag_147)\n    tag_148:\n      pop\n        /* \"Project.sol\":4726:4729  str */\n      dup1\n        /* \"Project.sol\":4712:4730  return string(str) */\n      swap3\n      pop\n      pop\n      pop\n        /* \"Project.sol\":4271:4737  function toString(bytes memory data) public pure returns (string memory) {... */\n      swap2\n      swap1\n      pop\n      jump\t// out\n        /* \"Project.sol\":382:407  string public description */\n    tag_72:\n      0x01\n      dup1\n      sload\n      tag_168\n      swap1\n      tag_121\n      jump\t// in\n    tag_168:\n      dup1\n      0x1f\n      add\n      0x20\n      dup1\n      swap2\n      div\n      mul\n      0x20\n      add\n      mload(0x40)\n      swap1\n      dup2\n      add\n      0x40\n      mstore\n      dup1\n      swap3\n      swap2\n      swap1\n      dup2\n      dup2\n      mstore\n      0x20\n      add\n      dup3\n      dup1\n      sload\n      tag_169\n      swap1\n      tag_121\n      jump\t// in\n    tag_169:\n      dup1\n      iszero\n      tag_170\n      jumpi\n      dup1\n      0x1f\n      lt\n      tag_171\n      jumpi\n      0x0100\n      dup1\n      dup4\n      sload\n      div\n      mul\n      dup4\n      mstore\n      swap2\n      0x20\n      add\n      swap2\n      jump(tag_170)\n    tag_171:\n      dup3\n      add\n      swap2\n      swap1\n      0x00\n      mstore\n      keccak256(0x00, 0x20)\n      swap1\n    tag_172:\n      dup2\n      sload\n      dup2\n      mstore\n      swap1\n      0x01\n      add\n      swap1\n      0x20\n      add\n      dup1\n      dup4\n      gt\n      tag_172\n      jumpi\n      dup3\n      swap1\n      sub\n      0x1f\n      and\n      dup3\n      add\n      swap2\n    tag_170:\n      pop\n      pop\n      pop\n      pop\n      pop\n      dup2\n      jump\t// out\n        /* \"Project.sol\":2393:2818  function disApprovePayment(uint256 index) public {... */\n    tag_77:\n        /* \"Project.sol\":2452:2475  Payment storage payment */\n      0x00\n        /* \"Project.sol\":2478:2486  payments */\n      0x07\n        /* \"Project.sol\":2487:2492  index */\n      dup3\n        /* \"Project.sol\":2478:2493  payments[index] */\n      dup2\n      sload\n      dup2\n      lt\n      tag_174\n      jumpi\n      tag_175\n      tag_115\n      jump\t// in\n    tag_175:\n    tag_174:\n      swap1\n      0x00\n      mstore\n      keccak256(0x00, 0x20)\n      swap1\n      0x06\n      mul\n      add\n        /* \"Project.sol\":2452:2493  Payment storage payment = payments[index] */\n      swap1\n      pop\n        /* \"Project.sol\":2572:2573  0 */\n      0x00\n        /* \"Project.sol\":2548:2557  investors */\n      0x06\n        /* \"Project.sol\":2548:2569  investors[msg.sender] */\n      0x00\n        /* \"Project.sol\":2558:2568  msg.sender */\n      caller\n        /* \"Project.sol\":2548:2569  investors[msg.sender] */\n      0xffffffffffffffffffffffffffffffffffffffff\n      and\n      0xffffffffffffffffffffffffffffffffffffffff\n      and\n      dup2\n      mstore\n      0x20\n      add\n      swap1\n      dup2\n      mstore\n      0x20\n      add\n      0x00\n      keccak256\n      sload\n        /* \"Project.sol\":2548:2573  investors[msg.sender] > 0 */\n      gt\n        /* \"Project.sol\":2540:2574  require(investors[msg.sender] > 0) */\n      tag_177\n      jumpi\n      0x00\n      dup1\n      revert\n    tag_177:\n        /* \"Project.sol\":2641:2646  false */\n      0x00\n        /* \"Project.sol\":2620:2646  payment.completed == false */\n      iszero\n      iszero\n        /* \"Project.sol\":2620:2627  payment */\n      dup2\n        /* \"Project.sol\":2620:2637  payment.completed */\n      0x03\n      add\n      0x14\n      swap1\n      sload\n      swap1\n      0x0100\n      exp\n      swap1\n      div\n      0xff\n      and\n        /* \"Project.sol\":2620:2646  payment.completed == false */\n      iszero\n      iszero\n      eq\n        /* \"Project.sol\":2612:2647  require(payment.completed == false) */\n      tag_178\n      jumpi\n      0x00\n      dup1\n      revert\n    tag_178:\n        /* \"Project.sol\":2677:2681  true */\n      0x01\n        /* \"Project.sol\":2657:2664  payment */\n      dup2\n        /* \"Project.sol\":2657:2674  payment.completed */\n      0x03\n      add\n      0x14\n        /* \"Project.sol\":2657:2681  payment.completed = true */\n      0x0100\n      exp\n      dup2\n      sload\n      dup2\n      0xff\n      mul\n      not\n      and\n      swap1\n      dup4\n      iszero\n      iszero\n      mul\n      or\n      swap1\n      sstore\n      pop\n        /* \"Project.sol\":2712:2811  append(... */\n      tag_179\n        /* \"Project.sol\":2732:2739  payment */\n      dup2\n        /* \"Project.sol\":2732:2750  payment.disApprove */\n      0x05\n      add\n        /* \"Project.sol\":2712:2811  append(... */\n      dup1\n      sload\n      tag_180\n      swap1\n      tag_121\n      jump\t// in\n    tag_180:\n      dup1\n      0x1f\n      add\n      0x20\n      dup1\n      swap2\n      div\n      mul\n      0x20\n      add\n      mload(0x40)\n      swap1\n      dup2\n      add\n      0x40\n      mstore\n      dup1\n      swap3\n      swap2\n      swap1\n      dup2\n      dup2\n      mstore\n      0x20\n      add\n      dup3\n      dup1\n      sload\n      tag_181\n      swap1\n      tag_121\n      jump\t// in\n    tag_181:\n      dup1\n      iszero\n      tag_182\n      jumpi\n      dup1\n      0x1f\n      lt\n      tag_183\n      jumpi\n      0x0100\n      dup1\n      dup4\n      sload\n      div\n      mul\n      dup4\n      mstore\n      swap2\n      0x20\n      add\n      swap2\n      jump(tag_182)\n    tag_183:\n      dup3\n      add\n      swap2\n      swap1\n      0x00\n      mstore\n      keccak256(0x00, 0x20)\n      swap1\n    tag_184:\n      dup2\n      sload\n      dup2\n      mstore\n      swap1\n      0x01\n      add\n      swap1\n      0x20\n      add\n      dup1\n      dup4\n      gt\n      tag_184\n      jumpi\n      dup3\n      swap1\n      sub\n      0x1f\n      and\n      dup3\n      add\n      swap2\n    tag_182:\n      pop\n      pop\n      pop\n      pop\n      pop\n      mload(0x40)\n      dup1\n      0x40\n      add\n      0x40\n      mstore\n      dup1\n      0x01\n      dup2\n      mstore\n      0x20\n      add\n      0x2d00000000000000000000000000000000000000000000000000000000000000\n      dup2\n      mstore\n      pop\n        /* \"Project.sol\":2781:2801  toString(msg.sender) */\n      tag_185\n        /* \"Project.sol\":2790:2800  msg.sender */\n      caller\n        /* \"Project.sol\":2781:2789  toString */\n      tag_46\n        /* \"Project.sol\":2781:2801  toString(msg.sender) */\n      jump\t// in\n    tag_185:\n        /* \"Project.sol\":2712:2718  append */\n      tag_186\n        /* \"Project.sol\":2712:2811  append(... */\n      jump\t// in\n    tag_179:\n        /* \"Project.sol\":2691:2698  payment */\n      dup2\n        /* \"Project.sol\":2691:2709  payment.disApprove */\n      0x05\n      add\n        /* \"Project.sol\":2691:2811  payment.disApprove = append(... */\n      swap1\n      dup1\n      mload\n      swap1\n      0x20\n      add\n      swap1\n      tag_187\n      swap3\n      swap2\n      swap1\n      tag_118\n      jump\t// in\n    tag_187:\n      pop\n        /* \"Project.sol\":2442:2818  {... */\n      pop\n        /* \"Project.sol\":2393:2818  function disApprovePayment(uint256 index) public {... */\n      pop\n      jump\t// out\n        /* \"Project.sol\":583:608  Payment[] public payments */\n    tag_81:\n      0x07\n      dup2\n      dup2\n      sload\n      dup2\n      lt\n      tag_188\n      jumpi\n      0x00\n      dup1\n      revert\n    tag_188:\n      swap1\n      0x00\n      mstore\n      keccak256(0x00, 0x20)\n      swap1\n      0x06\n      mul\n      add\n      0x00\n      swap2\n      pop\n      swap1\n      pop\n      dup1\n      0x00\n      add\n      dup1\n      sload\n      tag_190\n      swap1\n      tag_121\n      jump\t// in\n    tag_190:\n      dup1\n      0x1f\n      add\n      0x20\n      dup1\n      swap2\n      div\n      mul\n      0x20\n      add\n      mload(0x40)\n      swap1\n      dup2\n      add\n      0x40\n      mstore\n      dup1\n      swap3\n      swap2\n      swap1\n      dup2\n      dup2\n      mstore\n      0x20\n      add\n      dup3\n      dup1\n      sload\n      tag_191\n      swap1\n      tag_121\n      jump\t// in\n    tag_191:\n      dup1\n      iszero\n      tag_192\n      jumpi\n      dup1\n      0x1f\n      lt\n      tag_193\n      jumpi\n      0x0100\n      dup1\n      dup4\n      sload\n      div\n      mul\n      dup4\n      mstore\n      swap2\n      0x20\n      add\n      swap2\n      jump(tag_192)\n    tag_193:\n      dup3\n      add\n      swap2\n      swap1\n      0x00\n      mstore\n      keccak256(0x00, 0x20)\n      swap1\n    tag_194:\n      dup2\n      sload\n      dup2\n      mstore\n      swap1\n      0x01\n      add\n      swap1\n      0x20\n      add\n      dup1\n      dup4\n      gt\n      tag_194\n      jumpi\n      dup3\n      swap1\n      sub\n      0x1f\n      and\n      dup3\n      add\n      swap2\n    tag_192:\n      pop\n      pop\n      pop\n      pop\n      pop\n      swap1\n      dup1\n      0x01\n      add\n      sload\n      swap1\n      dup1\n      0x02\n      add\n      sload\n      swap1\n      dup1\n      0x03\n      add\n      0x00\n      swap1\n      sload\n      swap1\n      0x0100\n      exp\n      swap1\n      div\n      0xffffffffffffffffffffffffffffffffffffffff\n      and\n      swap1\n      dup1\n      0x03\n      add\n      0x14\n      swap1\n      sload\n      swap1\n      0x0100\n      exp\n      swap1\n      div\n      0xff\n      and\n      swap1\n      dup1\n      0x04\n      add\n      dup1\n      sload\n      tag_195\n      swap1\n      tag_121\n      jump\t// in\n    tag_195:\n      dup1\n      0x1f\n      add\n      0x20\n      dup1\n      swap2\n      div\n      mul\n      0x20\n      add\n      mload(0x40)\n      swap1\n      dup2\n      add\n      0x40\n      mstore\n      dup1\n      swap3\n      swap2\n      swap1\n      dup2\n      dup2\n      mstore\n      0x20\n      add\n      dup3\n      dup1\n      sload\n      tag_196\n      swap1\n      tag_121\n      jump\t// in\n    tag_196:\n      dup1\n      iszero\n      tag_197\n      jumpi\n      dup1\n      0x1f\n      lt\n      tag_198\n      jumpi\n      0x0100\n      dup1\n      dup4\n      sload\n      div\n      mul\n      dup4\n      mstore\n      swap2\n      0x20\n      add\n      swap2\n      jump(tag_197)\n    tag_198:\n      dup3\n      add\n      swap2\n      swap1\n      0x00\n      mstore\n      keccak256(0x00, 0x20)\n      swap1\n    tag_199:\n      dup2\n      sload\n      dup2\n      mstore\n      swap1\n      0x01\n      add\n      swap1\n      0x20\n      add\n      dup1\n      dup4\n      gt\n      tag_199\n      jumpi\n      dup3\n      swap1\n      sub\n      0x1f\n      and\n      dup3\n      add\n      swap2\n    tag_197:\n      pop\n      pop\n      pop\n      pop\n      pop\n      swap1\n      dup1\n      0x05\n      add\n      dup1\n      sload\n      tag_200\n      swap1\n      tag_121\n      jump\t// in\n    tag_200:\n      dup1\n      0x1f\n      add\n      0x20\n      dup1\n      swap2\n      div\n      mul\n      0x20\n      add\n      mload(0x40)\n      swap1\n      dup2\n      add\n      0x40\n      mstore\n      dup1\n      swap3\n      swap2\n      swap1\n      dup2\n      dup2\n      mstore\n      0x20\n      add\n      dup3\n      dup1\n      sload\n      tag_201\n      swap1\n      tag_121\n      jump\t// in\n    tag_201:\n      dup1\n      iszero\n      tag_202\n      jumpi\n      dup1\n      0x1f\n      lt\n      tag_203\n      jumpi\n      0x0100\n      dup1\n      dup4\n      sload\n      div\n      mul\n      dup4\n      mstore\n      swap2\n      0x20\n      add\n      swap2\n      jump(tag_202)\n    tag_203:\n      dup3\n      add\n      swap2\n      swap1\n      0x00\n      mstore\n      keccak256(0x00, 0x20)\n      swap1\n    tag_204:\n      dup2\n      sload\n      dup2\n      mstore\n      swap1\n      0x01\n      add\n      swap1\n      0x20\n      add\n      dup1\n      dup4\n      gt\n      tag_204\n      jumpi\n      dup3\n      swap1\n      sub\n      0x1f\n      and\n      dup3\n      add\n      swap2\n    tag_202:\n      pop\n      pop\n      pop\n      pop\n      pop\n      swap1\n      pop\n      dup8\n      jump\t// out\n        /* \"Project.sol\":356:376  address public owner */\n    tag_86:\n      0x00\n      dup1\n      sload\n      swap1\n      0x0100\n      exp\n      swap1\n      div\n      0xffffffffffffffffffffffffffffffffffffffff\n      and\n      dup2\n      jump\t// out\n        /* \"Project.sol\":4139:4265  function toString(bytes32 value) public pure returns (string memory) {... */\n    tag_93:\n        /* \"Project.sol\":4193:4206  string memory */\n      0x60\n        /* \"Project.sol\":4225:4258  toString(abi.encodePacked(value)) */\n      tag_206\n        /* \"Project.sol\":4251:4256  value */\n      dup3\n        /* \"Project.sol\":4234:4257  abi.encodePacked(value) */\n      add(0x20, mload(0x40))\n      tag_207\n      swap2\n      swap1\n      tag_208\n      jump\t// in\n    tag_207:\n      mload(0x40)\n      0x20\n      dup2\n      dup4\n      sub\n      sub\n      dup2\n      mstore\n      swap1\n      0x40\n      mstore\n        /* \"Project.sol\":4225:4233  toString */\n      tag_68\n        /* \"Project.sol\":4225:4258  toString(abi.encodePacked(value)) */\n      jump\t// in\n    tag_206:\n        /* \"Project.sol\":4218:4258  return toString(abi.encodePacked(value)) */\n      swap1\n      pop\n        /* \"Project.sol\":4139:4265  function toString(bytes32 value) public pure returns (string memory) {... */\n      swap2\n      swap1\n      pop\n      jump\t// out\n        /* \"Project.sol\":2824:3173  function doPayment(uint256 index) public ownerOnly {... */\n    tag_98:\n        /* \"Project.sol\":668:673  owner */\n      0x00\n      dup1\n      sload\n      swap1\n      0x0100\n      exp\n      swap1\n      div\n      0xffffffffffffffffffffffffffffffffffffffff\n      and\n        /* \"Project.sol\":654:673  msg.sender == owner */\n      0xffffffffffffffffffffffffffffffffffffffff\n      and\n        /* \"Project.sol\":654:664  msg.sender */\n      caller\n        /* \"Project.sol\":654:673  msg.sender == owner */\n      0xffffffffffffffffffffffffffffffffffffffff\n      and\n      eq\n        /* \"Project.sol\":646:674  require(msg.sender == owner) */\n      tag_210\n      jumpi\n      0x00\n      dup1\n      revert\n    tag_210:\n        /* \"Project.sol\":2885:2908  Payment storage payment */\n      0x00\n        /* \"Project.sol\":2911:2919  payments */\n      0x07\n        /* \"Project.sol\":2920:2925  index */\n      dup3\n        /* \"Project.sol\":2911:2926  payments[index] */\n      dup2\n      sload\n      dup2\n      lt\n      tag_212\n      jumpi\n      tag_213\n      tag_115\n      jump\t// in\n    tag_213:\n    tag_212:\n      swap1\n      0x00\n      mstore\n      keccak256(0x00, 0x20)\n      swap1\n      0x06\n      mul\n      add\n        /* \"Project.sol\":2885:2926  Payment storage payment = payments[index] */\n      swap1\n      pop\n        /* \"Project.sol\":2945:2952  payment */\n      dup1\n        /* \"Project.sol\":2945:2962  payment.completed */\n      0x03\n      add\n      0x14\n      swap1\n      sload\n      swap1\n      0x0100\n      exp\n      swap1\n      div\n      0xff\n      and\n        /* \"Project.sol\":2937:2963  require(payment.completed) */\n      tag_215\n      jumpi\n      0x00\n      dup1\n      revert\n    tag_215:\n        /* \"Project.sol\":3006:3013  payment */\n      dup1\n        /* \"Project.sol\":3006:3020  payment.amount */\n      0x01\n      add\n      sload\n        /* \"Project.sol\":2981:3002  address(this).balance */\n      selfbalance\n        /* \"Project.sol\":2981:3020  address(this).balance >= payment.amount */\n      lt\n      iszero\n        /* \"Project.sol\":2973:3021  require(address(this).balance >= payment.amount) */\n      tag_216\n      jumpi\n      0x00\n      dup1\n      revert\n    tag_216:\n        /* \"Project.sol\":3077:3078  2 */\n      0x02\n        /* \"Project.sol\":3061:3074  investorCount */\n      sload(0x05)\n        /* \"Project.sol\":3061:3078  investorCount / 2 */\n      tag_217\n      swap2\n      swap1\n      tag_218\n      jump\t// in\n    tag_217:\n        /* \"Project.sol\":3039:3046  payment */\n      dup2\n        /* \"Project.sol\":3039:3057  payment.voterCount */\n      0x02\n      add\n      sload\n        /* \"Project.sol\":3039:3079  payment.voterCount > (investorCount / 2) */\n      gt\n        /* \"Project.sol\":3031:3080  require(payment.voterCount > (investorCount / 2)) */\n      tag_219\n      jumpi\n      0x00\n      dup1\n      revert\n    tag_219:\n        /* \"Project.sol\":3091:3098  payment */\n      dup1\n        /* \"Project.sol\":3091:3107  payment.receiver */\n      0x03\n      add\n      0x00\n      swap1\n      sload\n      swap1\n      0x0100\n      exp\n      swap1\n      div\n      0xffffffffffffffffffffffffffffffffffffffff\n      and\n        /* \"Project.sol\":3091:3116  payment.receiver.transfer */\n      0xffffffffffffffffffffffffffffffffffffffff\n      and\n        /* \"Project.sol\":3091:3132  payment.receiver.transfer(payment.amount) */\n      0x08fc\n        /* \"Project.sol\":3117:3124  payment */\n      dup3\n        /* \"Project.sol\":3117:3131  payment.amount */\n      0x01\n      add\n      sload\n        /* \"Project.sol\":3091:3132  payment.receiver.transfer(payment.amount) */\n      swap1\n      dup2\n      iszero\n      mul\n      swap1\n      mload(0x40)\n      0x00\n      mload(0x40)\n      dup1\n      dup4\n      sub\n      dup2\n      dup6\n      dup9\n      dup9\n      call\n      swap4\n      pop\n      pop\n      pop\n      pop\n      iszero\n      dup1\n      iszero\n      tag_221\n      jumpi\n      returndatasize\n      0x00\n      dup1\n      returndatacopy\n      revert(0x00, returndatasize)\n    tag_221:\n      pop\n        /* \"Project.sol\":3162:3166  true */\n      0x01\n        /* \"Project.sol\":3142:3149  payment */\n      dup2\n        /* \"Project.sol\":3142:3159  payment.completed */\n      0x03\n      add\n      0x14\n        /* \"Project.sol\":3142:3166  payment.completed = true */\n      0x0100\n      exp\n      dup2\n      sload\n      dup2\n      0xff\n      mul\n      not\n      and\n      swap1\n      dup4\n      iszero\n      iszero\n      mul\n      or\n      swap1\n      sstore\n      pop\n        /* \"Project.sol\":2875:3173  {... */\n      pop\n        /* \"Project.sol\":2824:3173  function doPayment(uint256 index) public ownerOnly {... */\n      pop\n      jump\t// out\n        /* \"Project.sol\":1014:1488  function contribute() public payable {... */\n    tag_100:\n        /* \"Project.sol\":1082:1091  minInvest */\n      sload(0x02)\n        /* \"Project.sol\":1069:1078  msg.value */\n      callvalue\n        /* \"Project.sol\":1069:1091  msg.value >= minInvest */\n      lt\n      iszero\n        /* \"Project.sol\":1061:1092  require(msg.value >= minInvest) */\n      tag_223\n      jumpi\n      0x00\n      dup1\n      revert\n    tag_223:\n        /* \"Project.sol\":1123:1132  maxInvest */\n      sload(0x03)\n        /* \"Project.sol\":1110:1119  msg.value */\n      callvalue\n        /* \"Project.sol\":1110:1132  msg.value <= maxInvest */\n      gt\n      iszero\n        /* \"Project.sol\":1102:1133  require(msg.value <= maxInvest) */\n      tag_224\n      jumpi\n      0x00\n      dup1\n      revert\n    tag_224:\n        /* \"Project.sol\":1144:1162  uint256 newBalance */\n      0x00\n        /* \"Project.sol\":1189:1225  address(this).balance.add(msg.value) */\n      tag_225\n        /* \"Project.sol\":1215:1224  msg.value */\n      callvalue\n        /* \"Project.sol\":1189:1210  address(this).balance */\n      selfbalance\n        /* \"Project.sol\":1189:1214  address(this).balance.add */\n      tag_226\n      swap1\n        /* \"Project.sol\":1189:1225  address(this).balance.add(msg.value) */\n      swap2\n      swap1\n      0xffffffff\n      and\n      jump\t// in\n    tag_225:\n        /* \"Project.sol\":1176:1225  newBalance = address(this).balance.add(msg.value) */\n      swap1\n      pop\n        /* \"Project.sol\":1257:1261  goal */\n      sload(0x04)\n        /* \"Project.sol\":1243:1253  newBalance */\n      dup2\n        /* \"Project.sol\":1243:1261  newBalance <= goal */\n      gt\n      iszero\n        /* \"Project.sol\":1235:1262  require(newBalance <= goal) */\n      tag_227\n      jumpi\n      0x00\n      dup1\n      revert\n    tag_227:\n        /* \"Project.sol\":1301:1302  0 */\n      0x00\n        /* \"Project.sol\":1277:1286  investors */\n      0x06\n        /* \"Project.sol\":1277:1298  investors[msg.sender] */\n      0x00\n        /* \"Project.sol\":1287:1297  msg.sender */\n      caller\n        /* \"Project.sol\":1277:1298  investors[msg.sender] */\n      0xffffffffffffffffffffffffffffffffffffffff\n      and\n      0xffffffffffffffffffffffffffffffffffffffff\n      and\n      dup2\n      mstore\n      0x20\n      add\n      swap1\n      dup2\n      mstore\n      0x20\n      add\n      0x00\n      keccak256\n      sload\n        /* \"Project.sol\":1277:1302  investors[msg.sender] > 0 */\n      gt\n        /* \"Project.sol\":1273:1482  if (investors[msg.sender] > 0) {... */\n      iszero\n      tag_228\n      jumpi\n        /* \"Project.sol\":1366:1375  msg.value */\n      callvalue\n        /* \"Project.sol\":1342:1351  investors */\n      0x06\n        /* \"Project.sol\":1342:1363  investors[msg.sender] */\n      0x00\n        /* \"Project.sol\":1352:1362  msg.sender */\n      caller\n        /* \"Project.sol\":1342:1363  investors[msg.sender] */\n      0xffffffffffffffffffffffffffffffffffffffff\n      and\n      0xffffffffffffffffffffffffffffffffffffffff\n      and\n      dup2\n      mstore\n      0x20\n      add\n      swap1\n      dup2\n      mstore\n      0x20\n      add\n      0x00\n      keccak256\n      sload\n        /* \"Project.sol\":1342:1375  investors[msg.sender] + msg.value */\n      tag_229\n      swap2\n      swap1\n      tag_138\n      jump\t// in\n    tag_229:\n        /* \"Project.sol\":1318:1327  investors */\n      0x06\n        /* \"Project.sol\":1318:1339  investors[msg.sender] */\n      0x00\n        /* \"Project.sol\":1328:1338  msg.sender */\n      caller\n        /* \"Project.sol\":1318:1339  investors[msg.sender] */\n      0xffffffffffffffffffffffffffffffffffffffff\n      and\n      0xffffffffffffffffffffffffffffffffffffffff\n      and\n      dup2\n      mstore\n      0x20\n      add\n      swap1\n      dup2\n      mstore\n      0x20\n      add\n      0x00\n      keccak256\n        /* \"Project.sol\":1318:1375  investors[msg.sender] = investors[msg.sender] + msg.value */\n      dup2\n      swap1\n      sstore\n      pop\n        /* \"Project.sol\":1273:1482  if (investors[msg.sender] > 0) {... */\n      jump(tag_230)\n    tag_228:\n        /* \"Project.sol\":1430:1439  msg.value */\n      callvalue\n        /* \"Project.sol\":1406:1415  investors */\n      0x06\n        /* \"Project.sol\":1406:1427  investors[msg.sender] */\n      0x00\n        /* \"Project.sol\":1416:1426  msg.sender */\n      caller\n        /* \"Project.sol\":1406:1427  investors[msg.sender] */\n      0xffffffffffffffffffffffffffffffffffffffff\n      and\n      0xffffffffffffffffffffffffffffffffffffffff\n      and\n      dup2\n      mstore\n      0x20\n      add\n      swap1\n      dup2\n      mstore\n      0x20\n      add\n      0x00\n      keccak256\n        /* \"Project.sol\":1406:1439  investors[msg.sender] = msg.value */\n      dup2\n      swap1\n      sstore\n      pop\n        /* \"Project.sol\":1470:1471  1 */\n      0x01\n        /* \"Project.sol\":1453:1466  investorCount */\n      0x05\n      0x00\n        /* \"Project.sol\":1453:1471  investorCount += 1 */\n      dup3\n      dup3\n      sload\n      tag_231\n      swap2\n      swap1\n      tag_138\n      jump\t// in\n    tag_231:\n      swap3\n      pop\n      pop\n      dup2\n      swap1\n      sstore\n      pop\n        /* \"Project.sol\":1273:1482  if (investors[msg.sender] > 0) {... */\n    tag_230:\n        /* \"Project.sol\":1051:1488  {... */\n      pop\n        /* \"Project.sol\":1014:1488  function contribute() public payable {... */\n      jump\t// out\n        /* \"Project.sol\":498:526  uint256 public investorCount */\n    tag_103:\n      sload(0x05)\n      dup2\n      jump\t// out\n        /* \"Project.sol\":1984:2387  function approvePayment(uint256 index) public {... */\n    tag_108:\n        /* \"Project.sol\":2040:2063  Payment storage payment */\n      0x00\n        /* \"Project.sol\":2066:2074  payments */\n      0x07\n        /* \"Project.sol\":2075:2080  index */\n      dup3\n        /* \"Project.sol\":2066:2081  payments[index] */\n      dup2\n      sload\n      dup2\n      lt\n      tag_233\n      jumpi\n      tag_234\n      tag_115\n      jump\t// in\n    tag_234:\n    tag_233:\n      swap1\n      0x00\n      mstore\n      keccak256(0x00, 0x20)\n      swap1\n      0x06\n      mul\n      add\n        /* \"Project.sol\":2040:2081  Payment storage payment = payments[index] */\n      swap1\n      pop\n        /* \"Project.sol\":2160:2161  0 */\n      0x00\n        /* \"Project.sol\":2136:2145  investors */\n      0x06\n        /* \"Project.sol\":2136:2157  investors[msg.sender] */\n      0x00\n        /* \"Project.sol\":2146:2156  msg.sender */\n      caller\n        /* \"Project.sol\":2136:2157  investors[msg.sender] */\n      0xffffffffffffffffffffffffffffffffffffffff\n      and\n      0xffffffffffffffffffffffffffffffffffffffff\n      and\n      dup2\n      mstore\n      0x20\n      add\n      swap1\n      dup2\n      mstore\n      0x20\n      add\n      0x00\n      keccak256\n      sload\n        /* \"Project.sol\":2136:2161  investors[msg.sender] > 0 */\n      gt\n        /* \"Project.sol\":2128:2162  require(investors[msg.sender] > 0) */\n      tag_236\n      jumpi\n      0x00\n      dup1\n      revert\n    tag_236:\n        /* \"Project.sol\":2229:2234  false */\n      0x00\n        /* \"Project.sol\":2208:2234  payment.completed == false */\n      iszero\n      iszero\n        /* \"Project.sol\":2208:2215  payment */\n      dup2\n        /* \"Project.sol\":2208:2225  payment.completed */\n      0x03\n      add\n      0x14\n      swap1\n      sload\n      swap1\n      0x0100\n      exp\n      swap1\n      div\n      0xff\n      and\n        /* \"Project.sol\":2208:2234  payment.completed == false */\n      iszero\n      iszero\n      eq\n        /* \"Project.sol\":2200:2235  require(payment.completed == false) */\n      tag_237\n      jumpi\n      0x00\n      dup1\n      revert\n    tag_237:\n        /* \"Project.sol\":2265:2269  true */\n      0x01\n        /* \"Project.sol\":2245:2252  payment */\n      dup2\n        /* \"Project.sol\":2245:2262  payment.completed */\n      0x03\n      add\n      0x14\n        /* \"Project.sol\":2245:2269  payment.completed = true */\n      0x0100\n      exp\n      dup2\n      sload\n      dup2\n      0xff\n      mul\n      not\n      and\n      swap1\n      dup4\n      iszero\n      iszero\n      mul\n      or\n      swap1\n      sstore\n      pop\n        /* \"Project.sol\":2301:2302  1 */\n      0x01\n        /* \"Project.sol\":2279:2286  payment */\n      dup2\n        /* \"Project.sol\":2279:2297  payment.voterCount */\n      0x02\n      add\n      0x00\n        /* \"Project.sol\":2279:2302  payment.voterCount += 1 */\n      dup3\n      dup3\n      sload\n      tag_238\n      swap2\n      swap1\n      tag_138\n      jump\t// in\n    tag_238:\n      swap3\n      pop\n      pop\n      dup2\n      swap1\n      sstore\n      pop\n        /* \"Project.sol\":2330:2380  append(payment.approve, \"-\", toString(msg.sender)) */\n      tag_239\n        /* \"Project.sol\":2337:2344  payment */\n      dup2\n        /* \"Project.sol\":2337:2352  payment.approve */\n      0x04\n      add\n        /* \"Project.sol\":2330:2380  append(payment.approve, \"-\", toString(msg.sender)) */\n      dup1\n      sload\n      tag_240\n      swap1\n      tag_121\n      jump\t// in\n    tag_240:\n      dup1\n      0x1f\n      add\n      0x20\n      dup1\n      swap2\n      div\n      mul\n      0x20\n      add\n      mload(0x40)\n      swap1\n      dup2\n      add\n      0x40\n      mstore\n      dup1\n      swap3\n      swap2\n      swap1\n      dup2\n      dup2\n      mstore\n      0x20\n      add\n      dup3\n      dup1\n      sload\n      tag_241\n      swap1\n      tag_121\n      jump\t// in\n    tag_241:\n      dup1\n      iszero\n      tag_242\n      jumpi\n      dup1\n      0x1f\n      lt\n      tag_243\n      jumpi\n      0x0100\n      dup1\n      dup4\n      sload\n      div\n      mul\n      dup4\n      mstore\n      swap2\n      0x20\n      add\n      swap2\n      jump(tag_242)\n    tag_243:\n      dup3\n      add\n      swap2\n      swap1\n      0x00\n      mstore\n      keccak256(0x00, 0x20)\n      swap1\n    tag_244:\n      dup2\n      sload\n      dup2\n      mstore\n      swap1\n      0x01\n      add\n      swap1\n      0x20\n      add\n      dup1\n      dup4\n      gt\n      tag_244\n      jumpi\n      dup3\n      swap1\n      sub\n      0x1f\n      and\n      dup3\n      add\n      swap2\n    tag_242:\n      pop\n      pop\n      pop\n      pop\n      pop\n      mload(0x40)\n      dup1\n      0x40\n      add\n      0x40\n      mstore\n      dup1\n      0x01\n      dup2\n      mstore\n      0x20\n      add\n      0x2d00000000000000000000000000000000000000000000000000000000000000\n      dup2\n      mstore\n      pop\n        /* \"Project.sol\":2359:2379  toString(msg.sender) */\n      tag_245\n        /* \"Project.sol\":2368:2378  msg.sender */\n      caller\n        /* \"Project.sol\":2359:2367  toString */\n      tag_46\n        /* \"Project.sol\":2359:2379  toString(msg.sender) */\n      jump\t// in\n    tag_245:\n        /* \"Project.sol\":2330:2336  append */\n      tag_186\n        /* \"Project.sol\":2330:2380  append(payment.approve, \"-\", toString(msg.sender)) */\n      jump\t// in\n    tag_239:\n        /* \"Project.sol\":2312:2319  payment */\n      dup2\n        /* \"Project.sol\":2312:2327  payment.approve */\n      0x04\n      add\n        /* \"Project.sol\":2312:2380  payment.approve = append(payment.approve, \"-\", toString(msg.sender)) */\n      swap1\n      dup1\n      mload\n      swap1\n      0x20\n      add\n      swap1\n      tag_246\n      swap3\n      swap2\n      swap1\n      tag_118\n      jump\t// in\n    tag_246:\n      pop\n        /* \"Project.sol\":2030:2387  {... */\n      pop\n        /* \"Project.sol\":1984:2387  function approvePayment(uint256 index) public {... */\n      pop\n      jump\t// out\n        /* \"Project.sol\":3673:3865  function append(... */\n    tag_186:\n        /* \"Project.sol\":3793:3806  string memory */\n      0x60\n        /* \"Project.sol\":3849:3850  a */\n      dup4\n        /* \"Project.sol\":3852:3853  b */\n      dup4\n        /* \"Project.sol\":3855:3856  c */\n      dup4\n        /* \"Project.sol\":3832:3857  abi.encodePacked(a, b, c) */\n      add(0x20, mload(0x40))\n      tag_248\n      swap4\n      swap3\n      swap2\n      swap1\n      tag_249\n      jump\t// in\n    tag_248:\n      mload(0x40)\n      0x20\n      dup2\n      dup4\n      sub\n      sub\n      dup2\n      mstore\n      swap1\n      0x40\n      mstore\n        /* \"Project.sol\":3818:3858  return string(abi.encodePacked(a, b, c)) */\n      swap1\n      pop\n        /* \"Project.sol\":3673:3865  function append(... */\n      swap4\n      swap3\n      pop\n      pop\n      pop\n      jump\t// out\n        /* \"SafeMath.sol\":659:802  function add(uint256 a, uint256 b) internal pure returns (uint256) {... */\n    tag_226:\n        /* \"SafeMath.sol\":717:724  uint256 */\n      0x00\n        /* \"SafeMath.sol\":736:745  uint256 c */\n      dup1\n        /* \"SafeMath.sol\":752:753  b */\n      dup3\n        /* \"SafeMath.sol\":748:749  a */\n      dup5\n        /* \"SafeMath.sol\":748:753  a + b */\n      tag_251\n      swap2\n      swap1\n      tag_138\n      jump\t// in\n    tag_251:\n        /* \"SafeMath.sol\":736:753  uint256 c = a + b */\n      swap1\n      pop\n        /* \"SafeMath.sol\":775:776  a */\n      dup4\n        /* \"SafeMath.sol\":770:771  c */\n      dup2\n        /* \"SafeMath.sol\":770:776  c >= a */\n      lt\n      iszero\n        /* \"SafeMath.sol\":763:777  assert(c >= a) */\n      tag_252\n      jumpi\n      tag_253\n      tag_254\n      jump\t// in\n    tag_253:\n    tag_252:\n        /* \"SafeMath.sol\":794:795  c */\n      dup1\n        /* \"SafeMath.sol\":787:795  return c */\n      swap2\n      pop\n      pop\n        /* \"SafeMath.sol\":659:802  function add(uint256 a, uint256 b) internal pure returns (uint256) {... */\n      swap3\n      swap2\n      pop\n      pop\n      jump\t// out\n    tag_118:\n      dup3\n      dup1\n      sload\n      tag_255\n      swap1\n      tag_121\n      jump\t// in\n    tag_255:\n      swap1\n      0x00\n      mstore\n      keccak256(0x00, 0x20)\n      swap1\n      0x1f\n      add\n      0x20\n      swap1\n      div\n      dup2\n      add\n      swap3\n      dup3\n      tag_257\n      jumpi\n      0x00\n      dup6\n      sstore\n      jump(tag_256)\n    tag_257:\n      dup3\n      0x1f\n      lt\n      tag_258\n      jumpi\n      dup1\n      mload\n      not(0xff)\n      and\n      dup4\n      dup1\n      add\n      or\n      dup6\n      sstore\n      jump(tag_256)\n    tag_258:\n      dup3\n      dup1\n      add\n      0x01\n      add\n      dup6\n      sstore\n      dup3\n      iszero\n      tag_256\n      jumpi\n      swap2\n      dup3\n      add\n    tag_259:\n      dup3\n      dup2\n      gt\n      iszero\n      tag_260\n      jumpi\n      dup3\n      mload\n      dup3\n      sstore\n      swap2\n      0x20\n      add\n      swap2\n      swap1\n      0x01\n      add\n      swap1\n      jump(tag_259)\n    tag_260:\n    tag_256:\n      pop\n      swap1\n      pop\n      tag_261\n      swap2\n      swap1\n      tag_262\n      jump\t// in\n    tag_261:\n      pop\n      swap1\n      jump\t// out\n    tag_262:\n    tag_263:\n      dup1\n      dup3\n      gt\n      iszero\n      tag_264\n      jumpi\n      0x00\n      dup2\n      0x00\n      swap1\n      sstore\n      pop\n      0x01\n      add\n      jump(tag_263)\n    tag_264:\n      pop\n      swap1\n      jump\t// out\n        /* \"#utility.yul\":7:82   */\n    tag_265:\n        /* \"#utility.yul\":40:46   */\n      0x00\n        /* \"#utility.yul\":73:75   */\n      0x40\n        /* \"#utility.yul\":67:76   */\n      mload\n        /* \"#utility.yul\":57:76   */\n      swap1\n      pop\n        /* \"#utility.yul\":7:82   */\n      swap1\n      jump\t// out\n        /* \"#utility.yul\":88:205   */\n    tag_266:\n        /* \"#utility.yul\":197:198   */\n      0x00\n        /* \"#utility.yul\":194:195   */\n      dup1\n        /* \"#utility.yul\":187:199   */\n      revert\n        /* \"#utility.yul\":211:328   */\n    tag_267:\n        /* \"#utility.yul\":320:321   */\n      0x00\n        /* \"#utility.yul\":317:318   */\n      dup1\n        /* \"#utility.yul\":310:322   */\n      revert\n        /* \"#utility.yul\":334:451   */\n    tag_268:\n        /* \"#utility.yul\":443:444   */\n      0x00\n        /* \"#utility.yul\":440:441   */\n      dup1\n        /* \"#utility.yul\":433:445   */\n      revert\n        /* \"#utility.yul\":457:574   */\n    tag_269:\n        /* \"#utility.yul\":566:567   */\n      0x00\n        /* \"#utility.yul\":563:564   */\n      dup1\n        /* \"#utility.yul\":556:568   */\n      revert\n        /* \"#utility.yul\":580:682   */\n    tag_270:\n        /* \"#utility.yul\":621:627   */\n      0x00\n        /* \"#utility.yul\":672:674   */\n      0x1f\n        /* \"#utility.yul\":668:675   */\n      not\n        /* \"#utility.yul\":663:665   */\n      0x1f\n        /* \"#utility.yul\":656:661   */\n      dup4\n        /* \"#utility.yul\":652:666   */\n      add\n        /* \"#utility.yul\":648:676   */\n      and\n        /* \"#utility.yul\":638:676   */\n      swap1\n      pop\n        /* \"#utility.yul\":580:682   */\n      swap2\n      swap1\n      pop\n      jump\t// out\n        /* \"#utility.yul\":688:868   */\n    tag_141:\n        /* \"#utility.yul\":736:813   */\n      0x4e487b7100000000000000000000000000000000000000000000000000000000\n        /* \"#utility.yul\":733:734   */\n      0x00\n        /* \"#utility.yul\":726:814   */\n      mstore\n        /* \"#utility.yul\":833:837   */\n      0x41\n        /* \"#utility.yul\":830:831   */\n      0x04\n        /* \"#utility.yul\":823:838   */\n      mstore\n        /* \"#utility.yul\":857:861   */\n      0x24\n        /* \"#utility.yul\":854:855   */\n      0x00\n        /* \"#utility.yul\":847:862   */\n      revert\n        /* \"#utility.yul\":874:1155   */\n    tag_271:\n        /* \"#utility.yul\":957:984   */\n      tag_324\n        /* \"#utility.yul\":979:983   */\n      dup3\n        /* \"#utility.yul\":957:984   */\n      tag_270\n      jump\t// in\n    tag_324:\n        /* \"#utility.yul\":949:955   */\n      dup2\n        /* \"#utility.yul\":945:985   */\n      add\n        /* \"#utility.yul\":1087:1093   */\n      dup2\n        /* \"#utility.yul\":1075:1085   */\n      dup2\n        /* \"#utility.yul\":1072:1094   */\n      lt\n        /* \"#utility.yul\":1051:1069   */\n      0xffffffffffffffff\n        /* \"#utility.yul\":1039:1049   */\n      dup3\n        /* \"#utility.yul\":1036:1070   */\n      gt\n        /* \"#utility.yul\":1033:1095   */\n      or\n        /* \"#utility.yul\":1030:1118   */\n      iszero\n      tag_325\n      jumpi\n        /* \"#utility.yul\":1098:1116   */\n      tag_326\n      tag_141\n      jump\t// in\n    tag_326:\n        /* \"#utility.yul\":1030:1118   */\n    tag_325:\n        /* \"#utility.yul\":1138:1148   */\n      dup1\n        /* \"#utility.yul\":1134:1136   */\n      0x40\n        /* \"#utility.yul\":1127:1149   */\n      mstore\n        /* \"#utility.yul\":917:1155   */\n      pop\n        /* \"#utility.yul\":874:1155   */\n      pop\n      pop\n      jump\t// out\n        /* \"#utility.yul\":1161:1290   */\n    tag_272:\n        /* \"#utility.yul\":1195:1201   */\n      0x00\n        /* \"#utility.yul\":1222:1242   */\n      tag_328\n      tag_265\n      jump\t// in\n    tag_328:\n        /* \"#utility.yul\":1212:1242   */\n      swap1\n      pop\n        /* \"#utility.yul\":1251:1284   */\n      tag_329\n        /* \"#utility.yul\":1279:1283   */\n      dup3\n        /* \"#utility.yul\":1271:1277   */\n      dup3\n        /* \"#utility.yul\":1251:1284   */\n      tag_271\n      jump\t// in\n    tag_329:\n        /* \"#utility.yul\":1161:1290   */\n      swap2\n      swap1\n      pop\n      jump\t// out\n        /* \"#utility.yul\":1296:1604   */\n    tag_273:\n        /* \"#utility.yul\":1358:1362   */\n      0x00\n        /* \"#utility.yul\":1448:1466   */\n      0xffffffffffffffff\n        /* \"#utility.yul\":1440:1446   */\n      dup3\n        /* \"#utility.yul\":1437:1467   */\n      gt\n        /* \"#utility.yul\":1434:1490   */\n      iszero\n      tag_331\n      jumpi\n        /* \"#utility.yul\":1470:1488   */\n      tag_332\n      tag_141\n      jump\t// in\n    tag_332:\n        /* \"#utility.yul\":1434:1490   */\n    tag_331:\n        /* \"#utility.yul\":1508:1537   */\n      tag_333\n        /* \"#utility.yul\":1530:1536   */\n      dup3\n        /* \"#utility.yul\":1508:1537   */\n      tag_270\n      jump\t// in\n    tag_333:\n        /* \"#utility.yul\":1500:1537   */\n      swap1\n      pop\n        /* \"#utility.yul\":1592:1596   */\n      0x20\n        /* \"#utility.yul\":1586:1590   */\n      dup2\n        /* \"#utility.yul\":1582:1597   */\n      add\n        /* \"#utility.yul\":1574:1597   */\n      swap1\n      pop\n        /* \"#utility.yul\":1296:1604   */\n      swap2\n      swap1\n      pop\n      jump\t// out\n        /* \"#utility.yul\":1610:1764   */\n    tag_274:\n        /* \"#utility.yul\":1694:1700   */\n      dup3\n        /* \"#utility.yul\":1689:1692   */\n      dup2\n        /* \"#utility.yul\":1684:1687   */\n      dup4\n        /* \"#utility.yul\":1671:1701   */\n      calldatacopy\n        /* \"#utility.yul\":1756:1757   */\n      0x00\n        /* \"#utility.yul\":1747:1753   */\n      dup4\n        /* \"#utility.yul\":1742:1745   */\n      dup4\n        /* \"#utility.yul\":1738:1754   */\n      add\n        /* \"#utility.yul\":1731:1758   */\n      mstore\n        /* \"#utility.yul\":1610:1764   */\n      pop\n      pop\n      pop\n      jump\t// out\n        /* \"#utility.yul\":1770:2182   */\n    tag_275:\n        /* \"#utility.yul\":1848:1853   */\n      0x00\n        /* \"#utility.yul\":1873:1939   */\n      tag_336\n        /* \"#utility.yul\":1889:1938   */\n      tag_337\n        /* \"#utility.yul\":1931:1937   */\n      dup5\n        /* \"#utility.yul\":1889:1938   */\n      tag_273\n      jump\t// in\n    tag_337:\n        /* \"#utility.yul\":1873:1939   */\n      tag_272\n      jump\t// in\n    tag_336:\n        /* \"#utility.yul\":1864:1939   */\n      swap1\n      pop\n        /* \"#utility.yul\":1962:1968   */\n      dup3\n        /* \"#utility.yul\":1955:1960   */\n      dup2\n        /* \"#utility.yul\":1948:1969   */\n      mstore\n        /* \"#utility.yul\":2000:2004   */\n      0x20\n        /* \"#utility.yul\":1993:1998   */\n      dup2\n        /* \"#utility.yul\":1989:2005   */\n      add\n        /* \"#utility.yul\":2038:2041   */\n      dup5\n        /* \"#utility.yul\":2029:2035   */\n      dup5\n        /* \"#utility.yul\":2024:2027   */\n      dup5\n        /* \"#utility.yul\":2020:2036   */\n      add\n        /* \"#utility.yul\":2017:2042   */\n      gt\n        /* \"#utility.yul\":2014:2126   */\n      iszero\n      tag_338\n      jumpi\n        /* \"#utility.yul\":2045:2124   */\n      tag_339\n      tag_269\n      jump\t// in\n    tag_339:\n        /* \"#utility.yul\":2014:2126   */\n    tag_338:\n        /* \"#utility.yul\":2135:2176   */\n      tag_340\n        /* \"#utility.yul\":2169:2175   */\n      dup5\n        /* \"#utility.yul\":2164:2167   */\n      dup3\n        /* \"#utility.yul\":2159:2162   */\n      dup6\n        /* \"#utility.yul\":2135:2176   */\n      tag_274\n      jump\t// in\n    tag_340:\n        /* \"#utility.yul\":1854:2182   */\n      pop\n        /* \"#utility.yul\":1770:2182   */\n      swap4\n      swap3\n      pop\n      pop\n      pop\n      jump\t// out\n        /* \"#utility.yul\":2202:2542   */\n    tag_276:\n        /* \"#utility.yul\":2258:2263   */\n      0x00\n        /* \"#utility.yul\":2307:2310   */\n      dup3\n        /* \"#utility.yul\":2300:2304   */\n      0x1f\n        /* \"#utility.yul\":2292:2298   */\n      dup4\n        /* \"#utility.yul\":2288:2305   */\n      add\n        /* \"#utility.yul\":2284:2311   */\n      slt\n        /* \"#utility.yul\":2274:2396   */\n      tag_342\n      jumpi\n        /* \"#utility.yul\":2315:2394   */\n      tag_343\n      tag_268\n      jump\t// in\n    tag_343:\n        /* \"#utility.yul\":2274:2396   */\n    tag_342:\n        /* \"#utility.yul\":2432:2438   */\n      dup2\n        /* \"#utility.yul\":2419:2439   */\n      calldataload\n        /* \"#utility.yul\":2457:2536   */\n      tag_344\n        /* \"#utility.yul\":2532:2535   */\n      dup5\n        /* \"#utility.yul\":2524:2530   */\n      dup3\n        /* \"#utility.yul\":2517:2521   */\n      0x20\n        /* \"#utility.yul\":2509:2515   */\n      dup7\n        /* \"#utility.yul\":2505:2522   */\n      add\n        /* \"#utility.yul\":2457:2536   */\n      tag_275\n      jump\t// in\n    tag_344:\n        /* \"#utility.yul\":2448:2536   */\n      swap2\n      pop\n        /* \"#utility.yul\":2264:2542   */\n      pop\n        /* \"#utility.yul\":2202:2542   */\n      swap3\n      swap2\n      pop\n      pop\n      jump\t// out\n        /* \"#utility.yul\":2548:2625   */\n    tag_277:\n        /* \"#utility.yul\":2585:2592   */\n      0x00\n        /* \"#utility.yul\":2614:2619   */\n      dup2\n        /* \"#utility.yul\":2603:2619   */\n      swap1\n      pop\n        /* \"#utility.yul\":2548:2625   */\n      swap2\n      swap1\n      pop\n      jump\t// out\n        /* \"#utility.yul\":2631:2753   */\n    tag_278:\n        /* \"#utility.yul\":2704:2728   */\n      tag_347\n        /* \"#utility.yul\":2722:2727   */\n      dup2\n        /* \"#utility.yul\":2704:2728   */\n      tag_277\n      jump\t// in\n    tag_347:\n        /* \"#utility.yul\":2697:2702   */\n      dup2\n        /* \"#utility.yul\":2694:2729   */\n      eq\n        /* \"#utility.yul\":2684:2747   */\n      tag_348\n      jumpi\n        /* \"#utility.yul\":2743:2744   */\n      0x00\n        /* \"#utility.yul\":2740:2741   */\n      dup1\n        /* \"#utility.yul\":2733:2745   */\n      revert\n        /* \"#utility.yul\":2684:2747   */\n    tag_348:\n        /* \"#utility.yul\":2631:2753   */\n      pop\n      jump\t// out\n        /* \"#utility.yul\":2759:2898   */\n    tag_279:\n        /* \"#utility.yul\":2805:2810   */\n      0x00\n        /* \"#utility.yul\":2843:2849   */\n      dup2\n        /* \"#utility.yul\":2830:2850   */\n      calldataload\n        /* \"#utility.yul\":2821:2850   */\n      swap1\n      pop\n        /* \"#utility.yul\":2859:2892   */\n      tag_350\n        /* \"#utility.yul\":2886:2891   */\n      dup2\n        /* \"#utility.yul\":2859:2892   */\n      tag_278\n      jump\t// in\n    tag_350:\n        /* \"#utility.yul\":2759:2898   */\n      swap3\n      swap2\n      pop\n      pop\n      jump\t// out\n        /* \"#utility.yul\":2904:3030   */\n    tag_280:\n        /* \"#utility.yul\":2941:2948   */\n      0x00\n        /* \"#utility.yul\":2981:3023   */\n      0xffffffffffffffffffffffffffffffffffffffff\n        /* \"#utility.yul\":2974:2979   */\n      dup3\n        /* \"#utility.yul\":2970:3024   */\n      and\n        /* \"#utility.yul\":2959:3024   */\n      swap1\n      pop\n        /* \"#utility.yul\":2904:3030   */\n      swap2\n      swap1\n      pop\n      jump\t// out\n        /* \"#utility.yul\":3036:3140   */\n    tag_281:\n        /* \"#utility.yul\":3081:3088   */\n      0x00\n        /* \"#utility.yul\":3110:3134   */\n      tag_353\n        /* \"#utility.yul\":3128:3133   */\n      dup3\n        /* \"#utility.yul\":3110:3134   */\n      tag_280\n      jump\t// in\n    tag_353:\n        /* \"#utility.yul\":3099:3134   */\n      swap1\n      pop\n        /* \"#utility.yul\":3036:3140   */\n      swap2\n      swap1\n      pop\n      jump\t// out\n        /* \"#utility.yul\":3146:3284   */\n    tag_282:\n        /* \"#utility.yul\":3227:3259   */\n      tag_355\n        /* \"#utility.yul\":3253:3258   */\n      dup2\n        /* \"#utility.yul\":3227:3259   */\n      tag_281\n      jump\t// in\n    tag_355:\n        /* \"#utility.yul\":3220:3225   */\n      dup2\n        /* \"#utility.yul\":3217:3260   */\n      eq\n        /* \"#utility.yul\":3207:3278   */\n      tag_356\n      jumpi\n        /* \"#utility.yul\":3274:3275   */\n      0x00\n        /* \"#utility.yul\":3271:3272   */\n      dup1\n        /* \"#utility.yul\":3264:3276   */\n      revert\n        /* \"#utility.yul\":3207:3278   */\n    tag_356:\n        /* \"#utility.yul\":3146:3284   */\n      pop\n      jump\t// out\n        /* \"#utility.yul\":3290:3445   */\n    tag_283:\n        /* \"#utility.yul\":3344:3349   */\n      0x00\n        /* \"#utility.yul\":3382:3388   */\n      dup2\n        /* \"#utility.yul\":3369:3389   */\n      calldataload\n        /* \"#utility.yul\":3360:3389   */\n      swap1\n      pop\n        /* \"#utility.yul\":3398:3439   */\n      tag_358\n        /* \"#utility.yul\":3433:3438   */\n      dup2\n        /* \"#utility.yul\":3398:3439   */\n      tag_282\n      jump\t// in\n    tag_358:\n        /* \"#utility.yul\":3290:3445   */\n      swap3\n      swap2\n      pop\n      pop\n      jump\t// out\n        /* \"#utility.yul\":3451:4266   */\n    tag_26:\n        /* \"#utility.yul\":3546:3552   */\n      0x00\n        /* \"#utility.yul\":3554:3560   */\n      dup1\n        /* \"#utility.yul\":3562:3568   */\n      0x00\n        /* \"#utility.yul\":3611:3613   */\n      0x60\n        /* \"#utility.yul\":3599:3608   */\n      dup5\n        /* \"#utility.yul\":3590:3597   */\n      dup7\n        /* \"#utility.yul\":3586:3609   */\n      sub\n        /* \"#utility.yul\":3582:3614   */\n      slt\n        /* \"#utility.yul\":3579:3698   */\n      iszero\n      tag_360\n      jumpi\n        /* \"#utility.yul\":3617:3696   */\n      tag_361\n      tag_266\n      jump\t// in\n    tag_361:\n        /* \"#utility.yul\":3579:3698   */\n    tag_360:\n        /* \"#utility.yul\":3765:3766   */\n      0x00\n        /* \"#utility.yul\":3754:3763   */\n      dup5\n        /* \"#utility.yul\":3750:3767   */\n      add\n        /* \"#utility.yul\":3737:3768   */\n      calldataload\n        /* \"#utility.yul\":3795:3813   */\n      0xffffffffffffffff\n        /* \"#utility.yul\":3787:3793   */\n      dup2\n        /* \"#utility.yul\":3784:3814   */\n      gt\n        /* \"#utility.yul\":3781:3898   */\n      iszero\n      tag_362\n      jumpi\n        /* \"#utility.yul\":3817:3896   */\n      tag_363\n      tag_267\n      jump\t// in\n    tag_363:\n        /* \"#utility.yul\":3781:3898   */\n    tag_362:\n        /* \"#utility.yul\":3922:3985   */\n      tag_364\n        /* \"#utility.yul\":3977:3984   */\n      dup7\n        /* \"#utility.yul\":3968:3974   */\n      dup3\n        /* \"#utility.yul\":3957:3966   */\n      dup8\n        /* \"#utility.yul\":3953:3975   */\n      add\n        /* \"#utility.yul\":3922:3985   */\n      tag_276\n      jump\t// in\n    tag_364:\n        /* \"#utility.yul\":3912:3985   */\n      swap4\n      pop\n        /* \"#utility.yul\":3708:3995   */\n      pop\n        /* \"#utility.yul\":4034:4036   */\n      0x20\n        /* \"#utility.yul\":4060:4113   */\n      tag_365\n        /* \"#utility.yul\":4105:4112   */\n      dup7\n        /* \"#utility.yul\":4096:4102   */\n      dup3\n        /* \"#utility.yul\":4085:4094   */\n      dup8\n        /* \"#utility.yul\":4081:4103   */\n      add\n        /* \"#utility.yul\":4060:4113   */\n      tag_279\n      jump\t// in\n    tag_365:\n        /* \"#utility.yul\":4050:4113   */\n      swap3\n      pop\n        /* \"#utility.yul\":4005:4123   */\n      pop\n        /* \"#utility.yul\":4162:4164   */\n      0x40\n        /* \"#utility.yul\":4188:4249   */\n      tag_366\n        /* \"#utility.yul\":4241:4248   */\n      dup7\n        /* \"#utility.yul\":4232:4238   */\n      dup3\n        /* \"#utility.yul\":4221:4230   */\n      dup8\n        /* \"#utility.yul\":4217:4239   */\n      add\n        /* \"#utility.yul\":4188:4249   */\n      tag_283\n      jump\t// in\n    tag_366:\n        /* \"#utility.yul\":4178:4249   */\n      swap2\n      pop\n        /* \"#utility.yul\":4133:4259   */\n      pop\n        /* \"#utility.yul\":3451:4266   */\n      swap3\n      pop\n      swap3\n      pop\n      swap3\n      jump\t// out\n        /* \"#utility.yul\":4272:4390   */\n    tag_284:\n        /* \"#utility.yul\":4359:4383   */\n      tag_368\n        /* \"#utility.yul\":4377:4382   */\n      dup2\n        /* \"#utility.yul\":4359:4383   */\n      tag_277\n      jump\t// in\n    tag_368:\n        /* \"#utility.yul\":4354:4357   */\n      dup3\n        /* \"#utility.yul\":4347:4384   */\n      mstore\n        /* \"#utility.yul\":4272:4390   */\n      pop\n      pop\n      jump\t// out\n        /* \"#utility.yul\":4396:4618   */\n    tag_32:\n        /* \"#utility.yul\":4489:4493   */\n      0x00\n        /* \"#utility.yul\":4527:4529   */\n      0x20\n        /* \"#utility.yul\":4516:4525   */\n      dup3\n        /* \"#utility.yul\":4512:4530   */\n      add\n        /* \"#utility.yul\":4504:4530   */\n      swap1\n      pop\n        /* \"#utility.yul\":4540:4611   */\n      tag_370\n        /* \"#utility.yul\":4608:4609   */\n      0x00\n        /* \"#utility.yul\":4597:4606   */\n      dup4\n        /* \"#utility.yul\":4593:4610   */\n      add\n        /* \"#utility.yul\":4584:4590   */\n      dup5\n        /* \"#utility.yul\":4540:4611   */\n      tag_284\n      jump\t// in\n    tag_370:\n        /* \"#utility.yul\":4396:4618   */\n      swap3\n      swap2\n      pop\n      pop\n      jump\t// out\n        /* \"#utility.yul\":4624:4723   */\n    tag_285:\n        /* \"#utility.yul\":4676:4682   */\n      0x00\n        /* \"#utility.yul\":4710:4715   */\n      dup2\n        /* \"#utility.yul\":4704:4716   */\n      mload\n        /* \"#utility.yul\":4694:4716   */\n      swap1\n      pop\n        /* \"#utility.yul\":4624:4723   */\n      swap2\n      swap1\n      pop\n      jump\t// out\n        /* \"#utility.yul\":4729:4898   */\n    tag_286:\n        /* \"#utility.yul\":4813:4824   */\n      0x00\n        /* \"#utility.yul\":4847:4853   */\n      dup3\n        /* \"#utility.yul\":4842:4845   */\n      dup3\n        /* \"#utility.yul\":4835:4854   */\n      mstore\n        /* \"#utility.yul\":4887:4891   */\n      0x20\n        /* \"#utility.yul\":4882:4885   */\n      dup3\n        /* \"#utility.yul\":4878:4892   */\n      add\n        /* \"#utility.yul\":4863:4892   */\n      swap1\n      pop\n        /* \"#utility.yul\":4729:4898   */\n      swap3\n      swap2\n      pop\n      pop\n      jump\t// out\n        /* \"#utility.yul\":4904:5211   */\n    tag_287:\n        /* \"#utility.yul\":4972:4973   */\n      0x00\n        /* \"#utility.yul\":4982:5095   */\n    tag_374:\n        /* \"#utility.yul\":4996:5002   */\n      dup4\n        /* \"#utility.yul\":4993:4994   */\n      dup2\n        /* \"#utility.yul\":4990:5003   */\n      lt\n        /* \"#utility.yul\":4982:5095   */\n      iszero\n      tag_376\n      jumpi\n        /* \"#utility.yul\":5081:5082   */\n      dup1\n        /* \"#utility.yul\":5076:5079   */\n      dup3\n        /* \"#utility.yul\":5072:5083   */\n      add\n        /* \"#utility.yul\":5066:5084   */\n      mload\n        /* \"#utility.yul\":5062:5063   */\n      dup2\n        /* \"#utility.yul\":5057:5060   */\n      dup5\n        /* \"#utility.yul\":5053:5064   */\n      add\n        /* \"#utility.yul\":5046:5085   */\n      mstore\n        /* \"#utility.yul\":5018:5020   */\n      0x20\n        /* \"#utility.yul\":5015:5016   */\n      dup2\n        /* \"#utility.yul\":5011:5021   */\n      add\n        /* \"#utility.yul\":5006:5021   */\n      swap1\n      pop\n        /* \"#utility.yul\":4982:5095   */\n      jump(tag_374)\n    tag_376:\n        /* \"#utility.yul\":5113:5119   */\n      dup4\n        /* \"#utility.yul\":5110:5111   */\n      dup2\n        /* \"#utility.yul\":5107:5120   */\n      gt\n        /* \"#utility.yul\":5104:5205   */\n      iszero\n      tag_377\n      jumpi\n        /* \"#utility.yul\":5193:5194   */\n      0x00\n        /* \"#utility.yul\":5184:5190   */\n      dup5\n        /* \"#utility.yul\":5179:5182   */\n      dup5\n        /* \"#utility.yul\":5175:5191   */\n      add\n        /* \"#utility.yul\":5168:5195   */\n      mstore\n        /* \"#utility.yul\":5104:5205   */\n    tag_377:\n        /* \"#utility.yul\":4953:5211   */\n      pop\n        /* \"#utility.yul\":4904:5211   */\n      pop\n      pop\n      pop\n      jump\t// out\n        /* \"#utility.yul\":5217:5581   */\n    tag_288:\n        /* \"#utility.yul\":5305:5308   */\n      0x00\n        /* \"#utility.yul\":5333:5372   */\n      tag_379\n        /* \"#utility.yul\":5366:5371   */\n      dup3\n        /* \"#utility.yul\":5333:5372   */\n      tag_285\n      jump\t// in\n    tag_379:\n        /* \"#utility.yul\":5388:5459   */\n      tag_380\n        /* \"#utility.yul\":5452:5458   */\n      dup2\n        /* \"#utility.yul\":5447:5450   */\n      dup6\n        /* \"#utility.yul\":5388:5459   */\n      tag_286\n      jump\t// in\n    tag_380:\n        /* \"#utility.yul\":5381:5459   */\n      swap4\n      pop\n        /* \"#utility.yul\":5468:5520   */\n      tag_381\n        /* \"#utility.yul\":5513:5519   */\n      dup2\n        /* \"#utility.yul\":5508:5511   */\n      dup6\n        /* \"#utility.yul\":5501:5505   */\n      0x20\n        /* \"#utility.yul\":5494:5499   */\n      dup7\n        /* \"#utility.yul\":5490:5506   */\n      add\n        /* \"#utility.yul\":5468:5520   */\n      tag_287\n      jump\t// in\n    tag_381:\n        /* \"#utility.yul\":5545:5574   */\n      tag_382\n        /* \"#utility.yul\":5567:5573   */\n      dup2\n        /* \"#utility.yul\":5545:5574   */\n      tag_270\n      jump\t// in\n    tag_382:\n        /* \"#utility.yul\":5540:5543   */\n      dup5\n        /* \"#utility.yul\":5536:5575   */\n      add\n        /* \"#utility.yul\":5529:5575   */\n      swap2\n      pop\n        /* \"#utility.yul\":5309:5581   */\n      pop\n        /* \"#utility.yul\":5217:5581   */\n      swap3\n      swap2\n      pop\n      pop\n      jump\t// out\n        /* \"#utility.yul\":5587:5683   */\n    tag_289:\n        /* \"#utility.yul\":5624:5631   */\n      0x00\n        /* \"#utility.yul\":5653:5677   */\n      tag_384\n        /* \"#utility.yul\":5671:5676   */\n      dup3\n        /* \"#utility.yul\":5653:5677   */\n      tag_280\n      jump\t// in\n    tag_384:\n        /* \"#utility.yul\":5642:5677   */\n      swap1\n      pop\n        /* \"#utility.yul\":5587:5683   */\n      swap2\n      swap1\n      pop\n      jump\t// out\n        /* \"#utility.yul\":5689:5807   */\n    tag_290:\n        /* \"#utility.yul\":5776:5800   */\n      tag_386\n        /* \"#utility.yul\":5794:5799   */\n      dup2\n        /* \"#utility.yul\":5776:5800   */\n      tag_289\n      jump\t// in\n    tag_386:\n        /* \"#utility.yul\":5771:5774   */\n      dup3\n        /* \"#utility.yul\":5764:5801   */\n      mstore\n        /* \"#utility.yul\":5689:5807   */\n      pop\n      pop\n      jump\t// out\n        /* \"#utility.yul\":5813:6901   */\n    tag_41:\n        /* \"#utility.yul\":6122:6126   */\n      0x00\n        /* \"#utility.yul\":6160:6163   */\n      0x0100\n        /* \"#utility.yul\":6149:6158   */\n      dup3\n        /* \"#utility.yul\":6145:6164   */\n      add\n        /* \"#utility.yul\":6137:6164   */\n      swap1\n      pop\n        /* \"#utility.yul\":6210:6219   */\n      dup2\n        /* \"#utility.yul\":6204:6208   */\n      dup2\n        /* \"#utility.yul\":6200:6220   */\n      sub\n        /* \"#utility.yul\":6196:6197   */\n      0x00\n        /* \"#utility.yul\":6185:6194   */\n      dup4\n        /* \"#utility.yul\":6181:6198   */\n      add\n        /* \"#utility.yul\":6174:6221   */\n      mstore\n        /* \"#utility.yul\":6238:6316   */\n      tag_388\n        /* \"#utility.yul\":6311:6315   */\n      dup2\n        /* \"#utility.yul\":6302:6308   */\n      dup12\n        /* \"#utility.yul\":6238:6316   */\n      tag_288\n      jump\t// in\n    tag_388:\n        /* \"#utility.yul\":6230:6316   */\n      swap1\n      pop\n        /* \"#utility.yul\":6326:6398   */\n      tag_389\n        /* \"#utility.yul\":6394:6396   */\n      0x20\n        /* \"#utility.yul\":6383:6392   */\n      dup4\n        /* \"#utility.yul\":6379:6397   */\n      add\n        /* \"#utility.yul\":6370:6376   */\n      dup11\n        /* \"#utility.yul\":6326:6398   */\n      tag_284\n      jump\t// in\n    tag_389:\n        /* \"#utility.yul\":6408:6480   */\n      tag_390\n        /* \"#utility.yul\":6476:6478   */\n      0x40\n        /* \"#utility.yul\":6465:6474   */\n      dup4\n        /* \"#utility.yul\":6461:6479   */\n      add\n        /* \"#utility.yul\":6452:6458   */\n      dup10\n        /* \"#utility.yul\":6408:6480   */\n      tag_284\n      jump\t// in\n    tag_390:\n        /* \"#utility.yul\":6490:6562   */\n      tag_391\n        /* \"#utility.yul\":6558:6560   */\n      0x60\n        /* \"#utility.yul\":6547:6556   */\n      dup4\n        /* \"#utility.yul\":6543:6561   */\n      add\n        /* \"#utility.yul\":6534:6540   */\n      dup9\n        /* \"#utility.yul\":6490:6562   */\n      tag_284\n      jump\t// in\n    tag_391:\n        /* \"#utility.yul\":6572:6645   */\n      tag_392\n        /* \"#utility.yul\":6640:6643   */\n      0x80\n        /* \"#utility.yul\":6629:6638   */\n      dup4\n        /* \"#utility.yul\":6625:6644   */\n      add\n        /* \"#utility.yul\":6616:6622   */\n      dup8\n        /* \"#utility.yul\":6572:6645   */\n      tag_284\n      jump\t// in\n    tag_392:\n        /* \"#utility.yul\":6655:6728   */\n      tag_393\n        /* \"#utility.yul\":6723:6726   */\n      0xa0\n        /* \"#utility.yul\":6712:6721   */\n      dup4\n        /* \"#utility.yul\":6708:6727   */\n      add\n        /* \"#utility.yul\":6699:6705   */\n      dup7\n        /* \"#utility.yul\":6655:6728   */\n      tag_284\n      jump\t// in\n    tag_393:\n        /* \"#utility.yul\":6738:6811   */\n      tag_394\n        /* \"#utility.yul\":6806:6809   */\n      0xc0\n        /* \"#utility.yul\":6795:6804   */\n      dup4\n        /* \"#utility.yul\":6791:6810   */\n      add\n        /* \"#utility.yul\":6782:6788   */\n      dup6\n        /* \"#utility.yul\":6738:6811   */\n      tag_284\n      jump\t// in\n    tag_394:\n        /* \"#utility.yul\":6821:6894   */\n      tag_395\n        /* \"#utility.yul\":6889:6892   */\n      0xe0\n        /* \"#utility.yul\":6878:6887   */\n      dup4\n        /* \"#utility.yul\":6874:6893   */\n      add\n        /* \"#utility.yul\":6865:6871   */\n      dup5\n        /* \"#utility.yul\":6821:6894   */\n      tag_290\n      jump\t// in\n    tag_395:\n        /* \"#utility.yul\":5813:6901   */\n      swap10\n      swap9\n      pop\n      pop\n      pop\n      pop\n      pop\n      pop\n      pop\n      pop\n      pop\n      jump\t// out\n        /* \"#utility.yul\":6907:7029   */\n    tag_291:\n        /* \"#utility.yul\":6980:7004   */\n      tag_397\n        /* \"#utility.yul\":6998:7003   */\n      dup2\n        /* \"#utility.yul\":6980:7004   */\n      tag_289\n      jump\t// in\n    tag_397:\n        /* \"#utility.yul\":6973:6978   */\n      dup2\n        /* \"#utility.yul\":6970:7005   */\n      eq\n        /* \"#utility.yul\":6960:7023   */\n      tag_398\n      jumpi\n        /* \"#utility.yul\":7019:7020   */\n      0x00\n        /* \"#utility.yul\":7016:7017   */\n      dup1\n        /* \"#utility.yul\":7009:7021   */\n      revert\n        /* \"#utility.yul\":6960:7023   */\n    tag_398:\n        /* \"#utility.yul\":6907:7029   */\n      pop\n      jump\t// out\n        /* \"#utility.yul\":7035:7174   */\n    tag_292:\n        /* \"#utility.yul\":7081:7086   */\n      0x00\n        /* \"#utility.yul\":7119:7125   */\n      dup2\n        /* \"#utility.yul\":7106:7126   */\n      calldataload\n        /* \"#utility.yul\":7097:7126   */\n      swap1\n      pop\n        /* \"#utility.yul\":7135:7168   */\n      tag_400\n        /* \"#utility.yul\":7162:7167   */\n      dup2\n        /* \"#utility.yul\":7135:7168   */\n      tag_291\n      jump\t// in\n    tag_400:\n        /* \"#utility.yul\":7035:7174   */\n      swap3\n      swap2\n      pop\n      pop\n      jump\t// out\n        /* \"#utility.yul\":7180:7509   */\n    tag_45:\n        /* \"#utility.yul\":7239:7245   */\n      0x00\n        /* \"#utility.yul\":7288:7290   */\n      0x20\n        /* \"#utility.yul\":7276:7285   */\n      dup3\n        /* \"#utility.yul\":7267:7274   */\n      dup5\n        /* \"#utility.yul\":7263:7286   */\n      sub\n        /* \"#utility.yul\":7259:7291   */\n      slt\n        /* \"#utility.yul\":7256:7375   */\n      iszero\n      tag_402\n      jumpi\n        /* \"#utility.yul\":7294:7373   */\n      tag_403\n      tag_266\n      jump\t// in\n    tag_403:\n        /* \"#utility.yul\":7256:7375   */\n    tag_402:\n        /* \"#utility.yul\":7414:7415   */\n      0x00\n        /* \"#utility.yul\":7439:7492   */\n      tag_404\n        /* \"#utility.yul\":7484:7491   */\n      dup5\n        /* \"#utility.yul\":7475:7481   */\n      dup3\n        /* \"#utility.yul\":7464:7473   */\n      dup6\n        /* \"#utility.yul\":7460:7482   */\n      add\n        /* \"#utility.yul\":7439:7492   */\n      tag_292\n      jump\t// in\n    tag_404:\n        /* \"#utility.yul\":7429:7492   */\n      swap2\n      pop\n        /* \"#utility.yul\":7385:7502   */\n      pop\n        /* \"#utility.yul\":7180:7509   */\n      swap3\n      swap2\n      pop\n      pop\n      jump\t// out\n        /* \"#utility.yul\":7515:7828   */\n    tag_48:\n        /* \"#utility.yul\":7628:7632   */\n      0x00\n        /* \"#utility.yul\":7666:7668   */\n      0x20\n        /* \"#utility.yul\":7655:7664   */\n      dup3\n        /* \"#utility.yul\":7651:7669   */\n      add\n        /* \"#utility.yul\":7643:7669   */\n      swap1\n      pop\n        /* \"#utility.yul\":7715:7724   */\n      dup2\n        /* \"#utility.yul\":7709:7713   */\n      dup2\n        /* \"#utility.yul\":7705:7725   */\n      sub\n        /* \"#utility.yul\":7701:7702   */\n      0x00\n        /* \"#utility.yul\":7690:7699   */\n      dup4\n        /* \"#utility.yul\":7686:7703   */\n      add\n        /* \"#utility.yul\":7679:7726   */\n      mstore\n        /* \"#utility.yul\":7743:7821   */\n      tag_406\n        /* \"#utility.yul\":7816:7820   */\n      dup2\n        /* \"#utility.yul\":7807:7813   */\n      dup5\n        /* \"#utility.yul\":7743:7821   */\n      tag_288\n      jump\t// in\n    tag_406:\n        /* \"#utility.yul\":7735:7821   */\n      swap1\n      pop\n        /* \"#utility.yul\":7515:7828   */\n      swap3\n      swap2\n      pop\n      pop\n      jump\t// out\n        /* \"#utility.yul\":7834:8163   */\n    tag_56:\n        /* \"#utility.yul\":7893:7899   */\n      0x00\n        /* \"#utility.yul\":7942:7944   */\n      0x20\n        /* \"#utility.yul\":7930:7939   */\n      dup3\n        /* \"#utility.yul\":7921:7928   */\n      dup5\n        /* \"#utility.yul\":7917:7940   */\n      sub\n        /* \"#utility.yul\":7913:7945   */\n      slt\n        /* \"#utility.yul\":7910:8029   */\n      iszero\n      tag_408\n      jumpi\n        /* \"#utility.yul\":7948:8027   */\n      tag_409\n      tag_266\n      jump\t// in\n    tag_409:\n        /* \"#utility.yul\":7910:8029   */\n    tag_408:\n        /* \"#utility.yul\":8068:8069   */\n      0x00\n        /* \"#utility.yul\":8093:8146   */\n      tag_410\n        /* \"#utility.yul\":8138:8145   */\n      dup5\n        /* \"#utility.yul\":8129:8135   */\n      dup3\n        /* \"#utility.yul\":8118:8127   */\n      dup6\n        /* \"#utility.yul\":8114:8136   */\n      add\n        /* \"#utility.yul\":8093:8146   */\n      tag_279\n      jump\t// in\n    tag_410:\n        /* \"#utility.yul\":8083:8146   */\n      swap2\n      pop\n        /* \"#utility.yul\":8039:8156   */\n      pop\n        /* \"#utility.yul\":7834:8163   */\n      swap3\n      swap2\n      pop\n      pop\n      jump\t// out\n        /* \"#utility.yul\":8169:8476   */\n    tag_293:\n        /* \"#utility.yul\":8230:8234   */\n      0x00\n        /* \"#utility.yul\":8320:8338   */\n      0xffffffffffffffff\n        /* \"#utility.yul\":8312:8318   */\n      dup3\n        /* \"#utility.yul\":8309:8339   */\n      gt\n        /* \"#utility.yul\":8306:8362   */\n      iszero\n      tag_412\n      jumpi\n        /* \"#utility.yul\":8342:8360   */\n      tag_413\n      tag_141\n      jump\t// in\n    tag_413:\n        /* \"#utility.yul\":8306:8362   */\n    tag_412:\n        /* \"#utility.yul\":8380:8409   */\n      tag_414\n        /* \"#utility.yul\":8402:8408   */\n      dup3\n        /* \"#utility.yul\":8380:8409   */\n      tag_270\n      jump\t// in\n    tag_414:\n        /* \"#utility.yul\":8372:8409   */\n      swap1\n      pop\n        /* \"#utility.yul\":8464:8468   */\n      0x20\n        /* \"#utility.yul\":8458:8462   */\n      dup2\n        /* \"#utility.yul\":8454:8469   */\n      add\n        /* \"#utility.yul\":8446:8469   */\n      swap1\n      pop\n        /* \"#utility.yul\":8169:8476   */\n      swap2\n      swap1\n      pop\n      jump\t// out\n        /* \"#utility.yul\":8482:8892   */\n    tag_294:\n        /* \"#utility.yul\":8559:8564   */\n      0x00\n        /* \"#utility.yul\":8584:8649   */\n      tag_416\n        /* \"#utility.yul\":8600:8648   */\n      tag_417\n        /* \"#utility.yul\":8641:8647   */\n      dup5\n        /* \"#utility.yul\":8600:8648   */\n      tag_293\n      jump\t// in\n    tag_417:\n        /* \"#utility.yul\":8584:8649   */\n      tag_272\n      jump\t// in\n    tag_416:\n        /* \"#utility.yul\":8575:8649   */\n      swap1\n      pop\n        /* \"#utility.yul\":8672:8678   */\n      dup3\n        /* \"#utility.yul\":8665:8670   */\n      dup2\n        /* \"#utility.yul\":8658:8679   */\n      mstore\n        /* \"#utility.yul\":8710:8714   */\n      0x20\n        /* \"#utility.yul\":8703:8708   */\n      dup2\n        /* \"#utility.yul\":8699:8715   */\n      add\n        /* \"#utility.yul\":8748:8751   */\n      dup5\n        /* \"#utility.yul\":8739:8745   */\n      dup5\n        /* \"#utility.yul\":8734:8737   */\n      dup5\n        /* \"#utility.yul\":8730:8746   */\n      add\n        /* \"#utility.yul\":8727:8752   */\n      gt\n        /* \"#utility.yul\":8724:8836   */\n      iszero\n      tag_418\n      jumpi\n        /* \"#utility.yul\":8755:8834   */\n      tag_419\n      tag_269\n      jump\t// in\n    tag_419:\n        /* \"#utility.yul\":8724:8836   */\n    tag_418:\n        /* \"#utility.yul\":8845:8886   */\n      tag_420\n        /* \"#utility.yul\":8879:8885   */\n      dup5\n        /* \"#utility.yul\":8874:8877   */\n      dup3\n        /* \"#utility.yul\":8869:8872   */\n      dup6\n        /* \"#utility.yul\":8845:8886   */\n      tag_274\n      jump\t// in\n    tag_420:\n        /* \"#utility.yul\":8565:8892   */\n      pop\n        /* \"#utility.yul\":8482:8892   */\n      swap4\n      swap3\n      pop\n      pop\n      pop\n      jump\t// out\n        /* \"#utility.yul\":8911:9249   */\n    tag_295:\n        /* \"#utility.yul\":8966:8971   */\n      0x00\n        /* \"#utility.yul\":9015:9018   */\n      dup3\n        /* \"#utility.yul\":9008:9012   */\n      0x1f\n        /* \"#utility.yul\":9000:9006   */\n      dup4\n        /* \"#utility.yul\":8996:9013   */\n      add\n        /* \"#utility.yul\":8992:9019   */\n      slt\n        /* \"#utility.yul\":8982:9104   */\n      tag_422\n      jumpi\n        /* \"#utility.yul\":9023:9102   */\n      tag_423\n      tag_268\n      jump\t// in\n    tag_423:\n        /* \"#utility.yul\":8982:9104   */\n    tag_422:\n        /* \"#utility.yul\":9140:9146   */\n      dup2\n        /* \"#utility.yul\":9127:9147   */\n      calldataload\n        /* \"#utility.yul\":9165:9243   */\n      tag_424\n        /* \"#utility.yul\":9239:9242   */\n      dup5\n        /* \"#utility.yul\":9231:9237   */\n      dup3\n        /* \"#utility.yul\":9224:9228   */\n      0x20\n        /* \"#utility.yul\":9216:9222   */\n      dup7\n        /* \"#utility.yul\":9212:9229   */\n      add\n        /* \"#utility.yul\":9165:9243   */\n      tag_294\n      jump\t// in\n    tag_424:\n        /* \"#utility.yul\":9156:9243   */\n      swap2\n      pop\n        /* \"#utility.yul\":8972:9249   */\n      pop\n        /* \"#utility.yul\":8911:9249   */\n      swap3\n      swap2\n      pop\n      pop\n      jump\t// out\n        /* \"#utility.yul\":9255:9762   */\n    tag_67:\n        /* \"#utility.yul\":9323:9329   */\n      0x00\n        /* \"#utility.yul\":9372:9374   */\n      0x20\n        /* \"#utility.yul\":9360:9369   */\n      dup3\n        /* \"#utility.yul\":9351:9358   */\n      dup5\n        /* \"#utility.yul\":9347:9370   */\n      sub\n        /* \"#utility.yul\":9343:9375   */\n      slt\n        /* \"#utility.yul\":9340:9459   */\n      iszero\n      tag_426\n      jumpi\n        /* \"#utility.yul\":9378:9457   */\n      tag_427\n      tag_266\n      jump\t// in\n    tag_427:\n        /* \"#utility.yul\":9340:9459   */\n    tag_426:\n        /* \"#utility.yul\":9526:9527   */\n      0x00\n        /* \"#utility.yul\":9515:9524   */\n      dup3\n        /* \"#utility.yul\":9511:9528   */\n      add\n        /* \"#utility.yul\":9498:9529   */\n      calldataload\n        /* \"#utility.yul\":9556:9574   */\n      0xffffffffffffffff\n        /* \"#utility.yul\":9548:9554   */\n      dup2\n        /* \"#utility.yul\":9545:9575   */\n      gt\n        /* \"#utility.yul\":9542:9659   */\n      iszero\n      tag_428\n      jumpi\n        /* \"#utility.yul\":9578:9657   */\n      tag_429\n      tag_267\n      jump\t// in\n    tag_429:\n        /* \"#utility.yul\":9542:9659   */\n    tag_428:\n        /* \"#utility.yul\":9683:9745   */\n      tag_430\n        /* \"#utility.yul\":9737:9744   */\n      dup5\n        /* \"#utility.yul\":9728:9734   */\n      dup3\n        /* \"#utility.yul\":9717:9726   */\n      dup6\n        /* \"#utility.yul\":9713:9735   */\n      add\n        /* \"#utility.yul\":9683:9745   */\n      tag_295\n      jump\t// in\n    tag_430:\n        /* \"#utility.yul\":9673:9745   */\n      swap2\n      pop\n        /* \"#utility.yul\":9469:9755   */\n      pop\n        /* \"#utility.yul\":9255:9762   */\n      swap3\n      swap2\n      pop\n      pop\n      jump\t// out\n        /* \"#utility.yul\":9768:9910   */\n    tag_296:\n        /* \"#utility.yul\":9871:9903   */\n      tag_432\n        /* \"#utility.yul\":9897:9902   */\n      dup2\n        /* \"#utility.yul\":9871:9903   */\n      tag_281\n      jump\t// in\n    tag_432:\n        /* \"#utility.yul\":9866:9869   */\n      dup3\n        /* \"#utility.yul\":9859:9904   */\n      mstore\n        /* \"#utility.yul\":9768:9910   */\n      pop\n      pop\n      jump\t// out\n        /* \"#utility.yul\":9916:10006   */\n    tag_297:\n        /* \"#utility.yul\":9950:9957   */\n      0x00\n        /* \"#utility.yul\":9993:9998   */\n      dup2\n        /* \"#utility.yul\":9986:9999   */\n      iszero\n        /* \"#utility.yul\":9979:10000   */\n      iszero\n        /* \"#utility.yul\":9968:10000   */\n      swap1\n      pop\n        /* \"#utility.yul\":9916:10006   */\n      swap2\n      swap1\n      pop\n      jump\t// out\n        /* \"#utility.yul\":10012:10121   */\n    tag_298:\n        /* \"#utility.yul\":10093:10114   */\n      tag_435\n        /* \"#utility.yul\":10108:10113   */\n      dup2\n        /* \"#utility.yul\":10093:10114   */\n      tag_297\n      jump\t// in\n    tag_435:\n        /* \"#utility.yul\":10088:10091   */\n      dup3\n        /* \"#utility.yul\":10081:10115   */\n      mstore\n        /* \"#utility.yul\":10012:10121   */\n      pop\n      pop\n      jump\t// out\n        /* \"#utility.yul\":10127:11306   */\n    tag_83:\n        /* \"#utility.yul\":10458:10462   */\n      0x00\n        /* \"#utility.yul\":10496:10499   */\n      0xe0\n        /* \"#utility.yul\":10485:10494   */\n      dup3\n        /* \"#utility.yul\":10481:10500   */\n      add\n        /* \"#utility.yul\":10473:10500   */\n      swap1\n      pop\n        /* \"#utility.yul\":10546:10555   */\n      dup2\n        /* \"#utility.yul\":10540:10544   */\n      dup2\n        /* \"#utility.yul\":10536:10556   */\n      sub\n        /* \"#utility.yul\":10532:10533   */\n      0x00\n        /* \"#utility.yul\":10521:10530   */\n      dup4\n        /* \"#utility.yul\":10517:10534   */\n      add\n        /* \"#utility.yul\":10510:10557   */\n      mstore\n        /* \"#utility.yul\":10574:10652   */\n      tag_437\n        /* \"#utility.yul\":10647:10651   */\n      dup2\n        /* \"#utility.yul\":10638:10644   */\n      dup11\n        /* \"#utility.yul\":10574:10652   */\n      tag_288\n      jump\t// in\n    tag_437:\n        /* \"#utility.yul\":10566:10652   */\n      swap1\n      pop\n        /* \"#utility.yul\":10662:10734   */\n      tag_438\n        /* \"#utility.yul\":10730:10732   */\n      0x20\n        /* \"#utility.yul\":10719:10728   */\n      dup4\n        /* \"#utility.yul\":10715:10733   */\n      add\n        /* \"#utility.yul\":10706:10712   */\n      dup10\n        /* \"#utility.yul\":10662:10734   */\n      tag_284\n      jump\t// in\n    tag_438:\n        /* \"#utility.yul\":10744:10816   */\n      tag_439\n        /* \"#utility.yul\":10812:10814   */\n      0x40\n        /* \"#utility.yul\":10801:10810   */\n      dup4\n        /* \"#utility.yul\":10797:10815   */\n      add\n        /* \"#utility.yul\":10788:10794   */\n      dup9\n        /* \"#utility.yul\":10744:10816   */\n      tag_284\n      jump\t// in\n    tag_439:\n        /* \"#utility.yul\":10826:10914   */\n      tag_440\n        /* \"#utility.yul\":10910:10912   */\n      0x60\n        /* \"#utility.yul\":10899:10908   */\n      dup4\n        /* \"#utility.yul\":10895:10913   */\n      add\n        /* \"#utility.yul\":10886:10892   */\n      dup8\n        /* \"#utility.yul\":10826:10914   */\n      tag_296\n      jump\t// in\n    tag_440:\n        /* \"#utility.yul\":10924:10991   */\n      tag_441\n        /* \"#utility.yul\":10986:10989   */\n      0x80\n        /* \"#utility.yul\":10975:10984   */\n      dup4\n        /* \"#utility.yul\":10971:10990   */\n      add\n        /* \"#utility.yul\":10962:10968   */\n      dup7\n        /* \"#utility.yul\":10924:10991   */\n      tag_298\n      jump\t// in\n    tag_441:\n        /* \"#utility.yul\":11039:11048   */\n      dup2\n        /* \"#utility.yul\":11033:11037   */\n      dup2\n        /* \"#utility.yul\":11029:11049   */\n      sub\n        /* \"#utility.yul\":11023:11026   */\n      0xa0\n        /* \"#utility.yul\":11012:11021   */\n      dup4\n        /* \"#utility.yul\":11008:11027   */\n      add\n        /* \"#utility.yul\":11001:11050   */\n      mstore\n        /* \"#utility.yul\":11067:11145   */\n      tag_442\n        /* \"#utility.yul\":11140:11144   */\n      dup2\n        /* \"#utility.yul\":11131:11137   */\n      dup6\n        /* \"#utility.yul\":11067:11145   */\n      tag_288\n      jump\t// in\n    tag_442:\n        /* \"#utility.yul\":11059:11145   */\n      swap1\n      pop\n        /* \"#utility.yul\":11193:11202   */\n      dup2\n        /* \"#utility.yul\":11187:11191   */\n      dup2\n        /* \"#utility.yul\":11183:11203   */\n      sub\n        /* \"#utility.yul\":11177:11180   */\n      0xc0\n        /* \"#utility.yul\":11166:11175   */\n      dup4\n        /* \"#utility.yul\":11162:11181   */\n      add\n        /* \"#utility.yul\":11155:11204   */\n      mstore\n        /* \"#utility.yul\":11221:11299   */\n      tag_443\n        /* \"#utility.yul\":11294:11298   */\n      dup2\n        /* \"#utility.yul\":11285:11291   */\n      dup5\n        /* \"#utility.yul\":11221:11299   */\n      tag_288\n      jump\t// in\n    tag_443:\n        /* \"#utility.yul\":11213:11299   */\n      swap1\n      pop\n        /* \"#utility.yul\":10127:11306   */\n      swap9\n      swap8\n      pop\n      pop\n      pop\n      pop\n      pop\n      pop\n      pop\n      pop\n      jump\t// out\n        /* \"#utility.yul\":11312:11534   */\n    tag_88:\n        /* \"#utility.yul\":11405:11409   */\n      0x00\n        /* \"#utility.yul\":11443:11445   */\n      0x20\n        /* \"#utility.yul\":11432:11441   */\n      dup3\n        /* \"#utility.yul\":11428:11446   */\n      add\n        /* \"#utility.yul\":11420:11446   */\n      swap1\n      pop\n        /* \"#utility.yul\":11456:11527   */\n      tag_445\n        /* \"#utility.yul\":11524:11525   */\n      0x00\n        /* \"#utility.yul\":11513:11522   */\n      dup4\n        /* \"#utility.yul\":11509:11526   */\n      add\n        /* \"#utility.yul\":11500:11506   */\n      dup5\n        /* \"#utility.yul\":11456:11527   */\n      tag_290\n      jump\t// in\n    tag_445:\n        /* \"#utility.yul\":11312:11534   */\n      swap3\n      swap2\n      pop\n      pop\n      jump\t// out\n        /* \"#utility.yul\":11540:11617   */\n    tag_299:\n        /* \"#utility.yul\":11577:11584   */\n      0x00\n        /* \"#utility.yul\":11606:11611   */\n      dup2\n        /* \"#utility.yul\":11595:11611   */\n      swap1\n      pop\n        /* \"#utility.yul\":11540:11617   */\n      swap2\n      swap1\n      pop\n      jump\t// out\n        /* \"#utility.yul\":11623:11745   */\n    tag_300:\n        /* \"#utility.yul\":11696:11720   */\n      tag_448\n        /* \"#utility.yul\":11714:11719   */\n      dup2\n        /* \"#utility.yul\":11696:11720   */\n      tag_299\n      jump\t// in\n    tag_448:\n        /* \"#utility.yul\":11689:11694   */\n      dup2\n        /* \"#utility.yul\":11686:11721   */\n      eq\n        /* \"#utility.yul\":11676:11739   */\n      tag_449\n      jumpi\n        /* \"#utility.yul\":11735:11736   */\n      0x00\n        /* \"#utility.yul\":11732:11733   */\n      dup1\n        /* \"#utility.yul\":11725:11737   */\n      revert\n        /* \"#utility.yul\":11676:11739   */\n    tag_449:\n        /* \"#utility.yul\":11623:11745   */\n      pop\n      jump\t// out\n        /* \"#utility.yul\":11751:11890   */\n    tag_301:\n        /* \"#utility.yul\":11797:11802   */\n      0x00\n        /* \"#utility.yul\":11835:11841   */\n      dup2\n        /* \"#utility.yul\":11822:11842   */\n      calldataload\n        /* \"#utility.yul\":11813:11842   */\n      swap1\n      pop\n        /* \"#utility.yul\":11851:11884   */\n      tag_451\n        /* \"#utility.yul\":11878:11883   */\n      dup2\n        /* \"#utility.yul\":11851:11884   */\n      tag_300\n      jump\t// in\n    tag_451:\n        /* \"#utility.yul\":11751:11890   */\n      swap3\n      swap2\n      pop\n      pop\n      jump\t// out\n        /* \"#utility.yul\":11896:12225   */\n    tag_92:\n        /* \"#utility.yul\":11955:11961   */\n      0x00\n        /* \"#utility.yul\":12004:12006   */\n      0x20\n        /* \"#utility.yul\":11992:12001   */\n      dup3\n        /* \"#utility.yul\":11983:11990   */\n      dup5\n        /* \"#utility.yul\":11979:12002   */\n      sub\n        /* \"#utility.yul\":11975:12007   */\n      slt\n        /* \"#utility.yul\":11972:12091   */\n      iszero\n      tag_453\n      jumpi\n        /* \"#utility.yul\":12010:12089   */\n      tag_454\n      tag_266\n      jump\t// in\n    tag_454:\n        /* \"#utility.yul\":11972:12091   */\n    tag_453:\n        /* \"#utility.yul\":12130:12131   */\n      0x00\n        /* \"#utility.yul\":12155:12208   */\n      tag_455\n        /* \"#utility.yul\":12200:12207   */\n      dup5\n        /* \"#utility.yul\":12191:12197   */\n      dup3\n        /* \"#utility.yul\":12180:12189   */\n      dup6\n        /* \"#utility.yul\":12176:12198   */\n      add\n        /* \"#utility.yul\":12155:12208   */\n      tag_301\n      jump\t// in\n    tag_455:\n        /* \"#utility.yul\":12145:12208   */\n      swap2\n      pop\n        /* \"#utility.yul\":12101:12218   */\n      pop\n        /* \"#utility.yul\":11896:12225   */\n      swap3\n      swap2\n      pop\n      pop\n      jump\t// out\n        /* \"#utility.yul\":12231:12411   */\n    tag_115:\n        /* \"#utility.yul\":12279:12356   */\n      0x4e487b7100000000000000000000000000000000000000000000000000000000\n        /* \"#utility.yul\":12276:12277   */\n      0x00\n        /* \"#utility.yul\":12269:12357   */\n      mstore\n        /* \"#utility.yul\":12376:12380   */\n      0x32\n        /* \"#utility.yul\":12373:12374   */\n      0x04\n        /* \"#utility.yul\":12366:12381   */\n      mstore\n        /* \"#utility.yul\":12400:12404   */\n      0x24\n        /* \"#utility.yul\":12397:12398   */\n      0x00\n        /* \"#utility.yul\":12390:12405   */\n      revert\n        /* \"#utility.yul\":12417:12597   */\n    tag_302:\n        /* \"#utility.yul\":12465:12542   */\n      0x4e487b7100000000000000000000000000000000000000000000000000000000\n        /* \"#utility.yul\":12462:12463   */\n      0x00\n        /* \"#utility.yul\":12455:12543   */\n      mstore\n        /* \"#utility.yul\":12562:12566   */\n      0x22\n        /* \"#utility.yul\":12559:12560   */\n      0x04\n        /* \"#utility.yul\":12552:12567   */\n      mstore\n        /* \"#utility.yul\":12586:12590   */\n      0x24\n        /* \"#utility.yul\":12583:12584   */\n      0x00\n        /* \"#utility.yul\":12576:12591   */\n      revert\n        /* \"#utility.yul\":12603:12923   */\n    tag_121:\n        /* \"#utility.yul\":12647:12653   */\n      0x00\n        /* \"#utility.yul\":12684:12685   */\n      0x02\n        /* \"#utility.yul\":12678:12682   */\n      dup3\n        /* \"#utility.yul\":12674:12686   */\n      div\n        /* \"#utility.yul\":12664:12686   */\n      swap1\n      pop\n        /* \"#utility.yul\":12731:12732   */\n      0x01\n        /* \"#utility.yul\":12725:12729   */\n      dup3\n        /* \"#utility.yul\":12721:12733   */\n      and\n        /* \"#utility.yul\":12752:12770   */\n      dup1\n        /* \"#utility.yul\":12742:12823   */\n      tag_459\n      jumpi\n        /* \"#utility.yul\":12808:12812   */\n      0x7f\n        /* \"#utility.yul\":12800:12806   */\n      dup3\n        /* \"#utility.yul\":12796:12813   */\n      and\n        /* \"#utility.yul\":12786:12813   */\n      swap2\n      pop\n        /* \"#utility.yul\":12742:12823   */\n    tag_459:\n        /* \"#utility.yul\":12870:12872   */\n      0x20\n        /* \"#utility.yul\":12862:12868   */\n      dup3\n        /* \"#utility.yul\":12859:12873   */\n      lt\n        /* \"#utility.yul\":12839:12857   */\n      dup2\n        /* \"#utility.yul\":12836:12874   */\n      eq\n        /* \"#utility.yul\":12833:12917   */\n      iszero\n      tag_460\n      jumpi\n        /* \"#utility.yul\":12889:12907   */\n      tag_461\n      tag_302\n      jump\t// in\n    tag_461:\n        /* \"#utility.yul\":12833:12917   */\n    tag_460:\n        /* \"#utility.yul\":12654:12923   */\n      pop\n        /* \"#utility.yul\":12603:12923   */\n      swap2\n      swap1\n      pop\n      jump\t// out\n        /* \"#utility.yul\":12929:13023   */\n    tag_303:\n        /* \"#utility.yul\":12962:12970   */\n      0x00\n        /* \"#utility.yul\":13010:13015   */\n      dup2\n        /* \"#utility.yul\":13006:13008   */\n      0x60\n        /* \"#utility.yul\":13002:13016   */\n      shl\n        /* \"#utility.yul\":12981:13016   */\n      swap1\n      pop\n        /* \"#utility.yul\":12929:13023   */\n      swap2\n      swap1\n      pop\n      jump\t// out\n        /* \"#utility.yul\":13029:13123   */\n    tag_304:\n        /* \"#utility.yul\":13068:13075   */\n      0x00\n        /* \"#utility.yul\":13097:13117   */\n      tag_464\n        /* \"#utility.yul\":13111:13116   */\n      dup3\n        /* \"#utility.yul\":13097:13117   */\n      tag_303\n      jump\t// in\n    tag_464:\n        /* \"#utility.yul\":13086:13117   */\n      swap1\n      pop\n        /* \"#utility.yul\":13029:13123   */\n      swap2\n      swap1\n      pop\n      jump\t// out\n        /* \"#utility.yul\":13129:13229   */\n    tag_305:\n        /* \"#utility.yul\":13168:13175   */\n      0x00\n        /* \"#utility.yul\":13197:13223   */\n      tag_466\n        /* \"#utility.yul\":13217:13222   */\n      dup3\n        /* \"#utility.yul\":13197:13223   */\n      tag_304\n      jump\t// in\n    tag_466:\n        /* \"#utility.yul\":13186:13223   */\n      swap1\n      pop\n        /* \"#utility.yul\":13129:13229   */\n      swap2\n      swap1\n      pop\n      jump\t// out\n        /* \"#utility.yul\":13235:13392   */\n    tag_306:\n        /* \"#utility.yul\":13340:13385   */\n      tag_468\n        /* \"#utility.yul\":13360:13384   */\n      tag_469\n        /* \"#utility.yul\":13378:13383   */\n      dup3\n        /* \"#utility.yul\":13360:13384   */\n      tag_289\n      jump\t// in\n    tag_469:\n        /* \"#utility.yul\":13340:13385   */\n      tag_305\n      jump\t// in\n    tag_468:\n        /* \"#utility.yul\":13335:13338   */\n      dup3\n        /* \"#utility.yul\":13328:13386   */\n      mstore\n        /* \"#utility.yul\":13235:13392   */\n      pop\n      pop\n      jump\t// out\n        /* \"#utility.yul\":13398:13654   */\n    tag_129:\n        /* \"#utility.yul\":13510:13513   */\n      0x00\n        /* \"#utility.yul\":13525:13600   */\n      tag_471\n        /* \"#utility.yul\":13596:13599   */\n      dup3\n        /* \"#utility.yul\":13587:13593   */\n      dup5\n        /* \"#utility.yul\":13525:13600   */\n      tag_306\n      jump\t// in\n    tag_471:\n        /* \"#utility.yul\":13625:13627   */\n      0x14\n        /* \"#utility.yul\":13620:13623   */\n      dup3\n        /* \"#utility.yul\":13616:13628   */\n      add\n        /* \"#utility.yul\":13609:13628   */\n      swap2\n      pop\n        /* \"#utility.yul\":13645:13648   */\n      dup2\n        /* \"#utility.yul\":13638:13648   */\n      swap1\n      pop\n        /* \"#utility.yul\":13398:13654   */\n      swap3\n      swap2\n      pop\n      pop\n      jump\t// out\n        /* \"#utility.yul\":13660:13739   */\n    tag_307:\n        /* \"#utility.yul\":13699:13706   */\n      0x00\n        /* \"#utility.yul\":13728:13733   */\n      dup2\n        /* \"#utility.yul\":13717:13733   */\n      swap1\n      pop\n        /* \"#utility.yul\":13660:13739   */\n      swap2\n      swap1\n      pop\n      jump\t// out\n        /* \"#utility.yul\":13745:13902   */\n    tag_308:\n        /* \"#utility.yul\":13850:13895   */\n      tag_474\n        /* \"#utility.yul\":13870:13894   */\n      tag_475\n        /* \"#utility.yul\":13888:13893   */\n      dup3\n        /* \"#utility.yul\":13870:13894   */\n      tag_277\n      jump\t// in\n    tag_475:\n        /* \"#utility.yul\":13850:13895   */\n      tag_307\n      jump\t// in\n    tag_474:\n        /* \"#utility.yul\":13845:13848   */\n      dup3\n        /* \"#utility.yul\":13838:13896   */\n      mstore\n        /* \"#utility.yul\":13745:13902   */\n      pop\n      pop\n      jump\t// out\n        /* \"#utility.yul\":13908:14164   */\n    tag_133:\n        /* \"#utility.yul\":14020:14023   */\n      0x00\n        /* \"#utility.yul\":14035:14110   */\n      tag_477\n        /* \"#utility.yul\":14106:14109   */\n      dup3\n        /* \"#utility.yul\":14097:14103   */\n      dup5\n        /* \"#utility.yul\":14035:14110   */\n      tag_308\n      jump\t// in\n    tag_477:\n        /* \"#utility.yul\":14135:14137   */\n      0x20\n        /* \"#utility.yul\":14130:14133   */\n      dup3\n        /* \"#utility.yul\":14126:14138   */\n      add\n        /* \"#utility.yul\":14119:14138   */\n      swap2\n      pop\n        /* \"#utility.yul\":14155:14158   */\n      dup2\n        /* \"#utility.yul\":14148:14158   */\n      swap1\n      pop\n        /* \"#utility.yul\":13908:14164   */\n      swap3\n      swap2\n      pop\n      pop\n      jump\t// out\n        /* \"#utility.yul\":14170:14350   */\n    tag_309:\n        /* \"#utility.yul\":14218:14295   */\n      0x4e487b7100000000000000000000000000000000000000000000000000000000\n        /* \"#utility.yul\":14215:14216   */\n      0x00\n        /* \"#utility.yul\":14208:14296   */\n      mstore\n        /* \"#utility.yul\":14315:14319   */\n      0x11\n        /* \"#utility.yul\":14312:14313   */\n      0x04\n        /* \"#utility.yul\":14305:14320   */\n      mstore\n        /* \"#utility.yul\":14339:14343   */\n      0x24\n        /* \"#utility.yul\":14336:14337   */\n      0x00\n        /* \"#utility.yul\":14329:14344   */\n      revert\n        /* \"#utility.yul\":14356:14704   */\n    tag_136:\n        /* \"#utility.yul\":14396:14403   */\n      0x00\n        /* \"#utility.yul\":14419:14439   */\n      tag_480\n        /* \"#utility.yul\":14437:14438   */\n      dup3\n        /* \"#utility.yul\":14419:14439   */\n      tag_277\n      jump\t// in\n    tag_480:\n        /* \"#utility.yul\":14414:14439   */\n      swap2\n      pop\n        /* \"#utility.yul\":14453:14473   */\n      tag_481\n        /* \"#utility.yul\":14471:14472   */\n      dup4\n        /* \"#utility.yul\":14453:14473   */\n      tag_277\n      jump\t// in\n    tag_481:\n        /* \"#utility.yul\":14448:14473   */\n      swap3\n      pop\n        /* \"#utility.yul\":14641:14642   */\n      dup2\n        /* \"#utility.yul\":14573:14639   */\n      0xffffffffffffffffffffffffffffffffffffffffffffffffffffffffffffffff\n        /* \"#utility.yul\":14569:14643   */\n      div\n        /* \"#utility.yul\":14566:14567   */\n      dup4\n        /* \"#utility.yul\":14563:14644   */\n      gt\n        /* \"#utility.yul\":14558:14559   */\n      dup3\n        /* \"#utility.yul\":14551:14560   */\n      iszero\n        /* \"#utility.yul\":14544:14561   */\n      iszero\n        /* \"#utility.yul\":14540:14645   */\n      and\n        /* \"#utility.yul\":14537:14668   */\n      iszero\n      tag_482\n      jumpi\n        /* \"#utility.yul\":14648:14666   */\n      tag_483\n      tag_309\n      jump\t// in\n    tag_483:\n        /* \"#utility.yul\":14537:14668   */\n    tag_482:\n        /* \"#utility.yul\":14696:14697   */\n      dup3\n        /* \"#utility.yul\":14693:14694   */\n      dup3\n        /* \"#utility.yul\":14689:14698   */\n      mul\n        /* \"#utility.yul\":14678:14698   */\n      swap1\n      pop\n        /* \"#utility.yul\":14356:14704   */\n      swap3\n      swap2\n      pop\n      pop\n      jump\t// out\n        /* \"#utility.yul\":14710:15015   */\n    tag_138:\n        /* \"#utility.yul\":14750:14753   */\n      0x00\n        /* \"#utility.yul\":14769:14789   */\n      tag_485\n        /* \"#utility.yul\":14787:14788   */\n      dup3\n        /* \"#utility.yul\":14769:14789   */\n      tag_277\n      jump\t// in\n    tag_485:\n        /* \"#utility.yul\":14764:14789   */\n      swap2\n      pop\n        /* \"#utility.yul\":14803:14823   */\n      tag_486\n        /* \"#utility.yul\":14821:14822   */\n      dup4\n        /* \"#utility.yul\":14803:14823   */\n      tag_277\n      jump\t// in\n    tag_486:\n        /* \"#utility.yul\":14798:14823   */\n      swap3\n      pop\n        /* \"#utility.yul\":14957:14958   */\n      dup3\n        /* \"#utility.yul\":14889:14955   */\n      0xffffffffffffffffffffffffffffffffffffffffffffffffffffffffffffffff\n        /* \"#utility.yul\":14885:14959   */\n      sub\n        /* \"#utility.yul\":14882:14883   */\n      dup3\n        /* \"#utility.yul\":14879:14960   */\n      gt\n        /* \"#utility.yul\":14876:14983   */\n      iszero\n      tag_487\n      jumpi\n        /* \"#utility.yul\":14963:14981   */\n      tag_488\n      tag_309\n      jump\t// in\n    tag_488:\n        /* \"#utility.yul\":14876:14983   */\n    tag_487:\n        /* \"#utility.yul\":15007:15008   */\n      dup3\n        /* \"#utility.yul\":15004:15005   */\n      dup3\n        /* \"#utility.yul\":15000:15009   */\n      add\n        /* \"#utility.yul\":14993:15009   */\n      swap1\n      pop\n        /* \"#utility.yul\":14710:15015   */\n      swap3\n      swap2\n      pop\n      pop\n      jump\t// out\n        /* \"#utility.yul\":15021:15254   */\n    tag_167:\n        /* \"#utility.yul\":15060:15063   */\n      0x00\n        /* \"#utility.yul\":15083:15107   */\n      tag_490\n        /* \"#utility.yul\":15101:15106   */\n      dup3\n        /* \"#utility.yul\":15083:15107   */\n      tag_277\n      jump\t// in\n    tag_490:\n        /* \"#utility.yul\":15074:15107   */\n      swap2\n      pop\n        /* \"#utility.yul\":15129:15195   */\n      0xffffffffffffffffffffffffffffffffffffffffffffffffffffffffffffffff\n        /* \"#utility.yul\":15122:15127   */\n      dup3\n        /* \"#utility.yul\":15119:15196   */\n      eq\n        /* \"#utility.yul\":15116:15219   */\n      iszero\n      tag_491\n      jumpi\n        /* \"#utility.yul\":15199:15217   */\n      tag_492\n      tag_309\n      jump\t// in\n    tag_492:\n        /* \"#utility.yul\":15116:15219   */\n    tag_491:\n        /* \"#utility.yul\":15246:15247   */\n      0x01\n        /* \"#utility.yul\":15239:15244   */\n      dup3\n        /* \"#utility.yul\":15235:15248   */\n      add\n        /* \"#utility.yul\":15228:15248   */\n      swap1\n      pop\n        /* \"#utility.yul\":15021:15254   */\n      swap2\n      swap1\n      pop\n      jump\t// out\n        /* \"#utility.yul\":15260:15339   */\n    tag_310:\n        /* \"#utility.yul\":15299:15306   */\n      0x00\n        /* \"#utility.yul\":15328:15333   */\n      dup2\n        /* \"#utility.yul\":15317:15333   */\n      swap1\n      pop\n        /* \"#utility.yul\":15260:15339   */\n      swap2\n      swap1\n      pop\n      jump\t// out\n        /* \"#utility.yul\":15345:15502   */\n    tag_311:\n        /* \"#utility.yul\":15450:15495   */\n      tag_495\n        /* \"#utility.yul\":15470:15494   */\n      tag_496\n        /* \"#utility.yul\":15488:15493   */\n      dup3\n        /* \"#utility.yul\":15470:15494   */\n      tag_299\n      jump\t// in\n    tag_496:\n        /* \"#utility.yul\":15450:15495   */\n      tag_310\n      jump\t// in\n    tag_495:\n        /* \"#utility.yul\":15445:15448   */\n      dup3\n        /* \"#utility.yul\":15438:15496   */\n      mstore\n        /* \"#utility.yul\":15345:15502   */\n      pop\n      pop\n      jump\t// out\n        /* \"#utility.yul\":15508:15764   */\n    tag_208:\n        /* \"#utility.yul\":15620:15623   */\n      0x00\n        /* \"#utility.yul\":15635:15710   */\n      tag_498\n        /* \"#utility.yul\":15706:15709   */\n      dup3\n        /* \"#utility.yul\":15697:15703   */\n      dup5\n        /* \"#utility.yul\":15635:15710   */\n      tag_311\n      jump\t// in\n    tag_498:\n        /* \"#utility.yul\":15735:15737   */\n      0x20\n        /* \"#utility.yul\":15730:15733   */\n      dup3\n        /* \"#utility.yul\":15726:15738   */\n      add\n        /* \"#utility.yul\":15719:15738   */\n      swap2\n      pop\n        /* \"#utility.yul\":15755:15758   */\n      dup2\n        /* \"#utility.yul\":15748:15758   */\n      swap1\n      pop\n        /* \"#utility.yul\":15508:15764   */\n      swap3\n      swap2\n      pop\n      pop\n      jump\t// out\n        /* \"#utility.yul\":15770:15950   */\n    tag_312:\n        /* \"#utility.yul\":15818:15895   */\n      0x4e487b7100000000000000000000000000000000000000000000000000000000\n        /* \"#utility.yul\":15815:15816   */\n      0x00\n        /* \"#utility.yul\":15808:15896   */\n      mstore\n        /* \"#utility.yul\":15915:15919   */\n      0x12\n        /* \"#utility.yul\":15912:15913   */\n      0x04\n        /* \"#utility.yul\":15905:15920   */\n      mstore\n        /* \"#utility.yul\":15939:15943   */\n      0x24\n        /* \"#utility.yul\":15936:15937   */\n      0x00\n        /* \"#utility.yul\":15929:15944   */\n      revert\n        /* \"#utility.yul\":15956:16141   */\n    tag_218:\n        /* \"#utility.yul\":15996:15997   */\n      0x00\n        /* \"#utility.yul\":16013:16033   */\n      tag_501\n        /* \"#utility.yul\":16031:16032   */\n      dup3\n        /* \"#utility.yul\":16013:16033   */\n      tag_277\n      jump\t// in\n    tag_501:\n        /* \"#utility.yul\":16008:16033   */\n      swap2\n      pop\n        /* \"#utility.yul\":16047:16067   */\n      tag_502\n        /* \"#utility.yul\":16065:16066   */\n      dup4\n        /* \"#utility.yul\":16047:16067   */\n      tag_277\n      jump\t// in\n    tag_502:\n        /* \"#utility.yul\":16042:16067   */\n      swap3\n      pop\n        /* \"#utility.yul\":16086:16087   */\n      dup3\n        /* \"#utility.yul\":16076:16111   */\n      tag_503\n      jumpi\n        /* \"#utility.yul\":16091:16109   */\n      tag_504\n      tag_312\n      jump\t// in\n    tag_504:\n        /* \"#utility.yul\":16076:16111   */\n    tag_503:\n        /* \"#utility.yul\":16133:16134   */\n      dup3\n        /* \"#utility.yul\":16130:16131   */\n      dup3\n        /* \"#utility.yul\":16126:16135   */\n      div\n        /* \"#utility.yul\":16121:16135   */\n      swap1\n      pop\n        /* \"#utility.yul\":15956:16141   */\n      swap3\n      swap2\n      pop\n      pop\n      jump\t// out\n        /* \"#utility.yul\":16147:16295   */\n    tag_313:\n        /* \"#utility.yul\":16249:16260   */\n      0x00\n        /* \"#utility.yul\":16286:16289   */\n      dup2\n        /* \"#utility.yul\":16271:16289   */\n      swap1\n      pop\n        /* \"#utility.yul\":16147:16295   */\n      swap3\n      swap2\n      pop\n      pop\n      jump\t// out\n        /* \"#utility.yul\":16301:16678   */\n    tag_314:\n        /* \"#utility.yul\":16407:16410   */\n      0x00\n        /* \"#utility.yul\":16435:16474   */\n      tag_507\n        /* \"#utility.yul\":16468:16473   */\n      dup3\n        /* \"#utility.yul\":16435:16474   */\n      tag_285\n      jump\t// in\n    tag_507:\n        /* \"#utility.yul\":16490:16579   */\n      tag_508\n        /* \"#utility.yul\":16572:16578   */\n      dup2\n        /* \"#utility.yul\":16567:16570   */\n      dup6\n        /* \"#utility.yul\":16490:16579   */\n      tag_313\n      jump\t// in\n    tag_508:\n        /* \"#utility.yul\":16483:16579   */\n      swap4\n      pop\n        /* \"#utility.yul\":16588:16640   */\n      tag_509\n        /* \"#utility.yul\":16633:16639   */\n      dup2\n        /* \"#utility.yul\":16628:16631   */\n      dup6\n        /* \"#utility.yul\":16621:16625   */\n      0x20\n        /* \"#utility.yul\":16614:16619   */\n      dup7\n        /* \"#utility.yul\":16610:16626   */\n      add\n        /* \"#utility.yul\":16588:16640   */\n      tag_287\n      jump\t// in\n    tag_509:\n        /* \"#utility.yul\":16665:16671   */\n      dup1\n        /* \"#utility.yul\":16660:16663   */\n      dup5\n        /* \"#utility.yul\":16656:16672   */\n      add\n        /* \"#utility.yul\":16649:16672   */\n      swap2\n      pop\n        /* \"#utility.yul\":16411:16678   */\n      pop\n        /* \"#utility.yul\":16301:16678   */\n      swap3\n      swap2\n      pop\n      pop\n      jump\t// out\n        /* \"#utility.yul\":16684:17279   */\n    tag_249:\n        /* \"#utility.yul\":16912:16915   */\n      0x00\n        /* \"#utility.yul\":16934:17029   */\n      tag_511\n        /* \"#utility.yul\":17025:17028   */\n      dup3\n        /* \"#utility.yul\":17016:17022   */\n      dup7\n        /* \"#utility.yul\":16934:17029   */\n      tag_314\n      jump\t// in\n    tag_511:\n        /* \"#utility.yul\":16927:17029   */\n      swap2\n      pop\n        /* \"#utility.yul\":17046:17141   */\n      tag_512\n        /* \"#utility.yul\":17137:17140   */\n      dup3\n        /* \"#utility.yul\":17128:17134   */\n      dup6\n        /* \"#utility.yul\":17046:17141   */\n      tag_314\n      jump\t// in\n    tag_512:\n        /* \"#utility.yul\":17039:17141   */\n      swap2\n      pop\n        /* \"#utility.yul\":17158:17253   */\n      tag_513\n        /* \"#utility.yul\":17249:17252   */\n      dup3\n        /* \"#utility.yul\":17240:17246   */\n      dup5\n        /* \"#utility.yul\":17158:17253   */\n      tag_314\n      jump\t// in\n    tag_513:\n        /* \"#utility.yul\":17151:17253   */\n      swap2\n      pop\n        /* \"#utility.yul\":17270:17273   */\n      dup2\n        /* \"#utility.yul\":17263:17273   */\n      swap1\n      pop\n        /* \"#utility.yul\":16684:17279   */\n      swap5\n      swap4\n      pop\n      pop\n      pop\n      pop\n      jump\t// out\n        /* \"#utility.yul\":17285:17465   */\n    tag_254:\n        /* \"#utility.yul\":17333:17410   */\n      0x4e487b7100000000000000000000000000000000000000000000000000000000\n        /* \"#utility.yul\":17330:17331   */\n      0x00\n        /* \"#utility.yul\":17323:17411   */\n      mstore\n        /* \"#utility.yul\":17430:17434   */\n      0x01\n        /* \"#utility.yul\":17427:17428   */\n      0x04\n        /* \"#utility.yul\":17420:17435   */\n      mstore\n        /* \"#utility.yul\":17454:17458   */\n      0x24\n        /* \"#utility.yul\":17451:17452   */\n      0x00\n        /* \"#utility.yul\":17444:17459   */\n      revert\n\n    auxdata: 0xa2646970667358221220e05d2479b19a0bc125d0336ffa4930b80903080691ce0bc82f852cd49bebc28064736f6c634300080a0033\n}\n","bytecode":{"linkReferences":{},"object":"60806040523480156200001157600080fd5b50604051620023323803806200233283398181016040528101906200003791906200039d565b806000806101000a81548173ffffffffffffffffffffffffffffffffffffffff021916908373ffffffffffffffffffffffffffffffffffffffff16021790555084600190805190602001906200008f929190620000b0565b508360028190555082600381905550816004819055505050505050620004a9565b828054620000be9062000473565b90600052602060002090601f016020900481019282620000e257600085556200012e565b82601f10620000fd57805160ff19168380011785556200012e565b828001600101855582156200012e579182015b828111156200012d57825182559160200191906001019062000110565b5b5090506200013d919062000141565b5090565b5b808211156200015c57600081600090555060010162000142565b5090565b6000604051905090565b600080fd5b600080fd5b600080fd5b600080fd5b6000601f19601f8301169050919050565b7f4e487b7100000000000000000000000000000000000000000000000000000000600052604160045260246000fd5b620001c9826200017e565b810181811067ffffffffffffffff82111715620001eb57620001ea6200018f565b5b80604052505050565b60006200020062000160565b90506200020e8282620001be565b919050565b600067ffffffffffffffff8211156200023157620002306200018f565b5b6200023c826200017e565b9050602081019050919050565b60005b83811015620002695780820151818401526020810190506200024c565b8381111562000279576000848401525b50505050565b600062000296620002908462000213565b620001f4565b905082815260208101848484011115620002b557620002b462000179565b5b620002c284828562000249565b509392505050565b600082601f830112620002e257620002e162000174565b5b8151620002f48482602086016200027f565b91505092915050565b6000819050919050565b6200031281620002fd565b81146200031e57600080fd5b50565b600081519050620003328162000307565b92915050565b600073ffffffffffffffffffffffffffffffffffffffff82169050919050565b6000620003658262000338565b9050919050565b620003778162000358565b81146200038357600080fd5b50565b60008151905062000397816200036c565b92915050565b600080600080600060a08688031215620003bc57620003bb6200016a565b5b600086015167ffffffffffffffff811115620003dd57620003dc6200016f565b5b620003eb88828901620002ca565b9550506020620003fe8882890162000321565b9450506040620004118882890162000321565b9350506060620004248882890162000321565b9250506080620004378882890162000386565b9150509295509295909350565b7f4e487b7100000000000000000000000000000000000000000000000000000000600052602260045260246000fd5b600060028204905060018216806200048c57607f821691505b60208210811415620004a357620004a262000444565b5b50919050565b611e7980620004b96000396000f3fe6080604052600436106101095760003560e01c80637284e41611610095578063b11a19e811610064578063b11a19e8146103a0578063d2b8b867146103dd578063d7bb99ba14610406578063d7e64c0014610410578063de14c8181461043b57610109565b80637284e416146102de5780638323406b1461030957806387d81789146103325780638da5cb5b1461037557610109565b806356ca623e116100dc57806356ca623e146101bf57806363fd9e38146101fc5780636900a3ae146102275780636f7bc9be1461026457806371aad10d146102a157610109565b806303120d461461010e5780633110235a1461013757806340193883146101625780634051ddac1461018d575b600080fd5b34801561011a57600080fd5b506101356004803603810190610130919061162f565b610464565b005b34801561014357600080fd5b5061014c61059d565b60405161015991906116ad565b60405180910390f35b34801561016e57600080fd5b506101776105a3565b60405161018491906116ad565b60405180910390f35b34801561019957600080fd5b506101a26105a9565b6040516101b6989796959493929190611771565b60405180910390f35b3480156101cb57600080fd5b506101e660048036038101906101e19190611822565b610692565b6040516101f3919061184f565b60405180910390f35b34801561020857600080fd5b506102116106c3565b60405161021e91906116ad565b60405180910390f35b34801561023357600080fd5b5061024e60048036038101906102499190611871565b6106c9565b60405161025b919061184f565b60405180910390f35b34801561027057600080fd5b5061028b60048036038101906102869190611822565b6106fa565b60405161029891906116ad565b60405180910390f35b3480156102ad57600080fd5b506102c860048036038101906102c3919061193f565b610712565b6040516102d5919061184f565b60405180910390f35b3480156102ea57600080fd5b506102f3610a0c565b604051610300919061184f565b60405180910390f35b34801561031557600080fd5b50610330600480360381019061032b9190611871565b610a9a565b005b34801561033e57600080fd5b5061035960048036038101906103549190611871565b610c3b565b60405161036c97969594939291906119b2565b60405180910390f35b34801561038157600080fd5b5061038a610e52565b6040516103979190611a36565b60405180910390f35b3480156103ac57600080fd5b506103c760048036038101906103c29190611a87565b610e76565b6040516103d4919061184f565b60405180910390f35b3480156103e957600080fd5b5061040460048036038101906103ff9190611871565b610ea7565b005b61040e610fff565b005b34801561041c57600080fd5b50610425611180565b60405161043291906116ad565b60405180910390f35b34801561044757600080fd5b50610462600480360381019061045d9190611871565b611186565b005b60008054906101000a900473ffffffffffffffffffffffffffffffffffffffff1673ffffffffffffffffffffffffffffffffffffffff163373ffffffffffffffffffffffffffffffffffffffff16146104bc57600080fd5b600060078054905090506007600181600181540180825580915050039060005260206000209050506000600782815481106104fa576104f9611ab4565b5b906000526020600020906006020190508481600001908051906020019061052292919061139e565b50838160010181905550828160030160006101000a81548173ffffffffffffffffffffffffffffffffffffffff021916908373ffffffffffffffffffffffffffffffffffffffff16021790555060008160030160146101000a81548160ff021916908315150217905550600081600201819055505050505050565b60035481565b60045481565b6060600080600080600080600060016002546003546004544760055460078054905060008054906101000a900473ffffffffffffffffffffffffffffffffffffffff168780546105f890611b12565b80601f016020809104026020016040519081016040528092919081815260200182805461062490611b12565b80156106715780601f1061064657610100808354040283529160200191610671565b820191906000526020600020905b81548152906001019060200180831161065457829003601f168201915b50505050509750975097509750975097509750975097509091929394959697565b60606106bc826040516020016106a89190611b8c565b604051602081830303815290604052610712565b9050919050565b60025481565b60606106f3826040516020016106df9190611bc8565b604051602081830303815290604052610712565b9050919050565b60066020528060005260406000206000915090505481565b606060006040518060400160405280601081526020017f3031323334353637383961626364656600000000000000000000000000000000815250905060006002845161075e9190611c12565b600261076a9190611c6c565b67ffffffffffffffff81111561078357610782611470565b5b6040519080825280601f01601f1916602001820160405280156107b55781602001600182028036833780820191505090505b5090507f3000000000000000000000000000000000000000000000000000000000000000816000815181106107ed576107ec611ab4565b5b60200101907effffffffffffffffffffffffffffffffffffffffffffffffffffffffffffff1916908160001a9053507f78000000000000000000000000000000000000000000000000000000000000008160018151811061085157610850611ab4565b5b60200101907effffffffffffffffffffffffffffffffffffffffffffffffffffffffffffff1916908160001a90535060005b8451811015610a01578260048683815181106108a2576108a1611ab4565b5b602001015160f81c60f81b7effffffffffffffffffffffffffffffffffffffffffffffffffffffffffffff1916901c60f81c60ff16815181106108e8576108e7611ab4565b5b602001015160f81c60f81b826002836109019190611c12565b600261090d9190611c6c565b8151811061091e5761091d611ab4565b5b60200101907effffffffffffffffffffffffffffffffffffffffffffffffffffffffffffff1916908160001a90535082600f60f81b86838151811061096657610965611ab4565b5b602001015160f81c60f81b1660f81c60ff168151811061098957610988611ab4565b5b602001015160f81c60f81b826002836109a29190611c12565b60036109ae9190611c6c565b815181106109bf576109be611ab4565b5b60200101907effffffffffffffffffffffffffffffffffffffffffffffffffffffffffffff1916908160001a90535080806109f990611cc2565b915050610883565b508092505050919050565b60018054610a1990611b12565b80601f0160208091040260200160405190810160405280929190818152602001828054610a4590611b12565b8015610a925780601f10610a6757610100808354040283529160200191610a92565b820191906000526020600020905b815481529060010190602001808311610a7557829003601f168201915b505050505081565b600060078281548110610ab057610aaf611ab4565b5b906000526020600020906006020190506000600660003373ffffffffffffffffffffffffffffffffffffffff1673ffffffffffffffffffffffffffffffffffffffff1681526020019081526020016000205411610b0c57600080fd5b600015158160030160149054906101000a900460ff16151514610b2e57600080fd5b60018160030160146101000a81548160ff021916908315150217905550610c1f816005018054610b5d90611b12565b80601f0160208091040260200160405190810160405280929190818152602001828054610b8990611b12565b8015610bd65780601f10610bab57610100808354040283529160200191610bd6565b820191906000526020600020905b815481529060010190602001808311610bb957829003601f168201915b50505050506040518060400160405280600181526020017f2d00000000000000000000000000000000000000000000000000000000000000815250610c1a33610692565b611343565b816005019080519060200190610c3692919061139e565b505050565b60078181548110610c4b57600080fd5b9060005260206000209060060201600091509050806000018054610c6e90611b12565b80601f0160208091040260200160405190810160405280929190818152602001828054610c9a90611b12565b8015610ce75780601f10610cbc57610100808354040283529160200191610ce7565b820191906000526020600020905b815481529060010190602001808311610cca57829003601f168201915b5050505050908060010154908060020154908060030160009054906101000a900473ffffffffffffffffffffffffffffffffffffffff16908060030160149054906101000a900460ff1690806004018054610d4190611b12565b80601f0160208091040260200160405190810160405280929190818152602001828054610d6d90611b12565b8015610dba5780601f10610d8f57610100808354040283529160200191610dba565b820191906000526020600020905b815481529060010190602001808311610d9d57829003601f168201915b505050505090806005018054610dcf90611b12565b80601f0160208091040260200160405190810160405280929190818152602001828054610dfb90611b12565b8015610e485780601f10610e1d57610100808354040283529160200191610e48565b820191906000526020600020905b815481529060010190602001808311610e2b57829003601f168201915b5050505050905087565b60008054906101000a900473ffffffffffffffffffffffffffffffffffffffff1681565b6060610ea082604051602001610e8c9190611d2c565b604051602081830303815290604052610712565b9050919050565b60008054906101000a900473ffffffffffffffffffffffffffffffffffffffff1673ffffffffffffffffffffffffffffffffffffffff163373ffffffffffffffffffffffffffffffffffffffff1614610eff57600080fd5b600060078281548110610f1557610f14611ab4565b5b906000526020600020906006020190508060030160149054906101000a900460ff16610f4057600080fd5b8060010154471015610f5157600080fd5b6002600554610f609190611d76565b816002015411610f6f57600080fd5b8060030160009054906101000a900473ffffffffffffffffffffffffffffffffffffffff1673ffffffffffffffffffffffffffffffffffffffff166108fc82600101549081150290604051600060405180830381858888f19350505050158015610fdd573d6000803e3d6000fd5b5060018160030160146101000a81548160ff0219169083151502179055505050565b60025434101561100e57600080fd5b60035434111561101d57600080fd5b6000611032344761137290919063ffffffff16565b905060045481111561104357600080fd5b6000600660003373ffffffffffffffffffffffffffffffffffffffff1673ffffffffffffffffffffffffffffffffffffffff16815260200190815260200160002054111561111e5734600660003373ffffffffffffffffffffffffffffffffffffffff1673ffffffffffffffffffffffffffffffffffffffff168152602001908152602001600020546110d69190611c6c565b600660003373ffffffffffffffffffffffffffffffffffffffff1673ffffffffffffffffffffffffffffffffffffffff1681526020019081526020016000208190555061117d565b34600660003373ffffffffffffffffffffffffffffffffffffffff1673ffffffffffffffffffffffffffffffffffffffff168152602001908152602001600020819055506001600560008282546111759190611c6c565b925050819055505b50565b60055481565b60006007828154811061119c5761119b611ab4565b5b906000526020600020906006020190506000600660003373ffffffffffffffffffffffffffffffffffffffff1673ffffffffffffffffffffffffffffffffffffffff16815260200190815260200160002054116111f857600080fd5b600015158160030160149054906101000a900460ff1615151461121a57600080fd5b60018160030160146101000a81548160ff021916908315150217905550600181600201600082825461124c9190611c6c565b9250508190555061132781600401805461126590611b12565b80601f016020809104026020016040519081016040528092919081815260200182805461129190611b12565b80156112de5780601f106112b3576101008083540402835291602001916112de565b820191906000526020600020905b8154815290600101906020018083116112c157829003601f168201915b50505050506040518060400160405280600181526020017f2d0000000000000000000000000000000000000000000000000000000000000081525061132233610692565b611343565b81600401908051906020019061133e92919061139e565b505050565b606083838360405160200161135a93929190611de3565b60405160208183030381529060405290509392505050565b60008082846113819190611c6c565b90508381101561139457611393611e14565b5b8091505092915050565b8280546113aa90611b12565b90600052602060002090601f0160209004810192826113cc5760008555611413565b82601f106113e557805160ff1916838001178555611413565b82800160010185558215611413579182015b828111156114125782518255916020019190600101906113f7565b5b5090506114209190611424565b5090565b5b8082111561143d576000816000905550600101611425565b5090565b6000604051905090565b600080fd5b600080fd5b600080fd5b600080fd5b6000601f19601f8301169050919050565b7f4e487b7100000000000000000000000000000000000000000000000000000000600052604160045260246000fd5b6114a88261145f565b810181811067ffffffffffffffff821117156114c7576114c6611470565b5b80604052505050565b60006114da611441565b90506114e6828261149f565b919050565b600067ffffffffffffffff82111561150657611505611470565b5b61150f8261145f565b9050602081019050919050565b82818337600083830152505050565b600061153e611539846114eb565b6114d0565b90508281526020810184848401111561155a5761155961145a565b5b61156584828561151c565b509392505050565b600082601f83011261158257611581611455565b5b813561159284826020860161152b565b91505092915050565b6000819050919050565b6115ae8161159b565b81146115b957600080fd5b50565b6000813590506115cb816115a5565b92915050565b600073ffffffffffffffffffffffffffffffffffffffff82169050919050565b60006115fc826115d1565b9050919050565b61160c816115f1565b811461161757600080fd5b50565b60008135905061162981611603565b92915050565b6000806000606084860312156116485761164761144b565b5b600084013567ffffffffffffffff81111561166657611665611450565b5b6116728682870161156d565b9350506020611683868287016115bc565b92505060406116948682870161161a565b9150509250925092565b6116a78161159b565b82525050565b60006020820190506116c2600083018461169e565b92915050565b600081519050919050565b600082825260208201905092915050565b60005b838110156117025780820151818401526020810190506116e7565b83811115611711576000848401525b50505050565b6000611722826116c8565b61172c81856116d3565b935061173c8185602086016116e4565b6117458161145f565b840191505092915050565b600061175b826115d1565b9050919050565b61176b81611750565b82525050565b600061010082019050818103600083015261178c818b611717565b905061179b602083018a61169e565b6117a8604083018961169e565b6117b5606083018861169e565b6117c2608083018761169e565b6117cf60a083018661169e565b6117dc60c083018561169e565b6117e960e0830184611762565b9998505050505050505050565b6117ff81611750565b811461180a57600080fd5b50565b60008135905061181c816117f6565b92915050565b6000602082840312156118385761183761144b565b5b60006118468482850161180d565b91505092915050565b600060208201905081810360008301526118698184611717565b905092915050565b6000602082840312156118875761188661144b565b5b6000611895848285016115bc565b91505092915050565b600067ffffffffffffffff8211156118b9576118b8611470565b5b6118c28261145f565b9050602081019050919050565b60006118e26118dd8461189e565b6114d0565b9050828152602081018484840111156118fe576118fd61145a565b5b61190984828561151c565b509392505050565b600082601f83011261192657611925611455565b5b81356119368482602086016118cf565b91505092915050565b6000602082840312156119555761195461144b565b5b600082013567ffffffffffffffff81111561197357611972611450565b5b61197f84828501611911565b91505092915050565b611991816115f1565b82525050565b60008115159050919050565b6119ac81611997565b82525050565b600060e08201905081810360008301526119cc818a611717565b90506119db602083018961169e565b6119e8604083018861169e565b6119f56060830187611988565b611a0260808301866119a3565b81810360a0830152611a148185611717565b905081810360c0830152611a288184611717565b905098975050505050505050565b6000602082019050611a4b6000830184611762565b92915050565b6000819050919050565b611a6481611a51565b8114611a6f57600080fd5b50565b600081359050611a8181611a5b565b92915050565b600060208284031215611a9d57611a9c61144b565b5b6000611aab84828501611a72565b91505092915050565b7f4e487b7100000000000000000000000000000000000000000000000000000000600052603260045260246000fd5b7f4e487b7100000000000000000000000000000000000000000000000000000000600052602260045260246000fd5b60006002820490506001821680611b2a57607f821691505b60208210811415611b3e57611b3d611ae3565b5b50919050565b60008160601b9050919050565b6000611b5c82611b44565b9050919050565b6000611b6e82611b51565b9050919050565b611b86611b8182611750565b611b63565b82525050565b6000611b988284611b75565b60148201915081905092915050565b6000819050919050565b611bc2611bbd8261159b565b611ba7565b82525050565b6000611bd48284611bb1565b60208201915081905092915050565b7f4e487b7100000000000000000000000000000000000000000000000000000000600052601160045260246000fd5b6000611c1d8261159b565b9150611c288361159b565b9250817fffffffffffffffffffffffffffffffffffffffffffffffffffffffffffffffff0483118215151615611c6157611c60611be3565b5b828202905092915050565b6000611c778261159b565b9150611c828361159b565b9250827fffffffffffffffffffffffffffffffffffffffffffffffffffffffffffffffff03821115611cb757611cb6611be3565b5b828201905092915050565b6000611ccd8261159b565b91507fffffffffffffffffffffffffffffffffffffffffffffffffffffffffffffffff821415611d0057611cff611be3565b5b600182019050919050565b6000819050919050565b611d26611d2182611a51565b611d0b565b82525050565b6000611d388284611d15565b60208201915081905092915050565b7f4e487b7100000000000000000000000000000000000000000000000000000000600052601260045260246000fd5b6000611d818261159b565b9150611d8c8361159b565b925082611d9c57611d9b611d47565b5b828204905092915050565b600081905092915050565b6000611dbd826116c8565b611dc78185611da7565b9350611dd78185602086016116e4565b80840191505092915050565b6000611def8286611db2565b9150611dfb8285611db2565b9150611e078284611db2565b9150819050949350505050565b7f4e487b7100000000000000000000000000000000000000000000000000000000600052600160045260246000fdfea2646970667358221220e05d2479b19a0bc125d0336ffa4930b80903080691ce0bc82f852cd49bebc28064736f6c634300080a0033","opcodes":"PUSH1 0x80 PUSH1 0x40 MSTORE CALLVALUE DUP1 ISZERO PUSH3 0x11 JUMPI PUSH1 0x0 DUP1 REVERT JUMPDEST POP PUSH1 0x40 MLOAD PUSH3 0x2332 CODESIZE SUB DUP1 PUSH3 0x2332 DUP4 CODECOPY DUP2 DUP2 ADD PUSH1 0x40 MSTORE DUP2 ADD SWAP1 PUSH3 0x37 SWAP2 SWAP1 PUSH3 0x39D JUMP JUMPDEST DUP1 PUSH1 0x0 DUP1 PUSH2 0x100 EXP DUP2 SLOAD DUP2 PUSH20 0xFFFFFFFFFFFFFFFFFFFFFFFFFFFFFFFFFFFFFFFF MUL NOT AND SWAP1 DUP4 PUSH20 0xFFFFFFFFFFFFFFFFFFFFFFFFFFFFFFFFFFFFFFFF AND MUL OR SWAP1 SSTORE POP DUP5 PUSH1 0x1 SWAP1 DUP1 MLOAD SWAP1 PUSH1 0x20 ADD SWAP1 PUSH3 0x8F SWAP3 SWAP2 SWAP1 PUSH3 0xB0 JUMP JUMPDEST POP DUP4 PUSH1 0x2 DUP2 SWAP1 SSTORE POP DUP3 PUSH1 0x3 DUP2 SWAP1 SSTORE POP DUP2 PUSH1 0x4 DUP2 SWAP1 SSTORE POP POP POP POP POP POP PUSH3 0x4A9 JUMP JUMPDEST DUP3 DUP1 SLOAD PUSH3 0xBE SWAP1 PUSH3 0x473 JUMP JUMPDEST SWAP1 PUSH1 0x0 MSTORE PUSH1 0x20 PUSH1 0x0 KECCAK256 SWAP1 PUSH1 0x1F ADD PUSH1 0x20 SWAP1 DIV DUP2 ADD SWAP3 DUP3 PUSH3 0xE2 JUMPI PUSH1 0x0 DUP6 SSTORE PUSH3 0x12E JUMP JUMPDEST DUP3 PUSH1 0x1F LT PUSH3 0xFD JUMPI DUP1 MLOAD PUSH1 0xFF NOT AND DUP4 DUP1 ADD OR DUP6 SSTORE PUSH3 0x12E JUMP JUMPDEST DUP3 DUP1 ADD PUSH1 0x1 ADD DUP6 SSTORE DUP3 ISZERO PUSH3 0x12E JUMPI SWAP2 DUP3 ADD JUMPDEST DUP3 DUP2 GT ISZERO PUSH3 0x12D JUMPI DUP3 MLOAD DUP3 SSTORE SWAP2 PUSH1 0x20 ADD SWAP2 SWAP1 PUSH1 0x1 ADD SWAP1 PUSH3 0x110 JUMP JUMPDEST JUMPDEST POP SWAP1 POP PUSH3 0x13D SWAP2 SWAP1 PUSH3 0x141 JUMP JUMPDEST POP SWAP1 JUMP JUMPDEST JUMPDEST DUP1 DUP3 GT ISZERO PUSH3 0x15C JUMPI PUSH1 0x0 DUP2 PUSH1 0x0 SWAP1 SSTORE POP PUSH1 0x1 ADD PUSH3 0x142 JUMP JUMPDEST POP SWAP1 JUMP JUMPDEST PUSH1 0x0 PUSH1 0x40 MLOAD SWAP1 POP SWAP1 JUMP JUMPDEST PUSH1 0x0 DUP1 REVERT JUMPDEST PUSH1 0x0 DUP1 REVERT JUMPDEST PUSH1 0x0 DUP1 REVERT JUMPDEST PUSH1 0x0 DUP1 REVERT JUMPDEST PUSH1 0x0 PUSH1 0x1F NOT PUSH1 0x1F DUP4 ADD AND SWAP1 POP SWAP2 SWAP1 POP JUMP JUMPDEST PUSH32 0x4E487B7100000000000000000000000000000000000000000000000000000000 PUSH1 0x0 MSTORE PUSH1 0x41 PUSH1 0x4 MSTORE PUSH1 0x24 PUSH1 0x0 REVERT JUMPDEST PUSH3 0x1C9 DUP3 PUSH3 0x17E JUMP JUMPDEST DUP2 ADD DUP2 DUP2 LT PUSH8 0xFFFFFFFFFFFFFFFF DUP3 GT OR ISZERO PUSH3 0x1EB JUMPI PUSH3 0x1EA PUSH3 0x18F JUMP JUMPDEST JUMPDEST DUP1 PUSH1 0x40 MSTORE POP POP POP JUMP JUMPDEST PUSH1 0x0 PUSH3 0x200 PUSH3 0x160 JUMP JUMPDEST SWAP1 POP PUSH3 0x20E DUP3 DUP3 PUSH3 0x1BE JUMP JUMPDEST SWAP2 SWAP1 POP JUMP JUMPDEST PUSH1 0x0 PUSH8 0xFFFFFFFFFFFFFFFF DUP3 GT ISZERO PUSH3 0x231 JUMPI PUSH3 0x230 PUSH3 0x18F JUMP JUMPDEST JUMPDEST PUSH3 0x23C DUP3 PUSH3 0x17E JUMP JUMPDEST SWAP1 POP PUSH1 0x20 DUP2 ADD SWAP1 POP SWAP2 SWAP1 POP JUMP JUMPDEST PUSH1 0x0 JUMPDEST DUP4 DUP2 LT ISZERO PUSH3 0x269 JUMPI DUP1 DUP3 ADD MLOAD DUP2 DUP5 ADD MSTORE PUSH1 0x20 DUP2 ADD SWAP1 POP PUSH3 0x24C JUMP JUMPDEST DUP4 DUP2 GT ISZERO PUSH3 0x279 JUMPI PUSH1 0x0 DUP5 DUP5 ADD MSTORE JUMPDEST POP POP POP POP JUMP JUMPDEST PUSH1 0x0 PUSH3 0x296 PUSH3 0x290 DUP5 PUSH3 0x213 JUMP JUMPDEST PUSH3 0x1F4 JUMP JUMPDEST SWAP1 POP DUP3 DUP2 MSTORE PUSH1 0x20 DUP2 ADD DUP5 DUP5 DUP5 ADD GT ISZERO PUSH3 0x2B5 JUMPI PUSH3 0x2B4 PUSH3 0x179 JUMP JUMPDEST JUMPDEST PUSH3 0x2C2 DUP5 DUP3 DUP6 PUSH3 0x249 JUMP JUMPDEST POP SWAP4 SWAP3 POP POP POP JUMP JUMPDEST PUSH1 0x0 DUP3 PUSH1 0x1F DUP4 ADD SLT PUSH3 0x2E2 JUMPI PUSH3 0x2E1 PUSH3 0x174 JUMP JUMPDEST JUMPDEST DUP2 MLOAD PUSH3 0x2F4 DUP5 DUP3 PUSH1 0x20 DUP7 ADD PUSH3 0x27F JUMP JUMPDEST SWAP2 POP POP SWAP3 SWAP2 POP POP JUMP JUMPDEST PUSH1 0x0 DUP2 SWAP1 POP SWAP2 SWAP1 POP JUMP JUMPDEST PUSH3 0x312 DUP2 PUSH3 0x2FD JUMP JUMPDEST DUP2 EQ PUSH3 0x31E JUMPI PUSH1 0x0 DUP1 REVERT JUMPDEST POP JUMP JUMPDEST PUSH1 0x0 DUP2 MLOAD SWAP1 POP PUSH3 0x332 DUP2 PUSH3 0x307 JUMP JUMPDEST SWAP3 SWAP2 POP POP JUMP JUMPDEST PUSH1 0x0 PUSH20 0xFFFFFFFFFFFFFFFFFFFFFFFFFFFFFFFFFFFFFFFF DUP3 AND SWAP1 POP SWAP2 SWAP1 POP JUMP JUMPDEST PUSH1 0x0 PUSH3 0x365 DUP3 PUSH3 0x338 JUMP JUMPDEST SWAP1 POP SWAP2 SWAP1 POP JUMP JUMPDEST PUSH3 0x377 DUP2 PUSH3 0x358 JUMP JUMPDEST DUP2 EQ PUSH3 0x383 JUMPI PUSH1 0x0 DUP1 REVERT JUMPDEST POP JUMP JUMPDEST PUSH1 0x0 DUP2 MLOAD SWAP1 POP PUSH3 0x397 DUP2 PUSH3 0x36C JUMP JUMPDEST SWAP3 SWAP2 POP POP JUMP JUMPDEST PUSH1 0x0 DUP1 PUSH1 0x0 DUP1 PUSH1 0x0 PUSH1 0xA0 DUP7 DUP9 SUB SLT ISZERO PUSH3 0x3BC JUMPI PUSH3 0x3BB PUSH3 0x16A JUMP JUMPDEST JUMPDEST PUSH1 0x0 DUP7 ADD MLOAD PUSH8 0xFFFFFFFFFFFFFFFF DUP2 GT ISZERO PUSH3 0x3DD JUMPI PUSH3 0x3DC PUSH3 0x16F JUMP JUMPDEST JUMPDEST PUSH3 0x3EB DUP9 DUP3 DUP10 ADD PUSH3 0x2CA JUMP JUMPDEST SWAP6 POP POP PUSH1 0x20 PUSH3 0x3FE DUP9 DUP3 DUP10 ADD PUSH3 0x321 JUMP JUMPDEST SWAP5 POP POP PUSH1 0x40 PUSH3 0x411 DUP9 DUP3 DUP10 ADD PUSH3 0x321 JUMP JUMPDEST SWAP4 POP POP PUSH1 0x60 PUSH3 0x424 DUP9 DUP3 DUP10 ADD PUSH3 0x321 JUMP JUMPDEST SWAP3 POP POP PUSH1 0x80 PUSH3 0x437 DUP9 DUP3 DUP10 ADD PUSH3 0x386 JUMP JUMPDEST SWAP2 POP POP SWAP3 SWAP6 POP SWAP3 SWAP6 SWAP1 SWAP4 POP JUMP JUMPDEST PUSH32 0x4E487B7100000000000000000000000000000000000000000000000000000000 PUSH1 0x0 MSTORE PUSH1 0x22 PUSH1 0x4 MSTORE PUSH1 0x24 PUSH1 0x0 REVERT JUMPDEST PUSH1 0x0 PUSH1 0x2 DUP3 DIV SWAP1 POP PUSH1 0x1 DUP3 AND DUP1 PUSH3 0x48C JUMPI PUSH1 0x7F DUP3 AND SWAP2 POP JUMPDEST PUSH1 0x20 DUP3 LT DUP2 EQ ISZERO PUSH3 0x4A3 JUMPI PUSH3 0x4A2 PUSH3 0x444 JUMP JUMPDEST JUMPDEST POP SWAP2 SWAP1 POP JUMP JUMPDEST PUSH2 0x1E79 DUP1 PUSH3 0x4B9 PUSH1 0x0 CODECOPY PUSH1 0x0 RETURN INVALID PUSH1 0x80 PUSH1 0x40 MSTORE PUSH1 0x4 CALLDATASIZE LT PUSH2 0x109 JUMPI PUSH1 0x0 CALLDATALOAD PUSH1 0xE0 SHR DUP1 PUSH4 0x7284E416 GT PUSH2 0x95 JUMPI DUP1 PUSH4 0xB11A19E8 GT PUSH2 0x64 JUMPI DUP1 PUSH4 0xB11A19E8 EQ PUSH2 0x3A0 JUMPI DUP1 PUSH4 0xD2B8B867 EQ PUSH2 0x3DD JUMPI DUP1 PUSH4 0xD7BB99BA EQ PUSH2 0x406 JUMPI DUP1 PUSH4 0xD7E64C00 EQ PUSH2 0x410 JUMPI DUP1 PUSH4 0xDE14C818 EQ PUSH2 0x43B JUMPI PUSH2 0x109 JUMP JUMPDEST DUP1 PUSH4 0x7284E416 EQ PUSH2 0x2DE JUMPI DUP1 PUSH4 0x8323406B EQ PUSH2 0x309 JUMPI DUP1 PUSH4 0x87D81789 EQ PUSH2 0x332 JUMPI DUP1 PUSH4 0x8DA5CB5B EQ PUSH2 0x375 JUMPI PUSH2 0x109 JUMP JUMPDEST DUP1 PUSH4 0x56CA623E GT PUSH2 0xDC JUMPI DUP1 PUSH4 0x56CA623E EQ PUSH2 0x1BF JUMPI DUP1 PUSH4 0x63FD9E38 EQ PUSH2 0x1FC JUMPI DUP1 PUSH4 0x6900A3AE EQ PUSH2 0x227 JUMPI DUP1 PUSH4 0x6F7BC9BE EQ PUSH2 0x264 JUMPI DUP1 PUSH4 0x71AAD10D EQ PUSH2 0x2A1 JUMPI PUSH2 0x109 JUMP JUMPDEST DUP1 PUSH4 0x3120D46 EQ PUSH2 0x10E JUMPI DUP1 PUSH4 0x3110235A EQ PUSH2 0x137 JUMPI DUP1 PUSH4 0x40193883 EQ PUSH2 0x162 JUMPI DUP1 PUSH4 0x4051DDAC EQ PUSH2 0x18D JUMPI JUMPDEST PUSH1 0x0 DUP1 REVERT JUMPDEST CALLVALUE DUP1 ISZERO PUSH2 0x11A JUMPI PUSH1 0x0 DUP1 REVERT JUMPDEST POP PUSH2 0x135 PUSH1 0x4 DUP1 CALLDATASIZE SUB DUP2 ADD SWAP1 PUSH2 0x130 SWAP2 SWAP1 PUSH2 0x162F JUMP JUMPDEST PUSH2 0x464 JUMP JUMPDEST STOP JUMPDEST CALLVALUE DUP1 ISZERO PUSH2 0x143 JUMPI PUSH1 0x0 DUP1 REVERT JUMPDEST POP PUSH2 0x14C PUSH2 0x59D JUMP JUMPDEST PUSH1 0x40 MLOAD PUSH2 0x159 SWAP2 SWAP1 PUSH2 0x16AD JUMP JUMPDEST PUSH1 0x40 MLOAD DUP1 SWAP2 SUB SWAP1 RETURN JUMPDEST CALLVALUE DUP1 ISZERO PUSH2 0x16E JUMPI PUSH1 0x0 DUP1 REVERT JUMPDEST POP PUSH2 0x177 PUSH2 0x5A3 JUMP JUMPDEST PUSH1 0x40 MLOAD PUSH2 0x184 SWAP2 SWAP1 PUSH2 0x16AD JUMP JUMPDEST PUSH1 0x40 MLOAD DUP1 SWAP2 SUB SWAP1 RETURN JUMPDEST CALLVALUE DUP1 ISZERO PUSH2 0x199 JUMPI PUSH1 0x0 DUP1 REVERT JUMPDEST POP PUSH2 0x1A2 PUSH2 0x5A9 JUMP JUMPDEST PUSH1 0x40 MLOAD PUSH2 0x1B6 SWAP9 SWAP8 SWAP7 SWAP6 SWAP5 SWAP4 SWAP3 SWAP2 SWAP1 PUSH2 0x1771 JUMP JUMPDEST PUSH1 0x40 MLOAD DUP1 SWAP2 SUB SWAP1 RETURN JUMPDEST CALLVALUE DUP1 ISZERO PUSH2 0x1CB JUMPI PUSH1 0x0 DUP1 REVERT JUMPDEST POP PUSH2 0x1E6 PUSH1 0x4 DUP1 CALLDATASIZE SUB DUP2 ADD SWAP1 PUSH2 0x1E1 SWAP2 SWAP1 PUSH2 0x1822 JUMP JUMPDEST PUSH2 0x692 JUMP JUMPDEST PUSH1 0x40 MLOAD PUSH2 0x1F3 SWAP2 SWAP1 PUSH2 0x184F JUMP JUMPDEST PUSH1 0x40 MLOAD DUP1 SWAP2 SUB SWAP1 RETURN JUMPDEST CALLVALUE DUP1 ISZERO PUSH2 0x208 JUMPI PUSH1 0x0 DUP1 REVERT JUMPDEST POP PUSH2 0x211 PUSH2 0x6C3 JUMP JUMPDEST PUSH1 0x40 MLOAD PUSH2 0x21E SWAP2 SWAP1 PUSH2 0x16AD JUMP JUMPDEST PUSH1 0x40 MLOAD DUP1 SWAP2 SUB SWAP1 RETURN JUMPDEST CALLVALUE DUP1 ISZERO PUSH2 0x233 JUMPI PUSH1 0x0 DUP1 REVERT JUMPDEST POP PUSH2 0x24E PUSH1 0x4 DUP1 CALLDATASIZE SUB DUP2 ADD SWAP1 PUSH2 0x249 SWAP2 SWAP1 PUSH2 0x1871 JUMP JUMPDEST PUSH2 0x6C9 JUMP JUMPDEST PUSH1 0x40 MLOAD PUSH2 0x25B SWAP2 SWAP1 PUSH2 0x184F JUMP JUMPDEST PUSH1 0x40 MLOAD DUP1 SWAP2 SUB SWAP1 RETURN JUMPDEST CALLVALUE DUP1 ISZERO PUSH2 0x270 JUMPI PUSH1 0x0 DUP1 REVERT JUMPDEST POP PUSH2 0x28B PUSH1 0x4 DUP1 CALLDATASIZE SUB DUP2 ADD SWAP1 PUSH2 0x286 SWAP2 SWAP1 PUSH2 0x1822 JUMP JUMPDEST PUSH2 0x6FA JUMP JUMPDEST PUSH1 0x40 MLOAD PUSH2 0x298 SWAP2 SWAP1 PUSH2 0x16AD JUMP JUMPDEST PUSH1 0x40 MLOAD DUP1 SWAP2 SUB SWAP1 RETURN JUMPDEST CALLVALUE DUP1 ISZERO PUSH2 0x2AD JUMPI PUSH1 0x0 DUP1 REVERT JUMPDEST POP PUSH2 0x2C8 PUSH1 0x4 DUP1 CALLDATASIZE SUB DUP2 ADD SWAP1 PUSH2 0x2C3 SWAP2 SWAP1 PUSH2 0x193F JUMP JUMPDEST PUSH2 0x712 JUMP JUMPDEST PUSH1 0x40 MLOAD PUSH2 0x2D5 SWAP2 SWAP1 PUSH2 0x184F JUMP JUMPDEST PUSH1 0x40 MLOAD DUP1 SWAP2 SUB SWAP1 RETURN JUMPDEST CALLVALUE DUP1 ISZERO PUSH2 0x2EA JUMPI PUSH1 0x0 DUP1 REVERT JUMPDEST POP PUSH2 0x2F3 PUSH2 0xA0C JUMP JUMPDEST PUSH1 0x40 MLOAD PUSH2 0x300 SWAP2 SWAP1 PUSH2 0x184F JUMP JUMPDEST PUSH1 0x40 MLOAD DUP1 SWAP2 SUB SWAP1 RETURN JUMPDEST CALLVALUE DUP1 ISZERO PUSH2 0x315 JUMPI PUSH1 0x0 DUP1 REVERT JUMPDEST POP PUSH2 0x330 PUSH1 0x4 DUP1 CALLDATASIZE SUB DUP2 ADD SWAP1 PUSH2 0x32B SWAP2 SWAP1 PUSH2 0x1871 JUMP JUMPDEST PUSH2 0xA9A JUMP JUMPDEST STOP JUMPDEST CALLVALUE DUP1 ISZERO PUSH2 0x33E JUMPI PUSH1 0x0 DUP1 REVERT JUMPDEST POP PUSH2 0x359 PUSH1 0x4 DUP1 CALLDATASIZE SUB DUP2 ADD SWAP1 PUSH2 0x354 SWAP2 SWAP1 PUSH2 0x1871 JUMP JUMPDEST PUSH2 0xC3B JUMP JUMPDEST PUSH1 0x40 MLOAD PUSH2 0x36C SWAP8 SWAP7 SWAP6 SWAP5 SWAP4 SWAP3 SWAP2 SWAP1 PUSH2 0x19B2 JUMP JUMPDEST PUSH1 0x40 MLOAD DUP1 SWAP2 SUB SWAP1 RETURN JUMPDEST CALLVALUE DUP1 ISZERO PUSH2 0x381 JUMPI PUSH1 0x0 DUP1 REVERT JUMPDEST POP PUSH2 0x38A PUSH2 0xE52 JUMP JUMPDEST PUSH1 0x40 MLOAD PUSH2 0x397 SWAP2 SWAP1 PUSH2 0x1A36 JUMP JUMPDEST PUSH1 0x40 MLOAD DUP1 SWAP2 SUB SWAP1 RETURN JUMPDEST CALLVALUE DUP1 ISZERO PUSH2 0x3AC JUMPI PUSH1 0x0 DUP1 REVERT JUMPDEST POP PUSH2 0x3C7 PUSH1 0x4 DUP1 CALLDATASIZE SUB DUP2 ADD SWAP1 PUSH2 0x3C2 SWAP2 SWAP1 PUSH2 0x1A87 JUMP JUMPDEST PUSH2 0xE76 JUMP JUMPDEST PUSH1 0x40 MLOAD PUSH2 0x3D4 SWAP2 SWAP1 PUSH2 0x184F JUMP JUMPDEST PUSH1 0x40 MLOAD DUP1 SWAP2 SUB SWAP1 RETURN JUMPDEST CALLVALUE DUP1 ISZERO PUSH2 0x3E9 JUMPI PUSH1 0x0 DUP1 REVERT JUMPDEST POP PUSH2 0x404 PUSH1 0x4 DUP1 CALLDATASIZE SUB DUP2 ADD SWAP1 PUSH2 0x3FF SWAP2 SWAP1 PUSH2 0x1871 JUMP JUMPDEST PUSH2 0xEA7 JUMP JUMPDEST STOP JUMPDEST PUSH2 0x40E PUSH2 0xFFF JUMP JUMPDEST STOP JUMPDEST CALLVALUE DUP1 ISZERO PUSH2 0x41C JUMPI PUSH1 0x0 DUP1 REVERT JUMPDEST POP PUSH2 0x425 PUSH2 0x1180 JUMP JUMPDEST PUSH1 0x40 MLOAD PUSH2 0x432 SWAP2 SWAP1 PUSH2 0x16AD JUMP JUMPDEST PUSH1 0x40 MLOAD DUP1 SWAP2 SUB SWAP1 RETURN JUMPDEST CALLVALUE DUP1 ISZERO PUSH2 0x447 JUMPI PUSH1 0x0 DUP1 REVERT JUMPDEST POP PUSH2 0x462 PUSH1 0x4 DUP1 CALLDATASIZE SUB DUP2 ADD SWAP1 PUSH2 0x45D SWAP2 SWAP1 PUSH2 0x1871 JUMP JUMPDEST PUSH2 0x1186 JUMP JUMPDEST STOP JUMPDEST PUSH1 0x0 DUP1 SLOAD SWAP1 PUSH2 0x100 EXP SWAP1 DIV PUSH20 0xFFFFFFFFFFFFFFFFFFFFFFFFFFFFFFFFFFFFFFFF AND PUSH20 0xFFFFFFFFFFFFFFFFFFFFFFFFFFFFFFFFFFFFFFFF AND CALLER PUSH20 0xFFFFFFFFFFFFFFFFFFFFFFFFFFFFFFFFFFFFFFFF AND EQ PUSH2 0x4BC JUMPI PUSH1 0x0 DUP1 REVERT JUMPDEST PUSH1 0x0 PUSH1 0x7 DUP1 SLOAD SWAP1 POP SWAP1 POP PUSH1 0x7 PUSH1 0x1 DUP2 PUSH1 0x1 DUP2 SLOAD ADD DUP1 DUP3 SSTORE DUP1 SWAP2 POP POP SUB SWAP1 PUSH1 0x0 MSTORE PUSH1 0x20 PUSH1 0x0 KECCAK256 SWAP1 POP POP PUSH1 0x0 PUSH1 0x7 DUP3 DUP2 SLOAD DUP2 LT PUSH2 0x4FA JUMPI PUSH2 0x4F9 PUSH2 0x1AB4 JUMP JUMPDEST JUMPDEST SWAP1 PUSH1 0x0 MSTORE PUSH1 0x20 PUSH1 0x0 KECCAK256 SWAP1 PUSH1 0x6 MUL ADD SWAP1 POP DUP5 DUP2 PUSH1 0x0 ADD SWAP1 DUP1 MLOAD SWAP1 PUSH1 0x20 ADD SWAP1 PUSH2 0x522 SWAP3 SWAP2 SWAP1 PUSH2 0x139E JUMP JUMPDEST POP DUP4 DUP2 PUSH1 0x1 ADD DUP2 SWAP1 SSTORE POP DUP3 DUP2 PUSH1 0x3 ADD PUSH1 0x0 PUSH2 0x100 EXP DUP2 SLOAD DUP2 PUSH20 0xFFFFFFFFFFFFFFFFFFFFFFFFFFFFFFFFFFFFFFFF MUL NOT AND SWAP1 DUP4 PUSH20 0xFFFFFFFFFFFFFFFFFFFFFFFFFFFFFFFFFFFFFFFF AND MUL OR SWAP1 SSTORE POP PUSH1 0x0 DUP2 PUSH1 0x3 ADD PUSH1 0x14 PUSH2 0x100 EXP DUP2 SLOAD DUP2 PUSH1 0xFF MUL NOT AND SWAP1 DUP4 ISZERO ISZERO MUL OR SWAP1 SSTORE POP PUSH1 0x0 DUP2 PUSH1 0x2 ADD DUP2 SWAP1 SSTORE POP POP POP POP POP POP JUMP JUMPDEST PUSH1 0x3 SLOAD DUP2 JUMP JUMPDEST PUSH1 0x4 SLOAD DUP2 JUMP JUMPDEST PUSH1 0x60 PUSH1 0x0 DUP1 PUSH1 0x0 DUP1 PUSH1 0x0 DUP1 PUSH1 0x0 PUSH1 0x1 PUSH1 0x2 SLOAD PUSH1 0x3 SLOAD PUSH1 0x4 SLOAD SELFBALANCE PUSH1 0x5 SLOAD PUSH1 0x7 DUP1 SLOAD SWAP1 POP PUSH1 0x0 DUP1 SLOAD SWAP1 PUSH2 0x100 EXP SWAP1 DIV PUSH20 0xFFFFFFFFFFFFFFFFFFFFFFFFFFFFFFFFFFFFFFFF AND DUP8 DUP1 SLOAD PUSH2 0x5F8 SWAP1 PUSH2 0x1B12 JUMP JUMPDEST DUP1 PUSH1 0x1F ADD PUSH1 0x20 DUP1 SWAP2 DIV MUL PUSH1 0x20 ADD PUSH1 0x40 MLOAD SWAP1 DUP2 ADD PUSH1 0x40 MSTORE DUP1 SWAP3 SWAP2 SWAP1 DUP2 DUP2 MSTORE PUSH1 0x20 ADD DUP3 DUP1 SLOAD PUSH2 0x624 SWAP1 PUSH2 0x1B12 JUMP JUMPDEST DUP1 ISZERO PUSH2 0x671 JUMPI DUP1 PUSH1 0x1F LT PUSH2 0x646 JUMPI PUSH2 0x100 DUP1 DUP4 SLOAD DIV MUL DUP4 MSTORE SWAP2 PUSH1 0x20 ADD SWAP2 PUSH2 0x671 JUMP JUMPDEST DUP3 ADD SWAP2 SWAP1 PUSH1 0x0 MSTORE PUSH1 0x20 PUSH1 0x0 KECCAK256 SWAP1 JUMPDEST DUP2 SLOAD DUP2 MSTORE SWAP1 PUSH1 0x1 ADD SWAP1 PUSH1 0x20 ADD DUP1 DUP4 GT PUSH2 0x654 JUMPI DUP3 SWAP1 SUB PUSH1 0x1F AND DUP3 ADD SWAP2 JUMPDEST POP POP POP POP POP SWAP8 POP SWAP8 POP SWAP8 POP SWAP8 POP SWAP8 POP SWAP8 POP SWAP8 POP SWAP8 POP SWAP8 POP SWAP1 SWAP2 SWAP3 SWAP4 SWAP5 SWAP6 SWAP7 SWAP8 JUMP JUMPDEST PUSH1 0x60 PUSH2 0x6BC DUP3 PUSH1 0x40 MLOAD PUSH1 0x20 ADD PUSH2 0x6A8 SWAP2 SWAP1 PUSH2 0x1B8C JUMP JUMPDEST PUSH1 0x40 MLOAD PUSH1 0x20 DUP2 DUP4 SUB SUB DUP2 MSTORE SWAP1 PUSH1 0x40 MSTORE PUSH2 0x712 JUMP JUMPDEST SWAP1 POP SWAP2 SWAP1 POP JUMP JUMPDEST PUSH1 0x2 SLOAD DUP2 JUMP JUMPDEST PUSH1 0x60 PUSH2 0x6F3 DUP3 PUSH1 0x40 MLOAD PUSH1 0x20 ADD PUSH2 0x6DF SWAP2 SWAP1 PUSH2 0x1BC8 JUMP JUMPDEST PUSH1 0x40 MLOAD PUSH1 0x20 DUP2 DUP4 SUB SUB DUP2 MSTORE SWAP1 PUSH1 0x40 MSTORE PUSH2 0x712 JUMP JUMPDEST SWAP1 POP SWAP2 SWAP1 POP JUMP JUMPDEST PUSH1 0x6 PUSH1 0x20 MSTORE DUP1 PUSH1 0x0 MSTORE PUSH1 0x40 PUSH1 0x0 KECCAK256 PUSH1 0x0 SWAP2 POP SWAP1 POP SLOAD DUP2 JUMP JUMPDEST PUSH1 0x60 PUSH1 0x0 PUSH1 0x40 MLOAD DUP1 PUSH1 0x40 ADD PUSH1 0x40 MSTORE DUP1 PUSH1 0x10 DUP2 MSTORE PUSH1 0x20 ADD PUSH32 0x3031323334353637383961626364656600000000000000000000000000000000 DUP2 MSTORE POP SWAP1 POP PUSH1 0x0 PUSH1 0x2 DUP5 MLOAD PUSH2 0x75E SWAP2 SWAP1 PUSH2 0x1C12 JUMP JUMPDEST PUSH1 0x2 PUSH2 0x76A SWAP2 SWAP1 PUSH2 0x1C6C JUMP JUMPDEST PUSH8 0xFFFFFFFFFFFFFFFF DUP2 GT ISZERO PUSH2 0x783 JUMPI PUSH2 0x782 PUSH2 0x1470 JUMP JUMPDEST JUMPDEST PUSH1 0x40 MLOAD SWAP1 DUP1 DUP3 MSTORE DUP1 PUSH1 0x1F ADD PUSH1 0x1F NOT AND PUSH1 0x20 ADD DUP3 ADD PUSH1 0x40 MSTORE DUP1 ISZERO PUSH2 0x7B5 JUMPI DUP2 PUSH1 0x20 ADD PUSH1 0x1 DUP3 MUL DUP1 CALLDATASIZE DUP4 CALLDATACOPY DUP1 DUP3 ADD SWAP2 POP POP SWAP1 POP JUMPDEST POP SWAP1 POP PUSH32 0x3000000000000000000000000000000000000000000000000000000000000000 DUP2 PUSH1 0x0 DUP2 MLOAD DUP2 LT PUSH2 0x7ED JUMPI PUSH2 0x7EC PUSH2 0x1AB4 JUMP JUMPDEST JUMPDEST PUSH1 0x20 ADD ADD SWAP1 PUSH31 0xFFFFFFFFFFFFFFFFFFFFFFFFFFFFFFFFFFFFFFFFFFFFFFFFFFFFFFFFFFFFFF NOT AND SWAP1 DUP2 PUSH1 0x0 BYTE SWAP1 MSTORE8 POP PUSH32 0x7800000000000000000000000000000000000000000000000000000000000000 DUP2 PUSH1 0x1 DUP2 MLOAD DUP2 LT PUSH2 0x851 JUMPI PUSH2 0x850 PUSH2 0x1AB4 JUMP JUMPDEST JUMPDEST PUSH1 0x20 ADD ADD SWAP1 PUSH31 0xFFFFFFFFFFFFFFFFFFFFFFFFFFFFFFFFFFFFFFFFFFFFFFFFFFFFFFFFFFFFFF NOT AND SWAP1 DUP2 PUSH1 0x0 BYTE SWAP1 MSTORE8 POP PUSH1 0x0 JUMPDEST DUP5 MLOAD DUP2 LT ISZERO PUSH2 0xA01 JUMPI DUP3 PUSH1 0x4 DUP7 DUP4 DUP2 MLOAD DUP2 LT PUSH2 0x8A2 JUMPI PUSH2 0x8A1 PUSH2 0x1AB4 JUMP JUMPDEST JUMPDEST PUSH1 0x20 ADD ADD MLOAD PUSH1 0xF8 SHR PUSH1 0xF8 SHL PUSH31 0xFFFFFFFFFFFFFFFFFFFFFFFFFFFFFFFFFFFFFFFFFFFFFFFFFFFFFFFFFFFFFF NOT AND SWAP1 SHR PUSH1 0xF8 SHR PUSH1 0xFF AND DUP2 MLOAD DUP2 LT PUSH2 0x8E8 JUMPI PUSH2 0x8E7 PUSH2 0x1AB4 JUMP JUMPDEST JUMPDEST PUSH1 0x20 ADD ADD MLOAD PUSH1 0xF8 SHR PUSH1 0xF8 SHL DUP3 PUSH1 0x2 DUP4 PUSH2 0x901 SWAP2 SWAP1 PUSH2 0x1C12 JUMP JUMPDEST PUSH1 0x2 PUSH2 0x90D SWAP2 SWAP1 PUSH2 0x1C6C JUMP JUMPDEST DUP2 MLOAD DUP2 LT PUSH2 0x91E JUMPI PUSH2 0x91D PUSH2 0x1AB4 JUMP JUMPDEST JUMPDEST PUSH1 0x20 ADD ADD SWAP1 PUSH31 0xFFFFFFFFFFFFFFFFFFFFFFFFFFFFFFFFFFFFFFFFFFFFFFFFFFFFFFFFFFFFFF NOT AND SWAP1 DUP2 PUSH1 0x0 BYTE SWAP1 MSTORE8 POP DUP3 PUSH1 0xF PUSH1 0xF8 SHL DUP7 DUP4 DUP2 MLOAD DUP2 LT PUSH2 0x966 JUMPI PUSH2 0x965 PUSH2 0x1AB4 JUMP JUMPDEST JUMPDEST PUSH1 0x20 ADD ADD MLOAD PUSH1 0xF8 SHR PUSH1 0xF8 SHL AND PUSH1 0xF8 SHR PUSH1 0xFF AND DUP2 MLOAD DUP2 LT PUSH2 0x989 JUMPI PUSH2 0x988 PUSH2 0x1AB4 JUMP JUMPDEST JUMPDEST PUSH1 0x20 ADD ADD MLOAD PUSH1 0xF8 SHR PUSH1 0xF8 SHL DUP3 PUSH1 0x2 DUP4 PUSH2 0x9A2 SWAP2 SWAP1 PUSH2 0x1C12 JUMP JUMPDEST PUSH1 0x3 PUSH2 0x9AE SWAP2 SWAP1 PUSH2 0x1C6C JUMP JUMPDEST DUP2 MLOAD DUP2 LT PUSH2 0x9BF JUMPI PUSH2 0x9BE PUSH2 0x1AB4 JUMP JUMPDEST JUMPDEST PUSH1 0x20 ADD ADD SWAP1 PUSH31 0xFFFFFFFFFFFFFFFFFFFFFFFFFFFFFFFFFFFFFFFFFFFFFFFFFFFFFFFFFFFFFF NOT AND SWAP1 DUP2 PUSH1 0x0 BYTE SWAP1 MSTORE8 POP DUP1 DUP1 PUSH2 0x9F9 SWAP1 PUSH2 0x1CC2 JUMP JUMPDEST SWAP2 POP POP PUSH2 0x883 JUMP JUMPDEST POP DUP1 SWAP3 POP POP POP SWAP2 SWAP1 POP JUMP JUMPDEST PUSH1 0x1 DUP1 SLOAD PUSH2 0xA19 SWAP1 PUSH2 0x1B12 JUMP JUMPDEST DUP1 PUSH1 0x1F ADD PUSH1 0x20 DUP1 SWAP2 DIV MUL PUSH1 0x20 ADD PUSH1 0x40 MLOAD SWAP1 DUP2 ADD PUSH1 0x40 MSTORE DUP1 SWAP3 SWAP2 SWAP1 DUP2 DUP2 MSTORE PUSH1 0x20 ADD DUP3 DUP1 SLOAD PUSH2 0xA45 SWAP1 PUSH2 0x1B12 JUMP JUMPDEST DUP1 ISZERO PUSH2 0xA92 JUMPI DUP1 PUSH1 0x1F LT PUSH2 0xA67 JUMPI PUSH2 0x100 DUP1 DUP4 SLOAD DIV MUL DUP4 MSTORE SWAP2 PUSH1 0x20 ADD SWAP2 PUSH2 0xA92 JUMP JUMPDEST DUP3 ADD SWAP2 SWAP1 PUSH1 0x0 MSTORE PUSH1 0x20 PUSH1 0x0 KECCAK256 SWAP1 JUMPDEST DUP2 SLOAD DUP2 MSTORE SWAP1 PUSH1 0x1 ADD SWAP1 PUSH1 0x20 ADD DUP1 DUP4 GT PUSH2 0xA75 JUMPI DUP3 SWAP1 SUB PUSH1 0x1F AND DUP3 ADD SWAP2 JUMPDEST POP POP POP POP POP DUP2 JUMP JUMPDEST PUSH1 0x0 PUSH1 0x7 DUP3 DUP2 SLOAD DUP2 LT PUSH2 0xAB0 JUMPI PUSH2 0xAAF PUSH2 0x1AB4 JUMP JUMPDEST JUMPDEST SWAP1 PUSH1 0x0 MSTORE PUSH1 0x20 PUSH1 0x0 KECCAK256 SWAP1 PUSH1 0x6 MUL ADD SWAP1 POP PUSH1 0x0 PUSH1 0x6 PUSH1 0x0 CALLER PUSH20 0xFFFFFFFFFFFFFFFFFFFFFFFFFFFFFFFFFFFFFFFF AND PUSH20 0xFFFFFFFFFFFFFFFFFFFFFFFFFFFFFFFFFFFFFFFF AND DUP2 MSTORE PUSH1 0x20 ADD SWAP1 DUP2 MSTORE PUSH1 0x20 ADD PUSH1 0x0 KECCAK256 SLOAD GT PUSH2 0xB0C JUMPI PUSH1 0x0 DUP1 REVERT JUMPDEST PUSH1 0x0 ISZERO ISZERO DUP2 PUSH1 0x3 ADD PUSH1 0x14 SWAP1 SLOAD SWAP1 PUSH2 0x100 EXP SWAP1 DIV PUSH1 0xFF AND ISZERO ISZERO EQ PUSH2 0xB2E JUMPI PUSH1 0x0 DUP1 REVERT JUMPDEST PUSH1 0x1 DUP2 PUSH1 0x3 ADD PUSH1 0x14 PUSH2 0x100 EXP DUP2 SLOAD DUP2 PUSH1 0xFF MUL NOT AND SWAP1 DUP4 ISZERO ISZERO MUL OR SWAP1 SSTORE POP PUSH2 0xC1F DUP2 PUSH1 0x5 ADD DUP1 SLOAD PUSH2 0xB5D SWAP1 PUSH2 0x1B12 JUMP JUMPDEST DUP1 PUSH1 0x1F ADD PUSH1 0x20 DUP1 SWAP2 DIV MUL PUSH1 0x20 ADD PUSH1 0x40 MLOAD SWAP1 DUP2 ADD PUSH1 0x40 MSTORE DUP1 SWAP3 SWAP2 SWAP1 DUP2 DUP2 MSTORE PUSH1 0x20 ADD DUP3 DUP1 SLOAD PUSH2 0xB89 SWAP1 PUSH2 0x1B12 JUMP JUMPDEST DUP1 ISZERO PUSH2 0xBD6 JUMPI DUP1 PUSH1 0x1F LT PUSH2 0xBAB JUMPI PUSH2 0x100 DUP1 DUP4 SLOAD DIV MUL DUP4 MSTORE SWAP2 PUSH1 0x20 ADD SWAP2 PUSH2 0xBD6 JUMP JUMPDEST DUP3 ADD SWAP2 SWAP1 PUSH1 0x0 MSTORE PUSH1 0x20 PUSH1 0x0 KECCAK256 SWAP1 JUMPDEST DUP2 SLOAD DUP2 MSTORE SWAP1 PUSH1 0x1 ADD SWAP1 PUSH1 0x20 ADD DUP1 DUP4 GT PUSH2 0xBB9 JUMPI DUP3 SWAP1 SUB PUSH1 0x1F AND DUP3 ADD SWAP2 JUMPDEST POP POP POP POP POP PUSH1 0x40 MLOAD DUP1 PUSH1 0x40 ADD PUSH1 0x40 MSTORE DUP1 PUSH1 0x1 DUP2 MSTORE PUSH1 0x20 ADD PUSH32 0x2D00000000000000000000000000000000000000000000000000000000000000 DUP2 MSTORE POP PUSH2 0xC1A CALLER PUSH2 0x692 JUMP JUMPDEST PUSH2 0x1343 JUMP JUMPDEST DUP2 PUSH1 0x5 ADD SWAP1 DUP1 MLOAD SWAP1 PUSH1 0x20 ADD SWAP1 PUSH2 0xC36 SWAP3 SWAP2 SWAP1 PUSH2 0x139E JUMP JUMPDEST POP POP POP JUMP JUMPDEST PUSH1 0x7 DUP2 DUP2 SLOAD DUP2 LT PUSH2 0xC4B JUMPI PUSH1 0x0 DUP1 REVERT JUMPDEST SWAP1 PUSH1 0x0 MSTORE PUSH1 0x20 PUSH1 0x0 KECCAK256 SWAP1 PUSH1 0x6 MUL ADD PUSH1 0x0 SWAP2 POP SWAP1 POP DUP1 PUSH1 0x0 ADD DUP1 SLOAD PUSH2 0xC6E SWAP1 PUSH2 0x1B12 JUMP JUMPDEST DUP1 PUSH1 0x1F ADD PUSH1 0x20 DUP1 SWAP2 DIV MUL PUSH1 0x20 ADD PUSH1 0x40 MLOAD SWAP1 DUP2 ADD PUSH1 0x40 MSTORE DUP1 SWAP3 SWAP2 SWAP1 DUP2 DUP2 MSTORE PUSH1 0x20 ADD DUP3 DUP1 SLOAD PUSH2 0xC9A SWAP1 PUSH2 0x1B12 JUMP JUMPDEST DUP1 ISZERO PUSH2 0xCE7 JUMPI DUP1 PUSH1 0x1F LT PUSH2 0xCBC JUMPI PUSH2 0x100 DUP1 DUP4 SLOAD DIV MUL DUP4 MSTORE SWAP2 PUSH1 0x20 ADD SWAP2 PUSH2 0xCE7 JUMP JUMPDEST DUP3 ADD SWAP2 SWAP1 PUSH1 0x0 MSTORE PUSH1 0x20 PUSH1 0x0 KECCAK256 SWAP1 JUMPDEST DUP2 SLOAD DUP2 MSTORE SWAP1 PUSH1 0x1 ADD SWAP1 PUSH1 0x20 ADD DUP1 DUP4 GT PUSH2 0xCCA JUMPI DUP3 SWAP1 SUB PUSH1 0x1F AND DUP3 ADD SWAP2 JUMPDEST POP POP POP POP POP SWAP1 DUP1 PUSH1 0x1 ADD SLOAD SWAP1 DUP1 PUSH1 0x2 ADD SLOAD SWAP1 DUP1 PUSH1 0x3 ADD PUSH1 0x0 SWAP1 SLOAD SWAP1 PUSH2 0x100 EXP SWAP1 DIV PUSH20 0xFFFFFFFFFFFFFFFFFFFFFFFFFFFFFFFFFFFFFFFF AND SWAP1 DUP1 PUSH1 0x3 ADD PUSH1 0x14 SWAP1 SLOAD SWAP1 PUSH2 0x100 EXP SWAP1 DIV PUSH1 0xFF AND SWAP1 DUP1 PUSH1 0x4 ADD DUP1 SLOAD PUSH2 0xD41 SWAP1 PUSH2 0x1B12 JUMP JUMPDEST DUP1 PUSH1 0x1F ADD PUSH1 0x20 DUP1 SWAP2 DIV MUL PUSH1 0x20 ADD PUSH1 0x40 MLOAD SWAP1 DUP2 ADD PUSH1 0x40 MSTORE DUP1 SWAP3 SWAP2 SWAP1 DUP2 DUP2 MSTORE PUSH1 0x20 ADD DUP3 DUP1 SLOAD PUSH2 0xD6D SWAP1 PUSH2 0x1B12 JUMP JUMPDEST DUP1 ISZERO PUSH2 0xDBA JUMPI DUP1 PUSH1 0x1F LT PUSH2 0xD8F JUMPI PUSH2 0x100 DUP1 DUP4 SLOAD DIV MUL DUP4 MSTORE SWAP2 PUSH1 0x20 ADD SWAP2 PUSH2 0xDBA JUMP JUMPDEST DUP3 ADD SWAP2 SWAP1 PUSH1 0x0 MSTORE PUSH1 0x20 PUSH1 0x0 KECCAK256 SWAP1 JUMPDEST DUP2 SLOAD DUP2 MSTORE SWAP1 PUSH1 0x1 ADD SWAP1 PUSH1 0x20 ADD DUP1 DUP4 GT PUSH2 0xD9D JUMPI DUP3 SWAP1 SUB PUSH1 0x1F AND DUP3 ADD SWAP2 JUMPDEST POP POP POP POP POP SWAP1 DUP1 PUSH1 0x5 ADD DUP1 SLOAD PUSH2 0xDCF SWAP1 PUSH2 0x1B12 JUMP JUMPDEST DUP1 PUSH1 0x1F ADD PUSH1 0x20 DUP1 SWAP2 DIV MUL PUSH1 0x20 ADD PUSH1 0x40 MLOAD SWAP1 DUP2 ADD PUSH1 0x40 MSTORE DUP1 SWAP3 SWAP2 SWAP1 DUP2 DUP2 MSTORE PUSH1 0x20 ADD DUP3 DUP1 SLOAD PUSH2 0xDFB SWAP1 PUSH2 0x1B12 JUMP JUMPDEST DUP1 ISZERO PUSH2 0xE48 JUMPI DUP1 PUSH1 0x1F LT PUSH2 0xE1D JUMPI PUSH2 0x100 DUP1 DUP4 SLOAD DIV MUL DUP4 MSTORE SWAP2 PUSH1 0x20 ADD SWAP2 PUSH2 0xE48 JUMP JUMPDEST DUP3 ADD SWAP2 SWAP1 PUSH1 0x0 MSTORE PUSH1 0x20 PUSH1 0x0 KECCAK256 SWAP1 JUMPDEST DUP2 SLOAD DUP2 MSTORE SWAP1 PUSH1 0x1 ADD SWAP1 PUSH1 0x20 ADD DUP1 DUP4 GT PUSH2 0xE2B JUMPI DUP3 SWAP1 SUB PUSH1 0x1F AND DUP3 ADD SWAP2 JUMPDEST POP POP POP POP POP SWAP1 POP DUP8 JUMP JUMPDEST PUSH1 0x0 DUP1 SLOAD SWAP1 PUSH2 0x100 EXP SWAP1 DIV PUSH20 0xFFFFFFFFFFFFFFFFFFFFFFFFFFFFFFFFFFFFFFFF AND DUP2 JUMP JUMPDEST PUSH1 0x60 PUSH2 0xEA0 DUP3 PUSH1 0x40 MLOAD PUSH1 0x20 ADD PUSH2 0xE8C SWAP2 SWAP1 PUSH2 0x1D2C JUMP JUMPDEST PUSH1 0x40 MLOAD PUSH1 0x20 DUP2 DUP4 SUB SUB DUP2 MSTORE SWAP1 PUSH1 0x40 MSTORE PUSH2 0x712 JUMP JUMPDEST SWAP1 POP SWAP2 SWAP1 POP JUMP JUMPDEST PUSH1 0x0 DUP1 SLOAD SWAP1 PUSH2 0x100 EXP SWAP1 DIV PUSH20 0xFFFFFFFFFFFFFFFFFFFFFFFFFFFFFFFFFFFFFFFF AND PUSH20 0xFFFFFFFFFFFFFFFFFFFFFFFFFFFFFFFFFFFFFFFF AND CALLER PUSH20 0xFFFFFFFFFFFFFFFFFFFFFFFFFFFFFFFFFFFFFFFF AND EQ PUSH2 0xEFF JUMPI PUSH1 0x0 DUP1 REVERT JUMPDEST PUSH1 0x0 PUSH1 0x7 DUP3 DUP2 SLOAD DUP2 LT PUSH2 0xF15 JUMPI PUSH2 0xF14 PUSH2 0x1AB4 JUMP JUMPDEST JUMPDEST SWAP1 PUSH1 0x0 MSTORE PUSH1 0x20 PUSH1 0x0 KECCAK256 SWAP1 PUSH1 0x6 MUL ADD SWAP1 POP DUP1 PUSH1 0x3 ADD PUSH1 0x14 SWAP1 SLOAD SWAP1 PUSH2 0x100 EXP SWAP1 DIV PUSH1 0xFF AND PUSH2 0xF40 JUMPI PUSH1 0x0 DUP1 REVERT JUMPDEST DUP1 PUSH1 0x1 ADD SLOAD SELFBALANCE LT ISZERO PUSH2 0xF51 JUMPI PUSH1 0x0 DUP1 REVERT JUMPDEST PUSH1 0x2 PUSH1 0x5 SLOAD PUSH2 0xF60 SWAP2 SWAP1 PUSH2 0x1D76 JUMP JUMPDEST DUP2 PUSH1 0x2 ADD SLOAD GT PUSH2 0xF6F JUMPI PUSH1 0x0 DUP1 REVERT JUMPDEST DUP1 PUSH1 0x3 ADD PUSH1 0x0 SWAP1 SLOAD SWAP1 PUSH2 0x100 EXP SWAP1 DIV PUSH20 0xFFFFFFFFFFFFFFFFFFFFFFFFFFFFFFFFFFFFFFFF AND PUSH20 0xFFFFFFFFFFFFFFFFFFFFFFFFFFFFFFFFFFFFFFFF AND PUSH2 0x8FC DUP3 PUSH1 0x1 ADD SLOAD SWAP1 DUP2 ISZERO MUL SWAP1 PUSH1 0x40 MLOAD PUSH1 0x0 PUSH1 0x40 MLOAD DUP1 DUP4 SUB DUP2 DUP6 DUP9 DUP9 CALL SWAP4 POP POP POP POP ISZERO DUP1 ISZERO PUSH2 0xFDD JUMPI RETURNDATASIZE PUSH1 0x0 DUP1 RETURNDATACOPY RETURNDATASIZE PUSH1 0x0 REVERT JUMPDEST POP PUSH1 0x1 DUP2 PUSH1 0x3 ADD PUSH1 0x14 PUSH2 0x100 EXP DUP2 SLOAD DUP2 PUSH1 0xFF MUL NOT AND SWAP1 DUP4 ISZERO ISZERO MUL OR SWAP1 SSTORE POP POP POP JUMP JUMPDEST PUSH1 0x2 SLOAD CALLVALUE LT ISZERO PUSH2 0x100E JUMPI PUSH1 0x0 DUP1 REVERT JUMPDEST PUSH1 0x3 SLOAD CALLVALUE GT ISZERO PUSH2 0x101D JUMPI PUSH1 0x0 DUP1 REVERT JUMPDEST PUSH1 0x0 PUSH2 0x1032 CALLVALUE SELFBALANCE PUSH2 0x1372 SWAP1 SWAP2 SWAP1 PUSH4 0xFFFFFFFF AND JUMP JUMPDEST SWAP1 POP PUSH1 0x4 SLOAD DUP2 GT ISZERO PUSH2 0x1043 JUMPI PUSH1 0x0 DUP1 REVERT JUMPDEST PUSH1 0x0 PUSH1 0x6 PUSH1 0x0 CALLER PUSH20 0xFFFFFFFFFFFFFFFFFFFFFFFFFFFFFFFFFFFFFFFF AND PUSH20 0xFFFFFFFFFFFFFFFFFFFFFFFFFFFFFFFFFFFFFFFF AND DUP2 MSTORE PUSH1 0x20 ADD SWAP1 DUP2 MSTORE PUSH1 0x20 ADD PUSH1 0x0 KECCAK256 SLOAD GT ISZERO PUSH2 0x111E JUMPI CALLVALUE PUSH1 0x6 PUSH1 0x0 CALLER PUSH20 0xFFFFFFFFFFFFFFFFFFFFFFFFFFFFFFFFFFFFFFFF AND PUSH20 0xFFFFFFFFFFFFFFFFFFFFFFFFFFFFFFFFFFFFFFFF AND DUP2 MSTORE PUSH1 0x20 ADD SWAP1 DUP2 MSTORE PUSH1 0x20 ADD PUSH1 0x0 KECCAK256 SLOAD PUSH2 0x10D6 SWAP2 SWAP1 PUSH2 0x1C6C JUMP JUMPDEST PUSH1 0x6 PUSH1 0x0 CALLER PUSH20 0xFFFFFFFFFFFFFFFFFFFFFFFFFFFFFFFFFFFFFFFF AND PUSH20 0xFFFFFFFFFFFFFFFFFFFFFFFFFFFFFFFFFFFFFFFF AND DUP2 MSTORE PUSH1 0x20 ADD SWAP1 DUP2 MSTORE PUSH1 0x20 ADD PUSH1 0x0 KECCAK256 DUP2 SWAP1 SSTORE POP PUSH2 0x117D JUMP JUMPDEST CALLVALUE PUSH1 0x6 PUSH1 0x0 CALLER PUSH20 0xFFFFFFFFFFFFFFFFFFFFFFFFFFFFFFFFFFFFFFFF AND PUSH20 0xFFFFFFFFFFFFFFFFFFFFFFFFFFFFFFFFFFFFFFFF AND DUP2 MSTORE PUSH1 0x20 ADD SWAP1 DUP2 MSTORE PUSH1 0x20 ADD PUSH1 0x0 KECCAK256 DUP2 SWAP1 SSTORE POP PUSH1 0x1 PUSH1 0x5 PUSH1 0x0 DUP3 DUP3 SLOAD PUSH2 0x1175 SWAP2 SWAP1 PUSH2 0x1C6C JUMP JUMPDEST SWAP3 POP POP DUP2 SWAP1 SSTORE POP JUMPDEST POP JUMP JUMPDEST PUSH1 0x5 SLOAD DUP2 JUMP JUMPDEST PUSH1 0x0 PUSH1 0x7 DUP3 DUP2 SLOAD DUP2 LT PUSH2 0x119C JUMPI PUSH2 0x119B PUSH2 0x1AB4 JUMP JUMPDEST JUMPDEST SWAP1 PUSH1 0x0 MSTORE PUSH1 0x20 PUSH1 0x0 KECCAK256 SWAP1 PUSH1 0x6 MUL ADD SWAP1 POP PUSH1 0x0 PUSH1 0x6 PUSH1 0x0 CALLER PUSH20 0xFFFFFFFFFFFFFFFFFFFFFFFFFFFFFFFFFFFFFFFF AND PUSH20 0xFFFFFFFFFFFFFFFFFFFFFFFFFFFFFFFFFFFFFFFF AND DUP2 MSTORE PUSH1 0x20 ADD SWAP1 DUP2 MSTORE PUSH1 0x20 ADD PUSH1 0x0 KECCAK256 SLOAD GT PUSH2 0x11F8 JUMPI PUSH1 0x0 DUP1 REVERT JUMPDEST PUSH1 0x0 ISZERO ISZERO DUP2 PUSH1 0x3 ADD PUSH1 0x14 SWAP1 SLOAD SWAP1 PUSH2 0x100 EXP SWAP1 DIV PUSH1 0xFF AND ISZERO ISZERO EQ PUSH2 0x121A JUMPI PUSH1 0x0 DUP1 REVERT JUMPDEST PUSH1 0x1 DUP2 PUSH1 0x3 ADD PUSH1 0x14 PUSH2 0x100 EXP DUP2 SLOAD DUP2 PUSH1 0xFF MUL NOT AND SWAP1 DUP4 ISZERO ISZERO MUL OR SWAP1 SSTORE POP PUSH1 0x1 DUP2 PUSH1 0x2 ADD PUSH1 0x0 DUP3 DUP3 SLOAD PUSH2 0x124C SWAP2 SWAP1 PUSH2 0x1C6C JUMP JUMPDEST SWAP3 POP POP DUP2 SWAP1 SSTORE POP PUSH2 0x1327 DUP2 PUSH1 0x4 ADD DUP1 SLOAD PUSH2 0x1265 SWAP1 PUSH2 0x1B12 JUMP JUMPDEST DUP1 PUSH1 0x1F ADD PUSH1 0x20 DUP1 SWAP2 DIV MUL PUSH1 0x20 ADD PUSH1 0x40 MLOAD SWAP1 DUP2 ADD PUSH1 0x40 MSTORE DUP1 SWAP3 SWAP2 SWAP1 DUP2 DUP2 MSTORE PUSH1 0x20 ADD DUP3 DUP1 SLOAD PUSH2 0x1291 SWAP1 PUSH2 0x1B12 JUMP JUMPDEST DUP1 ISZERO PUSH2 0x12DE JUMPI DUP1 PUSH1 0x1F LT PUSH2 0x12B3 JUMPI PUSH2 0x100 DUP1 DUP4 SLOAD DIV MUL DUP4 MSTORE SWAP2 PUSH1 0x20 ADD SWAP2 PUSH2 0x12DE JUMP JUMPDEST DUP3 ADD SWAP2 SWAP1 PUSH1 0x0 MSTORE PUSH1 0x20 PUSH1 0x0 KECCAK256 SWAP1 JUMPDEST DUP2 SLOAD DUP2 MSTORE SWAP1 PUSH1 0x1 ADD SWAP1 PUSH1 0x20 ADD DUP1 DUP4 GT PUSH2 0x12C1 JUMPI DUP3 SWAP1 SUB PUSH1 0x1F AND DUP3 ADD SWAP2 JUMPDEST POP POP POP POP POP PUSH1 0x40 MLOAD DUP1 PUSH1 0x40 ADD PUSH1 0x40 MSTORE DUP1 PUSH1 0x1 DUP2 MSTORE PUSH1 0x20 ADD PUSH32 0x2D00000000000000000000000000000000000000000000000000000000000000 DUP2 MSTORE POP PUSH2 0x1322 CALLER PUSH2 0x692 JUMP JUMPDEST PUSH2 0x1343 JUMP JUMPDEST DUP2 PUSH1 0x4 ADD SWAP1 DUP1 MLOAD SWAP1 PUSH1 0x20 ADD SWAP1 PUSH2 0x133E SWAP3 SWAP2 SWAP1 PUSH2 0x139E JUMP JUMPDEST POP POP POP JUMP JUMPDEST PUSH1 0x60 DUP4 DUP4 DUP4 PUSH1 0x40 MLOAD PUSH1 0x20 ADD PUSH2 0x135A SWAP4 SWAP3 SWAP2 SWAP1 PUSH2 0x1DE3 JUMP JUMPDEST PUSH1 0x40 MLOAD PUSH1 0x20 DUP2 DUP4 SUB SUB DUP2 MSTORE SWAP1 PUSH1 0x40 MSTORE SWAP1 POP SWAP4 SWAP3 POP POP POP JUMP JUMPDEST PUSH1 0x0 DUP1 DUP3 DUP5 PUSH2 0x1381 SWAP2 SWAP1 PUSH2 0x1C6C JUMP JUMPDEST SWAP1 POP DUP4 DUP2 LT ISZERO PUSH2 0x1394 JUMPI PUSH2 0x1393 PUSH2 0x1E14 JUMP JUMPDEST JUMPDEST DUP1 SWAP2 POP POP SWAP3 SWAP2 POP POP JUMP JUMPDEST DUP3 DUP1 SLOAD PUSH2 0x13AA SWAP1 PUSH2 0x1B12 JUMP JUMPDEST SWAP1 PUSH1 0x0 MSTORE PUSH1 0x20 PUSH1 0x0 KECCAK256 SWAP1 PUSH1 0x1F ADD PUSH1 0x20 SWAP1 DIV DUP2 ADD SWAP3 DUP3 PUSH2 0x13CC JUMPI PUSH1 0x0 DUP6 SSTORE PUSH2 0x1413 JUMP JUMPDEST DUP3 PUSH1 0x1F LT PUSH2 0x13E5 JUMPI DUP1 MLOAD PUSH1 0xFF NOT AND DUP4 DUP1 ADD OR DUP6 SSTORE PUSH2 0x1413 JUMP JUMPDEST DUP3 DUP1 ADD PUSH1 0x1 ADD DUP6 SSTORE DUP3 ISZERO PUSH2 0x1413 JUMPI SWAP2 DUP3 ADD JUMPDEST DUP3 DUP2 GT ISZERO PUSH2 0x1412 JUMPI DUP3 MLOAD DUP3 SSTORE SWAP2 PUSH1 0x20 ADD SWAP2 SWAP1 PUSH1 0x1 ADD SWAP1 PUSH2 0x13F7 JUMP JUMPDEST JUMPDEST POP SWAP1 POP PUSH2 0x1420 SWAP2 SWAP1 PUSH2 0x1424 JUMP JUMPDEST POP SWAP1 JUMP JUMPDEST JUMPDEST DUP1 DUP3 GT ISZERO PUSH2 0x143D JUMPI PUSH1 0x0 DUP2 PUSH1 0x0 SWAP1 SSTORE POP PUSH1 0x1 ADD PUSH2 0x1425 JUMP JUMPDEST POP SWAP1 JUMP JUMPDEST PUSH1 0x0 PUSH1 0x40 MLOAD SWAP1 POP SWAP1 JUMP JUMPDEST PUSH1 0x0 DUP1 REVERT JUMPDEST PUSH1 0x0 DUP1 REVERT JUMPDEST PUSH1 0x0 DUP1 REVERT JUMPDEST PUSH1 0x0 DUP1 REVERT JUMPDEST PUSH1 0x0 PUSH1 0x1F NOT PUSH1 0x1F DUP4 ADD AND SWAP1 POP SWAP2 SWAP1 POP JUMP JUMPDEST PUSH32 0x4E487B7100000000000000000000000000000000000000000000000000000000 PUSH1 0x0 MSTORE PUSH1 0x41 PUSH1 0x4 MSTORE PUSH1 0x24 PUSH1 0x0 REVERT JUMPDEST PUSH2 0x14A8 DUP3 PUSH2 0x145F JUMP JUMPDEST DUP2 ADD DUP2 DUP2 LT PUSH8 0xFFFFFFFFFFFFFFFF DUP3 GT OR ISZERO PUSH2 0x14C7 JUMPI PUSH2 0x14C6 PUSH2 0x1470 JUMP JUMPDEST JUMPDEST DUP1 PUSH1 0x40 MSTORE POP POP POP JUMP JUMPDEST PUSH1 0x0 PUSH2 0x14DA PUSH2 0x1441 JUMP JUMPDEST SWAP1 POP PUSH2 0x14E6 DUP3 DUP3 PUSH2 0x149F JUMP JUMPDEST SWAP2 SWAP1 POP JUMP JUMPDEST PUSH1 0x0 PUSH8 0xFFFFFFFFFFFFFFFF DUP3 GT ISZERO PUSH2 0x1506 JUMPI PUSH2 0x1505 PUSH2 0x1470 JUMP JUMPDEST JUMPDEST PUSH2 0x150F DUP3 PUSH2 0x145F JUMP JUMPDEST SWAP1 POP PUSH1 0x20 DUP2 ADD SWAP1 POP SWAP2 SWAP1 POP JUMP JUMPDEST DUP3 DUP2 DUP4 CALLDATACOPY PUSH1 0x0 DUP4 DUP4 ADD MSTORE POP POP POP JUMP JUMPDEST PUSH1 0x0 PUSH2 0x153E PUSH2 0x1539 DUP5 PUSH2 0x14EB JUMP JUMPDEST PUSH2 0x14D0 JUMP JUMPDEST SWAP1 POP DUP3 DUP2 MSTORE PUSH1 0x20 DUP2 ADD DUP5 DUP5 DUP5 ADD GT ISZERO PUSH2 0x155A JUMPI PUSH2 0x1559 PUSH2 0x145A JUMP JUMPDEST JUMPDEST PUSH2 0x1565 DUP5 DUP3 DUP6 PUSH2 0x151C JUMP JUMPDEST POP SWAP4 SWAP3 POP POP POP JUMP JUMPDEST PUSH1 0x0 DUP3 PUSH1 0x1F DUP4 ADD SLT PUSH2 0x1582 JUMPI PUSH2 0x1581 PUSH2 0x1455 JUMP JUMPDEST JUMPDEST DUP2 CALLDATALOAD PUSH2 0x1592 DUP5 DUP3 PUSH1 0x20 DUP7 ADD PUSH2 0x152B JUMP JUMPDEST SWAP2 POP POP SWAP3 SWAP2 POP POP JUMP JUMPDEST PUSH1 0x0 DUP2 SWAP1 POP SWAP2 SWAP1 POP JUMP JUMPDEST PUSH2 0x15AE DUP2 PUSH2 0x159B JUMP JUMPDEST DUP2 EQ PUSH2 0x15B9 JUMPI PUSH1 0x0 DUP1 REVERT JUMPDEST POP JUMP JUMPDEST PUSH1 0x0 DUP2 CALLDATALOAD SWAP1 POP PUSH2 0x15CB DUP2 PUSH2 0x15A5 JUMP JUMPDEST SWAP3 SWAP2 POP POP JUMP JUMPDEST PUSH1 0x0 PUSH20 0xFFFFFFFFFFFFFFFFFFFFFFFFFFFFFFFFFFFFFFFF DUP3 AND SWAP1 POP SWAP2 SWAP1 POP JUMP JUMPDEST PUSH1 0x0 PUSH2 0x15FC DUP3 PUSH2 0x15D1 JUMP JUMPDEST SWAP1 POP SWAP2 SWAP1 POP JUMP JUMPDEST PUSH2 0x160C DUP2 PUSH2 0x15F1 JUMP JUMPDEST DUP2 EQ PUSH2 0x1617 JUMPI PUSH1 0x0 DUP1 REVERT JUMPDEST POP JUMP JUMPDEST PUSH1 0x0 DUP2 CALLDATALOAD SWAP1 POP PUSH2 0x1629 DUP2 PUSH2 0x1603 JUMP JUMPDEST SWAP3 SWAP2 POP POP JUMP JUMPDEST PUSH1 0x0 DUP1 PUSH1 0x0 PUSH1 0x60 DUP5 DUP7 SUB SLT ISZERO PUSH2 0x1648 JUMPI PUSH2 0x1647 PUSH2 0x144B JUMP JUMPDEST JUMPDEST PUSH1 0x0 DUP5 ADD CALLDATALOAD PUSH8 0xFFFFFFFFFFFFFFFF DUP2 GT ISZERO PUSH2 0x1666 JUMPI PUSH2 0x1665 PUSH2 0x1450 JUMP JUMPDEST JUMPDEST PUSH2 0x1672 DUP7 DUP3 DUP8 ADD PUSH2 0x156D JUMP JUMPDEST SWAP4 POP POP PUSH1 0x20 PUSH2 0x1683 DUP7 DUP3 DUP8 ADD PUSH2 0x15BC JUMP JUMPDEST SWAP3 POP POP PUSH1 0x40 PUSH2 0x1694 DUP7 DUP3 DUP8 ADD PUSH2 0x161A JUMP JUMPDEST SWAP2 POP POP SWAP3 POP SWAP3 POP SWAP3 JUMP JUMPDEST PUSH2 0x16A7 DUP2 PUSH2 0x159B JUMP JUMPDEST DUP3 MSTORE POP POP JUMP JUMPDEST PUSH1 0x0 PUSH1 0x20 DUP3 ADD SWAP1 POP PUSH2 0x16C2 PUSH1 0x0 DUP4 ADD DUP5 PUSH2 0x169E JUMP JUMPDEST SWAP3 SWAP2 POP POP JUMP JUMPDEST PUSH1 0x0 DUP2 MLOAD SWAP1 POP SWAP2 SWAP1 POP JUMP JUMPDEST PUSH1 0x0 DUP3 DUP3 MSTORE PUSH1 0x20 DUP3 ADD SWAP1 POP SWAP3 SWAP2 POP POP JUMP JUMPDEST PUSH1 0x0 JUMPDEST DUP4 DUP2 LT ISZERO PUSH2 0x1702 JUMPI DUP1 DUP3 ADD MLOAD DUP2 DUP5 ADD MSTORE PUSH1 0x20 DUP2 ADD SWAP1 POP PUSH2 0x16E7 JUMP JUMPDEST DUP4 DUP2 GT ISZERO PUSH2 0x1711 JUMPI PUSH1 0x0 DUP5 DUP5 ADD MSTORE JUMPDEST POP POP POP POP JUMP JUMPDEST PUSH1 0x0 PUSH2 0x1722 DUP3 PUSH2 0x16C8 JUMP JUMPDEST PUSH2 0x172C DUP2 DUP6 PUSH2 0x16D3 JUMP JUMPDEST SWAP4 POP PUSH2 0x173C DUP2 DUP6 PUSH1 0x20 DUP7 ADD PUSH2 0x16E4 JUMP JUMPDEST PUSH2 0x1745 DUP2 PUSH2 0x145F JUMP JUMPDEST DUP5 ADD SWAP2 POP POP SWAP3 SWAP2 POP POP JUMP JUMPDEST PUSH1 0x0 PUSH2 0x175B DUP3 PUSH2 0x15D1 JUMP JUMPDEST SWAP1 POP SWAP2 SWAP1 POP JUMP JUMPDEST PUSH2 0x176B DUP2 PUSH2 0x1750 JUMP JUMPDEST DUP3 MSTORE POP POP JUMP JUMPDEST PUSH1 0x0 PUSH2 0x100 DUP3 ADD SWAP1 POP DUP2 DUP2 SUB PUSH1 0x0 DUP4 ADD MSTORE PUSH2 0x178C DUP2 DUP12 PUSH2 0x1717 JUMP JUMPDEST SWAP1 POP PUSH2 0x179B PUSH1 0x20 DUP4 ADD DUP11 PUSH2 0x169E JUMP JUMPDEST PUSH2 0x17A8 PUSH1 0x40 DUP4 ADD DUP10 PUSH2 0x169E JUMP JUMPDEST PUSH2 0x17B5 PUSH1 0x60 DUP4 ADD DUP9 PUSH2 0x169E JUMP JUMPDEST PUSH2 0x17C2 PUSH1 0x80 DUP4 ADD DUP8 PUSH2 0x169E JUMP JUMPDEST PUSH2 0x17CF PUSH1 0xA0 DUP4 ADD DUP7 PUSH2 0x169E JUMP JUMPDEST PUSH2 0x17DC PUSH1 0xC0 DUP4 ADD DUP6 PUSH2 0x169E JUMP JUMPDEST PUSH2 0x17E9 PUSH1 0xE0 DUP4 ADD DUP5 PUSH2 0x1762 JUMP JUMPDEST SWAP10 SWAP9 POP POP POP POP POP POP POP POP POP JUMP JUMPDEST PUSH2 0x17FF DUP2 PUSH2 0x1750 JUMP JUMPDEST DUP2 EQ PUSH2 0x180A JUMPI PUSH1 0x0 DUP1 REVERT JUMPDEST POP JUMP JUMPDEST PUSH1 0x0 DUP2 CALLDATALOAD SWAP1 POP PUSH2 0x181C DUP2 PUSH2 0x17F6 JUMP JUMPDEST SWAP3 SWAP2 POP POP JUMP JUMPDEST PUSH1 0x0 PUSH1 0x20 DUP3 DUP5 SUB SLT ISZERO PUSH2 0x1838 JUMPI PUSH2 0x1837 PUSH2 0x144B JUMP JUMPDEST JUMPDEST PUSH1 0x0 PUSH2 0x1846 DUP5 DUP3 DUP6 ADD PUSH2 0x180D JUMP JUMPDEST SWAP2 POP POP SWAP3 SWAP2 POP POP JUMP JUMPDEST PUSH1 0x0 PUSH1 0x20 DUP3 ADD SWAP1 POP DUP2 DUP2 SUB PUSH1 0x0 DUP4 ADD MSTORE PUSH2 0x1869 DUP2 DUP5 PUSH2 0x1717 JUMP JUMPDEST SWAP1 POP SWAP3 SWAP2 POP POP JUMP JUMPDEST PUSH1 0x0 PUSH1 0x20 DUP3 DUP5 SUB SLT ISZERO PUSH2 0x1887 JUMPI PUSH2 0x1886 PUSH2 0x144B JUMP JUMPDEST JUMPDEST PUSH1 0x0 PUSH2 0x1895 DUP5 DUP3 DUP6 ADD PUSH2 0x15BC JUMP JUMPDEST SWAP2 POP POP SWAP3 SWAP2 POP POP JUMP JUMPDEST PUSH1 0x0 PUSH8 0xFFFFFFFFFFFFFFFF DUP3 GT ISZERO PUSH2 0x18B9 JUMPI PUSH2 0x18B8 PUSH2 0x1470 JUMP JUMPDEST JUMPDEST PUSH2 0x18C2 DUP3 PUSH2 0x145F JUMP JUMPDEST SWAP1 POP PUSH1 0x20 DUP2 ADD SWAP1 POP SWAP2 SWAP1 POP JUMP JUMPDEST PUSH1 0x0 PUSH2 0x18E2 PUSH2 0x18DD DUP5 PUSH2 0x189E JUMP JUMPDEST PUSH2 0x14D0 JUMP JUMPDEST SWAP1 POP DUP3 DUP2 MSTORE PUSH1 0x20 DUP2 ADD DUP5 DUP5 DUP5 ADD GT ISZERO PUSH2 0x18FE JUMPI PUSH2 0x18FD PUSH2 0x145A JUMP JUMPDEST JUMPDEST PUSH2 0x1909 DUP5 DUP3 DUP6 PUSH2 0x151C JUMP JUMPDEST POP SWAP4 SWAP3 POP POP POP JUMP JUMPDEST PUSH1 0x0 DUP3 PUSH1 0x1F DUP4 ADD SLT PUSH2 0x1926 JUMPI PUSH2 0x1925 PUSH2 0x1455 JUMP JUMPDEST JUMPDEST DUP2 CALLDATALOAD PUSH2 0x1936 DUP5 DUP3 PUSH1 0x20 DUP7 ADD PUSH2 0x18CF JUMP JUMPDEST SWAP2 POP POP SWAP3 SWAP2 POP POP JUMP JUMPDEST PUSH1 0x0 PUSH1 0x20 DUP3 DUP5 SUB SLT ISZERO PUSH2 0x1955 JUMPI PUSH2 0x1954 PUSH2 0x144B JUMP JUMPDEST JUMPDEST PUSH1 0x0 DUP3 ADD CALLDATALOAD PUSH8 0xFFFFFFFFFFFFFFFF DUP2 GT ISZERO PUSH2 0x1973 JUMPI PUSH2 0x1972 PUSH2 0x1450 JUMP JUMPDEST JUMPDEST PUSH2 0x197F DUP5 DUP3 DUP6 ADD PUSH2 0x1911 JUMP JUMPDEST SWAP2 POP POP SWAP3 SWAP2 POP POP JUMP JUMPDEST PUSH2 0x1991 DUP2 PUSH2 0x15F1 JUMP JUMPDEST DUP3 MSTORE POP POP JUMP JUMPDEST PUSH1 0x0 DUP2 ISZERO ISZERO SWAP1 POP SWAP2 SWAP1 POP JUMP JUMPDEST PUSH2 0x19AC DUP2 PUSH2 0x1997 JUMP JUMPDEST DUP3 MSTORE POP POP JUMP JUMPDEST PUSH1 0x0 PUSH1 0xE0 DUP3 ADD SWAP1 POP DUP2 DUP2 SUB PUSH1 0x0 DUP4 ADD MSTORE PUSH2 0x19CC DUP2 DUP11 PUSH2 0x1717 JUMP JUMPDEST SWAP1 POP PUSH2 0x19DB PUSH1 0x20 DUP4 ADD DUP10 PUSH2 0x169E JUMP JUMPDEST PUSH2 0x19E8 PUSH1 0x40 DUP4 ADD DUP9 PUSH2 0x169E JUMP JUMPDEST PUSH2 0x19F5 PUSH1 0x60 DUP4 ADD DUP8 PUSH2 0x1988 JUMP JUMPDEST PUSH2 0x1A02 PUSH1 0x80 DUP4 ADD DUP7 PUSH2 0x19A3 JUMP JUMPDEST DUP2 DUP2 SUB PUSH1 0xA0 DUP4 ADD MSTORE PUSH2 0x1A14 DUP2 DUP6 PUSH2 0x1717 JUMP JUMPDEST SWAP1 POP DUP2 DUP2 SUB PUSH1 0xC0 DUP4 ADD MSTORE PUSH2 0x1A28 DUP2 DUP5 PUSH2 0x1717 JUMP JUMPDEST SWAP1 POP SWAP9 SWAP8 POP POP POP POP POP POP POP POP JUMP JUMPDEST PUSH1 0x0 PUSH1 0x20 DUP3 ADD SWAP1 POP PUSH2 0x1A4B PUSH1 0x0 DUP4 ADD DUP5 PUSH2 0x1762 JUMP JUMPDEST SWAP3 SWAP2 POP POP JUMP JUMPDEST PUSH1 0x0 DUP2 SWAP1 POP SWAP2 SWAP1 POP JUMP JUMPDEST PUSH2 0x1A64 DUP2 PUSH2 0x1A51 JUMP JUMPDEST DUP2 EQ PUSH2 0x1A6F JUMPI PUSH1 0x0 DUP1 REVERT JUMPDEST POP JUMP JUMPDEST PUSH1 0x0 DUP2 CALLDATALOAD SWAP1 POP PUSH2 0x1A81 DUP2 PUSH2 0x1A5B JUMP JUMPDEST SWAP3 SWAP2 POP POP JUMP JUMPDEST PUSH1 0x0 PUSH1 0x20 DUP3 DUP5 SUB SLT ISZERO PUSH2 0x1A9D JUMPI PUSH2 0x1A9C PUSH2 0x144B JUMP JUMPDEST JUMPDEST PUSH1 0x0 PUSH2 0x1AAB DUP5 DUP3 DUP6 ADD PUSH2 0x1A72 JUMP JUMPDEST SWAP2 POP POP SWAP3 SWAP2 POP POP JUMP JUMPDEST PUSH32 0x4E487B7100000000000000000000000000000000000000000000000000000000 PUSH1 0x0 MSTORE PUSH1 0x32 PUSH1 0x4 MSTORE PUSH1 0x24 PUSH1 0x0 REVERT JUMPDEST PUSH32 0x4E487B7100000000000000000000000000000000000000000000000000000000 PUSH1 0x0 MSTORE PUSH1 0x22 PUSH1 0x4 MSTORE PUSH1 0x24 PUSH1 0x0 REVERT JUMPDEST PUSH1 0x0 PUSH1 0x2 DUP3 DIV SWAP1 POP PUSH1 0x1 DUP3 AND DUP1 PUSH2 0x1B2A JUMPI PUSH1 0x7F DUP3 AND SWAP2 POP JUMPDEST PUSH1 0x20 DUP3 LT DUP2 EQ ISZERO PUSH2 0x1B3E JUMPI PUSH2 0x1B3D PUSH2 0x1AE3 JUMP JUMPDEST JUMPDEST POP SWAP2 SWAP1 POP JUMP JUMPDEST PUSH1 0x0 DUP2 PUSH1 0x60 SHL SWAP1 POP SWAP2 SWAP1 POP JUMP JUMPDEST PUSH1 0x0 PUSH2 0x1B5C DUP3 PUSH2 0x1B44 JUMP JUMPDEST SWAP1 POP SWAP2 SWAP1 POP JUMP JUMPDEST PUSH1 0x0 PUSH2 0x1B6E DUP3 PUSH2 0x1B51 JUMP JUMPDEST SWAP1 POP SWAP2 SWAP1 POP JUMP JUMPDEST PUSH2 0x1B86 PUSH2 0x1B81 DUP3 PUSH2 0x1750 JUMP JUMPDEST PUSH2 0x1B63 JUMP JUMPDEST DUP3 MSTORE POP POP JUMP JUMPDEST PUSH1 0x0 PUSH2 0x1B98 DUP3 DUP5 PUSH2 0x1B75 JUMP JUMPDEST PUSH1 0x14 DUP3 ADD SWAP2 POP DUP2 SWAP1 POP SWAP3 SWAP2 POP POP JUMP JUMPDEST PUSH1 0x0 DUP2 SWAP1 POP SWAP2 SWAP1 POP JUMP JUMPDEST PUSH2 0x1BC2 PUSH2 0x1BBD DUP3 PUSH2 0x159B JUMP JUMPDEST PUSH2 0x1BA7 JUMP JUMPDEST DUP3 MSTORE POP POP JUMP JUMPDEST PUSH1 0x0 PUSH2 0x1BD4 DUP3 DUP5 PUSH2 0x1BB1 JUMP JUMPDEST PUSH1 0x20 DUP3 ADD SWAP2 POP DUP2 SWAP1 POP SWAP3 SWAP2 POP POP JUMP JUMPDEST PUSH32 0x4E487B7100000000000000000000000000000000000000000000000000000000 PUSH1 0x0 MSTORE PUSH1 0x11 PUSH1 0x4 MSTORE PUSH1 0x24 PUSH1 0x0 REVERT JUMPDEST PUSH1 0x0 PUSH2 0x1C1D DUP3 PUSH2 0x159B JUMP JUMPDEST SWAP2 POP PUSH2 0x1C28 DUP4 PUSH2 0x159B JUMP JUMPDEST SWAP3 POP DUP2 PUSH32 0xFFFFFFFFFFFFFFFFFFFFFFFFFFFFFFFFFFFFFFFFFFFFFFFFFFFFFFFFFFFFFFFF DIV DUP4 GT DUP3 ISZERO ISZERO AND ISZERO PUSH2 0x1C61 JUMPI PUSH2 0x1C60 PUSH2 0x1BE3 JUMP JUMPDEST JUMPDEST DUP3 DUP3 MUL SWAP1 POP SWAP3 SWAP2 POP POP JUMP JUMPDEST PUSH1 0x0 PUSH2 0x1C77 DUP3 PUSH2 0x159B JUMP JUMPDEST SWAP2 POP PUSH2 0x1C82 DUP4 PUSH2 0x159B JUMP JUMPDEST SWAP3 POP DUP3 PUSH32 0xFFFFFFFFFFFFFFFFFFFFFFFFFFFFFFFFFFFFFFFFFFFFFFFFFFFFFFFFFFFFFFFF SUB DUP3 GT ISZERO PUSH2 0x1CB7 JUMPI PUSH2 0x1CB6 PUSH2 0x1BE3 JUMP JUMPDEST JUMPDEST DUP3 DUP3 ADD SWAP1 POP SWAP3 SWAP2 POP POP JUMP JUMPDEST PUSH1 0x0 PUSH2 0x1CCD DUP3 PUSH2 0x159B JUMP JUMPDEST SWAP2 POP PUSH32 0xFFFFFFFFFFFFFFFFFFFFFFFFFFFFFFFFFFFFFFFFFFFFFFFFFFFFFFFFFFFFFFFF DUP3 EQ ISZERO PUSH2 0x1D00 JUMPI PUSH2 0x1CFF PUSH2 0x1BE3 JUMP JUMPDEST JUMPDEST PUSH1 0x1 DUP3 ADD SWAP1 POP SWAP2 SWAP1 POP JUMP JUMPDEST PUSH1 0x0 DUP2 SWAP1 POP SWAP2 SWAP1 POP JUMP JUMPDEST PUSH2 0x1D26 PUSH2 0x1D21 DUP3 PUSH2 0x1A51 JUMP JUMPDEST PUSH2 0x1D0B JUMP JUMPDEST DUP3 MSTORE POP POP JUMP JUMPDEST PUSH1 0x0 PUSH2 0x1D38 DUP3 DUP5 PUSH2 0x1D15 JUMP JUMPDEST PUSH1 0x20 DUP3 ADD SWAP2 POP DUP2 SWAP1 POP SWAP3 SWAP2 POP POP JUMP JUMPDEST PUSH32 0x4E487B7100000000000000000000000000000000000000000000000000000000 PUSH1 0x0 MSTORE PUSH1 0x12 PUSH1 0x4 MSTORE PUSH1 0x24 PUSH1 0x0 REVERT JUMPDEST PUSH1 0x0 PUSH2 0x1D81 DUP3 PUSH2 0x159B JUMP JUMPDEST SWAP2 POP PUSH2 0x1D8C DUP4 PUSH2 0x159B JUMP JUMPDEST SWAP3 POP DUP3 PUSH2 0x1D9C JUMPI PUSH2 0x1D9B PUSH2 0x1D47 JUMP JUMPDEST JUMPDEST DUP3 DUP3 DIV SWAP1 POP SWAP3 SWAP2 POP POP JUMP JUMPDEST PUSH1 0x0 DUP2 SWAP1 POP SWAP3 SWAP2 POP POP JUMP JUMPDEST PUSH1 0x0 PUSH2 0x1DBD DUP3 PUSH2 0x16C8 JUMP JUMPDEST PUSH2 0x1DC7 DUP2 DUP6 PUSH2 0x1DA7 JUMP JUMPDEST SWAP4 POP PUSH2 0x1DD7 DUP2 DUP6 PUSH1 0x20 DUP7 ADD PUSH2 0x16E4 JUMP JUMPDEST DUP1 DUP5 ADD SWAP2 POP POP SWAP3 SWAP2 POP POP JUMP JUMPDEST PUSH1 0x0 PUSH2 0x1DEF DUP3 DUP7 PUSH2 0x1DB2 JUMP JUMPDEST SWAP2 POP PUSH2 0x1DFB DUP3 DUP6 PUSH2 0x1DB2 JUMP JUMPDEST SWAP2 POP PUSH2 0x1E07 DUP3 DUP5 PUSH2 0x1DB2 JUMP JUMPDEST SWAP2 POP DUP2 SWAP1 POP SWAP5 SWAP4 POP POP POP POP JUMP JUMPDEST PUSH32 0x4E487B7100000000000000000000000000000000000000000000000000000000 PUSH1 0x0 MSTORE PUSH1 0x1 PUSH1 0x4 MSTORE PUSH1 0x24 PUSH1 0x0 REVERT INVALID LOG2 PUSH5 0x6970667358 0x22 SLT KECCAK256 0xE0 0x5D 0x24 PUSH26 0xB19A0BC125D0336FFA4930B80903080691CE0BC82F852CD49BEB 0xC2 DUP1 PUSH5 0x736F6C6343 STOP ADDMOD EXP STOP CALLER "},"gasEstimates":{"creation":{"codeDepositCost":"1560200","executionCost":"infinite","totalCost":"infinite"},"external":{"approvePayment(uint256)":"infinite","contribute()":"infinite","createPayment(string,uint256,address)":"infinite","description()":"infinite","disApprovePayment(uint256)":"infinite","doPayment(uint256)":"infinite","getSummary()":"infinite","goal()":"2497","investorCount()":"2517","investors(address)":"2903","maxInvest()":"2475","minInvest()":"2474","owner()":"2600","payments(uint256)":"infinite","toString(address)":"infinite","toString(bytes)":"infinite","toString(bytes32)":"infinite","toString(uint256)":"infinite"},"internal":{"append(string memory,string memory,string memory)":"infinite"}},"methodIdentifiers":{"approvePayment(uint256)":"de14c818","contribute()":"d7bb99ba","createPayment(string,uint256,address)":"03120d46","description()":"7284e416","disApprovePayment(uint256)":"8323406b","doPayment(uint256)":"d2b8b867","getSummary()":"4051ddac","goal()":"40193883","investorCount()":"d7e64c00","investors(address)":"6f7bc9be","maxInvest()":"3110235a","minInvest()":"63fd9e38","owner()":"8da5cb5b","payments(uint256)":"87d81789","toString(address)":"56ca623e","toString(bytes)":"71aad10d","toString(bytes32)":"b11a19e8","toString(uint256)":"6900a3ae"}},"storageLayout":{"storage":[{"astId":55,"contract":"Project.sol:Project","label":"owner","offset":0,"slot":"0","type":"t_address"},{"astId":57,"contract":"Project.sol:Project","label":"description","offset":0,"slot":"1","type":"t_string_storage"},{"astId":59,"contract":"Project.sol:Project","label":"minInvest","offset":0,"slot":"2","type":"t_uint256"},{"astId":61,"contract":"Project.sol:Project","label":"maxInvest","offset":0,"slot":"3","type":"t_uint256"},{"astId":63,"contract":"Project.sol:Project","label":"goal","offset":0,"slot":"4","type":"t_uint256"},{"astId":65,"contract":"Project.sol:Project","label":"investorCount","offset":0,"slot":"5","type":"t_uint256"},{"astId":69,"contract":"Project.sol:Project","label":"investors","offset":0,"slot":"6","type":"t_mapping(t_address,t_uint256)"},{"astId":73,"contract":"Project.sol:Project","label":"payments","offset":0,"slot":"7","type":"t_array(t_struct(Payment)53_storage)dyn_storage"}],"types":{"t_address":{"encoding":"inplace","label":"address","numberOfBytes":"20"},"t_address_payable":{"encoding":"inplace","label":"address payable","numberOfBytes":"20"},"t_array(t_struct(Payment)53_storage)dyn_storage":{"base":"t_struct(Payment)53_storage","encoding":"dynamic_array","label":"struct Project.Payment[]","numberOfBytes":"32"},"t_bool":{"encoding":"inplace","label":"bool","numberOfBytes":"1"},"t_mapping(t_address,t_uint256)":{"encoding":"mapping","key":"t_address","label":"mapping(address => uint256)","numberOfBytes":"32","value":"t_uint256"},"t_string_storage":{"encoding":"bytes","label":"string","numberOfBytes":"32"},"t_struct(Payment)53_storage":{"encoding":"inplace","label":"struct Project.Payment","members":[{"astId":40,"contract":"Project.sol:Project","label":"description","offset":0,"slot":"0","type":"t_string_storage"},{"astId":42,"contract":"Project.sol:Project","label":"amount","offset":0,"slot":"1","type":"t_uint256"},{"astId":44,"contract":"Project.sol:Project","label":"voterCount","offset":0,"slot":"2","type":"t_uint256"},{"astId":46,"contract":"Project.sol:Project","label":"receiver","offset":0,"slot":"3","type":"t_address_payable"},{"astId":48,"contract":"Project.sol:Project","label":"completed","offset":20,"slot":"3","type":"t_bool"},{"astId":50,"contract":"Project.sol:Project","label":"approve","offset":0,"slot":"4","type":"t_string_storage"},{"astId":52,"contract":"Project.sol:Project","label":"disApprove","offset":0,"slot":"5","type":"t_string_storage"}],"numberOfBytes":"192"},"t_uint256":{"encoding":"inplace","label":"uint256","numberOfBytes":"32"}}},"userdoc":{"kind":"user","methods":{},"version":1}}