{"abi":[{"inputs":[{"internalType":"string","name":"_description","type":"string"},{"internalType":"uint256","name":"_minInvest","type":"uint256"},{"internalType":"uint256","name":"_maxInvest","type":"uint256"},{"internalType":"uint256","name":"_goal","type":"uint256"},{"internalType":"address","name":"_owner","type":"address"}],"stateMutability":"nonpayable","type":"constructor"},{"inputs":[{"internalType":"uint256","name":"index","type":"uint256"}],"name":"approvePayment","outputs":[],"stateMutability":"nonpayable","type":"function"},{"inputs":[],"name":"contribute","outputs":[],"stateMutability":"payable","type":"function"},{"inputs":[{"internalType":"string","name":"_description","type":"string"},{"internalType":"uint256","name":"_amount","type":"uint256"},{"internalType":"address payable","name":"_receiver","type":"address"}],"name":"createPayment","outputs":[],"stateMutability":"nonpayable","type":"function"},{"inputs":[],"name":"description","outputs":[{"internalType":"string","name":"","type":"string"}],"stateMutability":"view","type":"function"},{"inputs":[{"internalType":"uint256","name":"index","type":"uint256"}],"name":"doPayment","outputs":[],"stateMutability":"nonpayable","type":"function"},{"inputs":[],"name":"getSummary","outputs":[{"internalType":"string","name":"","type":"string"},{"internalType":"uint256","name":"","type":"uint256"},{"internalType":"uint256","name":"","type":"uint256"},{"internalType":"uint256","name":"","type":"uint256"},{"internalType":"uint256","name":"","type":"uint256"},{"internalType":"uint256","name":"","type":"uint256"},{"internalType":"uint256","name":"","type":"uint256"},{"internalType":"address","name":"","type":"address"}],"stateMutability":"view","type":"function"},{"inputs":[],"name":"goal","outputs":[{"internalType":"uint256","name":"","type":"uint256"}],"stateMutability":"view","type":"function"},{"inputs":[],"name":"investorCount","outputs":[{"internalType":"uint256","name":"","type":"uint256"}],"stateMutability":"view","type":"function"},{"inputs":[{"internalType":"address","name":"","type":"address"}],"name":"investors","outputs":[{"internalType":"uint256","name":"","type":"uint256"}],"stateMutability":"view","type":"function"},{"inputs":[],"name":"maxInvest","outputs":[{"internalType":"uint256","name":"","type":"uint256"}],"stateMutability":"view","type":"function"},{"inputs":[],"name":"minInvest","outputs":[{"internalType":"uint256","name":"","type":"uint256"}],"stateMutability":"view","type":"function"},{"inputs":[],"name":"owner","outputs":[{"internalType":"address","name":"","type":"address"}],"stateMutability":"view","type":"function"},{"inputs":[{"internalType":"uint256","name":"","type":"uint256"}],"name":"payments","outputs":[{"internalType":"string","name":"description","type":"string"},{"internalType":"uint256","name":"amount","type":"uint256"},{"internalType":"address payable","name":"receiver","type":"address"},{"internalType":"bool","name":"completed","type":"bool"},{"internalType":"uint256","name":"voterCount","type":"uint256"}],"stateMutability":"view","type":"function"},{"inputs":[{"internalType":"address","name":"account","type":"address"}],"name":"toString","outputs":[{"internalType":"string","name":"","type":"string"}],"stateMutability":"pure","type":"function"},{"inputs":[{"internalType":"uint256","name":"value","type":"uint256"}],"name":"toString","outputs":[{"internalType":"string","name":"","type":"string"}],"stateMutability":"pure","type":"function"},{"inputs":[{"internalType":"bytes","name":"data","type":"bytes"}],"name":"toString","outputs":[{"internalType":"string","name":"","type":"string"}],"stateMutability":"pure","type":"function"},{"inputs":[{"internalType":"bytes32","name":"value","type":"bytes32"}],"name":"toString","outputs":[{"internalType":"string","name":"","type":"string"}],"stateMutability":"pure","type":"function"}],"devdoc":{"kind":"dev","methods":{},"version":1},"evm":{"assembly":"    /* \"Project.sol\":638:4842  contract Project {... */\n  mstore(0x40, 0x80)\n    /* \"Project.sol\":1243:1553  constructor(... */\n  callvalue\n  dup1\n  iszero\n  tag_1\n  jumpi\n  0x00\n  dup1\n  revert\ntag_1:\n  pop\n  mload(0x40)\n  sub(codesize, bytecodeSize)\n  dup1\n  bytecodeSize\n  dup4\n  codecopy\n  dup2\n  dup2\n  add\n  0x40\n  mstore\n  dup2\n  add\n  swap1\n  tag_2\n  swap2\n  swap1\n  tag_3\n  jump\t// in\ntag_2:\n    /* \"Project.sol\":1418:1424  _owner */\n  dup1\n    /* \"Project.sol\":1410:1415  owner */\n  0x00\n  dup1\n    /* \"Project.sol\":1410:1424  owner = _owner */\n  0x0100\n  exp\n  dup2\n  sload\n  dup2\n  0xffffffffffffffffffffffffffffffffffffffff\n  mul\n  not\n  and\n  swap1\n  dup4\n  0xffffffffffffffffffffffffffffffffffffffff\n  and\n  mul\n  or\n  swap1\n  sstore\n  pop\n    /* \"Project.sol\":1448:1460  _description */\n  dup5\n    /* \"Project.sol\":1434:1445  description */\n  0x01\n    /* \"Project.sol\":1434:1460  description = _description */\n  swap1\n  dup1\n  mload\n  swap1\n  0x20\n  add\n  swap1\n  tag_6\n  swap3\n  swap2\n  swap1\n  tag_7\n  jump\t// in\ntag_6:\n  pop\n    /* \"Project.sol\":1482:1492  _minInvest */\n  dup4\n    /* \"Project.sol\":1470:1479  minInvest */\n  0x02\n    /* \"Project.sol\":1470:1492  minInvest = _minInvest */\n  dup2\n  swap1\n  sstore\n  pop\n    /* \"Project.sol\":1514:1524  _maxInvest */\n  dup3\n    /* \"Project.sol\":1502:1511  maxInvest */\n  0x03\n    /* \"Project.sol\":1502:1524  maxInvest = _maxInvest */\n  dup2\n  swap1\n  sstore\n  pop\n    /* \"Project.sol\":1541:1546  _goal */\n  dup2\n    /* \"Project.sol\":1534:1538  goal */\n  0x04\n    /* \"Project.sol\":1534:1546  goal = _goal */\n  dup2\n  swap1\n  sstore\n  pop\n    /* \"Project.sol\":1243:1553  constructor(... */\n  pop\n  pop\n  pop\n  pop\n  pop\n    /* \"Project.sol\":638:4842  contract Project {... */\n  jump(tag_8)\ntag_7:\n  dup3\n  dup1\n  sload\n  tag_9\n  swap1\n  tag_10\n  jump\t// in\ntag_9:\n  swap1\n  0x00\n  mstore\n  keccak256(0x00, 0x20)\n  swap1\n  0x1f\n  add\n  0x20\n  swap1\n  div\n  dup2\n  add\n  swap3\n  dup3\n  tag_12\n  jumpi\n  0x00\n  dup6\n  sstore\n  jump(tag_11)\ntag_12:\n  dup3\n  0x1f\n  lt\n  tag_13\n  jumpi\n  dup1\n  mload\n  not(0xff)\n  and\n  dup4\n  dup1\n  add\n  or\n  dup6\n  sstore\n  jump(tag_11)\ntag_13:\n  dup3\n  dup1\n  add\n  0x01\n  add\n  dup6\n  sstore\n  dup3\n  iszero\n  tag_11\n  jumpi\n  swap2\n  dup3\n  add\ntag_14:\n  dup3\n  dup2\n  gt\n  iszero\n  tag_15\n  jumpi\n  dup3\n  mload\n  dup3\n  sstore\n  swap2\n  0x20\n  add\n  swap2\n  swap1\n  0x01\n  add\n  swap1\n  jump(tag_14)\ntag_15:\ntag_11:\n  pop\n  swap1\n  pop\n  tag_16\n  swap2\n  swap1\n  tag_17\n  jump\t// in\ntag_16:\n  pop\n  swap1\n  jump\t// out\ntag_17:\ntag_18:\n  dup1\n  dup3\n  gt\n  iszero\n  tag_19\n  jumpi\n  0x00\n  dup2\n  0x00\n  swap1\n  sstore\n  pop\n  0x01\n  add\n  jump(tag_18)\ntag_19:\n  pop\n  swap1\n  jump\t// out\n    /* \"#utility.yul\":7:82   */\ntag_20:\n    /* \"#utility.yul\":40:46   */\n  0x00\n    /* \"#utility.yul\":73:75   */\n  0x40\n    /* \"#utility.yul\":67:76   */\n  mload\n    /* \"#utility.yul\":57:76   */\n  swap1\n  pop\n    /* \"#utility.yul\":7:82   */\n  swap1\n  jump\t// out\n    /* \"#utility.yul\":88:205   */\ntag_21:\n    /* \"#utility.yul\":197:198   */\n  0x00\n    /* \"#utility.yul\":194:195   */\n  dup1\n    /* \"#utility.yul\":187:199   */\n  revert\n    /* \"#utility.yul\":211:328   */\ntag_22:\n    /* \"#utility.yul\":320:321   */\n  0x00\n    /* \"#utility.yul\":317:318   */\n  dup1\n    /* \"#utility.yul\":310:322   */\n  revert\n    /* \"#utility.yul\":334:451   */\ntag_23:\n    /* \"#utility.yul\":443:444   */\n  0x00\n    /* \"#utility.yul\":440:441   */\n  dup1\n    /* \"#utility.yul\":433:445   */\n  revert\n    /* \"#utility.yul\":457:574   */\ntag_24:\n    /* \"#utility.yul\":566:567   */\n  0x00\n    /* \"#utility.yul\":563:564   */\n  dup1\n    /* \"#utility.yul\":556:568   */\n  revert\n    /* \"#utility.yul\":580:682   */\ntag_25:\n    /* \"#utility.yul\":621:627   */\n  0x00\n    /* \"#utility.yul\":672:674   */\n  0x1f\n    /* \"#utility.yul\":668:675   */\n  not\n    /* \"#utility.yul\":663:665   */\n  0x1f\n    /* \"#utility.yul\":656:661   */\n  dup4\n    /* \"#utility.yul\":652:666   */\n  add\n    /* \"#utility.yul\":648:676   */\n  and\n    /* \"#utility.yul\":638:676   */\n  swap1\n  pop\n    /* \"#utility.yul\":580:682   */\n  swap2\n  swap1\n  pop\n  jump\t// out\n    /* \"#utility.yul\":688:868   */\ntag_26:\n    /* \"#utility.yul\":736:813   */\n  0x4e487b7100000000000000000000000000000000000000000000000000000000\n    /* \"#utility.yul\":733:734   */\n  0x00\n    /* \"#utility.yul\":726:814   */\n  mstore\n    /* \"#utility.yul\":833:837   */\n  0x41\n    /* \"#utility.yul\":830:831   */\n  0x04\n    /* \"#utility.yul\":823:838   */\n  mstore\n    /* \"#utility.yul\":857:861   */\n  0x24\n    /* \"#utility.yul\":854:855   */\n  0x00\n    /* \"#utility.yul\":847:862   */\n  revert\n    /* \"#utility.yul\":874:1155   */\ntag_27:\n    /* \"#utility.yul\":957:984   */\n  tag_50\n    /* \"#utility.yul\":979:983   */\n  dup3\n    /* \"#utility.yul\":957:984   */\n  tag_25\n  jump\t// in\ntag_50:\n    /* \"#utility.yul\":949:955   */\n  dup2\n    /* \"#utility.yul\":945:985   */\n  add\n    /* \"#utility.yul\":1087:1093   */\n  dup2\n    /* \"#utility.yul\":1075:1085   */\n  dup2\n    /* \"#utility.yul\":1072:1094   */\n  lt\n    /* \"#utility.yul\":1051:1069   */\n  0xffffffffffffffff\n    /* \"#utility.yul\":1039:1049   */\n  dup3\n    /* \"#utility.yul\":1036:1070   */\n  gt\n    /* \"#utility.yul\":1033:1095   */\n  or\n    /* \"#utility.yul\":1030:1118   */\n  iszero\n  tag_51\n  jumpi\n    /* \"#utility.yul\":1098:1116   */\n  tag_52\n  tag_26\n  jump\t// in\ntag_52:\n    /* \"#utility.yul\":1030:1118   */\ntag_51:\n    /* \"#utility.yul\":1138:1148   */\n  dup1\n    /* \"#utility.yul\":1134:1136   */\n  0x40\n    /* \"#utility.yul\":1127:1149   */\n  mstore\n    /* \"#utility.yul\":917:1155   */\n  pop\n    /* \"#utility.yul\":874:1155   */\n  pop\n  pop\n  jump\t// out\n    /* \"#utility.yul\":1161:1290   */\ntag_28:\n    /* \"#utility.yul\":1195:1201   */\n  0x00\n    /* \"#utility.yul\":1222:1242   */\n  tag_54\n  tag_20\n  jump\t// in\ntag_54:\n    /* \"#utility.yul\":1212:1242   */\n  swap1\n  pop\n    /* \"#utility.yul\":1251:1284   */\n  tag_55\n    /* \"#utility.yul\":1279:1283   */\n  dup3\n    /* \"#utility.yul\":1271:1277   */\n  dup3\n    /* \"#utility.yul\":1251:1284   */\n  tag_27\n  jump\t// in\ntag_55:\n    /* \"#utility.yul\":1161:1290   */\n  swap2\n  swap1\n  pop\n  jump\t// out\n    /* \"#utility.yul\":1296:1604   */\ntag_29:\n    /* \"#utility.yul\":1358:1362   */\n  0x00\n    /* \"#utility.yul\":1448:1466   */\n  0xffffffffffffffff\n    /* \"#utility.yul\":1440:1446   */\n  dup3\n    /* \"#utility.yul\":1437:1467   */\n  gt\n    /* \"#utility.yul\":1434:1490   */\n  iszero\n  tag_57\n  jumpi\n    /* \"#utility.yul\":1470:1488   */\n  tag_58\n  tag_26\n  jump\t// in\ntag_58:\n    /* \"#utility.yul\":1434:1490   */\ntag_57:\n    /* \"#utility.yul\":1508:1537   */\n  tag_59\n    /* \"#utility.yul\":1530:1536   */\n  dup3\n    /* \"#utility.yul\":1508:1537   */\n  tag_25\n  jump\t// in\ntag_59:\n    /* \"#utility.yul\":1500:1537   */\n  swap1\n  pop\n    /* \"#utility.yul\":1592:1596   */\n  0x20\n    /* \"#utility.yul\":1586:1590   */\n  dup2\n    /* \"#utility.yul\":1582:1597   */\n  add\n    /* \"#utility.yul\":1574:1597   */\n  swap1\n  pop\n    /* \"#utility.yul\":1296:1604   */\n  swap2\n  swap1\n  pop\n  jump\t// out\n    /* \"#utility.yul\":1610:1917   */\ntag_30:\n    /* \"#utility.yul\":1678:1679   */\n  0x00\n    /* \"#utility.yul\":1688:1801   */\ntag_61:\n    /* \"#utility.yul\":1702:1708   */\n  dup4\n    /* \"#utility.yul\":1699:1700   */\n  dup2\n    /* \"#utility.yul\":1696:1709   */\n  lt\n    /* \"#utility.yul\":1688:1801   */\n  iszero\n  tag_63\n  jumpi\n    /* \"#utility.yul\":1787:1788   */\n  dup1\n    /* \"#utility.yul\":1782:1785   */\n  dup3\n    /* \"#utility.yul\":1778:1789   */\n  add\n    /* \"#utility.yul\":1772:1790   */\n  mload\n    /* \"#utility.yul\":1768:1769   */\n  dup2\n    /* \"#utility.yul\":1763:1766   */\n  dup5\n    /* \"#utility.yul\":1759:1770   */\n  add\n    /* \"#utility.yul\":1752:1791   */\n  mstore\n    /* \"#utility.yul\":1724:1726   */\n  0x20\n    /* \"#utility.yul\":1721:1722   */\n  dup2\n    /* \"#utility.yul\":1717:1727   */\n  add\n    /* \"#utility.yul\":1712:1727   */\n  swap1\n  pop\n    /* \"#utility.yul\":1688:1801   */\n  jump(tag_61)\ntag_63:\n    /* \"#utility.yul\":1819:1825   */\n  dup4\n    /* \"#utility.yul\":1816:1817   */\n  dup2\n    /* \"#utility.yul\":1813:1826   */\n  gt\n    /* \"#utility.yul\":1810:1911   */\n  iszero\n  tag_64\n  jumpi\n    /* \"#utility.yul\":1899:1900   */\n  0x00\n    /* \"#utility.yul\":1890:1896   */\n  dup5\n    /* \"#utility.yul\":1885:1888   */\n  dup5\n    /* \"#utility.yul\":1881:1897   */\n  add\n    /* \"#utility.yul\":1874:1901   */\n  mstore\n    /* \"#utility.yul\":1810:1911   */\ntag_64:\n    /* \"#utility.yul\":1659:1917   */\n  pop\n    /* \"#utility.yul\":1610:1917   */\n  pop\n  pop\n  pop\n  jump\t// out\n    /* \"#utility.yul\":1923:2344   */\ntag_31:\n    /* \"#utility.yul\":2012:2017   */\n  0x00\n    /* \"#utility.yul\":2037:2103   */\n  tag_66\n    /* \"#utility.yul\":2053:2102   */\n  tag_67\n    /* \"#utility.yul\":2095:2101   */\n  dup5\n    /* \"#utility.yul\":2053:2102   */\n  tag_29\n  jump\t// in\ntag_67:\n    /* \"#utility.yul\":2037:2103   */\n  tag_28\n  jump\t// in\ntag_66:\n    /* \"#utility.yul\":2028:2103   */\n  swap1\n  pop\n    /* \"#utility.yul\":2126:2132   */\n  dup3\n    /* \"#utility.yul\":2119:2124   */\n  dup2\n    /* \"#utility.yul\":2112:2133   */\n  mstore\n    /* \"#utility.yul\":2164:2168   */\n  0x20\n    /* \"#utility.yul\":2157:2162   */\n  dup2\n    /* \"#utility.yul\":2153:2169   */\n  add\n    /* \"#utility.yul\":2202:2205   */\n  dup5\n    /* \"#utility.yul\":2193:2199   */\n  dup5\n    /* \"#utility.yul\":2188:2191   */\n  dup5\n    /* \"#utility.yul\":2184:2200   */\n  add\n    /* \"#utility.yul\":2181:2206   */\n  gt\n    /* \"#utility.yul\":2178:2290   */\n  iszero\n  tag_68\n  jumpi\n    /* \"#utility.yul\":2209:2288   */\n  tag_69\n  tag_24\n  jump\t// in\ntag_69:\n    /* \"#utility.yul\":2178:2290   */\ntag_68:\n    /* \"#utility.yul\":2299:2338   */\n  tag_70\n    /* \"#utility.yul\":2331:2337   */\n  dup5\n    /* \"#utility.yul\":2326:2329   */\n  dup3\n    /* \"#utility.yul\":2321:2324   */\n  dup6\n    /* \"#utility.yul\":2299:2338   */\n  tag_30\n  jump\t// in\ntag_70:\n    /* \"#utility.yul\":2018:2344   */\n  pop\n    /* \"#utility.yul\":1923:2344   */\n  swap4\n  swap3\n  pop\n  pop\n  pop\n  jump\t// out\n    /* \"#utility.yul\":2364:2719   */\ntag_32:\n    /* \"#utility.yul\":2431:2436   */\n  0x00\n    /* \"#utility.yul\":2480:2483   */\n  dup3\n    /* \"#utility.yul\":2473:2477   */\n  0x1f\n    /* \"#utility.yul\":2465:2471   */\n  dup4\n    /* \"#utility.yul\":2461:2478   */\n  add\n    /* \"#utility.yul\":2457:2484   */\n  slt\n    /* \"#utility.yul\":2447:2569   */\n  tag_72\n  jumpi\n    /* \"#utility.yul\":2488:2567   */\n  tag_73\n  tag_23\n  jump\t// in\ntag_73:\n    /* \"#utility.yul\":2447:2569   */\ntag_72:\n    /* \"#utility.yul\":2598:2604   */\n  dup2\n    /* \"#utility.yul\":2592:2605   */\n  mload\n    /* \"#utility.yul\":2623:2713   */\n  tag_74\n    /* \"#utility.yul\":2709:2712   */\n  dup5\n    /* \"#utility.yul\":2701:2707   */\n  dup3\n    /* \"#utility.yul\":2694:2698   */\n  0x20\n    /* \"#utility.yul\":2686:2692   */\n  dup7\n    /* \"#utility.yul\":2682:2699   */\n  add\n    /* \"#utility.yul\":2623:2713   */\n  tag_31\n  jump\t// in\ntag_74:\n    /* \"#utility.yul\":2614:2713   */\n  swap2\n  pop\n    /* \"#utility.yul\":2437:2719   */\n  pop\n    /* \"#utility.yul\":2364:2719   */\n  swap3\n  swap2\n  pop\n  pop\n  jump\t// out\n    /* \"#utility.yul\":2725:2802   */\ntag_33:\n    /* \"#utility.yul\":2762:2769   */\n  0x00\n    /* \"#utility.yul\":2791:2796   */\n  dup2\n    /* \"#utility.yul\":2780:2796   */\n  swap1\n  pop\n    /* \"#utility.yul\":2725:2802   */\n  swap2\n  swap1\n  pop\n  jump\t// out\n    /* \"#utility.yul\":2808:2930   */\ntag_34:\n    /* \"#utility.yul\":2881:2905   */\n  tag_77\n    /* \"#utility.yul\":2899:2904   */\n  dup2\n    /* \"#utility.yul\":2881:2905   */\n  tag_33\n  jump\t// in\ntag_77:\n    /* \"#utility.yul\":2874:2879   */\n  dup2\n    /* \"#utility.yul\":2871:2906   */\n  eq\n    /* \"#utility.yul\":2861:2924   */\n  tag_78\n  jumpi\n    /* \"#utility.yul\":2920:2921   */\n  0x00\n    /* \"#utility.yul\":2917:2918   */\n  dup1\n    /* \"#utility.yul\":2910:2922   */\n  revert\n    /* \"#utility.yul\":2861:2924   */\ntag_78:\n    /* \"#utility.yul\":2808:2930   */\n  pop\n  jump\t// out\n    /* \"#utility.yul\":2936:3079   */\ntag_35:\n    /* \"#utility.yul\":2993:2998   */\n  0x00\n    /* \"#utility.yul\":3024:3030   */\n  dup2\n    /* \"#utility.yul\":3018:3031   */\n  mload\n    /* \"#utility.yul\":3009:3031   */\n  swap1\n  pop\n    /* \"#utility.yul\":3040:3073   */\n  tag_80\n    /* \"#utility.yul\":3067:3072   */\n  dup2\n    /* \"#utility.yul\":3040:3073   */\n  tag_34\n  jump\t// in\ntag_80:\n    /* \"#utility.yul\":2936:3079   */\n  swap3\n  swap2\n  pop\n  pop\n  jump\t// out\n    /* \"#utility.yul\":3085:3211   */\ntag_36:\n    /* \"#utility.yul\":3122:3129   */\n  0x00\n    /* \"#utility.yul\":3162:3204   */\n  0xffffffffffffffffffffffffffffffffffffffff\n    /* \"#utility.yul\":3155:3160   */\n  dup3\n    /* \"#utility.yul\":3151:3205   */\n  and\n    /* \"#utility.yul\":3140:3205   */\n  swap1\n  pop\n    /* \"#utility.yul\":3085:3211   */\n  swap2\n  swap1\n  pop\n  jump\t// out\n    /* \"#utility.yul\":3217:3313   */\ntag_37:\n    /* \"#utility.yul\":3254:3261   */\n  0x00\n    /* \"#utility.yul\":3283:3307   */\n  tag_83\n    /* \"#utility.yul\":3301:3306   */\n  dup3\n    /* \"#utility.yul\":3283:3307   */\n  tag_36\n  jump\t// in\ntag_83:\n    /* \"#utility.yul\":3272:3307   */\n  swap1\n  pop\n    /* \"#utility.yul\":3217:3313   */\n  swap2\n  swap1\n  pop\n  jump\t// out\n    /* \"#utility.yul\":3319:3441   */\ntag_38:\n    /* \"#utility.yul\":3392:3416   */\n  tag_85\n    /* \"#utility.yul\":3410:3415   */\n  dup2\n    /* \"#utility.yul\":3392:3416   */\n  tag_37\n  jump\t// in\ntag_85:\n    /* \"#utility.yul\":3385:3390   */\n  dup2\n    /* \"#utility.yul\":3382:3417   */\n  eq\n    /* \"#utility.yul\":3372:3435   */\n  tag_86\n  jumpi\n    /* \"#utility.yul\":3431:3432   */\n  0x00\n    /* \"#utility.yul\":3428:3429   */\n  dup1\n    /* \"#utility.yul\":3421:3433   */\n  revert\n    /* \"#utility.yul\":3372:3435   */\ntag_86:\n    /* \"#utility.yul\":3319:3441   */\n  pop\n  jump\t// out\n    /* \"#utility.yul\":3447:3590   */\ntag_39:\n    /* \"#utility.yul\":3504:3509   */\n  0x00\n    /* \"#utility.yul\":3535:3541   */\n  dup2\n    /* \"#utility.yul\":3529:3542   */\n  mload\n    /* \"#utility.yul\":3520:3542   */\n  swap1\n  pop\n    /* \"#utility.yul\":3551:3584   */\n  tag_88\n    /* \"#utility.yul\":3578:3583   */\n  dup2\n    /* \"#utility.yul\":3551:3584   */\n  tag_38\n  jump\t// in\ntag_88:\n    /* \"#utility.yul\":3447:3590   */\n  swap3\n  swap2\n  pop\n  pop\n  jump\t// out\n    /* \"#utility.yul\":3596:4746   */\ntag_3:\n    /* \"#utility.yul\":3712:3718   */\n  0x00\n    /* \"#utility.yul\":3720:3726   */\n  dup1\n    /* \"#utility.yul\":3728:3734   */\n  0x00\n    /* \"#utility.yul\":3736:3742   */\n  dup1\n    /* \"#utility.yul\":3744:3750   */\n  0x00\n    /* \"#utility.yul\":3793:3796   */\n  0xa0\n    /* \"#utility.yul\":3781:3790   */\n  dup7\n    /* \"#utility.yul\":3772:3779   */\n  dup9\n    /* \"#utility.yul\":3768:3791   */\n  sub\n    /* \"#utility.yul\":3764:3797   */\n  slt\n    /* \"#utility.yul\":3761:3881   */\n  iszero\n  tag_90\n  jumpi\n    /* \"#utility.yul\":3800:3879   */\n  tag_91\n  tag_21\n  jump\t// in\ntag_91:\n    /* \"#utility.yul\":3761:3881   */\ntag_90:\n    /* \"#utility.yul\":3941:3942   */\n  0x00\n    /* \"#utility.yul\":3930:3939   */\n  dup7\n    /* \"#utility.yul\":3926:3943   */\n  add\n    /* \"#utility.yul\":3920:3944   */\n  mload\n    /* \"#utility.yul\":3971:3989   */\n  0xffffffffffffffff\n    /* \"#utility.yul\":3963:3969   */\n  dup2\n    /* \"#utility.yul\":3960:3990   */\n  gt\n    /* \"#utility.yul\":3957:4074   */\n  iszero\n  tag_92\n  jumpi\n    /* \"#utility.yul\":3993:4072   */\n  tag_93\n  tag_22\n  jump\t// in\ntag_93:\n    /* \"#utility.yul\":3957:4074   */\ntag_92:\n    /* \"#utility.yul\":4098:4172   */\n  tag_94\n    /* \"#utility.yul\":4164:4171   */\n  dup9\n    /* \"#utility.yul\":4155:4161   */\n  dup3\n    /* \"#utility.yul\":4144:4153   */\n  dup10\n    /* \"#utility.yul\":4140:4162   */\n  add\n    /* \"#utility.yul\":4098:4172   */\n  tag_32\n  jump\t// in\ntag_94:\n    /* \"#utility.yul\":4088:4172   */\n  swap6\n  pop\n    /* \"#utility.yul\":3891:4182   */\n  pop\n    /* \"#utility.yul\":4221:4223   */\n  0x20\n    /* \"#utility.yul\":4247:4311   */\n  tag_95\n    /* \"#utility.yul\":4303:4310   */\n  dup9\n    /* \"#utility.yul\":4294:4300   */\n  dup3\n    /* \"#utility.yul\":4283:4292   */\n  dup10\n    /* \"#utility.yul\":4279:4301   */\n  add\n    /* \"#utility.yul\":4247:4311   */\n  tag_35\n  jump\t// in\ntag_95:\n    /* \"#utility.yul\":4237:4311   */\n  swap5\n  pop\n    /* \"#utility.yul\":4192:4321   */\n  pop\n    /* \"#utility.yul\":4360:4362   */\n  0x40\n    /* \"#utility.yul\":4386:4450   */\n  tag_96\n    /* \"#utility.yul\":4442:4449   */\n  dup9\n    /* \"#utility.yul\":4433:4439   */\n  dup3\n    /* \"#utility.yul\":4422:4431   */\n  dup10\n    /* \"#utility.yul\":4418:4440   */\n  add\n    /* \"#utility.yul\":4386:4450   */\n  tag_35\n  jump\t// in\ntag_96:\n    /* \"#utility.yul\":4376:4450   */\n  swap4\n  pop\n    /* \"#utility.yul\":4331:4460   */\n  pop\n    /* \"#utility.yul\":4499:4501   */\n  0x60\n    /* \"#utility.yul\":4525:4589   */\n  tag_97\n    /* \"#utility.yul\":4581:4588   */\n  dup9\n    /* \"#utility.yul\":4572:4578   */\n  dup3\n    /* \"#utility.yul\":4561:4570   */\n  dup10\n    /* \"#utility.yul\":4557:4579   */\n  add\n    /* \"#utility.yul\":4525:4589   */\n  tag_35\n  jump\t// in\ntag_97:\n    /* \"#utility.yul\":4515:4589   */\n  swap3\n  pop\n    /* \"#utility.yul\":4470:4599   */\n  pop\n    /* \"#utility.yul\":4638:4641   */\n  0x80\n    /* \"#utility.yul\":4665:4729   */\n  tag_98\n    /* \"#utility.yul\":4721:4728   */\n  dup9\n    /* \"#utility.yul\":4712:4718   */\n  dup3\n    /* \"#utility.yul\":4701:4710   */\n  dup10\n    /* \"#utility.yul\":4697:4719   */\n  add\n    /* \"#utility.yul\":4665:4729   */\n  tag_39\n  jump\t// in\ntag_98:\n    /* \"#utility.yul\":4655:4729   */\n  swap2\n  pop\n    /* \"#utility.yul\":4609:4739   */\n  pop\n    /* \"#utility.yul\":3596:4746   */\n  swap3\n  swap6\n  pop\n  swap3\n  swap6\n  swap1\n  swap4\n  pop\n  jump\t// out\n    /* \"#utility.yul\":4752:4932   */\ntag_40:\n    /* \"#utility.yul\":4800:4877   */\n  0x4e487b7100000000000000000000000000000000000000000000000000000000\n    /* \"#utility.yul\":4797:4798   */\n  0x00\n    /* \"#utility.yul\":4790:4878   */\n  mstore\n    /* \"#utility.yul\":4897:4901   */\n  0x22\n    /* \"#utility.yul\":4894:4895   */\n  0x04\n    /* \"#utility.yul\":4887:4902   */\n  mstore\n    /* \"#utility.yul\":4921:4925   */\n  0x24\n    /* \"#utility.yul\":4918:4919   */\n  0x00\n    /* \"#utility.yul\":4911:4926   */\n  revert\n    /* \"#utility.yul\":4938:5258   */\ntag_10:\n    /* \"#utility.yul\":4982:4988   */\n  0x00\n    /* \"#utility.yul\":5019:5020   */\n  0x02\n    /* \"#utility.yul\":5013:5017   */\n  dup3\n    /* \"#utility.yul\":5009:5021   */\n  div\n    /* \"#utility.yul\":4999:5021   */\n  swap1\n  pop\n    /* \"#utility.yul\":5066:5067   */\n  0x01\n    /* \"#utility.yul\":5060:5064   */\n  dup3\n    /* \"#utility.yul\":5056:5068   */\n  and\n    /* \"#utility.yul\":5087:5105   */\n  dup1\n    /* \"#utility.yul\":5077:5158   */\n  tag_101\n  jumpi\n    /* \"#utility.yul\":5143:5147   */\n  0x7f\n    /* \"#utility.yul\":5135:5141   */\n  dup3\n    /* \"#utility.yul\":5131:5148   */\n  and\n    /* \"#utility.yul\":5121:5148   */\n  swap2\n  pop\n    /* \"#utility.yul\":5077:5158   */\ntag_101:\n    /* \"#utility.yul\":5205:5207   */\n  0x20\n    /* \"#utility.yul\":5197:5203   */\n  dup3\n    /* \"#utility.yul\":5194:5208   */\n  lt\n    /* \"#utility.yul\":5174:5192   */\n  dup2\n    /* \"#utility.yul\":5171:5209   */\n  eq\n    /* \"#utility.yul\":5168:5252   */\n  iszero\n  tag_102\n  jumpi\n    /* \"#utility.yul\":5224:5242   */\n  tag_103\n  tag_40\n  jump\t// in\ntag_103:\n    /* \"#utility.yul\":5168:5252   */\ntag_102:\n    /* \"#utility.yul\":4989:5258   */\n  pop\n    /* \"#utility.yul\":4938:5258   */\n  swap2\n  swap1\n  pop\n  jump\t// out\n    /* \"Project.sol\":638:4842  contract Project {... */\ntag_8:\n  dataSize(sub_0)\n  dup1\n  dataOffset(sub_0)\n  0x00\n  codecopy\n  0x00\n  return\nstop\n\nsub_0: assembly {\n        /* \"Project.sol\":638:4842  contract Project {... */\n      mstore(0x40, 0x80)\n      jumpi(tag_1, lt(calldatasize, 0x04))\n      shr(0xe0, calldataload(0x00))\n      dup1\n      0x71aad10d\n      gt\n      tag_19\n      jumpi\n      dup1\n      0xb11a19e8\n      gt\n      tag_20\n      jumpi\n      dup1\n      0xb11a19e8\n      eq\n      tag_14\n      jumpi\n      dup1\n      0xd2b8b867\n      eq\n      tag_15\n      jumpi\n      dup1\n      0xd7bb99ba\n      eq\n      tag_16\n      jumpi\n      dup1\n      0xd7e64c00\n      eq\n      tag_17\n      jumpi\n      dup1\n      0xde14c818\n      eq\n      tag_18\n      jumpi\n      jump(tag_1)\n    tag_20:\n      dup1\n      0x71aad10d\n      eq\n      tag_10\n      jumpi\n      dup1\n      0x7284e416\n      eq\n      tag_11\n      jumpi\n      dup1\n      0x87d81789\n      eq\n      tag_12\n      jumpi\n      dup1\n      0x8da5cb5b\n      eq\n      tag_13\n      jumpi\n      jump(tag_1)\n    tag_19:\n      dup1\n      0x56ca623e\n      gt\n      tag_21\n      jumpi\n      dup1\n      0x56ca623e\n      eq\n      tag_6\n      jumpi\n      dup1\n      0x63fd9e38\n      eq\n      tag_7\n      jumpi\n      dup1\n      0x6900a3ae\n      eq\n      tag_8\n      jumpi\n      dup1\n      0x6f7bc9be\n      eq\n      tag_9\n      jumpi\n      jump(tag_1)\n    tag_21:\n      dup1\n      0x03120d46\n      eq\n      tag_2\n      jumpi\n      dup1\n      0x3110235a\n      eq\n      tag_3\n      jumpi\n      dup1\n      0x40193883\n      eq\n      tag_4\n      jumpi\n      dup1\n      0x4051ddac\n      eq\n      tag_5\n      jumpi\n    tag_1:\n      0x00\n      dup1\n      revert\n        /* \"Project.sol\":2065:2549  function createPayment(... */\n    tag_2:\n      callvalue\n      dup1\n      iszero\n      tag_22\n      jumpi\n      0x00\n      dup1\n      revert\n    tag_22:\n      pop\n      tag_23\n      0x04\n      dup1\n      calldatasize\n      sub\n      dup2\n      add\n      swap1\n      tag_24\n      swap2\n      swap1\n      tag_25\n      jump\t// in\n    tag_24:\n      tag_26\n      jump\t// in\n    tag_23:\n      stop\n        /* \"Project.sol\":988:1012  uint256 public maxInvest */\n    tag_3:\n      callvalue\n      dup1\n      iszero\n      tag_27\n      jumpi\n      0x00\n      dup1\n      revert\n    tag_27:\n      pop\n      tag_28\n      tag_29\n      jump\t// in\n    tag_28:\n      mload(0x40)\n      tag_30\n      swap2\n      swap1\n      tag_31\n      jump\t// in\n    tag_30:\n      mload(0x40)\n      dup1\n      swap2\n      sub\n      swap1\n      return\n        /* \"Project.sol\":1018:1037  uint256 public goal */\n    tag_4:\n      callvalue\n      dup1\n      iszero\n      tag_32\n      jumpi\n      0x00\n      dup1\n      revert\n    tag_32:\n      pop\n      tag_33\n      tag_34\n      jump\t// in\n    tag_33:\n      mload(0x40)\n      tag_35\n      swap2\n      swap1\n      tag_31\n      jump\t// in\n    tag_35:\n      mload(0x40)\n      dup1\n      swap2\n      sub\n      swap1\n      return\n        /* \"Project.sol\":3282:3770  function getSummary()... */\n    tag_5:\n      callvalue\n      dup1\n      iszero\n      tag_36\n      jumpi\n      0x00\n      dup1\n      revert\n    tag_36:\n      pop\n      tag_37\n      tag_38\n      jump\t// in\n    tag_37:\n      mload(0x40)\n      tag_39\n      swap9\n      swap8\n      swap7\n      swap6\n      swap5\n      swap4\n      swap3\n      swap2\n      swap1\n      tag_40\n      jump\t// in\n    tag_39:\n      mload(0x40)\n      dup1\n      swap2\n      sub\n      swap1\n      return\n        /* \"Project.sol\":3974:4104  function toString(address account) public pure returns (string memory) {... */\n    tag_6:\n      callvalue\n      dup1\n      iszero\n      tag_41\n      jumpi\n      0x00\n      dup1\n      revert\n    tag_41:\n      pop\n      tag_42\n      0x04\n      dup1\n      calldatasize\n      sub\n      dup2\n      add\n      swap1\n      tag_43\n      swap2\n      swap1\n      tag_44\n      jump\t// in\n    tag_43:\n      tag_45\n      jump\t// in\n    tag_42:\n      mload(0x40)\n      tag_46\n      swap2\n      swap1\n      tag_47\n      jump\t// in\n    tag_46:\n      mload(0x40)\n      dup1\n      swap2\n      sub\n      swap1\n      return\n        /* \"Project.sol\":958:982  uint256 public minInvest */\n    tag_7:\n      callvalue\n      dup1\n      iszero\n      tag_48\n      jumpi\n      0x00\n      dup1\n      revert\n    tag_48:\n      pop\n      tag_49\n      tag_50\n      jump\t// in\n    tag_49:\n      mload(0x40)\n      tag_51\n      swap2\n      swap1\n      tag_31\n      jump\t// in\n    tag_51:\n      mload(0x40)\n      dup1\n      swap2\n      sub\n      swap1\n      return\n        /* \"Project.sol\":4110:4236  function toString(uint256 value) public pure returns (string memory) {... */\n    tag_8:\n      callvalue\n      dup1\n      iszero\n      tag_52\n      jumpi\n      0x00\n      dup1\n      revert\n    tag_52:\n      pop\n      tag_53\n      0x04\n      dup1\n      calldatasize\n      sub\n      dup2\n      add\n      swap1\n      tag_54\n      swap2\n      swap1\n      tag_55\n      jump\t// in\n    tag_54:\n      tag_56\n      jump\t// in\n    tag_53:\n      mload(0x40)\n      tag_57\n      swap2\n      swap1\n      tag_47\n      jump\t// in\n    tag_57:\n      mload(0x40)\n      dup1\n      swap2\n      sub\n      swap1\n      return\n        /* \"Project.sol\":1077:1121  mapping(address => uint256) public investors */\n    tag_9:\n      callvalue\n      dup1\n      iszero\n      tag_58\n      jumpi\n      0x00\n      dup1\n      revert\n    tag_58:\n      pop\n      tag_59\n      0x04\n      dup1\n      calldatasize\n      sub\n      dup2\n      add\n      swap1\n      tag_60\n      swap2\n      swap1\n      tag_44\n      jump\t// in\n    tag_60:\n      tag_61\n      jump\t// in\n    tag_59:\n      mload(0x40)\n      tag_62\n      swap2\n      swap1\n      tag_31\n      jump\t// in\n    tag_62:\n      mload(0x40)\n      dup1\n      swap2\n      sub\n      swap1\n      return\n        /* \"Project.sol\":4374:4840  function toString(bytes memory data) public pure returns (string memory) {... */\n    tag_10:\n      callvalue\n      dup1\n      iszero\n      tag_63\n      jumpi\n      0x00\n      dup1\n      revert\n    tag_63:\n      pop\n      tag_64\n      0x04\n      dup1\n      calldatasize\n      sub\n      dup2\n      add\n      swap1\n      tag_65\n      swap2\n      swap1\n      tag_66\n      jump\t// in\n    tag_65:\n      tag_67\n      jump\t// in\n    tag_64:\n      mload(0x40)\n      tag_68\n      swap2\n      swap1\n      tag_47\n      jump\t// in\n    tag_68:\n      mload(0x40)\n      dup1\n      swap2\n      sub\n      swap1\n      return\n        /* \"Project.sol\":927:952  string public description */\n    tag_11:\n      callvalue\n      dup1\n      iszero\n      tag_69\n      jumpi\n      0x00\n      dup1\n      revert\n    tag_69:\n      pop\n      tag_70\n      tag_71\n      jump\t// in\n    tag_70:\n      mload(0x40)\n      tag_72\n      swap2\n      swap1\n      tag_47\n      jump\t// in\n    tag_72:\n      mload(0x40)\n      dup1\n      swap2\n      sub\n      swap1\n      return\n        /* \"Project.sol\":1128:1153  Payment[] public payments */\n    tag_12:\n      callvalue\n      dup1\n      iszero\n      tag_73\n      jumpi\n      0x00\n      dup1\n      revert\n    tag_73:\n      pop\n      tag_74\n      0x04\n      dup1\n      calldatasize\n      sub\n      dup2\n      add\n      swap1\n      tag_75\n      swap2\n      swap1\n      tag_55\n      jump\t// in\n    tag_75:\n      tag_76\n      jump\t// in\n    tag_74:\n      mload(0x40)\n      tag_77\n      swap6\n      swap5\n      swap4\n      swap3\n      swap2\n      swap1\n      tag_78\n      jump\t// in\n    tag_77:\n      mload(0x40)\n      dup1\n      swap2\n      sub\n      swap1\n      return\n        /* \"Project.sol\":901:921  address public owner */\n    tag_13:\n      callvalue\n      dup1\n      iszero\n      tag_79\n      jumpi\n      0x00\n      dup1\n      revert\n    tag_79:\n      pop\n      tag_80\n      tag_81\n      jump\t// in\n    tag_80:\n      mload(0x40)\n      tag_82\n      swap2\n      swap1\n      tag_83\n      jump\t// in\n    tag_82:\n      mload(0x40)\n      dup1\n      swap2\n      sub\n      swap1\n      return\n        /* \"Project.sol\":4242:4368  function toString(bytes32 value) public pure returns (string memory) {... */\n    tag_14:\n      callvalue\n      dup1\n      iszero\n      tag_84\n      jumpi\n      0x00\n      dup1\n      revert\n    tag_84:\n      pop\n      tag_85\n      0x04\n      dup1\n      calldatasize\n      sub\n      dup2\n      add\n      swap1\n      tag_86\n      swap2\n      swap1\n      tag_87\n      jump\t// in\n    tag_86:\n      tag_88\n      jump\t// in\n    tag_85:\n      mload(0x40)\n      tag_89\n      swap2\n      swap1\n      tag_47\n      jump\t// in\n    tag_89:\n      mload(0x40)\n      dup1\n      swap2\n      sub\n      swap1\n      return\n        /* \"Project.sol\":2926:3276  function doPayment(uint256 index) public onlyOwner {... */\n    tag_15:\n      callvalue\n      dup1\n      iszero\n      tag_90\n      jumpi\n      0x00\n      dup1\n      revert\n    tag_90:\n      pop\n      tag_91\n      0x04\n      dup1\n      calldatasize\n      sub\n      dup2\n      add\n      swap1\n      tag_92\n      swap2\n      swap1\n      tag_55\n      jump\t// in\n    tag_92:\n      tag_93\n      jump\t// in\n    tag_91:\n      stop\n        /* \"Project.sol\":1559:2033  function contribute() public payable {... */\n    tag_16:\n      tag_94\n      tag_95\n      jump\t// in\n    tag_94:\n      stop\n        /* \"Project.sol\":1043:1071  uint256 public investorCount */\n    tag_17:\n      callvalue\n      dup1\n      iszero\n      tag_96\n      jumpi\n      0x00\n      dup1\n      revert\n    tag_96:\n      pop\n      tag_97\n      tag_98\n      jump\t// in\n    tag_97:\n      mload(0x40)\n      tag_99\n      swap2\n      swap1\n      tag_31\n      jump\t// in\n    tag_99:\n      mload(0x40)\n      dup1\n      swap2\n      sub\n      swap1\n      return\n        /* \"Project.sol\":2581:2920  function approvePayment(uint256 index) public {... */\n    tag_18:\n      callvalue\n      dup1\n      iszero\n      tag_100\n      jumpi\n      0x00\n      dup1\n      revert\n    tag_100:\n      pop\n      tag_101\n      0x04\n      dup1\n      calldatasize\n      sub\n      dup2\n      add\n      swap1\n      tag_102\n      swap2\n      swap1\n      tag_55\n      jump\t// in\n    tag_102:\n      tag_103\n      jump\t// in\n    tag_101:\n      stop\n        /* \"Project.sol\":2065:2549  function createPayment(... */\n    tag_26:\n        /* \"Project.sol\":1213:1218  owner */\n      0x00\n      dup1\n      sload\n      swap1\n      0x0100\n      exp\n      swap1\n      div\n      0xffffffffffffffffffffffffffffffffffffffff\n      and\n        /* \"Project.sol\":1199:1218  msg.sender == owner */\n      0xffffffffffffffffffffffffffffffffffffffff\n      and\n        /* \"Project.sol\":1199:1209  msg.sender */\n      caller\n        /* \"Project.sol\":1199:1218  msg.sender == owner */\n      0xffffffffffffffffffffffffffffffffffffffff\n      and\n      eq\n        /* \"Project.sol\":1191:1219  require(msg.sender == owner) */\n      tag_105\n      jumpi\n      0x00\n      dup1\n      revert\n    tag_105:\n        /* \"Project.sol\":2217:2238  uint256 paymentsCount */\n      0x00\n        /* \"Project.sol\":2241:2249  payments */\n      0x07\n        /* \"Project.sol\":2241:2256  payments.length */\n      dup1\n      sload\n      swap1\n      pop\n        /* \"Project.sol\":2217:2256  uint256 paymentsCount = payments.length */\n      swap1\n      pop\n        /* \"Project.sol\":2266:2274  payments */\n      0x07\n        /* \"Project.sol\":2266:2281  payments.push() */\n      0x01\n      dup2\n      0x01\n      dup2\n      sload\n      add\n      dup1\n      dup3\n      sstore\n      dup1\n      swap2\n      pop\n      pop\n      sub\n      swap1\n      0x00\n      mstore\n      keccak256(0x00, 0x20)\n      swap1\n      pop\n      pop\n        /* \"Project.sol\":2292:2318  Payment storage newPayment */\n      0x00\n        /* \"Project.sol\":2321:2329  payments */\n      0x07\n        /* \"Project.sol\":2330:2343  paymentsCount */\n      dup3\n        /* \"Project.sol\":2321:2344  payments[paymentsCount] */\n      dup2\n      sload\n      dup2\n      lt\n      tag_108\n      jumpi\n      tag_109\n      tag_110\n      jump\t// in\n    tag_109:\n    tag_108:\n      swap1\n      0x00\n      mstore\n      keccak256(0x00, 0x20)\n      swap1\n      0x05\n      mul\n      add\n        /* \"Project.sol\":2292:2344  Payment storage newPayment = payments[paymentsCount] */\n      swap1\n      pop\n        /* \"Project.sol\":2379:2391  _description */\n      dup5\n        /* \"Project.sol\":2354:2364  newPayment */\n      dup2\n        /* \"Project.sol\":2354:2376  newPayment.description */\n      0x00\n      add\n        /* \"Project.sol\":2354:2391  newPayment.description = _description */\n      swap1\n      dup1\n      mload\n      swap1\n      0x20\n      add\n      swap1\n      tag_112\n      swap3\n      swap2\n      swap1\n      tag_113\n      jump\t// in\n    tag_112:\n      pop\n        /* \"Project.sol\":2421:2428  _amount */\n      dup4\n        /* \"Project.sol\":2401:2411  newPayment */\n      dup2\n        /* \"Project.sol\":2401:2418  newPayment.amount */\n      0x01\n      add\n        /* \"Project.sol\":2401:2428  newPayment.amount = _amount */\n      dup2\n      swap1\n      sstore\n      pop\n        /* \"Project.sol\":2460:2469  _receiver */\n      dup3\n        /* \"Project.sol\":2438:2448  newPayment */\n      dup2\n        /* \"Project.sol\":2438:2457  newPayment.receiver */\n      0x02\n      add\n      0x00\n        /* \"Project.sol\":2438:2469  newPayment.receiver = _receiver */\n      0x0100\n      exp\n      dup2\n      sload\n      dup2\n      0xffffffffffffffffffffffffffffffffffffffff\n      mul\n      not\n      and\n      swap1\n      dup4\n      0xffffffffffffffffffffffffffffffffffffffff\n      and\n      mul\n      or\n      swap1\n      sstore\n      pop\n        /* \"Project.sol\":2502:2507  false */\n      0x00\n        /* \"Project.sol\":2479:2489  newPayment */\n      dup2\n        /* \"Project.sol\":2479:2499  newPayment.completed */\n      0x02\n      add\n      0x14\n        /* \"Project.sol\":2479:2507  newPayment.completed = false */\n      0x0100\n      exp\n      dup2\n      sload\n      dup2\n      0xff\n      mul\n      not\n      and\n      swap1\n      dup4\n      iszero\n      iszero\n      mul\n      or\n      swap1\n      sstore\n      pop\n        /* \"Project.sol\":2541:2542  0 */\n      0x00\n        /* \"Project.sol\":2517:2527  newPayment */\n      dup2\n        /* \"Project.sol\":2517:2538  newPayment.voterCount */\n      0x04\n      add\n        /* \"Project.sol\":2517:2542  newPayment.voterCount = 0 */\n      dup2\n      swap1\n      sstore\n      pop\n        /* \"Project.sol\":2207:2549  {... */\n      pop\n      pop\n        /* \"Project.sol\":2065:2549  function createPayment(... */\n      pop\n      pop\n      pop\n      jump\t// out\n        /* \"Project.sol\":988:1012  uint256 public maxInvest */\n    tag_29:\n      sload(0x03)\n      dup2\n      jump\t// out\n        /* \"Project.sol\":1018:1037  uint256 public goal */\n    tag_34:\n      sload(0x04)\n      dup2\n      jump\t// out\n        /* \"Project.sol\":3282:3770  function getSummary()... */\n    tag_38:\n        /* \"Project.sol\":3362:3375  string memory */\n      0x60\n        /* \"Project.sol\":3389:3396  uint256 */\n      0x00\n        /* \"Project.sol\":3410:3417  uint256 */\n      dup1\n        /* \"Project.sol\":3431:3438  uint256 */\n      0x00\n        /* \"Project.sol\":3452:3459  uint256 */\n      dup1\n        /* \"Project.sol\":3473:3480  uint256 */\n      0x00\n        /* \"Project.sol\":3494:3501  uint256 */\n      dup1\n        /* \"Project.sol\":3515:3522  address */\n      0x00\n        /* \"Project.sol\":3568:3579  description */\n      0x01\n        /* \"Project.sol\":3593:3602  minInvest */\n      sload(0x02)\n        /* \"Project.sol\":3616:3625  maxInvest */\n      sload(0x03)\n        /* \"Project.sol\":3639:3643  goal */\n      sload(0x04)\n        /* \"Project.sol\":3657:3678  address(this).balance */\n      selfbalance\n        /* \"Project.sol\":3692:3705  investorCount */\n      sload(0x05)\n        /* \"Project.sol\":3719:3727  payments */\n      0x07\n        /* \"Project.sol\":3719:3734  payments.length */\n      dup1\n      sload\n      swap1\n      pop\n        /* \"Project.sol\":3748:3753  owner */\n      0x00\n      dup1\n      sload\n      swap1\n      0x0100\n      exp\n      swap1\n      div\n      0xffffffffffffffffffffffffffffffffffffffff\n      and\n        /* \"Project.sol\":3547:3763  return (... */\n      dup8\n      dup1\n      sload\n      tag_115\n      swap1\n      tag_116\n      jump\t// in\n    tag_115:\n      dup1\n      0x1f\n      add\n      0x20\n      dup1\n      swap2\n      div\n      mul\n      0x20\n      add\n      mload(0x40)\n      swap1\n      dup2\n      add\n      0x40\n      mstore\n      dup1\n      swap3\n      swap2\n      swap1\n      dup2\n      dup2\n      mstore\n      0x20\n      add\n      dup3\n      dup1\n      sload\n      tag_117\n      swap1\n      tag_116\n      jump\t// in\n    tag_117:\n      dup1\n      iszero\n      tag_118\n      jumpi\n      dup1\n      0x1f\n      lt\n      tag_119\n      jumpi\n      0x0100\n      dup1\n      dup4\n      sload\n      div\n      mul\n      dup4\n      mstore\n      swap2\n      0x20\n      add\n      swap2\n      jump(tag_118)\n    tag_119:\n      dup3\n      add\n      swap2\n      swap1\n      0x00\n      mstore\n      keccak256(0x00, 0x20)\n      swap1\n    tag_120:\n      dup2\n      sload\n      dup2\n      mstore\n      swap1\n      0x01\n      add\n      swap1\n      0x20\n      add\n      dup1\n      dup4\n      gt\n      tag_120\n      jumpi\n      dup3\n      swap1\n      sub\n      0x1f\n      and\n      dup3\n      add\n      swap2\n    tag_118:\n      pop\n      pop\n      pop\n      pop\n      pop\n      swap8\n      pop\n      swap8\n      pop\n      swap8\n      pop\n      swap8\n      pop\n      swap8\n      pop\n      swap8\n      pop\n      swap8\n      pop\n      swap8\n      pop\n      swap8\n      pop\n        /* \"Project.sol\":3282:3770  function getSummary()... */\n      swap1\n      swap2\n      swap3\n      swap4\n      swap5\n      swap6\n      swap7\n      swap8\n      jump\t// out\n        /* \"Project.sol\":3974:4104  function toString(address account) public pure returns (string memory) {... */\n    tag_45:\n        /* \"Project.sol\":4030:4043  string memory */\n      0x60\n        /* \"Project.sol\":4062:4097  toString(abi.encodePacked(account)) */\n      tag_122\n        /* \"Project.sol\":4088:4095  account */\n      dup3\n        /* \"Project.sol\":4071:4096  abi.encodePacked(account) */\n      add(0x20, mload(0x40))\n      tag_123\n      swap2\n      swap1\n      tag_124\n      jump\t// in\n    tag_123:\n      mload(0x40)\n      0x20\n      dup2\n      dup4\n      sub\n      sub\n      dup2\n      mstore\n      swap1\n      0x40\n      mstore\n        /* \"Project.sol\":4062:4070  toString */\n      tag_67\n        /* \"Project.sol\":4062:4097  toString(abi.encodePacked(account)) */\n      jump\t// in\n    tag_122:\n        /* \"Project.sol\":4055:4097  return toString(abi.encodePacked(account)) */\n      swap1\n      pop\n        /* \"Project.sol\":3974:4104  function toString(address account) public pure returns (string memory) {... */\n      swap2\n      swap1\n      pop\n      jump\t// out\n        /* \"Project.sol\":958:982  uint256 public minInvest */\n    tag_50:\n      sload(0x02)\n      dup2\n      jump\t// out\n        /* \"Project.sol\":4110:4236  function toString(uint256 value) public pure returns (string memory) {... */\n    tag_56:\n        /* \"Project.sol\":4164:4177  string memory */\n      0x60\n        /* \"Project.sol\":4196:4229  toString(abi.encodePacked(value)) */\n      tag_126\n        /* \"Project.sol\":4222:4227  value */\n      dup3\n        /* \"Project.sol\":4205:4228  abi.encodePacked(value) */\n      add(0x20, mload(0x40))\n      tag_127\n      swap2\n      swap1\n      tag_128\n      jump\t// in\n    tag_127:\n      mload(0x40)\n      0x20\n      dup2\n      dup4\n      sub\n      sub\n      dup2\n      mstore\n      swap1\n      0x40\n      mstore\n        /* \"Project.sol\":4196:4204  toString */\n      tag_67\n        /* \"Project.sol\":4196:4229  toString(abi.encodePacked(value)) */\n      jump\t// in\n    tag_126:\n        /* \"Project.sol\":4189:4229  return toString(abi.encodePacked(value)) */\n      swap1\n      pop\n        /* \"Project.sol\":4110:4236  function toString(uint256 value) public pure returns (string memory) {... */\n      swap2\n      swap1\n      pop\n      jump\t// out\n        /* \"Project.sol\":1077:1121  mapping(address => uint256) public investors */\n    tag_61:\n      mstore(0x20, 0x06)\n      dup1\n      0x00\n      mstore\n      keccak256(0x00, 0x40)\n      0x00\n      swap2\n      pop\n      swap1\n      pop\n      sload\n      dup2\n      jump\t// out\n        /* \"Project.sol\":4374:4840  function toString(bytes memory data) public pure returns (string memory) {... */\n    tag_67:\n        /* \"Project.sol\":4432:4445  string memory */\n      0x60\n        /* \"Project.sol\":4457:4478  bytes memory alphabet */\n      0x00\n        /* \"Project.sol\":4457:4499  bytes memory alphabet = \"0123456789abcdef\" */\n      mload(0x40)\n      dup1\n      0x40\n      add\n      0x40\n      mstore\n      dup1\n      0x10\n      dup2\n      mstore\n      0x20\n      add\n      0x3031323334353637383961626364656600000000000000000000000000000000\n      dup2\n      mstore\n      pop\n      swap1\n      pop\n        /* \"Project.sol\":4510:4526  bytes memory str */\n      0x00\n        /* \"Project.sol\":4557:4558  2 */\n      0x02\n        /* \"Project.sol\":4543:4547  data */\n      dup5\n        /* \"Project.sol\":4543:4554  data.length */\n      mload\n        /* \"Project.sol\":4543:4558  data.length * 2 */\n      tag_130\n      swap2\n      swap1\n      tag_131\n      jump\t// in\n    tag_130:\n        /* \"Project.sol\":4539:4540  2 */\n      0x02\n        /* \"Project.sol\":4539:4558  2 + data.length * 2 */\n      tag_132\n      swap2\n      swap1\n      tag_133\n      jump\t// in\n    tag_132:\n        /* \"Project.sol\":4529:4559  new bytes(2 + data.length * 2) */\n      0xffffffffffffffff\n      dup2\n      gt\n      iszero\n      tag_134\n      jumpi\n      tag_135\n      tag_136\n      jump\t// in\n    tag_135:\n    tag_134:\n      mload(0x40)\n      swap1\n      dup1\n      dup3\n      mstore\n      dup1\n      0x1f\n      add\n      not(0x1f)\n      and\n      0x20\n      add\n      dup3\n      add\n      0x40\n      mstore\n      dup1\n      iszero\n      tag_137\n      jumpi\n      dup2\n      0x20\n      add\n      0x01\n      dup3\n      mul\n      dup1\n      calldatasize\n      dup4\n      calldatacopy\n      dup1\n      dup3\n      add\n      swap2\n      pop\n      pop\n      swap1\n      pop\n    tag_137:\n      pop\n        /* \"Project.sol\":4510:4559  bytes memory str = new bytes(2 + data.length * 2) */\n      swap1\n      pop\n        /* \"Project.sol\":4569:4581  str[0] = \"0\" */\n      0x3000000000000000000000000000000000000000000000000000000000000000\n        /* \"Project.sol\":4569:4572  str */\n      dup2\n        /* \"Project.sol\":4573:4574  0 */\n      0x00\n        /* \"Project.sol\":4569:4575  str[0] */\n      dup2\n      mload\n      dup2\n      lt\n      tag_138\n      jumpi\n      tag_139\n      tag_110\n      jump\t// in\n    tag_139:\n    tag_138:\n      0x20\n      add\n      add\n        /* \"Project.sol\":4569:4581  str[0] = \"0\" */\n      swap1\n      not(0xffffffffffffffffffffffffffffffffffffffffffffffffffffffffffffff)\n      and\n      swap1\n      dup2\n      0x00\n      byte\n      swap1\n      mstore8\n      pop\n        /* \"Project.sol\":4591:4603  str[1] = \"x\" */\n      0x7800000000000000000000000000000000000000000000000000000000000000\n        /* \"Project.sol\":4591:4594  str */\n      dup2\n        /* \"Project.sol\":4595:4596  1 */\n      0x01\n        /* \"Project.sol\":4591:4597  str[1] */\n      dup2\n      mload\n      dup2\n      lt\n      tag_140\n      jumpi\n      tag_141\n      tag_110\n      jump\t// in\n    tag_141:\n    tag_140:\n      0x20\n      add\n      add\n        /* \"Project.sol\":4591:4603  str[1] = \"x\" */\n      swap1\n      not(0xffffffffffffffffffffffffffffffffffffffffffffffffffffffffffffff)\n      and\n      swap1\n      dup2\n      0x00\n      byte\n      swap1\n      mstore8\n      pop\n        /* \"Project.sol\":4618:4627  uint256 i */\n      0x00\n        /* \"Project.sol\":4613:4806  for (uint256 i = 0; i < data.length; i++) {... */\n    tag_142:\n        /* \"Project.sol\":4637:4641  data */\n      dup5\n        /* \"Project.sol\":4637:4648  data.length */\n      mload\n        /* \"Project.sol\":4633:4634  i */\n      dup2\n        /* \"Project.sol\":4633:4648  i < data.length */\n      lt\n        /* \"Project.sol\":4613:4806  for (uint256 i = 0; i < data.length; i++) {... */\n      iszero\n      tag_143\n      jumpi\n        /* \"Project.sol\":4686:4694  alphabet */\n      dup3\n        /* \"Project.sol\":4720:4721  4 */\n      0x04\n        /* \"Project.sol\":4709:4713  data */\n      dup7\n        /* \"Project.sol\":4714:4715  i */\n      dup4\n        /* \"Project.sol\":4709:4716  data[i] */\n      dup2\n      mload\n      dup2\n      lt\n      tag_145\n      jumpi\n      tag_146\n      tag_110\n      jump\t// in\n    tag_146:\n    tag_145:\n      0x20\n      add\n      add\n      mload\n      0xf8\n      shr\n      0xf8\n      shl\n        /* \"Project.sol\":4709:4721  data[i] >> 4 */\n      not(0xffffffffffffffffffffffffffffffffffffffffffffffffffffffffffffff)\n      and\n      swap1\n      shr\n        /* \"Project.sol\":4703:4722  uint8(data[i] >> 4) */\n      0xf8\n      shr\n        /* \"Project.sol\":4695:4723  uint256(uint8(data[i] >> 4)) */\n      0xff\n      and\n        /* \"Project.sol\":4686:4724  alphabet[uint256(uint8(data[i] >> 4))] */\n      dup2\n      mload\n      dup2\n      lt\n      tag_147\n      jumpi\n      tag_148\n      tag_110\n      jump\t// in\n    tag_148:\n    tag_147:\n      0x20\n      add\n      add\n      mload\n      0xf8\n      shr\n      0xf8\n      shl\n        /* \"Project.sol\":4669:4672  str */\n      dup3\n        /* \"Project.sol\":4681:4682  2 */\n      0x02\n        /* \"Project.sol\":4677:4678  i */\n      dup4\n        /* \"Project.sol\":4677:4682  i * 2 */\n      tag_149\n      swap2\n      swap1\n      tag_131\n      jump\t// in\n    tag_149:\n        /* \"Project.sol\":4673:4674  2 */\n      0x02\n        /* \"Project.sol\":4673:4682  2 + i * 2 */\n      tag_150\n      swap2\n      swap1\n      tag_133\n      jump\t// in\n    tag_150:\n        /* \"Project.sol\":4669:4683  str[2 + i * 2] */\n      dup2\n      mload\n      dup2\n      lt\n      tag_151\n      jumpi\n      tag_152\n      tag_110\n      jump\t// in\n    tag_152:\n    tag_151:\n      0x20\n      add\n      add\n        /* \"Project.sol\":4669:4724  str[2 + i * 2] = alphabet[uint256(uint8(data[i] >> 4))] */\n      swap1\n      not(0xffffffffffffffffffffffffffffffffffffffffffffffffffffffffffffff)\n      and\n      swap1\n      dup2\n      0x00\n      byte\n      swap1\n      mstore8\n      pop\n        /* \"Project.sol\":4755:4763  alphabet */\n      dup3\n        /* \"Project.sol\":4788:4792  0x0f */\n      0x0f\n        /* \"Project.sol\":4778:4792  data[i] & 0x0f */\n      0xf8\n      shl\n        /* \"Project.sol\":4778:4782  data */\n      dup7\n        /* \"Project.sol\":4783:4784  i */\n      dup4\n        /* \"Project.sol\":4778:4785  data[i] */\n      dup2\n      mload\n      dup2\n      lt\n      tag_153\n      jumpi\n      tag_154\n      tag_110\n      jump\t// in\n    tag_154:\n    tag_153:\n      0x20\n      add\n      add\n      mload\n      0xf8\n      shr\n      0xf8\n      shl\n        /* \"Project.sol\":4778:4792  data[i] & 0x0f */\n      and\n        /* \"Project.sol\":4772:4793  uint8(data[i] & 0x0f) */\n      0xf8\n      shr\n        /* \"Project.sol\":4764:4794  uint256(uint8(data[i] & 0x0f)) */\n      0xff\n      and\n        /* \"Project.sol\":4755:4795  alphabet[uint256(uint8(data[i] & 0x0f))] */\n      dup2\n      mload\n      dup2\n      lt\n      tag_155\n      jumpi\n      tag_156\n      tag_110\n      jump\t// in\n    tag_156:\n    tag_155:\n      0x20\n      add\n      add\n      mload\n      0xf8\n      shr\n      0xf8\n      shl\n        /* \"Project.sol\":4738:4741  str */\n      dup3\n        /* \"Project.sol\":4750:4751  2 */\n      0x02\n        /* \"Project.sol\":4746:4747  i */\n      dup4\n        /* \"Project.sol\":4746:4751  i * 2 */\n      tag_157\n      swap2\n      swap1\n      tag_131\n      jump\t// in\n    tag_157:\n        /* \"Project.sol\":4742:4743  3 */\n      0x03\n        /* \"Project.sol\":4742:4751  3 + i * 2 */\n      tag_158\n      swap2\n      swap1\n      tag_133\n      jump\t// in\n    tag_158:\n        /* \"Project.sol\":4738:4752  str[3 + i * 2] */\n      dup2\n      mload\n      dup2\n      lt\n      tag_159\n      jumpi\n      tag_160\n      tag_110\n      jump\t// in\n    tag_160:\n    tag_159:\n      0x20\n      add\n      add\n        /* \"Project.sol\":4738:4795  str[3 + i * 2] = alphabet[uint256(uint8(data[i] & 0x0f))] */\n      swap1\n      not(0xffffffffffffffffffffffffffffffffffffffffffffffffffffffffffffff)\n      and\n      swap1\n      dup2\n      0x00\n      byte\n      swap1\n      mstore8\n      pop\n        /* \"Project.sol\":4650:4653  i++ */\n      dup1\n      dup1\n      tag_161\n      swap1\n      tag_162\n      jump\t// in\n    tag_161:\n      swap2\n      pop\n      pop\n        /* \"Project.sol\":4613:4806  for (uint256 i = 0; i < data.length; i++) {... */\n      jump(tag_142)\n    tag_143:\n      pop\n        /* \"Project.sol\":4829:4832  str */\n      dup1\n        /* \"Project.sol\":4815:4833  return string(str) */\n      swap3\n      pop\n      pop\n      pop\n        /* \"Project.sol\":4374:4840  function toString(bytes memory data) public pure returns (string memory) {... */\n      swap2\n      swap1\n      pop\n      jump\t// out\n        /* \"Project.sol\":927:952  string public description */\n    tag_71:\n      0x01\n      dup1\n      sload\n      tag_163\n      swap1\n      tag_116\n      jump\t// in\n    tag_163:\n      dup1\n      0x1f\n      add\n      0x20\n      dup1\n      swap2\n      div\n      mul\n      0x20\n      add\n      mload(0x40)\n      swap1\n      dup2\n      add\n      0x40\n      mstore\n      dup1\n      swap3\n      swap2\n      swap1\n      dup2\n      dup2\n      mstore\n      0x20\n      add\n      dup3\n      dup1\n      sload\n      tag_164\n      swap1\n      tag_116\n      jump\t// in\n    tag_164:\n      dup1\n      iszero\n      tag_165\n      jumpi\n      dup1\n      0x1f\n      lt\n      tag_166\n      jumpi\n      0x0100\n      dup1\n      dup4\n      sload\n      div\n      mul\n      dup4\n      mstore\n      swap2\n      0x20\n      add\n      swap2\n      jump(tag_165)\n    tag_166:\n      dup3\n      add\n      swap2\n      swap1\n      0x00\n      mstore\n      keccak256(0x00, 0x20)\n      swap1\n    tag_167:\n      dup2\n      sload\n      dup2\n      mstore\n      swap1\n      0x01\n      add\n      swap1\n      0x20\n      add\n      dup1\n      dup4\n      gt\n      tag_167\n      jumpi\n      dup3\n      swap1\n      sub\n      0x1f\n      and\n      dup3\n      add\n      swap2\n    tag_165:\n      pop\n      pop\n      pop\n      pop\n      pop\n      dup2\n      jump\t// out\n        /* \"Project.sol\":1128:1153  Payment[] public payments */\n    tag_76:\n      0x07\n      dup2\n      dup2\n      sload\n      dup2\n      lt\n      tag_168\n      jumpi\n      0x00\n      dup1\n      revert\n    tag_168:\n      swap1\n      0x00\n      mstore\n      keccak256(0x00, 0x20)\n      swap1\n      0x05\n      mul\n      add\n      0x00\n      swap2\n      pop\n      swap1\n      pop\n      dup1\n      0x00\n      add\n      dup1\n      sload\n      tag_170\n      swap1\n      tag_116\n      jump\t// in\n    tag_170:\n      dup1\n      0x1f\n      add\n      0x20\n      dup1\n      swap2\n      div\n      mul\n      0x20\n      add\n      mload(0x40)\n      swap1\n      dup2\n      add\n      0x40\n      mstore\n      dup1\n      swap3\n      swap2\n      swap1\n      dup2\n      dup2\n      mstore\n      0x20\n      add\n      dup3\n      dup1\n      sload\n      tag_171\n      swap1\n      tag_116\n      jump\t// in\n    tag_171:\n      dup1\n      iszero\n      tag_172\n      jumpi\n      dup1\n      0x1f\n      lt\n      tag_173\n      jumpi\n      0x0100\n      dup1\n      dup4\n      sload\n      div\n      mul\n      dup4\n      mstore\n      swap2\n      0x20\n      add\n      swap2\n      jump(tag_172)\n    tag_173:\n      dup3\n      add\n      swap2\n      swap1\n      0x00\n      mstore\n      keccak256(0x00, 0x20)\n      swap1\n    tag_174:\n      dup2\n      sload\n      dup2\n      mstore\n      swap1\n      0x01\n      add\n      swap1\n      0x20\n      add\n      dup1\n      dup4\n      gt\n      tag_174\n      jumpi\n      dup3\n      swap1\n      sub\n      0x1f\n      and\n      dup3\n      add\n      swap2\n    tag_172:\n      pop\n      pop\n      pop\n      pop\n      pop\n      swap1\n      dup1\n      0x01\n      add\n      sload\n      swap1\n      dup1\n      0x02\n      add\n      0x00\n      swap1\n      sload\n      swap1\n      0x0100\n      exp\n      swap1\n      div\n      0xffffffffffffffffffffffffffffffffffffffff\n      and\n      swap1\n      dup1\n      0x02\n      add\n      0x14\n      swap1\n      sload\n      swap1\n      0x0100\n      exp\n      swap1\n      div\n      0xff\n      and\n      swap1\n      dup1\n      0x04\n      add\n      sload\n      swap1\n      pop\n      dup6\n      jump\t// out\n        /* \"Project.sol\":901:921  address public owner */\n    tag_81:\n      0x00\n      dup1\n      sload\n      swap1\n      0x0100\n      exp\n      swap1\n      div\n      0xffffffffffffffffffffffffffffffffffffffff\n      and\n      dup2\n      jump\t// out\n        /* \"Project.sol\":4242:4368  function toString(bytes32 value) public pure returns (string memory) {... */\n    tag_88:\n        /* \"Project.sol\":4296:4309  string memory */\n      0x60\n        /* \"Project.sol\":4328:4361  toString(abi.encodePacked(value)) */\n      tag_176\n        /* \"Project.sol\":4354:4359  value */\n      dup3\n        /* \"Project.sol\":4337:4360  abi.encodePacked(value) */\n      add(0x20, mload(0x40))\n      tag_177\n      swap2\n      swap1\n      tag_178\n      jump\t// in\n    tag_177:\n      mload(0x40)\n      0x20\n      dup2\n      dup4\n      sub\n      sub\n      dup2\n      mstore\n      swap1\n      0x40\n      mstore\n        /* \"Project.sol\":4328:4336  toString */\n      tag_67\n        /* \"Project.sol\":4328:4361  toString(abi.encodePacked(value)) */\n      jump\t// in\n    tag_176:\n        /* \"Project.sol\":4321:4361  return toString(abi.encodePacked(value)) */\n      swap1\n      pop\n        /* \"Project.sol\":4242:4368  function toString(bytes32 value) public pure returns (string memory) {... */\n      swap2\n      swap1\n      pop\n      jump\t// out\n        /* \"Project.sol\":2926:3276  function doPayment(uint256 index) public onlyOwner {... */\n    tag_93:\n        /* \"Project.sol\":1213:1218  owner */\n      0x00\n      dup1\n      sload\n      swap1\n      0x0100\n      exp\n      swap1\n      div\n      0xffffffffffffffffffffffffffffffffffffffff\n      and\n        /* \"Project.sol\":1199:1218  msg.sender == owner */\n      0xffffffffffffffffffffffffffffffffffffffff\n      and\n        /* \"Project.sol\":1199:1209  msg.sender */\n      caller\n        /* \"Project.sol\":1199:1218  msg.sender == owner */\n      0xffffffffffffffffffffffffffffffffffffffff\n      and\n      eq\n        /* \"Project.sol\":1191:1219  require(msg.sender == owner) */\n      tag_180\n      jumpi\n      0x00\n      dup1\n      revert\n    tag_180:\n        /* \"Project.sol\":2987:3010  Payment storage payment */\n      0x00\n        /* \"Project.sol\":3013:3021  payments */\n      0x07\n        /* \"Project.sol\":3022:3027  index */\n      dup3\n        /* \"Project.sol\":3013:3028  payments[index] */\n      dup2\n      sload\n      dup2\n      lt\n      tag_182\n      jumpi\n      tag_183\n      tag_110\n      jump\t// in\n    tag_183:\n    tag_182:\n      swap1\n      0x00\n      mstore\n      keccak256(0x00, 0x20)\n      swap1\n      0x05\n      mul\n      add\n        /* \"Project.sol\":2987:3028  Payment storage payment = payments[index] */\n      swap1\n      pop\n        /* \"Project.sol\":3048:3055  payment */\n      dup1\n        /* \"Project.sol\":3048:3065  payment.completed */\n      0x02\n      add\n      0x14\n      swap1\n      sload\n      swap1\n      0x0100\n      exp\n      swap1\n      div\n      0xff\n      and\n        /* \"Project.sol\":3047:3065  !payment.completed */\n      iszero\n        /* \"Project.sol\":3039:3066  require(!payment.completed) */\n      tag_185\n      jumpi\n      0x00\n      dup1\n      revert\n    tag_185:\n        /* \"Project.sol\":3109:3116  payment */\n      dup1\n        /* \"Project.sol\":3109:3123  payment.amount */\n      0x01\n      add\n      sload\n        /* \"Project.sol\":3084:3105  address(this).balance */\n      selfbalance\n        /* \"Project.sol\":3084:3123  address(this).balance >= payment.amount */\n      lt\n      iszero\n        /* \"Project.sol\":3076:3124  require(address(this).balance >= payment.amount) */\n      tag_186\n      jumpi\n      0x00\n      dup1\n      revert\n    tag_186:\n        /* \"Project.sol\":3180:3181  2 */\n      0x02\n        /* \"Project.sol\":3164:3177  investorCount */\n      sload(0x05)\n        /* \"Project.sol\":3164:3181  investorCount / 2 */\n      tag_187\n      swap2\n      swap1\n      tag_188\n      jump\t// in\n    tag_187:\n        /* \"Project.sol\":3142:3149  payment */\n      dup2\n        /* \"Project.sol\":3142:3160  payment.voterCount */\n      0x04\n      add\n      sload\n        /* \"Project.sol\":3142:3182  payment.voterCount > (investorCount / 2) */\n      gt\n        /* \"Project.sol\":3134:3183  require(payment.voterCount > (investorCount / 2)) */\n      tag_189\n      jumpi\n      0x00\n      dup1\n      revert\n    tag_189:\n        /* \"Project.sol\":3194:3201  payment */\n      dup1\n        /* \"Project.sol\":3194:3210  payment.receiver */\n      0x02\n      add\n      0x00\n      swap1\n      sload\n      swap1\n      0x0100\n      exp\n      swap1\n      div\n      0xffffffffffffffffffffffffffffffffffffffff\n      and\n        /* \"Project.sol\":3194:3219  payment.receiver.transfer */\n      0xffffffffffffffffffffffffffffffffffffffff\n      and\n        /* \"Project.sol\":3194:3235  payment.receiver.transfer(payment.amount) */\n      0x08fc\n        /* \"Project.sol\":3220:3227  payment */\n      dup3\n        /* \"Project.sol\":3220:3234  payment.amount */\n      0x01\n      add\n      sload\n        /* \"Project.sol\":3194:3235  payment.receiver.transfer(payment.amount) */\n      swap1\n      dup2\n      iszero\n      mul\n      swap1\n      mload(0x40)\n      0x00\n      mload(0x40)\n      dup1\n      dup4\n      sub\n      dup2\n      dup6\n      dup9\n      dup9\n      call\n      swap4\n      pop\n      pop\n      pop\n      pop\n      iszero\n      dup1\n      iszero\n      tag_191\n      jumpi\n      returndatasize\n      0x00\n      dup1\n      returndatacopy\n      revert(0x00, returndatasize)\n    tag_191:\n      pop\n        /* \"Project.sol\":3265:3269  true */\n      0x01\n        /* \"Project.sol\":3245:3252  payment */\n      dup2\n        /* \"Project.sol\":3245:3262  payment.completed */\n      0x02\n      add\n      0x14\n        /* \"Project.sol\":3245:3269  payment.completed = true */\n      0x0100\n      exp\n      dup2\n      sload\n      dup2\n      0xff\n      mul\n      not\n      and\n      swap1\n      dup4\n      iszero\n      iszero\n      mul\n      or\n      swap1\n      sstore\n      pop\n        /* \"Project.sol\":2977:3276  {... */\n      pop\n        /* \"Project.sol\":2926:3276  function doPayment(uint256 index) public onlyOwner {... */\n      pop\n      jump\t// out\n        /* \"Project.sol\":1559:2033  function contribute() public payable {... */\n    tag_95:\n        /* \"Project.sol\":1627:1636  minInvest */\n      sload(0x02)\n        /* \"Project.sol\":1614:1623  msg.value */\n      callvalue\n        /* \"Project.sol\":1614:1636  msg.value >= minInvest */\n      lt\n      iszero\n        /* \"Project.sol\":1606:1637  require(msg.value >= minInvest) */\n      tag_193\n      jumpi\n      0x00\n      dup1\n      revert\n    tag_193:\n        /* \"Project.sol\":1668:1677  maxInvest */\n      sload(0x03)\n        /* \"Project.sol\":1655:1664  msg.value */\n      callvalue\n        /* \"Project.sol\":1655:1677  msg.value <= maxInvest */\n      gt\n      iszero\n        /* \"Project.sol\":1647:1678  require(msg.value <= maxInvest) */\n      tag_194\n      jumpi\n      0x00\n      dup1\n      revert\n    tag_194:\n        /* \"Project.sol\":1689:1707  uint256 newBalance */\n      0x00\n        /* \"Project.sol\":1734:1770  address(this).balance.add(msg.value) */\n      tag_195\n        /* \"Project.sol\":1760:1769  msg.value */\n      callvalue\n        /* \"Project.sol\":1734:1755  address(this).balance */\n      selfbalance\n        /* \"Project.sol\":1734:1759  address(this).balance.add */\n      tag_196\n      swap1\n        /* \"Project.sol\":1734:1770  address(this).balance.add(msg.value) */\n      swap2\n      swap1\n      0xffffffff\n      and\n      jump\t// in\n    tag_195:\n        /* \"Project.sol\":1721:1770  newBalance = address(this).balance.add(msg.value) */\n      swap1\n      pop\n        /* \"Project.sol\":1802:1806  goal */\n      sload(0x04)\n        /* \"Project.sol\":1788:1798  newBalance */\n      dup2\n        /* \"Project.sol\":1788:1806  newBalance <= goal */\n      gt\n      iszero\n        /* \"Project.sol\":1780:1807  require(newBalance <= goal) */\n      tag_197\n      jumpi\n      0x00\n      dup1\n      revert\n    tag_197:\n        /* \"Project.sol\":1846:1847  0 */\n      0x00\n        /* \"Project.sol\":1822:1831  investors */\n      0x06\n        /* \"Project.sol\":1822:1843  investors[msg.sender] */\n      0x00\n        /* \"Project.sol\":1832:1842  msg.sender */\n      caller\n        /* \"Project.sol\":1822:1843  investors[msg.sender] */\n      0xffffffffffffffffffffffffffffffffffffffff\n      and\n      0xffffffffffffffffffffffffffffffffffffffff\n      and\n      dup2\n      mstore\n      0x20\n      add\n      swap1\n      dup2\n      mstore\n      0x20\n      add\n      0x00\n      keccak256\n      sload\n        /* \"Project.sol\":1822:1847  investors[msg.sender] > 0 */\n      gt\n        /* \"Project.sol\":1818:2027  if (investors[msg.sender] > 0) {... */\n      iszero\n      tag_198\n      jumpi\n        /* \"Project.sol\":1911:1920  msg.value */\n      callvalue\n        /* \"Project.sol\":1887:1896  investors */\n      0x06\n        /* \"Project.sol\":1887:1908  investors[msg.sender] */\n      0x00\n        /* \"Project.sol\":1897:1907  msg.sender */\n      caller\n        /* \"Project.sol\":1887:1908  investors[msg.sender] */\n      0xffffffffffffffffffffffffffffffffffffffff\n      and\n      0xffffffffffffffffffffffffffffffffffffffff\n      and\n      dup2\n      mstore\n      0x20\n      add\n      swap1\n      dup2\n      mstore\n      0x20\n      add\n      0x00\n      keccak256\n      sload\n        /* \"Project.sol\":1887:1920  investors[msg.sender] + msg.value */\n      tag_199\n      swap2\n      swap1\n      tag_133\n      jump\t// in\n    tag_199:\n        /* \"Project.sol\":1863:1872  investors */\n      0x06\n        /* \"Project.sol\":1863:1884  investors[msg.sender] */\n      0x00\n        /* \"Project.sol\":1873:1883  msg.sender */\n      caller\n        /* \"Project.sol\":1863:1884  investors[msg.sender] */\n      0xffffffffffffffffffffffffffffffffffffffff\n      and\n      0xffffffffffffffffffffffffffffffffffffffff\n      and\n      dup2\n      mstore\n      0x20\n      add\n      swap1\n      dup2\n      mstore\n      0x20\n      add\n      0x00\n      keccak256\n        /* \"Project.sol\":1863:1920  investors[msg.sender] = investors[msg.sender] + msg.value */\n      dup2\n      swap1\n      sstore\n      pop\n        /* \"Project.sol\":1818:2027  if (investors[msg.sender] > 0) {... */\n      jump(tag_200)\n    tag_198:\n        /* \"Project.sol\":1975:1984  msg.value */\n      callvalue\n        /* \"Project.sol\":1951:1960  investors */\n      0x06\n        /* \"Project.sol\":1951:1972  investors[msg.sender] */\n      0x00\n        /* \"Project.sol\":1961:1971  msg.sender */\n      caller\n        /* \"Project.sol\":1951:1972  investors[msg.sender] */\n      0xffffffffffffffffffffffffffffffffffffffff\n      and\n      0xffffffffffffffffffffffffffffffffffffffff\n      and\n      dup2\n      mstore\n      0x20\n      add\n      swap1\n      dup2\n      mstore\n      0x20\n      add\n      0x00\n      keccak256\n        /* \"Project.sol\":1951:1984  investors[msg.sender] = msg.value */\n      dup2\n      swap1\n      sstore\n      pop\n        /* \"Project.sol\":2015:2016  1 */\n      0x01\n        /* \"Project.sol\":1998:2011  investorCount */\n      0x05\n      0x00\n        /* \"Project.sol\":1998:2016  investorCount += 1 */\n      dup3\n      dup3\n      sload\n      tag_201\n      swap2\n      swap1\n      tag_133\n      jump\t// in\n    tag_201:\n      swap3\n      pop\n      pop\n      dup2\n      swap1\n      sstore\n      pop\n        /* \"Project.sol\":1818:2027  if (investors[msg.sender] > 0) {... */\n    tag_200:\n        /* \"Project.sol\":1596:2033  {... */\n      pop\n        /* \"Project.sol\":1559:2033  function contribute() public payable {... */\n      jump\t// out\n        /* \"Project.sol\":1043:1071  uint256 public investorCount */\n    tag_98:\n      sload(0x05)\n      dup2\n      jump\t// out\n        /* \"Project.sol\":2581:2920  function approvePayment(uint256 index) public {... */\n    tag_103:\n        /* \"Project.sol\":2637:2660  Payment storage payment */\n      0x00\n        /* \"Project.sol\":2663:2671  payments */\n      0x07\n        /* \"Project.sol\":2672:2677  index */\n      dup3\n        /* \"Project.sol\":2663:2678  payments[index] */\n      dup2\n      sload\n      dup2\n      lt\n      tag_203\n      jumpi\n      tag_204\n      tag_110\n      jump\t// in\n    tag_204:\n    tag_203:\n      swap1\n      0x00\n      mstore\n      keccak256(0x00, 0x20)\n      swap1\n      0x05\n      mul\n      add\n        /* \"Project.sol\":2637:2678  Payment storage payment = payments[index] */\n      swap1\n      pop\n        /* \"Project.sol\":2757:2758  0 */\n      0x00\n        /* \"Project.sol\":2733:2742  investors */\n      0x06\n        /* \"Project.sol\":2733:2754  investors[msg.sender] */\n      0x00\n        /* \"Project.sol\":2743:2753  msg.sender */\n      caller\n        /* \"Project.sol\":2733:2754  investors[msg.sender] */\n      0xffffffffffffffffffffffffffffffffffffffff\n      and\n      0xffffffffffffffffffffffffffffffffffffffff\n      and\n      dup2\n      mstore\n      0x20\n      add\n      swap1\n      dup2\n      mstore\n      0x20\n      add\n      0x00\n      keccak256\n      sload\n        /* \"Project.sol\":2733:2758  investors[msg.sender] > 0 */\n      gt\n        /* \"Project.sol\":2725:2759  require(investors[msg.sender] > 0) */\n      tag_206\n      jumpi\n      0x00\n      dup1\n      revert\n    tag_206:\n        /* \"Project.sol\":2809:2816  payment */\n      dup1\n        /* \"Project.sol\":2809:2823  payment.voters */\n      0x03\n      add\n        /* \"Project.sol\":2809:2835  payment.voters[msg.sender] */\n      0x00\n        /* \"Project.sol\":2824:2834  msg.sender */\n      caller\n        /* \"Project.sol\":2809:2835  payment.voters[msg.sender] */\n      0xffffffffffffffffffffffffffffffffffffffff\n      and\n      0xffffffffffffffffffffffffffffffffffffffff\n      and\n      dup2\n      mstore\n      0x20\n      add\n      swap1\n      dup2\n      mstore\n      0x20\n      add\n      0x00\n      keccak256\n      0x00\n      swap1\n      sload\n      swap1\n      0x0100\n      exp\n      swap1\n      div\n      0xff\n      and\n        /* \"Project.sol\":2808:2835  !payment.voters[msg.sender] */\n      iszero\n        /* \"Project.sol\":2800:2836  require(!payment.voters[msg.sender]) */\n      tag_207\n      jumpi\n      0x00\n      dup1\n      revert\n    tag_207:\n        /* \"Project.sol\":2876:2880  true */\n      0x01\n        /* \"Project.sol\":2847:2854  payment */\n      dup2\n        /* \"Project.sol\":2847:2861  payment.voters */\n      0x03\n      add\n        /* \"Project.sol\":2847:2873  payment.voters[msg.sender] */\n      0x00\n        /* \"Project.sol\":2862:2872  msg.sender */\n      caller\n        /* \"Project.sol\":2847:2873  payment.voters[msg.sender] */\n      0xffffffffffffffffffffffffffffffffffffffff\n      and\n      0xffffffffffffffffffffffffffffffffffffffff\n      and\n      dup2\n      mstore\n      0x20\n      add\n      swap1\n      dup2\n      mstore\n      0x20\n      add\n      0x00\n      keccak256\n      0x00\n        /* \"Project.sol\":2847:2880  payment.voters[msg.sender] = true */\n      0x0100\n      exp\n      dup2\n      sload\n      dup2\n      0xff\n      mul\n      not\n      and\n      swap1\n      dup4\n      iszero\n      iszero\n      mul\n      or\n      swap1\n      sstore\n      pop\n        /* \"Project.sol\":2912:2913  1 */\n      0x01\n        /* \"Project.sol\":2890:2897  payment */\n      dup2\n        /* \"Project.sol\":2890:2908  payment.voterCount */\n      0x04\n      add\n      0x00\n        /* \"Project.sol\":2890:2913  payment.voterCount += 1 */\n      dup3\n      dup3\n      sload\n      tag_208\n      swap2\n      swap1\n      tag_133\n      jump\t// in\n    tag_208:\n      swap3\n      pop\n      pop\n      dup2\n      swap1\n      sstore\n      pop\n        /* \"Project.sol\":2627:2920  {... */\n      pop\n        /* \"Project.sol\":2581:2920  function approvePayment(uint256 index) public {... */\n      pop\n      jump\t// out\n        /* \"SafeMath.sol\":659:802  function add(uint256 a, uint256 b) internal pure returns (uint256) {... */\n    tag_196:\n        /* \"SafeMath.sol\":717:724  uint256 */\n      0x00\n        /* \"SafeMath.sol\":736:745  uint256 c */\n      dup1\n        /* \"SafeMath.sol\":752:753  b */\n      dup3\n        /* \"SafeMath.sol\":748:749  a */\n      dup5\n        /* \"SafeMath.sol\":748:753  a + b */\n      tag_210\n      swap2\n      swap1\n      tag_133\n      jump\t// in\n    tag_210:\n        /* \"SafeMath.sol\":736:753  uint256 c = a + b */\n      swap1\n      pop\n        /* \"SafeMath.sol\":775:776  a */\n      dup4\n        /* \"SafeMath.sol\":770:771  c */\n      dup2\n        /* \"SafeMath.sol\":770:776  c >= a */\n      lt\n      iszero\n        /* \"SafeMath.sol\":763:777  assert(c >= a) */\n      tag_211\n      jumpi\n      tag_212\n      tag_213\n      jump\t// in\n    tag_212:\n    tag_211:\n        /* \"SafeMath.sol\":794:795  c */\n      dup1\n        /* \"SafeMath.sol\":787:795  return c */\n      swap2\n      pop\n      pop\n        /* \"SafeMath.sol\":659:802  function add(uint256 a, uint256 b) internal pure returns (uint256) {... */\n      swap3\n      swap2\n      pop\n      pop\n      jump\t// out\n    tag_113:\n      dup3\n      dup1\n      sload\n      tag_214\n      swap1\n      tag_116\n      jump\t// in\n    tag_214:\n      swap1\n      0x00\n      mstore\n      keccak256(0x00, 0x20)\n      swap1\n      0x1f\n      add\n      0x20\n      swap1\n      div\n      dup2\n      add\n      swap3\n      dup3\n      tag_216\n      jumpi\n      0x00\n      dup6\n      sstore\n      jump(tag_215)\n    tag_216:\n      dup3\n      0x1f\n      lt\n      tag_217\n      jumpi\n      dup1\n      mload\n      not(0xff)\n      and\n      dup4\n      dup1\n      add\n      or\n      dup6\n      sstore\n      jump(tag_215)\n    tag_217:\n      dup3\n      dup1\n      add\n      0x01\n      add\n      dup6\n      sstore\n      dup3\n      iszero\n      tag_215\n      jumpi\n      swap2\n      dup3\n      add\n    tag_218:\n      dup3\n      dup2\n      gt\n      iszero\n      tag_219\n      jumpi\n      dup3\n      mload\n      dup3\n      sstore\n      swap2\n      0x20\n      add\n      swap2\n      swap1\n      0x01\n      add\n      swap1\n      jump(tag_218)\n    tag_219:\n    tag_215:\n      pop\n      swap1\n      pop\n      tag_220\n      swap2\n      swap1\n      tag_221\n      jump\t// in\n    tag_220:\n      pop\n      swap1\n      jump\t// out\n    tag_221:\n    tag_222:\n      dup1\n      dup3\n      gt\n      iszero\n      tag_223\n      jumpi\n      0x00\n      dup2\n      0x00\n      swap1\n      sstore\n      pop\n      0x01\n      add\n      jump(tag_222)\n    tag_223:\n      pop\n      swap1\n      jump\t// out\n        /* \"#utility.yul\":7:82   */\n    tag_224:\n        /* \"#utility.yul\":40:46   */\n      0x00\n        /* \"#utility.yul\":73:75   */\n      0x40\n        /* \"#utility.yul\":67:76   */\n      mload\n        /* \"#utility.yul\":57:76   */\n      swap1\n      pop\n        /* \"#utility.yul\":7:82   */\n      swap1\n      jump\t// out\n        /* \"#utility.yul\":88:205   */\n    tag_225:\n        /* \"#utility.yul\":197:198   */\n      0x00\n        /* \"#utility.yul\":194:195   */\n      dup1\n        /* \"#utility.yul\":187:199   */\n      revert\n        /* \"#utility.yul\":211:328   */\n    tag_226:\n        /* \"#utility.yul\":320:321   */\n      0x00\n        /* \"#utility.yul\":317:318   */\n      dup1\n        /* \"#utility.yul\":310:322   */\n      revert\n        /* \"#utility.yul\":334:451   */\n    tag_227:\n        /* \"#utility.yul\":443:444   */\n      0x00\n        /* \"#utility.yul\":440:441   */\n      dup1\n        /* \"#utility.yul\":433:445   */\n      revert\n        /* \"#utility.yul\":457:574   */\n    tag_228:\n        /* \"#utility.yul\":566:567   */\n      0x00\n        /* \"#utility.yul\":563:564   */\n      dup1\n        /* \"#utility.yul\":556:568   */\n      revert\n        /* \"#utility.yul\":580:682   */\n    tag_229:\n        /* \"#utility.yul\":621:627   */\n      0x00\n        /* \"#utility.yul\":672:674   */\n      0x1f\n        /* \"#utility.yul\":668:675   */\n      not\n        /* \"#utility.yul\":663:665   */\n      0x1f\n        /* \"#utility.yul\":656:661   */\n      dup4\n        /* \"#utility.yul\":652:666   */\n      add\n        /* \"#utility.yul\":648:676   */\n      and\n        /* \"#utility.yul\":638:676   */\n      swap1\n      pop\n        /* \"#utility.yul\":580:682   */\n      swap2\n      swap1\n      pop\n      jump\t// out\n        /* \"#utility.yul\":688:868   */\n    tag_136:\n        /* \"#utility.yul\":736:813   */\n      0x4e487b7100000000000000000000000000000000000000000000000000000000\n        /* \"#utility.yul\":733:734   */\n      0x00\n        /* \"#utility.yul\":726:814   */\n      mstore\n        /* \"#utility.yul\":833:837   */\n      0x41\n        /* \"#utility.yul\":830:831   */\n      0x04\n        /* \"#utility.yul\":823:838   */\n      mstore\n        /* \"#utility.yul\":857:861   */\n      0x24\n        /* \"#utility.yul\":854:855   */\n      0x00\n        /* \"#utility.yul\":847:862   */\n      revert\n        /* \"#utility.yul\":874:1155   */\n    tag_230:\n        /* \"#utility.yul\":957:984   */\n      tag_281\n        /* \"#utility.yul\":979:983   */\n      dup3\n        /* \"#utility.yul\":957:984   */\n      tag_229\n      jump\t// in\n    tag_281:\n        /* \"#utility.yul\":949:955   */\n      dup2\n        /* \"#utility.yul\":945:985   */\n      add\n        /* \"#utility.yul\":1087:1093   */\n      dup2\n        /* \"#utility.yul\":1075:1085   */\n      dup2\n        /* \"#utility.yul\":1072:1094   */\n      lt\n        /* \"#utility.yul\":1051:1069   */\n      0xffffffffffffffff\n        /* \"#utility.yul\":1039:1049   */\n      dup3\n        /* \"#utility.yul\":1036:1070   */\n      gt\n        /* \"#utility.yul\":1033:1095   */\n      or\n        /* \"#utility.yul\":1030:1118   */\n      iszero\n      tag_282\n      jumpi\n        /* \"#utility.yul\":1098:1116   */\n      tag_283\n      tag_136\n      jump\t// in\n    tag_283:\n        /* \"#utility.yul\":1030:1118   */\n    tag_282:\n        /* \"#utility.yul\":1138:1148   */\n      dup1\n        /* \"#utility.yul\":1134:1136   */\n      0x40\n        /* \"#utility.yul\":1127:1149   */\n      mstore\n        /* \"#utility.yul\":917:1155   */\n      pop\n        /* \"#utility.yul\":874:1155   */\n      pop\n      pop\n      jump\t// out\n        /* \"#utility.yul\":1161:1290   */\n    tag_231:\n        /* \"#utility.yul\":1195:1201   */\n      0x00\n        /* \"#utility.yul\":1222:1242   */\n      tag_285\n      tag_224\n      jump\t// in\n    tag_285:\n        /* \"#utility.yul\":1212:1242   */\n      swap1\n      pop\n        /* \"#utility.yul\":1251:1284   */\n      tag_286\n        /* \"#utility.yul\":1279:1283   */\n      dup3\n        /* \"#utility.yul\":1271:1277   */\n      dup3\n        /* \"#utility.yul\":1251:1284   */\n      tag_230\n      jump\t// in\n    tag_286:\n        /* \"#utility.yul\":1161:1290   */\n      swap2\n      swap1\n      pop\n      jump\t// out\n        /* \"#utility.yul\":1296:1604   */\n    tag_232:\n        /* \"#utility.yul\":1358:1362   */\n      0x00\n        /* \"#utility.yul\":1448:1466   */\n      0xffffffffffffffff\n        /* \"#utility.yul\":1440:1446   */\n      dup3\n        /* \"#utility.yul\":1437:1467   */\n      gt\n        /* \"#utility.yul\":1434:1490   */\n      iszero\n      tag_288\n      jumpi\n        /* \"#utility.yul\":1470:1488   */\n      tag_289\n      tag_136\n      jump\t// in\n    tag_289:\n        /* \"#utility.yul\":1434:1490   */\n    tag_288:\n        /* \"#utility.yul\":1508:1537   */\n      tag_290\n        /* \"#utility.yul\":1530:1536   */\n      dup3\n        /* \"#utility.yul\":1508:1537   */\n      tag_229\n      jump\t// in\n    tag_290:\n        /* \"#utility.yul\":1500:1537   */\n      swap1\n      pop\n        /* \"#utility.yul\":1592:1596   */\n      0x20\n        /* \"#utility.yul\":1586:1590   */\n      dup2\n        /* \"#utility.yul\":1582:1597   */\n      add\n        /* \"#utility.yul\":1574:1597   */\n      swap1\n      pop\n        /* \"#utility.yul\":1296:1604   */\n      swap2\n      swap1\n      pop\n      jump\t// out\n        /* \"#utility.yul\":1610:1764   */\n    tag_233:\n        /* \"#utility.yul\":1694:1700   */\n      dup3\n        /* \"#utility.yul\":1689:1692   */\n      dup2\n        /* \"#utility.yul\":1684:1687   */\n      dup4\n        /* \"#utility.yul\":1671:1701   */\n      calldatacopy\n        /* \"#utility.yul\":1756:1757   */\n      0x00\n        /* \"#utility.yul\":1747:1753   */\n      dup4\n        /* \"#utility.yul\":1742:1745   */\n      dup4\n        /* \"#utility.yul\":1738:1754   */\n      add\n        /* \"#utility.yul\":1731:1758   */\n      mstore\n        /* \"#utility.yul\":1610:1764   */\n      pop\n      pop\n      pop\n      jump\t// out\n        /* \"#utility.yul\":1770:2182   */\n    tag_234:\n        /* \"#utility.yul\":1848:1853   */\n      0x00\n        /* \"#utility.yul\":1873:1939   */\n      tag_293\n        /* \"#utility.yul\":1889:1938   */\n      tag_294\n        /* \"#utility.yul\":1931:1937   */\n      dup5\n        /* \"#utility.yul\":1889:1938   */\n      tag_232\n      jump\t// in\n    tag_294:\n        /* \"#utility.yul\":1873:1939   */\n      tag_231\n      jump\t// in\n    tag_293:\n        /* \"#utility.yul\":1864:1939   */\n      swap1\n      pop\n        /* \"#utility.yul\":1962:1968   */\n      dup3\n        /* \"#utility.yul\":1955:1960   */\n      dup2\n        /* \"#utility.yul\":1948:1969   */\n      mstore\n        /* \"#utility.yul\":2000:2004   */\n      0x20\n        /* \"#utility.yul\":1993:1998   */\n      dup2\n        /* \"#utility.yul\":1989:2005   */\n      add\n        /* \"#utility.yul\":2038:2041   */\n      dup5\n        /* \"#utility.yul\":2029:2035   */\n      dup5\n        /* \"#utility.yul\":2024:2027   */\n      dup5\n        /* \"#utility.yul\":2020:2036   */\n      add\n        /* \"#utility.yul\":2017:2042   */\n      gt\n        /* \"#utility.yul\":2014:2126   */\n      iszero\n      tag_295\n      jumpi\n        /* \"#utility.yul\":2045:2124   */\n      tag_296\n      tag_228\n      jump\t// in\n    tag_296:\n        /* \"#utility.yul\":2014:2126   */\n    tag_295:\n        /* \"#utility.yul\":2135:2176   */\n      tag_297\n        /* \"#utility.yul\":2169:2175   */\n      dup5\n        /* \"#utility.yul\":2164:2167   */\n      dup3\n        /* \"#utility.yul\":2159:2162   */\n      dup6\n        /* \"#utility.yul\":2135:2176   */\n      tag_233\n      jump\t// in\n    tag_297:\n        /* \"#utility.yul\":1854:2182   */\n      pop\n        /* \"#utility.yul\":1770:2182   */\n      swap4\n      swap3\n      pop\n      pop\n      pop\n      jump\t// out\n        /* \"#utility.yul\":2202:2542   */\n    tag_235:\n        /* \"#utility.yul\":2258:2263   */\n      0x00\n        /* \"#utility.yul\":2307:2310   */\n      dup3\n        /* \"#utility.yul\":2300:2304   */\n      0x1f\n        /* \"#utility.yul\":2292:2298   */\n      dup4\n        /* \"#utility.yul\":2288:2305   */\n      add\n        /* \"#utility.yul\":2284:2311   */\n      slt\n        /* \"#utility.yul\":2274:2396   */\n      tag_299\n      jumpi\n        /* \"#utility.yul\":2315:2394   */\n      tag_300\n      tag_227\n      jump\t// in\n    tag_300:\n        /* \"#utility.yul\":2274:2396   */\n    tag_299:\n        /* \"#utility.yul\":2432:2438   */\n      dup2\n        /* \"#utility.yul\":2419:2439   */\n      calldataload\n        /* \"#utility.yul\":2457:2536   */\n      tag_301\n        /* \"#utility.yul\":2532:2535   */\n      dup5\n        /* \"#utility.yul\":2524:2530   */\n      dup3\n        /* \"#utility.yul\":2517:2521   */\n      0x20\n        /* \"#utility.yul\":2509:2515   */\n      dup7\n        /* \"#utility.yul\":2505:2522   */\n      add\n        /* \"#utility.yul\":2457:2536   */\n      tag_234\n      jump\t// in\n    tag_301:\n        /* \"#utility.yul\":2448:2536   */\n      swap2\n      pop\n        /* \"#utility.yul\":2264:2542   */\n      pop\n        /* \"#utility.yul\":2202:2542   */\n      swap3\n      swap2\n      pop\n      pop\n      jump\t// out\n        /* \"#utility.yul\":2548:2625   */\n    tag_236:\n        /* \"#utility.yul\":2585:2592   */\n      0x00\n        /* \"#utility.yul\":2614:2619   */\n      dup2\n        /* \"#utility.yul\":2603:2619   */\n      swap1\n      pop\n        /* \"#utility.yul\":2548:2625   */\n      swap2\n      swap1\n      pop\n      jump\t// out\n        /* \"#utility.yul\":2631:2753   */\n    tag_237:\n        /* \"#utility.yul\":2704:2728   */\n      tag_304\n        /* \"#utility.yul\":2722:2727   */\n      dup2\n        /* \"#utility.yul\":2704:2728   */\n      tag_236\n      jump\t// in\n    tag_304:\n        /* \"#utility.yul\":2697:2702   */\n      dup2\n        /* \"#utility.yul\":2694:2729   */\n      eq\n        /* \"#utility.yul\":2684:2747   */\n      tag_305\n      jumpi\n        /* \"#utility.yul\":2743:2744   */\n      0x00\n        /* \"#utility.yul\":2740:2741   */\n      dup1\n        /* \"#utility.yul\":2733:2745   */\n      revert\n        /* \"#utility.yul\":2684:2747   */\n    tag_305:\n        /* \"#utility.yul\":2631:2753   */\n      pop\n      jump\t// out\n        /* \"#utility.yul\":2759:2898   */\n    tag_238:\n        /* \"#utility.yul\":2805:2810   */\n      0x00\n        /* \"#utility.yul\":2843:2849   */\n      dup2\n        /* \"#utility.yul\":2830:2850   */\n      calldataload\n        /* \"#utility.yul\":2821:2850   */\n      swap1\n      pop\n        /* \"#utility.yul\":2859:2892   */\n      tag_307\n        /* \"#utility.yul\":2886:2891   */\n      dup2\n        /* \"#utility.yul\":2859:2892   */\n      tag_237\n      jump\t// in\n    tag_307:\n        /* \"#utility.yul\":2759:2898   */\n      swap3\n      swap2\n      pop\n      pop\n      jump\t// out\n        /* \"#utility.yul\":2904:3030   */\n    tag_239:\n        /* \"#utility.yul\":2941:2948   */\n      0x00\n        /* \"#utility.yul\":2981:3023   */\n      0xffffffffffffffffffffffffffffffffffffffff\n        /* \"#utility.yul\":2974:2979   */\n      dup3\n        /* \"#utility.yul\":2970:3024   */\n      and\n        /* \"#utility.yul\":2959:3024   */\n      swap1\n      pop\n        /* \"#utility.yul\":2904:3030   */\n      swap2\n      swap1\n      pop\n      jump\t// out\n        /* \"#utility.yul\":3036:3140   */\n    tag_240:\n        /* \"#utility.yul\":3081:3088   */\n      0x00\n        /* \"#utility.yul\":3110:3134   */\n      tag_310\n        /* \"#utility.yul\":3128:3133   */\n      dup3\n        /* \"#utility.yul\":3110:3134   */\n      tag_239\n      jump\t// in\n    tag_310:\n        /* \"#utility.yul\":3099:3134   */\n      swap1\n      pop\n        /* \"#utility.yul\":3036:3140   */\n      swap2\n      swap1\n      pop\n      jump\t// out\n        /* \"#utility.yul\":3146:3284   */\n    tag_241:\n        /* \"#utility.yul\":3227:3259   */\n      tag_312\n        /* \"#utility.yul\":3253:3258   */\n      dup2\n        /* \"#utility.yul\":3227:3259   */\n      tag_240\n      jump\t// in\n    tag_312:\n        /* \"#utility.yul\":3220:3225   */\n      dup2\n        /* \"#utility.yul\":3217:3260   */\n      eq\n        /* \"#utility.yul\":3207:3278   */\n      tag_313\n      jumpi\n        /* \"#utility.yul\":3274:3275   */\n      0x00\n        /* \"#utility.yul\":3271:3272   */\n      dup1\n        /* \"#utility.yul\":3264:3276   */\n      revert\n        /* \"#utility.yul\":3207:3278   */\n    tag_313:\n        /* \"#utility.yul\":3146:3284   */\n      pop\n      jump\t// out\n        /* \"#utility.yul\":3290:3445   */\n    tag_242:\n        /* \"#utility.yul\":3344:3349   */\n      0x00\n        /* \"#utility.yul\":3382:3388   */\n      dup2\n        /* \"#utility.yul\":3369:3389   */\n      calldataload\n        /* \"#utility.yul\":3360:3389   */\n      swap1\n      pop\n        /* \"#utility.yul\":3398:3439   */\n      tag_315\n        /* \"#utility.yul\":3433:3438   */\n      dup2\n        /* \"#utility.yul\":3398:3439   */\n      tag_241\n      jump\t// in\n    tag_315:\n        /* \"#utility.yul\":3290:3445   */\n      swap3\n      swap2\n      pop\n      pop\n      jump\t// out\n        /* \"#utility.yul\":3451:4266   */\n    tag_25:\n        /* \"#utility.yul\":3546:3552   */\n      0x00\n        /* \"#utility.yul\":3554:3560   */\n      dup1\n        /* \"#utility.yul\":3562:3568   */\n      0x00\n        /* \"#utility.yul\":3611:3613   */\n      0x60\n        /* \"#utility.yul\":3599:3608   */\n      dup5\n        /* \"#utility.yul\":3590:3597   */\n      dup7\n        /* \"#utility.yul\":3586:3609   */\n      sub\n        /* \"#utility.yul\":3582:3614   */\n      slt\n        /* \"#utility.yul\":3579:3698   */\n      iszero\n      tag_317\n      jumpi\n        /* \"#utility.yul\":3617:3696   */\n      tag_318\n      tag_225\n      jump\t// in\n    tag_318:\n        /* \"#utility.yul\":3579:3698   */\n    tag_317:\n        /* \"#utility.yul\":3765:3766   */\n      0x00\n        /* \"#utility.yul\":3754:3763   */\n      dup5\n        /* \"#utility.yul\":3750:3767   */\n      add\n        /* \"#utility.yul\":3737:3768   */\n      calldataload\n        /* \"#utility.yul\":3795:3813   */\n      0xffffffffffffffff\n        /* \"#utility.yul\":3787:3793   */\n      dup2\n        /* \"#utility.yul\":3784:3814   */\n      gt\n        /* \"#utility.yul\":3781:3898   */\n      iszero\n      tag_319\n      jumpi\n        /* \"#utility.yul\":3817:3896   */\n      tag_320\n      tag_226\n      jump\t// in\n    tag_320:\n        /* \"#utility.yul\":3781:3898   */\n    tag_319:\n        /* \"#utility.yul\":3922:3985   */\n      tag_321\n        /* \"#utility.yul\":3977:3984   */\n      dup7\n        /* \"#utility.yul\":3968:3974   */\n      dup3\n        /* \"#utility.yul\":3957:3966   */\n      dup8\n        /* \"#utility.yul\":3953:3975   */\n      add\n        /* \"#utility.yul\":3922:3985   */\n      tag_235\n      jump\t// in\n    tag_321:\n        /* \"#utility.yul\":3912:3985   */\n      swap4\n      pop\n        /* \"#utility.yul\":3708:3995   */\n      pop\n        /* \"#utility.yul\":4034:4036   */\n      0x20\n        /* \"#utility.yul\":4060:4113   */\n      tag_322\n        /* \"#utility.yul\":4105:4112   */\n      dup7\n        /* \"#utility.yul\":4096:4102   */\n      dup3\n        /* \"#utility.yul\":4085:4094   */\n      dup8\n        /* \"#utility.yul\":4081:4103   */\n      add\n        /* \"#utility.yul\":4060:4113   */\n      tag_238\n      jump\t// in\n    tag_322:\n        /* \"#utility.yul\":4050:4113   */\n      swap3\n      pop\n        /* \"#utility.yul\":4005:4123   */\n      pop\n        /* \"#utility.yul\":4162:4164   */\n      0x40\n        /* \"#utility.yul\":4188:4249   */\n      tag_323\n        /* \"#utility.yul\":4241:4248   */\n      dup7\n        /* \"#utility.yul\":4232:4238   */\n      dup3\n        /* \"#utility.yul\":4221:4230   */\n      dup8\n        /* \"#utility.yul\":4217:4239   */\n      add\n        /* \"#utility.yul\":4188:4249   */\n      tag_242\n      jump\t// in\n    tag_323:\n        /* \"#utility.yul\":4178:4249   */\n      swap2\n      pop\n        /* \"#utility.yul\":4133:4259   */\n      pop\n        /* \"#utility.yul\":3451:4266   */\n      swap3\n      pop\n      swap3\n      pop\n      swap3\n      jump\t// out\n        /* \"#utility.yul\":4272:4390   */\n    tag_243:\n        /* \"#utility.yul\":4359:4383   */\n      tag_325\n        /* \"#utility.yul\":4377:4382   */\n      dup2\n        /* \"#utility.yul\":4359:4383   */\n      tag_236\n      jump\t// in\n    tag_325:\n        /* \"#utility.yul\":4354:4357   */\n      dup3\n        /* \"#utility.yul\":4347:4384   */\n      mstore\n        /* \"#utility.yul\":4272:4390   */\n      pop\n      pop\n      jump\t// out\n        /* \"#utility.yul\":4396:4618   */\n    tag_31:\n        /* \"#utility.yul\":4489:4493   */\n      0x00\n        /* \"#utility.yul\":4527:4529   */\n      0x20\n        /* \"#utility.yul\":4516:4525   */\n      dup3\n        /* \"#utility.yul\":4512:4530   */\n      add\n        /* \"#utility.yul\":4504:4530   */\n      swap1\n      pop\n        /* \"#utility.yul\":4540:4611   */\n      tag_327\n        /* \"#utility.yul\":4608:4609   */\n      0x00\n        /* \"#utility.yul\":4597:4606   */\n      dup4\n        /* \"#utility.yul\":4593:4610   */\n      add\n        /* \"#utility.yul\":4584:4590   */\n      dup5\n        /* \"#utility.yul\":4540:4611   */\n      tag_243\n      jump\t// in\n    tag_327:\n        /* \"#utility.yul\":4396:4618   */\n      swap3\n      swap2\n      pop\n      pop\n      jump\t// out\n        /* \"#utility.yul\":4624:4723   */\n    tag_244:\n        /* \"#utility.yul\":4676:4682   */\n      0x00\n        /* \"#utility.yul\":4710:4715   */\n      dup2\n        /* \"#utility.yul\":4704:4716   */\n      mload\n        /* \"#utility.yul\":4694:4716   */\n      swap1\n      pop\n        /* \"#utility.yul\":4624:4723   */\n      swap2\n      swap1\n      pop\n      jump\t// out\n        /* \"#utility.yul\":4729:4898   */\n    tag_245:\n        /* \"#utility.yul\":4813:4824   */\n      0x00\n        /* \"#utility.yul\":4847:4853   */\n      dup3\n        /* \"#utility.yul\":4842:4845   */\n      dup3\n        /* \"#utility.yul\":4835:4854   */\n      mstore\n        /* \"#utility.yul\":4887:4891   */\n      0x20\n        /* \"#utility.yul\":4882:4885   */\n      dup3\n        /* \"#utility.yul\":4878:4892   */\n      add\n        /* \"#utility.yul\":4863:4892   */\n      swap1\n      pop\n        /* \"#utility.yul\":4729:4898   */\n      swap3\n      swap2\n      pop\n      pop\n      jump\t// out\n        /* \"#utility.yul\":4904:5211   */\n    tag_246:\n        /* \"#utility.yul\":4972:4973   */\n      0x00\n        /* \"#utility.yul\":4982:5095   */\n    tag_331:\n        /* \"#utility.yul\":4996:5002   */\n      dup4\n        /* \"#utility.yul\":4993:4994   */\n      dup2\n        /* \"#utility.yul\":4990:5003   */\n      lt\n        /* \"#utility.yul\":4982:5095   */\n      iszero\n      tag_333\n      jumpi\n        /* \"#utility.yul\":5081:5082   */\n      dup1\n        /* \"#utility.yul\":5076:5079   */\n      dup3\n        /* \"#utility.yul\":5072:5083   */\n      add\n        /* \"#utility.yul\":5066:5084   */\n      mload\n        /* \"#utility.yul\":5062:5063   */\n      dup2\n        /* \"#utility.yul\":5057:5060   */\n      dup5\n        /* \"#utility.yul\":5053:5064   */\n      add\n        /* \"#utility.yul\":5046:5085   */\n      mstore\n        /* \"#utility.yul\":5018:5020   */\n      0x20\n        /* \"#utility.yul\":5015:5016   */\n      dup2\n        /* \"#utility.yul\":5011:5021   */\n      add\n        /* \"#utility.yul\":5006:5021   */\n      swap1\n      pop\n        /* \"#utility.yul\":4982:5095   */\n      jump(tag_331)\n    tag_333:\n        /* \"#utility.yul\":5113:5119   */\n      dup4\n        /* \"#utility.yul\":5110:5111   */\n      dup2\n        /* \"#utility.yul\":5107:5120   */\n      gt\n        /* \"#utility.yul\":5104:5205   */\n      iszero\n      tag_334\n      jumpi\n        /* \"#utility.yul\":5193:5194   */\n      0x00\n        /* \"#utility.yul\":5184:5190   */\n      dup5\n        /* \"#utility.yul\":5179:5182   */\n      dup5\n        /* \"#utility.yul\":5175:5191   */\n      add\n        /* \"#utility.yul\":5168:5195   */\n      mstore\n        /* \"#utility.yul\":5104:5205   */\n    tag_334:\n        /* \"#utility.yul\":4953:5211   */\n      pop\n        /* \"#utility.yul\":4904:5211   */\n      pop\n      pop\n      pop\n      jump\t// out\n        /* \"#utility.yul\":5217:5581   */\n    tag_247:\n        /* \"#utility.yul\":5305:5308   */\n      0x00\n        /* \"#utility.yul\":5333:5372   */\n      tag_336\n        /* \"#utility.yul\":5366:5371   */\n      dup3\n        /* \"#utility.yul\":5333:5372   */\n      tag_244\n      jump\t// in\n    tag_336:\n        /* \"#utility.yul\":5388:5459   */\n      tag_337\n        /* \"#utility.yul\":5452:5458   */\n      dup2\n        /* \"#utility.yul\":5447:5450   */\n      dup6\n        /* \"#utility.yul\":5388:5459   */\n      tag_245\n      jump\t// in\n    tag_337:\n        /* \"#utility.yul\":5381:5459   */\n      swap4\n      pop\n        /* \"#utility.yul\":5468:5520   */\n      tag_338\n        /* \"#utility.yul\":5513:5519   */\n      dup2\n        /* \"#utility.yul\":5508:5511   */\n      dup6\n        /* \"#utility.yul\":5501:5505   */\n      0x20\n        /* \"#utility.yul\":5494:5499   */\n      dup7\n        /* \"#utility.yul\":5490:5506   */\n      add\n        /* \"#utility.yul\":5468:5520   */\n      tag_246\n      jump\t// in\n    tag_338:\n        /* \"#utility.yul\":5545:5574   */\n      tag_339\n        /* \"#utility.yul\":5567:5573   */\n      dup2\n        /* \"#utility.yul\":5545:5574   */\n      tag_229\n      jump\t// in\n    tag_339:\n        /* \"#utility.yul\":5540:5543   */\n      dup5\n        /* \"#utility.yul\":5536:5575   */\n      add\n        /* \"#utility.yul\":5529:5575   */\n      swap2\n      pop\n        /* \"#utility.yul\":5309:5581   */\n      pop\n        /* \"#utility.yul\":5217:5581   */\n      swap3\n      swap2\n      pop\n      pop\n      jump\t// out\n        /* \"#utility.yul\":5587:5683   */\n    tag_248:\n        /* \"#utility.yul\":5624:5631   */\n      0x00\n        /* \"#utility.yul\":5653:5677   */\n      tag_341\n        /* \"#utility.yul\":5671:5676   */\n      dup3\n        /* \"#utility.yul\":5653:5677   */\n      tag_239\n      jump\t// in\n    tag_341:\n        /* \"#utility.yul\":5642:5677   */\n      swap1\n      pop\n        /* \"#utility.yul\":5587:5683   */\n      swap2\n      swap1\n      pop\n      jump\t// out\n        /* \"#utility.yul\":5689:5807   */\n    tag_249:\n        /* \"#utility.yul\":5776:5800   */\n      tag_343\n        /* \"#utility.yul\":5794:5799   */\n      dup2\n        /* \"#utility.yul\":5776:5800   */\n      tag_248\n      jump\t// in\n    tag_343:\n        /* \"#utility.yul\":5771:5774   */\n      dup3\n        /* \"#utility.yul\":5764:5801   */\n      mstore\n        /* \"#utility.yul\":5689:5807   */\n      pop\n      pop\n      jump\t// out\n        /* \"#utility.yul\":5813:6901   */\n    tag_40:\n        /* \"#utility.yul\":6122:6126   */\n      0x00\n        /* \"#utility.yul\":6160:6163   */\n      0x0100\n        /* \"#utility.yul\":6149:6158   */\n      dup3\n        /* \"#utility.yul\":6145:6164   */\n      add\n        /* \"#utility.yul\":6137:6164   */\n      swap1\n      pop\n        /* \"#utility.yul\":6210:6219   */\n      dup2\n        /* \"#utility.yul\":6204:6208   */\n      dup2\n        /* \"#utility.yul\":6200:6220   */\n      sub\n        /* \"#utility.yul\":6196:6197   */\n      0x00\n        /* \"#utility.yul\":6185:6194   */\n      dup4\n        /* \"#utility.yul\":6181:6198   */\n      add\n        /* \"#utility.yul\":6174:6221   */\n      mstore\n        /* \"#utility.yul\":6238:6316   */\n      tag_345\n        /* \"#utility.yul\":6311:6315   */\n      dup2\n        /* \"#utility.yul\":6302:6308   */\n      dup12\n        /* \"#utility.yul\":6238:6316   */\n      tag_247\n      jump\t// in\n    tag_345:\n        /* \"#utility.yul\":6230:6316   */\n      swap1\n      pop\n        /* \"#utility.yul\":6326:6398   */\n      tag_346\n        /* \"#utility.yul\":6394:6396   */\n      0x20\n        /* \"#utility.yul\":6383:6392   */\n      dup4\n        /* \"#utility.yul\":6379:6397   */\n      add\n        /* \"#utility.yul\":6370:6376   */\n      dup11\n        /* \"#utility.yul\":6326:6398   */\n      tag_243\n      jump\t// in\n    tag_346:\n        /* \"#utility.yul\":6408:6480   */\n      tag_347\n        /* \"#utility.yul\":6476:6478   */\n      0x40\n        /* \"#utility.yul\":6465:6474   */\n      dup4\n        /* \"#utility.yul\":6461:6479   */\n      add\n        /* \"#utility.yul\":6452:6458   */\n      dup10\n        /* \"#utility.yul\":6408:6480   */\n      tag_243\n      jump\t// in\n    tag_347:\n        /* \"#utility.yul\":6490:6562   */\n      tag_348\n        /* \"#utility.yul\":6558:6560   */\n      0x60\n        /* \"#utility.yul\":6547:6556   */\n      dup4\n        /* \"#utility.yul\":6543:6561   */\n      add\n        /* \"#utility.yul\":6534:6540   */\n      dup9\n        /* \"#utility.yul\":6490:6562   */\n      tag_243\n      jump\t// in\n    tag_348:\n        /* \"#utility.yul\":6572:6645   */\n      tag_349\n        /* \"#utility.yul\":6640:6643   */\n      0x80\n        /* \"#utility.yul\":6629:6638   */\n      dup4\n        /* \"#utility.yul\":6625:6644   */\n      add\n        /* \"#utility.yul\":6616:6622   */\n      dup8\n        /* \"#utility.yul\":6572:6645   */\n      tag_243\n      jump\t// in\n    tag_349:\n        /* \"#utility.yul\":6655:6728   */\n      tag_350\n        /* \"#utility.yul\":6723:6726   */\n      0xa0\n        /* \"#utility.yul\":6712:6721   */\n      dup4\n        /* \"#utility.yul\":6708:6727   */\n      add\n        /* \"#utility.yul\":6699:6705   */\n      dup7\n        /* \"#utility.yul\":6655:6728   */\n      tag_243\n      jump\t// in\n    tag_350:\n        /* \"#utility.yul\":6738:6811   */\n      tag_351\n        /* \"#utility.yul\":6806:6809   */\n      0xc0\n        /* \"#utility.yul\":6795:6804   */\n      dup4\n        /* \"#utility.yul\":6791:6810   */\n      add\n        /* \"#utility.yul\":6782:6788   */\n      dup6\n        /* \"#utility.yul\":6738:6811   */\n      tag_243\n      jump\t// in\n    tag_351:\n        /* \"#utility.yul\":6821:6894   */\n      tag_352\n        /* \"#utility.yul\":6889:6892   */\n      0xe0\n        /* \"#utility.yul\":6878:6887   */\n      dup4\n        /* \"#utility.yul\":6874:6893   */\n      add\n        /* \"#utility.yul\":6865:6871   */\n      dup5\n        /* \"#utility.yul\":6821:6894   */\n      tag_249\n      jump\t// in\n    tag_352:\n        /* \"#utility.yul\":5813:6901   */\n      swap10\n      swap9\n      pop\n      pop\n      pop\n      pop\n      pop\n      pop\n      pop\n      pop\n      pop\n      jump\t// out\n        /* \"#utility.yul\":6907:7029   */\n    tag_250:\n        /* \"#utility.yul\":6980:7004   */\n      tag_354\n        /* \"#utility.yul\":6998:7003   */\n      dup2\n        /* \"#utility.yul\":6980:7004   */\n      tag_248\n      jump\t// in\n    tag_354:\n        /* \"#utility.yul\":6973:6978   */\n      dup2\n        /* \"#utility.yul\":6970:7005   */\n      eq\n        /* \"#utility.yul\":6960:7023   */\n      tag_355\n      jumpi\n        /* \"#utility.yul\":7019:7020   */\n      0x00\n        /* \"#utility.yul\":7016:7017   */\n      dup1\n        /* \"#utility.yul\":7009:7021   */\n      revert\n        /* \"#utility.yul\":6960:7023   */\n    tag_355:\n        /* \"#utility.yul\":6907:7029   */\n      pop\n      jump\t// out\n        /* \"#utility.yul\":7035:7174   */\n    tag_251:\n        /* \"#utility.yul\":7081:7086   */\n      0x00\n        /* \"#utility.yul\":7119:7125   */\n      dup2\n        /* \"#utility.yul\":7106:7126   */\n      calldataload\n        /* \"#utility.yul\":7097:7126   */\n      swap1\n      pop\n        /* \"#utility.yul\":7135:7168   */\n      tag_357\n        /* \"#utility.yul\":7162:7167   */\n      dup2\n        /* \"#utility.yul\":7135:7168   */\n      tag_250\n      jump\t// in\n    tag_357:\n        /* \"#utility.yul\":7035:7174   */\n      swap3\n      swap2\n      pop\n      pop\n      jump\t// out\n        /* \"#utility.yul\":7180:7509   */\n    tag_44:\n        /* \"#utility.yul\":7239:7245   */\n      0x00\n        /* \"#utility.yul\":7288:7290   */\n      0x20\n        /* \"#utility.yul\":7276:7285   */\n      dup3\n        /* \"#utility.yul\":7267:7274   */\n      dup5\n        /* \"#utility.yul\":7263:7286   */\n      sub\n        /* \"#utility.yul\":7259:7291   */\n      slt\n        /* \"#utility.yul\":7256:7375   */\n      iszero\n      tag_359\n      jumpi\n        /* \"#utility.yul\":7294:7373   */\n      tag_360\n      tag_225\n      jump\t// in\n    tag_360:\n        /* \"#utility.yul\":7256:7375   */\n    tag_359:\n        /* \"#utility.yul\":7414:7415   */\n      0x00\n        /* \"#utility.yul\":7439:7492   */\n      tag_361\n        /* \"#utility.yul\":7484:7491   */\n      dup5\n        /* \"#utility.yul\":7475:7481   */\n      dup3\n        /* \"#utility.yul\":7464:7473   */\n      dup6\n        /* \"#utility.yul\":7460:7482   */\n      add\n        /* \"#utility.yul\":7439:7492   */\n      tag_251\n      jump\t// in\n    tag_361:\n        /* \"#utility.yul\":7429:7492   */\n      swap2\n      pop\n        /* \"#utility.yul\":7385:7502   */\n      pop\n        /* \"#utility.yul\":7180:7509   */\n      swap3\n      swap2\n      pop\n      pop\n      jump\t// out\n        /* \"#utility.yul\":7515:7828   */\n    tag_47:\n        /* \"#utility.yul\":7628:7632   */\n      0x00\n        /* \"#utility.yul\":7666:7668   */\n      0x20\n        /* \"#utility.yul\":7655:7664   */\n      dup3\n        /* \"#utility.yul\":7651:7669   */\n      add\n        /* \"#utility.yul\":7643:7669   */\n      swap1\n      pop\n        /* \"#utility.yul\":7715:7724   */\n      dup2\n        /* \"#utility.yul\":7709:7713   */\n      dup2\n        /* \"#utility.yul\":7705:7725   */\n      sub\n        /* \"#utility.yul\":7701:7702   */\n      0x00\n        /* \"#utility.yul\":7690:7699   */\n      dup4\n        /* \"#utility.yul\":7686:7703   */\n      add\n        /* \"#utility.yul\":7679:7726   */\n      mstore\n        /* \"#utility.yul\":7743:7821   */\n      tag_363\n        /* \"#utility.yul\":7816:7820   */\n      dup2\n        /* \"#utility.yul\":7807:7813   */\n      dup5\n        /* \"#utility.yul\":7743:7821   */\n      tag_247\n      jump\t// in\n    tag_363:\n        /* \"#utility.yul\":7735:7821   */\n      swap1\n      pop\n        /* \"#utility.yul\":7515:7828   */\n      swap3\n      swap2\n      pop\n      pop\n      jump\t// out\n        /* \"#utility.yul\":7834:8163   */\n    tag_55:\n        /* \"#utility.yul\":7893:7899   */\n      0x00\n        /* \"#utility.yul\":7942:7944   */\n      0x20\n        /* \"#utility.yul\":7930:7939   */\n      dup3\n        /* \"#utility.yul\":7921:7928   */\n      dup5\n        /* \"#utility.yul\":7917:7940   */\n      sub\n        /* \"#utility.yul\":7913:7945   */\n      slt\n        /* \"#utility.yul\":7910:8029   */\n      iszero\n      tag_365\n      jumpi\n        /* \"#utility.yul\":7948:8027   */\n      tag_366\n      tag_225\n      jump\t// in\n    tag_366:\n        /* \"#utility.yul\":7910:8029   */\n    tag_365:\n        /* \"#utility.yul\":8068:8069   */\n      0x00\n        /* \"#utility.yul\":8093:8146   */\n      tag_367\n        /* \"#utility.yul\":8138:8145   */\n      dup5\n        /* \"#utility.yul\":8129:8135   */\n      dup3\n        /* \"#utility.yul\":8118:8127   */\n      dup6\n        /* \"#utility.yul\":8114:8136   */\n      add\n        /* \"#utility.yul\":8093:8146   */\n      tag_238\n      jump\t// in\n    tag_367:\n        /* \"#utility.yul\":8083:8146   */\n      swap2\n      pop\n        /* \"#utility.yul\":8039:8156   */\n      pop\n        /* \"#utility.yul\":7834:8163   */\n      swap3\n      swap2\n      pop\n      pop\n      jump\t// out\n        /* \"#utility.yul\":8169:8476   */\n    tag_252:\n        /* \"#utility.yul\":8230:8234   */\n      0x00\n        /* \"#utility.yul\":8320:8338   */\n      0xffffffffffffffff\n        /* \"#utility.yul\":8312:8318   */\n      dup3\n        /* \"#utility.yul\":8309:8339   */\n      gt\n        /* \"#utility.yul\":8306:8362   */\n      iszero\n      tag_369\n      jumpi\n        /* \"#utility.yul\":8342:8360   */\n      tag_370\n      tag_136\n      jump\t// in\n    tag_370:\n        /* \"#utility.yul\":8306:8362   */\n    tag_369:\n        /* \"#utility.yul\":8380:8409   */\n      tag_371\n        /* \"#utility.yul\":8402:8408   */\n      dup3\n        /* \"#utility.yul\":8380:8409   */\n      tag_229\n      jump\t// in\n    tag_371:\n        /* \"#utility.yul\":8372:8409   */\n      swap1\n      pop\n        /* \"#utility.yul\":8464:8468   */\n      0x20\n        /* \"#utility.yul\":8458:8462   */\n      dup2\n        /* \"#utility.yul\":8454:8469   */\n      add\n        /* \"#utility.yul\":8446:8469   */\n      swap1\n      pop\n        /* \"#utility.yul\":8169:8476   */\n      swap2\n      swap1\n      pop\n      jump\t// out\n        /* \"#utility.yul\":8482:8892   */\n    tag_253:\n        /* \"#utility.yul\":8559:8564   */\n      0x00\n        /* \"#utility.yul\":8584:8649   */\n      tag_373\n        /* \"#utility.yul\":8600:8648   */\n      tag_374\n        /* \"#utility.yul\":8641:8647   */\n      dup5\n        /* \"#utility.yul\":8600:8648   */\n      tag_252\n      jump\t// in\n    tag_374:\n        /* \"#utility.yul\":8584:8649   */\n      tag_231\n      jump\t// in\n    tag_373:\n        /* \"#utility.yul\":8575:8649   */\n      swap1\n      pop\n        /* \"#utility.yul\":8672:8678   */\n      dup3\n        /* \"#utility.yul\":8665:8670   */\n      dup2\n        /* \"#utility.yul\":8658:8679   */\n      mstore\n        /* \"#utility.yul\":8710:8714   */\n      0x20\n        /* \"#utility.yul\":8703:8708   */\n      dup2\n        /* \"#utility.yul\":8699:8715   */\n      add\n        /* \"#utility.yul\":8748:8751   */\n      dup5\n        /* \"#utility.yul\":8739:8745   */\n      dup5\n        /* \"#utility.yul\":8734:8737   */\n      dup5\n        /* \"#utility.yul\":8730:8746   */\n      add\n        /* \"#utility.yul\":8727:8752   */\n      gt\n        /* \"#utility.yul\":8724:8836   */\n      iszero\n      tag_375\n      jumpi\n        /* \"#utility.yul\":8755:8834   */\n      tag_376\n      tag_228\n      jump\t// in\n    tag_376:\n        /* \"#utility.yul\":8724:8836   */\n    tag_375:\n        /* \"#utility.yul\":8845:8886   */\n      tag_377\n        /* \"#utility.yul\":8879:8885   */\n      dup5\n        /* \"#utility.yul\":8874:8877   */\n      dup3\n        /* \"#utility.yul\":8869:8872   */\n      dup6\n        /* \"#utility.yul\":8845:8886   */\n      tag_233\n      jump\t// in\n    tag_377:\n        /* \"#utility.yul\":8565:8892   */\n      pop\n        /* \"#utility.yul\":8482:8892   */\n      swap4\n      swap3\n      pop\n      pop\n      pop\n      jump\t// out\n        /* \"#utility.yul\":8911:9249   */\n    tag_254:\n        /* \"#utility.yul\":8966:8971   */\n      0x00\n        /* \"#utility.yul\":9015:9018   */\n      dup3\n        /* \"#utility.yul\":9008:9012   */\n      0x1f\n        /* \"#utility.yul\":9000:9006   */\n      dup4\n        /* \"#utility.yul\":8996:9013   */\n      add\n        /* \"#utility.yul\":8992:9019   */\n      slt\n        /* \"#utility.yul\":8982:9104   */\n      tag_379\n      jumpi\n        /* \"#utility.yul\":9023:9102   */\n      tag_380\n      tag_227\n      jump\t// in\n    tag_380:\n        /* \"#utility.yul\":8982:9104   */\n    tag_379:\n        /* \"#utility.yul\":9140:9146   */\n      dup2\n        /* \"#utility.yul\":9127:9147   */\n      calldataload\n        /* \"#utility.yul\":9165:9243   */\n      tag_381\n        /* \"#utility.yul\":9239:9242   */\n      dup5\n        /* \"#utility.yul\":9231:9237   */\n      dup3\n        /* \"#utility.yul\":9224:9228   */\n      0x20\n        /* \"#utility.yul\":9216:9222   */\n      dup7\n        /* \"#utility.yul\":9212:9229   */\n      add\n        /* \"#utility.yul\":9165:9243   */\n      tag_253\n      jump\t// in\n    tag_381:\n        /* \"#utility.yul\":9156:9243   */\n      swap2\n      pop\n        /* \"#utility.yul\":8972:9249   */\n      pop\n        /* \"#utility.yul\":8911:9249   */\n      swap3\n      swap2\n      pop\n      pop\n      jump\t// out\n        /* \"#utility.yul\":9255:9762   */\n    tag_66:\n        /* \"#utility.yul\":9323:9329   */\n      0x00\n        /* \"#utility.yul\":9372:9374   */\n      0x20\n        /* \"#utility.yul\":9360:9369   */\n      dup3\n        /* \"#utility.yul\":9351:9358   */\n      dup5\n        /* \"#utility.yul\":9347:9370   */\n      sub\n        /* \"#utility.yul\":9343:9375   */\n      slt\n        /* \"#utility.yul\":9340:9459   */\n      iszero\n      tag_383\n      jumpi\n        /* \"#utility.yul\":9378:9457   */\n      tag_384\n      tag_225\n      jump\t// in\n    tag_384:\n        /* \"#utility.yul\":9340:9459   */\n    tag_383:\n        /* \"#utility.yul\":9526:9527   */\n      0x00\n        /* \"#utility.yul\":9515:9524   */\n      dup3\n        /* \"#utility.yul\":9511:9528   */\n      add\n        /* \"#utility.yul\":9498:9529   */\n      calldataload\n        /* \"#utility.yul\":9556:9574   */\n      0xffffffffffffffff\n        /* \"#utility.yul\":9548:9554   */\n      dup2\n        /* \"#utility.yul\":9545:9575   */\n      gt\n        /* \"#utility.yul\":9542:9659   */\n      iszero\n      tag_385\n      jumpi\n        /* \"#utility.yul\":9578:9657   */\n      tag_386\n      tag_226\n      jump\t// in\n    tag_386:\n        /* \"#utility.yul\":9542:9659   */\n    tag_385:\n        /* \"#utility.yul\":9683:9745   */\n      tag_387\n        /* \"#utility.yul\":9737:9744   */\n      dup5\n        /* \"#utility.yul\":9728:9734   */\n      dup3\n        /* \"#utility.yul\":9717:9726   */\n      dup6\n        /* \"#utility.yul\":9713:9735   */\n      add\n        /* \"#utility.yul\":9683:9745   */\n      tag_254\n      jump\t// in\n    tag_387:\n        /* \"#utility.yul\":9673:9745   */\n      swap2\n      pop\n        /* \"#utility.yul\":9469:9755   */\n      pop\n        /* \"#utility.yul\":9255:9762   */\n      swap3\n      swap2\n      pop\n      pop\n      jump\t// out\n        /* \"#utility.yul\":9768:9910   */\n    tag_255:\n        /* \"#utility.yul\":9871:9903   */\n      tag_389\n        /* \"#utility.yul\":9897:9902   */\n      dup2\n        /* \"#utility.yul\":9871:9903   */\n      tag_240\n      jump\t// in\n    tag_389:\n        /* \"#utility.yul\":9866:9869   */\n      dup3\n        /* \"#utility.yul\":9859:9904   */\n      mstore\n        /* \"#utility.yul\":9768:9910   */\n      pop\n      pop\n      jump\t// out\n        /* \"#utility.yul\":9916:10006   */\n    tag_256:\n        /* \"#utility.yul\":9950:9957   */\n      0x00\n        /* \"#utility.yul\":9993:9998   */\n      dup2\n        /* \"#utility.yul\":9986:9999   */\n      iszero\n        /* \"#utility.yul\":9979:10000   */\n      iszero\n        /* \"#utility.yul\":9968:10000   */\n      swap1\n      pop\n        /* \"#utility.yul\":9916:10006   */\n      swap2\n      swap1\n      pop\n      jump\t// out\n        /* \"#utility.yul\":10012:10121   */\n    tag_257:\n        /* \"#utility.yul\":10093:10114   */\n      tag_392\n        /* \"#utility.yul\":10108:10113   */\n      dup2\n        /* \"#utility.yul\":10093:10114   */\n      tag_256\n      jump\t// in\n    tag_392:\n        /* \"#utility.yul\":10088:10091   */\n      dup3\n        /* \"#utility.yul\":10081:10115   */\n      mstore\n        /* \"#utility.yul\":10012:10121   */\n      pop\n      pop\n      jump\t// out\n        /* \"#utility.yul\":10127:10902   */\n    tag_78:\n        /* \"#utility.yul\":10362:10366   */\n      0x00\n        /* \"#utility.yul\":10400:10403   */\n      0xa0\n        /* \"#utility.yul\":10389:10398   */\n      dup3\n        /* \"#utility.yul\":10385:10404   */\n      add\n        /* \"#utility.yul\":10377:10404   */\n      swap1\n      pop\n        /* \"#utility.yul\":10450:10459   */\n      dup2\n        /* \"#utility.yul\":10444:10448   */\n      dup2\n        /* \"#utility.yul\":10440:10460   */\n      sub\n        /* \"#utility.yul\":10436:10437   */\n      0x00\n        /* \"#utility.yul\":10425:10434   */\n      dup4\n        /* \"#utility.yul\":10421:10438   */\n      add\n        /* \"#utility.yul\":10414:10461   */\n      mstore\n        /* \"#utility.yul\":10478:10556   */\n      tag_394\n        /* \"#utility.yul\":10551:10555   */\n      dup2\n        /* \"#utility.yul\":10542:10548   */\n      dup9\n        /* \"#utility.yul\":10478:10556   */\n      tag_247\n      jump\t// in\n    tag_394:\n        /* \"#utility.yul\":10470:10556   */\n      swap1\n      pop\n        /* \"#utility.yul\":10566:10638   */\n      tag_395\n        /* \"#utility.yul\":10634:10636   */\n      0x20\n        /* \"#utility.yul\":10623:10632   */\n      dup4\n        /* \"#utility.yul\":10619:10637   */\n      add\n        /* \"#utility.yul\":10610:10616   */\n      dup8\n        /* \"#utility.yul\":10566:10638   */\n      tag_243\n      jump\t// in\n    tag_395:\n        /* \"#utility.yul\":10648:10736   */\n      tag_396\n        /* \"#utility.yul\":10732:10734   */\n      0x40\n        /* \"#utility.yul\":10721:10730   */\n      dup4\n        /* \"#utility.yul\":10717:10735   */\n      add\n        /* \"#utility.yul\":10708:10714   */\n      dup7\n        /* \"#utility.yul\":10648:10736   */\n      tag_255\n      jump\t// in\n    tag_396:\n        /* \"#utility.yul\":10746:10812   */\n      tag_397\n        /* \"#utility.yul\":10808:10810   */\n      0x60\n        /* \"#utility.yul\":10797:10806   */\n      dup4\n        /* \"#utility.yul\":10793:10811   */\n      add\n        /* \"#utility.yul\":10784:10790   */\n      dup6\n        /* \"#utility.yul\":10746:10812   */\n      tag_257\n      jump\t// in\n    tag_397:\n        /* \"#utility.yul\":10822:10895   */\n      tag_398\n        /* \"#utility.yul\":10890:10893   */\n      0x80\n        /* \"#utility.yul\":10879:10888   */\n      dup4\n        /* \"#utility.yul\":10875:10894   */\n      add\n        /* \"#utility.yul\":10866:10872   */\n      dup5\n        /* \"#utility.yul\":10822:10895   */\n      tag_243\n      jump\t// in\n    tag_398:\n        /* \"#utility.yul\":10127:10902   */\n      swap7\n      swap6\n      pop\n      pop\n      pop\n      pop\n      pop\n      pop\n      jump\t// out\n        /* \"#utility.yul\":10908:11130   */\n    tag_83:\n        /* \"#utility.yul\":11001:11005   */\n      0x00\n        /* \"#utility.yul\":11039:11041   */\n      0x20\n        /* \"#utility.yul\":11028:11037   */\n      dup3\n        /* \"#utility.yul\":11024:11042   */\n      add\n        /* \"#utility.yul\":11016:11042   */\n      swap1\n      pop\n        /* \"#utility.yul\":11052:11123   */\n      tag_400\n        /* \"#utility.yul\":11120:11121   */\n      0x00\n        /* \"#utility.yul\":11109:11118   */\n      dup4\n        /* \"#utility.yul\":11105:11122   */\n      add\n        /* \"#utility.yul\":11096:11102   */\n      dup5\n        /* \"#utility.yul\":11052:11123   */\n      tag_249\n      jump\t// in\n    tag_400:\n        /* \"#utility.yul\":10908:11130   */\n      swap3\n      swap2\n      pop\n      pop\n      jump\t// out\n        /* \"#utility.yul\":11136:11213   */\n    tag_258:\n        /* \"#utility.yul\":11173:11180   */\n      0x00\n        /* \"#utility.yul\":11202:11207   */\n      dup2\n        /* \"#utility.yul\":11191:11207   */\n      swap1\n      pop\n        /* \"#utility.yul\":11136:11213   */\n      swap2\n      swap1\n      pop\n      jump\t// out\n        /* \"#utility.yul\":11219:11341   */\n    tag_259:\n        /* \"#utility.yul\":11292:11316   */\n      tag_403\n        /* \"#utility.yul\":11310:11315   */\n      dup2\n        /* \"#utility.yul\":11292:11316   */\n      tag_258\n      jump\t// in\n    tag_403:\n        /* \"#utility.yul\":11285:11290   */\n      dup2\n        /* \"#utility.yul\":11282:11317   */\n      eq\n        /* \"#utility.yul\":11272:11335   */\n      tag_404\n      jumpi\n        /* \"#utility.yul\":11331:11332   */\n      0x00\n        /* \"#utility.yul\":11328:11329   */\n      dup1\n        /* \"#utility.yul\":11321:11333   */\n      revert\n        /* \"#utility.yul\":11272:11335   */\n    tag_404:\n        /* \"#utility.yul\":11219:11341   */\n      pop\n      jump\t// out\n        /* \"#utility.yul\":11347:11486   */\n    tag_260:\n        /* \"#utility.yul\":11393:11398   */\n      0x00\n        /* \"#utility.yul\":11431:11437   */\n      dup2\n        /* \"#utility.yul\":11418:11438   */\n      calldataload\n        /* \"#utility.yul\":11409:11438   */\n      swap1\n      pop\n        /* \"#utility.yul\":11447:11480   */\n      tag_406\n        /* \"#utility.yul\":11474:11479   */\n      dup2\n        /* \"#utility.yul\":11447:11480   */\n      tag_259\n      jump\t// in\n    tag_406:\n        /* \"#utility.yul\":11347:11486   */\n      swap3\n      swap2\n      pop\n      pop\n      jump\t// out\n        /* \"#utility.yul\":11492:11821   */\n    tag_87:\n        /* \"#utility.yul\":11551:11557   */\n      0x00\n        /* \"#utility.yul\":11600:11602   */\n      0x20\n        /* \"#utility.yul\":11588:11597   */\n      dup3\n        /* \"#utility.yul\":11579:11586   */\n      dup5\n        /* \"#utility.yul\":11575:11598   */\n      sub\n        /* \"#utility.yul\":11571:11603   */\n      slt\n        /* \"#utility.yul\":11568:11687   */\n      iszero\n      tag_408\n      jumpi\n        /* \"#utility.yul\":11606:11685   */\n      tag_409\n      tag_225\n      jump\t// in\n    tag_409:\n        /* \"#utility.yul\":11568:11687   */\n    tag_408:\n        /* \"#utility.yul\":11726:11727   */\n      0x00\n        /* \"#utility.yul\":11751:11804   */\n      tag_410\n        /* \"#utility.yul\":11796:11803   */\n      dup5\n        /* \"#utility.yul\":11787:11793   */\n      dup3\n        /* \"#utility.yul\":11776:11785   */\n      dup6\n        /* \"#utility.yul\":11772:11794   */\n      add\n        /* \"#utility.yul\":11751:11804   */\n      tag_260\n      jump\t// in\n    tag_410:\n        /* \"#utility.yul\":11741:11804   */\n      swap2\n      pop\n        /* \"#utility.yul\":11697:11814   */\n      pop\n        /* \"#utility.yul\":11492:11821   */\n      swap3\n      swap2\n      pop\n      pop\n      jump\t// out\n        /* \"#utility.yul\":11827:12007   */\n    tag_110:\n        /* \"#utility.yul\":11875:11952   */\n      0x4e487b7100000000000000000000000000000000000000000000000000000000\n        /* \"#utility.yul\":11872:11873   */\n      0x00\n        /* \"#utility.yul\":11865:11953   */\n      mstore\n        /* \"#utility.yul\":11972:11976   */\n      0x32\n        /* \"#utility.yul\":11969:11970   */\n      0x04\n        /* \"#utility.yul\":11962:11977   */\n      mstore\n        /* \"#utility.yul\":11996:12000   */\n      0x24\n        /* \"#utility.yul\":11993:11994   */\n      0x00\n        /* \"#utility.yul\":11986:12001   */\n      revert\n        /* \"#utility.yul\":12013:12193   */\n    tag_261:\n        /* \"#utility.yul\":12061:12138   */\n      0x4e487b7100000000000000000000000000000000000000000000000000000000\n        /* \"#utility.yul\":12058:12059   */\n      0x00\n        /* \"#utility.yul\":12051:12139   */\n      mstore\n        /* \"#utility.yul\":12158:12162   */\n      0x22\n        /* \"#utility.yul\":12155:12156   */\n      0x04\n        /* \"#utility.yul\":12148:12163   */\n      mstore\n        /* \"#utility.yul\":12182:12186   */\n      0x24\n        /* \"#utility.yul\":12179:12180   */\n      0x00\n        /* \"#utility.yul\":12172:12187   */\n      revert\n        /* \"#utility.yul\":12199:12519   */\n    tag_116:\n        /* \"#utility.yul\":12243:12249   */\n      0x00\n        /* \"#utility.yul\":12280:12281   */\n      0x02\n        /* \"#utility.yul\":12274:12278   */\n      dup3\n        /* \"#utility.yul\":12270:12282   */\n      div\n        /* \"#utility.yul\":12260:12282   */\n      swap1\n      pop\n        /* \"#utility.yul\":12327:12328   */\n      0x01\n        /* \"#utility.yul\":12321:12325   */\n      dup3\n        /* \"#utility.yul\":12317:12329   */\n      and\n        /* \"#utility.yul\":12348:12366   */\n      dup1\n        /* \"#utility.yul\":12338:12419   */\n      tag_414\n      jumpi\n        /* \"#utility.yul\":12404:12408   */\n      0x7f\n        /* \"#utility.yul\":12396:12402   */\n      dup3\n        /* \"#utility.yul\":12392:12409   */\n      and\n        /* \"#utility.yul\":12382:12409   */\n      swap2\n      pop\n        /* \"#utility.yul\":12338:12419   */\n    tag_414:\n        /* \"#utility.yul\":12466:12468   */\n      0x20\n        /* \"#utility.yul\":12458:12464   */\n      dup3\n        /* \"#utility.yul\":12455:12469   */\n      lt\n        /* \"#utility.yul\":12435:12453   */\n      dup2\n        /* \"#utility.yul\":12432:12470   */\n      eq\n        /* \"#utility.yul\":12429:12513   */\n      iszero\n      tag_415\n      jumpi\n        /* \"#utility.yul\":12485:12503   */\n      tag_416\n      tag_261\n      jump\t// in\n    tag_416:\n        /* \"#utility.yul\":12429:12513   */\n    tag_415:\n        /* \"#utility.yul\":12250:12519   */\n      pop\n        /* \"#utility.yul\":12199:12519   */\n      swap2\n      swap1\n      pop\n      jump\t// out\n        /* \"#utility.yul\":12525:12619   */\n    tag_262:\n        /* \"#utility.yul\":12558:12566   */\n      0x00\n        /* \"#utility.yul\":12606:12611   */\n      dup2\n        /* \"#utility.yul\":12602:12604   */\n      0x60\n        /* \"#utility.yul\":12598:12612   */\n      shl\n        /* \"#utility.yul\":12577:12612   */\n      swap1\n      pop\n        /* \"#utility.yul\":12525:12619   */\n      swap2\n      swap1\n      pop\n      jump\t// out\n        /* \"#utility.yul\":12625:12719   */\n    tag_263:\n        /* \"#utility.yul\":12664:12671   */\n      0x00\n        /* \"#utility.yul\":12693:12713   */\n      tag_419\n        /* \"#utility.yul\":12707:12712   */\n      dup3\n        /* \"#utility.yul\":12693:12713   */\n      tag_262\n      jump\t// in\n    tag_419:\n        /* \"#utility.yul\":12682:12713   */\n      swap1\n      pop\n        /* \"#utility.yul\":12625:12719   */\n      swap2\n      swap1\n      pop\n      jump\t// out\n        /* \"#utility.yul\":12725:12825   */\n    tag_264:\n        /* \"#utility.yul\":12764:12771   */\n      0x00\n        /* \"#utility.yul\":12793:12819   */\n      tag_421\n        /* \"#utility.yul\":12813:12818   */\n      dup3\n        /* \"#utility.yul\":12793:12819   */\n      tag_263\n      jump\t// in\n    tag_421:\n        /* \"#utility.yul\":12782:12819   */\n      swap1\n      pop\n        /* \"#utility.yul\":12725:12825   */\n      swap2\n      swap1\n      pop\n      jump\t// out\n        /* \"#utility.yul\":12831:12988   */\n    tag_265:\n        /* \"#utility.yul\":12936:12981   */\n      tag_423\n        /* \"#utility.yul\":12956:12980   */\n      tag_424\n        /* \"#utility.yul\":12974:12979   */\n      dup3\n        /* \"#utility.yul\":12956:12980   */\n      tag_248\n      jump\t// in\n    tag_424:\n        /* \"#utility.yul\":12936:12981   */\n      tag_264\n      jump\t// in\n    tag_423:\n        /* \"#utility.yul\":12931:12934   */\n      dup3\n        /* \"#utility.yul\":12924:12982   */\n      mstore\n        /* \"#utility.yul\":12831:12988   */\n      pop\n      pop\n      jump\t// out\n        /* \"#utility.yul\":12994:13250   */\n    tag_124:\n        /* \"#utility.yul\":13106:13109   */\n      0x00\n        /* \"#utility.yul\":13121:13196   */\n      tag_426\n        /* \"#utility.yul\":13192:13195   */\n      dup3\n        /* \"#utility.yul\":13183:13189   */\n      dup5\n        /* \"#utility.yul\":13121:13196   */\n      tag_265\n      jump\t// in\n    tag_426:\n        /* \"#utility.yul\":13221:13223   */\n      0x14\n        /* \"#utility.yul\":13216:13219   */\n      dup3\n        /* \"#utility.yul\":13212:13224   */\n      add\n        /* \"#utility.yul\":13205:13224   */\n      swap2\n      pop\n        /* \"#utility.yul\":13241:13244   */\n      dup2\n        /* \"#utility.yul\":13234:13244   */\n      swap1\n      pop\n        /* \"#utility.yul\":12994:13250   */\n      swap3\n      swap2\n      pop\n      pop\n      jump\t// out\n        /* \"#utility.yul\":13256:13335   */\n    tag_266:\n        /* \"#utility.yul\":13295:13302   */\n      0x00\n        /* \"#utility.yul\":13324:13329   */\n      dup2\n        /* \"#utility.yul\":13313:13329   */\n      swap1\n      pop\n        /* \"#utility.yul\":13256:13335   */\n      swap2\n      swap1\n      pop\n      jump\t// out\n        /* \"#utility.yul\":13341:13498   */\n    tag_267:\n        /* \"#utility.yul\":13446:13491   */\n      tag_429\n        /* \"#utility.yul\":13466:13490   */\n      tag_430\n        /* \"#utility.yul\":13484:13489   */\n      dup3\n        /* \"#utility.yul\":13466:13490   */\n      tag_236\n      jump\t// in\n    tag_430:\n        /* \"#utility.yul\":13446:13491   */\n      tag_266\n      jump\t// in\n    tag_429:\n        /* \"#utility.yul\":13441:13444   */\n      dup3\n        /* \"#utility.yul\":13434:13492   */\n      mstore\n        /* \"#utility.yul\":13341:13498   */\n      pop\n      pop\n      jump\t// out\n        /* \"#utility.yul\":13504:13760   */\n    tag_128:\n        /* \"#utility.yul\":13616:13619   */\n      0x00\n        /* \"#utility.yul\":13631:13706   */\n      tag_432\n        /* \"#utility.yul\":13702:13705   */\n      dup3\n        /* \"#utility.yul\":13693:13699   */\n      dup5\n        /* \"#utility.yul\":13631:13706   */\n      tag_267\n      jump\t// in\n    tag_432:\n        /* \"#utility.yul\":13731:13733   */\n      0x20\n        /* \"#utility.yul\":13726:13729   */\n      dup3\n        /* \"#utility.yul\":13722:13734   */\n      add\n        /* \"#utility.yul\":13715:13734   */\n      swap2\n      pop\n        /* \"#utility.yul\":13751:13754   */\n      dup2\n        /* \"#utility.yul\":13744:13754   */\n      swap1\n      pop\n        /* \"#utility.yul\":13504:13760   */\n      swap3\n      swap2\n      pop\n      pop\n      jump\t// out\n        /* \"#utility.yul\":13766:13946   */\n    tag_268:\n        /* \"#utility.yul\":13814:13891   */\n      0x4e487b7100000000000000000000000000000000000000000000000000000000\n        /* \"#utility.yul\":13811:13812   */\n      0x00\n        /* \"#utility.yul\":13804:13892   */\n      mstore\n        /* \"#utility.yul\":13911:13915   */\n      0x11\n        /* \"#utility.yul\":13908:13909   */\n      0x04\n        /* \"#utility.yul\":13901:13916   */\n      mstore\n        /* \"#utility.yul\":13935:13939   */\n      0x24\n        /* \"#utility.yul\":13932:13933   */\n      0x00\n        /* \"#utility.yul\":13925:13940   */\n      revert\n        /* \"#utility.yul\":13952:14300   */\n    tag_131:\n        /* \"#utility.yul\":13992:13999   */\n      0x00\n        /* \"#utility.yul\":14015:14035   */\n      tag_435\n        /* \"#utility.yul\":14033:14034   */\n      dup3\n        /* \"#utility.yul\":14015:14035   */\n      tag_236\n      jump\t// in\n    tag_435:\n        /* \"#utility.yul\":14010:14035   */\n      swap2\n      pop\n        /* \"#utility.yul\":14049:14069   */\n      tag_436\n        /* \"#utility.yul\":14067:14068   */\n      dup4\n        /* \"#utility.yul\":14049:14069   */\n      tag_236\n      jump\t// in\n    tag_436:\n        /* \"#utility.yul\":14044:14069   */\n      swap3\n      pop\n        /* \"#utility.yul\":14237:14238   */\n      dup2\n        /* \"#utility.yul\":14169:14235   */\n      0xffffffffffffffffffffffffffffffffffffffffffffffffffffffffffffffff\n        /* \"#utility.yul\":14165:14239   */\n      div\n        /* \"#utility.yul\":14162:14163   */\n      dup4\n        /* \"#utility.yul\":14159:14240   */\n      gt\n        /* \"#utility.yul\":14154:14155   */\n      dup3\n        /* \"#utility.yul\":14147:14156   */\n      iszero\n        /* \"#utility.yul\":14140:14157   */\n      iszero\n        /* \"#utility.yul\":14136:14241   */\n      and\n        /* \"#utility.yul\":14133:14264   */\n      iszero\n      tag_437\n      jumpi\n        /* \"#utility.yul\":14244:14262   */\n      tag_438\n      tag_268\n      jump\t// in\n    tag_438:\n        /* \"#utility.yul\":14133:14264   */\n    tag_437:\n        /* \"#utility.yul\":14292:14293   */\n      dup3\n        /* \"#utility.yul\":14289:14290   */\n      dup3\n        /* \"#utility.yul\":14285:14294   */\n      mul\n        /* \"#utility.yul\":14274:14294   */\n      swap1\n      pop\n        /* \"#utility.yul\":13952:14300   */\n      swap3\n      swap2\n      pop\n      pop\n      jump\t// out\n        /* \"#utility.yul\":14306:14611   */\n    tag_133:\n        /* \"#utility.yul\":14346:14349   */\n      0x00\n        /* \"#utility.yul\":14365:14385   */\n      tag_440\n        /* \"#utility.yul\":14383:14384   */\n      dup3\n        /* \"#utility.yul\":14365:14385   */\n      tag_236\n      jump\t// in\n    tag_440:\n        /* \"#utility.yul\":14360:14385   */\n      swap2\n      pop\n        /* \"#utility.yul\":14399:14419   */\n      tag_441\n        /* \"#utility.yul\":14417:14418   */\n      dup4\n        /* \"#utility.yul\":14399:14419   */\n      tag_236\n      jump\t// in\n    tag_441:\n        /* \"#utility.yul\":14394:14419   */\n      swap3\n      pop\n        /* \"#utility.yul\":14553:14554   */\n      dup3\n        /* \"#utility.yul\":14485:14551   */\n      0xffffffffffffffffffffffffffffffffffffffffffffffffffffffffffffffff\n        /* \"#utility.yul\":14481:14555   */\n      sub\n        /* \"#utility.yul\":14478:14479   */\n      dup3\n        /* \"#utility.yul\":14475:14556   */\n      gt\n        /* \"#utility.yul\":14472:14579   */\n      iszero\n      tag_442\n      jumpi\n        /* \"#utility.yul\":14559:14577   */\n      tag_443\n      tag_268\n      jump\t// in\n    tag_443:\n        /* \"#utility.yul\":14472:14579   */\n    tag_442:\n        /* \"#utility.yul\":14603:14604   */\n      dup3\n        /* \"#utility.yul\":14600:14601   */\n      dup3\n        /* \"#utility.yul\":14596:14605   */\n      add\n        /* \"#utility.yul\":14589:14605   */\n      swap1\n      pop\n        /* \"#utility.yul\":14306:14611   */\n      swap3\n      swap2\n      pop\n      pop\n      jump\t// out\n        /* \"#utility.yul\":14617:14850   */\n    tag_162:\n        /* \"#utility.yul\":14656:14659   */\n      0x00\n        /* \"#utility.yul\":14679:14703   */\n      tag_445\n        /* \"#utility.yul\":14697:14702   */\n      dup3\n        /* \"#utility.yul\":14679:14703   */\n      tag_236\n      jump\t// in\n    tag_445:\n        /* \"#utility.yul\":14670:14703   */\n      swap2\n      pop\n        /* \"#utility.yul\":14725:14791   */\n      0xffffffffffffffffffffffffffffffffffffffffffffffffffffffffffffffff\n        /* \"#utility.yul\":14718:14723   */\n      dup3\n        /* \"#utility.yul\":14715:14792   */\n      eq\n        /* \"#utility.yul\":14712:14815   */\n      iszero\n      tag_446\n      jumpi\n        /* \"#utility.yul\":14795:14813   */\n      tag_447\n      tag_268\n      jump\t// in\n    tag_447:\n        /* \"#utility.yul\":14712:14815   */\n    tag_446:\n        /* \"#utility.yul\":14842:14843   */\n      0x01\n        /* \"#utility.yul\":14835:14840   */\n      dup3\n        /* \"#utility.yul\":14831:14844   */\n      add\n        /* \"#utility.yul\":14824:14844   */\n      swap1\n      pop\n        /* \"#utility.yul\":14617:14850   */\n      swap2\n      swap1\n      pop\n      jump\t// out\n        /* \"#utility.yul\":14856:14935   */\n    tag_269:\n        /* \"#utility.yul\":14895:14902   */\n      0x00\n        /* \"#utility.yul\":14924:14929   */\n      dup2\n        /* \"#utility.yul\":14913:14929   */\n      swap1\n      pop\n        /* \"#utility.yul\":14856:14935   */\n      swap2\n      swap1\n      pop\n      jump\t// out\n        /* \"#utility.yul\":14941:15098   */\n    tag_270:\n        /* \"#utility.yul\":15046:15091   */\n      tag_450\n        /* \"#utility.yul\":15066:15090   */\n      tag_451\n        /* \"#utility.yul\":15084:15089   */\n      dup3\n        /* \"#utility.yul\":15066:15090   */\n      tag_258\n      jump\t// in\n    tag_451:\n        /* \"#utility.yul\":15046:15091   */\n      tag_269\n      jump\t// in\n    tag_450:\n        /* \"#utility.yul\":15041:15044   */\n      dup3\n        /* \"#utility.yul\":15034:15092   */\n      mstore\n        /* \"#utility.yul\":14941:15098   */\n      pop\n      pop\n      jump\t// out\n        /* \"#utility.yul\":15104:15360   */\n    tag_178:\n        /* \"#utility.yul\":15216:15219   */\n      0x00\n        /* \"#utility.yul\":15231:15306   */\n      tag_453\n        /* \"#utility.yul\":15302:15305   */\n      dup3\n        /* \"#utility.yul\":15293:15299   */\n      dup5\n        /* \"#utility.yul\":15231:15306   */\n      tag_270\n      jump\t// in\n    tag_453:\n        /* \"#utility.yul\":15331:15333   */\n      0x20\n        /* \"#utility.yul\":15326:15329   */\n      dup3\n        /* \"#utility.yul\":15322:15334   */\n      add\n        /* \"#utility.yul\":15315:15334   */\n      swap2\n      pop\n        /* \"#utility.yul\":15351:15354   */\n      dup2\n        /* \"#utility.yul\":15344:15354   */\n      swap1\n      pop\n        /* \"#utility.yul\":15104:15360   */\n      swap3\n      swap2\n      pop\n      pop\n      jump\t// out\n        /* \"#utility.yul\":15366:15546   */\n    tag_271:\n        /* \"#utility.yul\":15414:15491   */\n      0x4e487b7100000000000000000000000000000000000000000000000000000000\n        /* \"#utility.yul\":15411:15412   */\n      0x00\n        /* \"#utility.yul\":15404:15492   */\n      mstore\n        /* \"#utility.yul\":15511:15515   */\n      0x12\n        /* \"#utility.yul\":15508:15509   */\n      0x04\n        /* \"#utility.yul\":15501:15516   */\n      mstore\n        /* \"#utility.yul\":15535:15539   */\n      0x24\n        /* \"#utility.yul\":15532:15533   */\n      0x00\n        /* \"#utility.yul\":15525:15540   */\n      revert\n        /* \"#utility.yul\":15552:15737   */\n    tag_188:\n        /* \"#utility.yul\":15592:15593   */\n      0x00\n        /* \"#utility.yul\":15609:15629   */\n      tag_456\n        /* \"#utility.yul\":15627:15628   */\n      dup3\n        /* \"#utility.yul\":15609:15629   */\n      tag_236\n      jump\t// in\n    tag_456:\n        /* \"#utility.yul\":15604:15629   */\n      swap2\n      pop\n        /* \"#utility.yul\":15643:15663   */\n      tag_457\n        /* \"#utility.yul\":15661:15662   */\n      dup4\n        /* \"#utility.yul\":15643:15663   */\n      tag_236\n      jump\t// in\n    tag_457:\n        /* \"#utility.yul\":15638:15663   */\n      swap3\n      pop\n        /* \"#utility.yul\":15682:15683   */\n      dup3\n        /* \"#utility.yul\":15672:15707   */\n      tag_458\n      jumpi\n        /* \"#utility.yul\":15687:15705   */\n      tag_459\n      tag_271\n      jump\t// in\n    tag_459:\n        /* \"#utility.yul\":15672:15707   */\n    tag_458:\n        /* \"#utility.yul\":15729:15730   */\n      dup3\n        /* \"#utility.yul\":15726:15727   */\n      dup3\n        /* \"#utility.yul\":15722:15731   */\n      div\n        /* \"#utility.yul\":15717:15731   */\n      swap1\n      pop\n        /* \"#utility.yul\":15552:15737   */\n      swap3\n      swap2\n      pop\n      pop\n      jump\t// out\n        /* \"#utility.yul\":15743:15923   */\n    tag_213:\n        /* \"#utility.yul\":15791:15868   */\n      0x4e487b7100000000000000000000000000000000000000000000000000000000\n        /* \"#utility.yul\":15788:15789   */\n      0x00\n        /* \"#utility.yul\":15781:15869   */\n      mstore\n        /* \"#utility.yul\":15888:15892   */\n      0x01\n        /* \"#utility.yul\":15885:15886   */\n      0x04\n        /* \"#utility.yul\":15878:15893   */\n      mstore\n        /* \"#utility.yul\":15912:15916   */\n      0x24\n        /* \"#utility.yul\":15909:15910   */\n      0x00\n        /* \"#utility.yul\":15902:15917   */\n      revert\n\n    auxdata: 0xa26469706673582212203f5c85360ff5a06c010a6a9cfbd0dca3d73885ecefc4353e3d76f70d33b7922164736f6c634300080a0033\n}\n","bytecode":{"linkReferences":{},"object":"60806040523480156200001157600080fd5b5060405162001f0238038062001f0283398181016040528101906200003791906200039d565b806000806101000a81548173ffffffffffffffffffffffffffffffffffffffff021916908373ffffffffffffffffffffffffffffffffffffffff16021790555084600190805190602001906200008f929190620000b0565b508360028190555082600381905550816004819055505050505050620004a9565b828054620000be9062000473565b90600052602060002090601f016020900481019282620000e257600085556200012e565b82601f10620000fd57805160ff19168380011785556200012e565b828001600101855582156200012e579182015b828111156200012d57825182559160200191906001019062000110565b5b5090506200013d919062000141565b5090565b5b808211156200015c57600081600090555060010162000142565b5090565b6000604051905090565b600080fd5b600080fd5b600080fd5b600080fd5b6000601f19601f8301169050919050565b7f4e487b7100000000000000000000000000000000000000000000000000000000600052604160045260246000fd5b620001c9826200017e565b810181811067ffffffffffffffff82111715620001eb57620001ea6200018f565b5b80604052505050565b60006200020062000160565b90506200020e8282620001be565b919050565b600067ffffffffffffffff8211156200023157620002306200018f565b5b6200023c826200017e565b9050602081019050919050565b60005b83811015620002695780820151818401526020810190506200024c565b8381111562000279576000848401525b50505050565b600062000296620002908462000213565b620001f4565b905082815260208101848484011115620002b557620002b462000179565b5b620002c284828562000249565b509392505050565b600082601f830112620002e257620002e162000174565b5b8151620002f48482602086016200027f565b91505092915050565b6000819050919050565b6200031281620002fd565b81146200031e57600080fd5b50565b600081519050620003328162000307565b92915050565b600073ffffffffffffffffffffffffffffffffffffffff82169050919050565b6000620003658262000338565b9050919050565b620003778162000358565b81146200038357600080fd5b50565b60008151905062000397816200036c565b92915050565b600080600080600060a08688031215620003bc57620003bb6200016a565b5b600086015167ffffffffffffffff811115620003dd57620003dc6200016f565b5b620003eb88828901620002ca565b9550506020620003fe8882890162000321565b9450506040620004118882890162000321565b9350506060620004248882890162000321565b9250506080620004378882890162000386565b9150509295509295909350565b7f4e487b7100000000000000000000000000000000000000000000000000000000600052602260045260246000fd5b600060028204905060018216806200048c57607f821691505b60208210811415620004a357620004a262000444565b5b50919050565b611a4980620004b96000396000f3fe6080604052600436106100fe5760003560e01c806371aad10d11610095578063b11a19e811610064578063b11a19e81461036a578063d2b8b867146103a7578063d7bb99ba146103d0578063d7e64c00146103da578063de14c81814610405576100fe565b806371aad10d146102965780637284e416146102d357806387d81789146102fe5780638da5cb5b1461033f576100fe565b806356ca623e116100d157806356ca623e146101b457806363fd9e38146101f15780636900a3ae1461021c5780636f7bc9be14610259576100fe565b806303120d46146101035780633110235a1461012c57806340193883146101575780634051ddac14610182575b600080fd5b34801561010f57600080fd5b5061012a60048036038101906101259190611296565b61042e565b005b34801561013857600080fd5b50610141610567565b60405161014e9190611314565b60405180910390f35b34801561016357600080fd5b5061016c61056d565b6040516101799190611314565b60405180910390f35b34801561018e57600080fd5b50610197610573565b6040516101ab9897969594939291906113d8565b60405180910390f35b3480156101c057600080fd5b506101db60048036038101906101d69190611489565b61065c565b6040516101e891906114b6565b60405180910390f35b3480156101fd57600080fd5b5061020661068d565b6040516102139190611314565b60405180910390f35b34801561022857600080fd5b50610243600480360381019061023e91906114d8565b610693565b60405161025091906114b6565b60405180910390f35b34801561026557600080fd5b50610280600480360381019061027b9190611489565b6106c4565b60405161028d9190611314565b60405180910390f35b3480156102a257600080fd5b506102bd60048036038101906102b891906115a6565b6106dc565b6040516102ca91906114b6565b60405180910390f35b3480156102df57600080fd5b506102e86109d6565b6040516102f591906114b6565b60405180910390f35b34801561030a57600080fd5b50610325600480360381019061032091906114d8565b610a64565b604051610336959493929190611619565b60405180910390f35b34801561034b57600080fd5b50610354610b5f565b6040516103619190611673565b60405180910390f35b34801561037657600080fd5b50610391600480360381019061038c91906116c4565b610b83565b60405161039e91906114b6565b60405180910390f35b3480156103b357600080fd5b506103ce60048036038101906103c991906114d8565b610bb4565b005b6103d8610d0d565b005b3480156103e657600080fd5b506103ef610e8e565b6040516103fc9190611314565b60405180910390f35b34801561041157600080fd5b5061042c600480360381019061042791906114d8565b610e94565b005b60008054906101000a900473ffffffffffffffffffffffffffffffffffffffff1673ffffffffffffffffffffffffffffffffffffffff163373ffffffffffffffffffffffffffffffffffffffff161461048657600080fd5b600060078054905090506007600181600181540180825580915050039060005260206000209050506000600782815481106104c4576104c36116f1565b5b90600052602060002090600502019050848160000190805190602001906104ec929190611005565b50838160010181905550828160020160006101000a81548173ffffffffffffffffffffffffffffffffffffffff021916908373ffffffffffffffffffffffffffffffffffffffff16021790555060008160020160146101000a81548160ff021916908315150217905550600081600401819055505050505050565b60035481565b60045481565b6060600080600080600080600060016002546003546004544760055460078054905060008054906101000a900473ffffffffffffffffffffffffffffffffffffffff168780546105c29061174f565b80601f01602080910402602001604051908101604052809291908181526020018280546105ee9061174f565b801561063b5780601f106106105761010080835404028352916020019161063b565b820191906000526020600020905b81548152906001019060200180831161061e57829003601f168201915b50505050509750975097509750975097509750975097509091929394959697565b60606106868260405160200161067291906117c9565b6040516020818303038152906040526106dc565b9050919050565b60025481565b60606106bd826040516020016106a99190611805565b6040516020818303038152906040526106dc565b9050919050565b60066020528060005260406000206000915090505481565b606060006040518060400160405280601081526020017f30313233343536373839616263646566000000000000000000000000000000008152509050600060028451610728919061184f565b600261073491906118a9565b67ffffffffffffffff81111561074d5761074c6110d7565b5b6040519080825280601f01601f19166020018201604052801561077f5781602001600182028036833780820191505090505b5090507f3000000000000000000000000000000000000000000000000000000000000000816000815181106107b7576107b66116f1565b5b60200101907effffffffffffffffffffffffffffffffffffffffffffffffffffffffffffff1916908160001a9053507f78000000000000000000000000000000000000000000000000000000000000008160018151811061081b5761081a6116f1565b5b60200101907effffffffffffffffffffffffffffffffffffffffffffffffffffffffffffff1916908160001a90535060005b84518110156109cb5782600486838151811061086c5761086b6116f1565b5b602001015160f81c60f81b7effffffffffffffffffffffffffffffffffffffffffffffffffffffffffffff1916901c60f81c60ff16815181106108b2576108b16116f1565b5b602001015160f81c60f81b826002836108cb919061184f565b60026108d791906118a9565b815181106108e8576108e76116f1565b5b60200101907effffffffffffffffffffffffffffffffffffffffffffffffffffffffffffff1916908160001a90535082600f60f81b8683815181106109305761092f6116f1565b5b602001015160f81c60f81b1660f81c60ff1681518110610953576109526116f1565b5b602001015160f81c60f81b8260028361096c919061184f565b600361097891906118a9565b81518110610989576109886116f1565b5b60200101907effffffffffffffffffffffffffffffffffffffffffffffffffffffffffffff1916908160001a90535080806109c3906118ff565b91505061084d565b508092505050919050565b600180546109e39061174f565b80601f0160208091040260200160405190810160405280929190818152602001828054610a0f9061174f565b8015610a5c5780601f10610a3157610100808354040283529160200191610a5c565b820191906000526020600020905b815481529060010190602001808311610a3f57829003601f168201915b505050505081565b60078181548110610a7457600080fd5b9060005260206000209060050201600091509050806000018054610a979061174f565b80601f0160208091040260200160405190810160405280929190818152602001828054610ac39061174f565b8015610b105780601f10610ae557610100808354040283529160200191610b10565b820191906000526020600020905b815481529060010190602001808311610af357829003601f168201915b5050505050908060010154908060020160009054906101000a900473ffffffffffffffffffffffffffffffffffffffff16908060020160149054906101000a900460ff16908060040154905085565b60008054906101000a900473ffffffffffffffffffffffffffffffffffffffff1681565b6060610bad82604051602001610b999190611969565b6040516020818303038152906040526106dc565b9050919050565b60008054906101000a900473ffffffffffffffffffffffffffffffffffffffff1673ffffffffffffffffffffffffffffffffffffffff163373ffffffffffffffffffffffffffffffffffffffff1614610c0c57600080fd5b600060078281548110610c2257610c216116f1565b5b906000526020600020906005020190508060020160149054906101000a900460ff1615610c4e57600080fd5b8060010154471015610c5f57600080fd5b6002600554610c6e91906119b3565b816004015411610c7d57600080fd5b8060020160009054906101000a900473ffffffffffffffffffffffffffffffffffffffff1673ffffffffffffffffffffffffffffffffffffffff166108fc82600101549081150290604051600060405180830381858888f19350505050158015610ceb573d6000803e3d6000fd5b5060018160020160146101000a81548160ff0219169083151502179055505050565b600254341015610d1c57600080fd5b600354341115610d2b57600080fd5b6000610d403447610fd990919063ffffffff16565b9050600454811115610d5157600080fd5b6000600660003373ffffffffffffffffffffffffffffffffffffffff1673ffffffffffffffffffffffffffffffffffffffff168152602001908152602001600020541115610e2c5734600660003373ffffffffffffffffffffffffffffffffffffffff1673ffffffffffffffffffffffffffffffffffffffff16815260200190815260200160002054610de491906118a9565b600660003373ffffffffffffffffffffffffffffffffffffffff1673ffffffffffffffffffffffffffffffffffffffff16815260200190815260200160002081905550610e8b565b34600660003373ffffffffffffffffffffffffffffffffffffffff1673ffffffffffffffffffffffffffffffffffffffff16815260200190815260200160002081905550600160056000828254610e8391906118a9565b925050819055505b50565b60055481565b600060078281548110610eaa57610ea96116f1565b5b906000526020600020906005020190506000600660003373ffffffffffffffffffffffffffffffffffffffff1673ffffffffffffffffffffffffffffffffffffffff1681526020019081526020016000205411610f0657600080fd5b8060030160003373ffffffffffffffffffffffffffffffffffffffff1673ffffffffffffffffffffffffffffffffffffffff16815260200190815260200160002060009054906101000a900460ff1615610f5f57600080fd5b60018160030160003373ffffffffffffffffffffffffffffffffffffffff1673ffffffffffffffffffffffffffffffffffffffff16815260200190815260200160002060006101000a81548160ff0219169083151502179055506001816004016000828254610fce91906118a9565b925050819055505050565b6000808284610fe891906118a9565b905083811015610ffb57610ffa6119e4565b5b8091505092915050565b8280546110119061174f565b90600052602060002090601f016020900481019282611033576000855561107a565b82601f1061104c57805160ff191683800117855561107a565b8280016001018555821561107a579182015b8281111561107957825182559160200191906001019061105e565b5b509050611087919061108b565b5090565b5b808211156110a457600081600090555060010161108c565b5090565b6000604051905090565b600080fd5b600080fd5b600080fd5b600080fd5b6000601f19601f8301169050919050565b7f4e487b7100000000000000000000000000000000000000000000000000000000600052604160045260246000fd5b61110f826110c6565b810181811067ffffffffffffffff8211171561112e5761112d6110d7565b5b80604052505050565b60006111416110a8565b905061114d8282611106565b919050565b600067ffffffffffffffff82111561116d5761116c6110d7565b5b611176826110c6565b9050602081019050919050565b82818337600083830152505050565b60006111a56111a084611152565b611137565b9050828152602081018484840111156111c1576111c06110c1565b5b6111cc848285611183565b509392505050565b600082601f8301126111e9576111e86110bc565b5b81356111f9848260208601611192565b91505092915050565b6000819050919050565b61121581611202565b811461122057600080fd5b50565b6000813590506112328161120c565b92915050565b600073ffffffffffffffffffffffffffffffffffffffff82169050919050565b600061126382611238565b9050919050565b61127381611258565b811461127e57600080fd5b50565b6000813590506112908161126a565b92915050565b6000806000606084860312156112af576112ae6110b2565b5b600084013567ffffffffffffffff8111156112cd576112cc6110b7565b5b6112d9868287016111d4565b93505060206112ea86828701611223565b92505060406112fb86828701611281565b9150509250925092565b61130e81611202565b82525050565b60006020820190506113296000830184611305565b92915050565b600081519050919050565b600082825260208201905092915050565b60005b8381101561136957808201518184015260208101905061134e565b83811115611378576000848401525b50505050565b60006113898261132f565b611393818561133a565b93506113a381856020860161134b565b6113ac816110c6565b840191505092915050565b60006113c282611238565b9050919050565b6113d2816113b7565b82525050565b60006101008201905081810360008301526113f3818b61137e565b9050611402602083018a611305565b61140f6040830189611305565b61141c6060830188611305565b6114296080830187611305565b61143660a0830186611305565b61144360c0830185611305565b61145060e08301846113c9565b9998505050505050505050565b611466816113b7565b811461147157600080fd5b50565b6000813590506114838161145d565b92915050565b60006020828403121561149f5761149e6110b2565b5b60006114ad84828501611474565b91505092915050565b600060208201905081810360008301526114d0818461137e565b905092915050565b6000602082840312156114ee576114ed6110b2565b5b60006114fc84828501611223565b91505092915050565b600067ffffffffffffffff8211156115205761151f6110d7565b5b611529826110c6565b9050602081019050919050565b600061154961154484611505565b611137565b905082815260208101848484011115611565576115646110c1565b5b611570848285611183565b509392505050565b600082601f83011261158d5761158c6110bc565b5b813561159d848260208601611536565b91505092915050565b6000602082840312156115bc576115bb6110b2565b5b600082013567ffffffffffffffff8111156115da576115d96110b7565b5b6115e684828501611578565b91505092915050565b6115f881611258565b82525050565b60008115159050919050565b611613816115fe565b82525050565b600060a0820190508181036000830152611633818861137e565b90506116426020830187611305565b61164f60408301866115ef565b61165c606083018561160a565b6116696080830184611305565b9695505050505050565b600060208201905061168860008301846113c9565b92915050565b6000819050919050565b6116a18161168e565b81146116ac57600080fd5b50565b6000813590506116be81611698565b92915050565b6000602082840312156116da576116d96110b2565b5b60006116e8848285016116af565b91505092915050565b7f4e487b7100000000000000000000000000000000000000000000000000000000600052603260045260246000fd5b7f4e487b7100000000000000000000000000000000000000000000000000000000600052602260045260246000fd5b6000600282049050600182168061176757607f821691505b6020821081141561177b5761177a611720565b5b50919050565b60008160601b9050919050565b600061179982611781565b9050919050565b60006117ab8261178e565b9050919050565b6117c36117be826113b7565b6117a0565b82525050565b60006117d582846117b2565b60148201915081905092915050565b6000819050919050565b6117ff6117fa82611202565b6117e4565b82525050565b600061181182846117ee565b60208201915081905092915050565b7f4e487b7100000000000000000000000000000000000000000000000000000000600052601160045260246000fd5b600061185a82611202565b915061186583611202565b9250817fffffffffffffffffffffffffffffffffffffffffffffffffffffffffffffffff048311821515161561189e5761189d611820565b5b828202905092915050565b60006118b482611202565b91506118bf83611202565b9250827fffffffffffffffffffffffffffffffffffffffffffffffffffffffffffffffff038211156118f4576118f3611820565b5b828201905092915050565b600061190a82611202565b91507fffffffffffffffffffffffffffffffffffffffffffffffffffffffffffffffff82141561193d5761193c611820565b5b600182019050919050565b6000819050919050565b61196361195e8261168e565b611948565b82525050565b60006119758284611952565b60208201915081905092915050565b7f4e487b7100000000000000000000000000000000000000000000000000000000600052601260045260246000fd5b60006119be82611202565b91506119c983611202565b9250826119d9576119d8611984565b5b828204905092915050565b7f4e487b7100000000000000000000000000000000000000000000000000000000600052600160045260246000fdfea26469706673582212203f5c85360ff5a06c010a6a9cfbd0dca3d73885ecefc4353e3d76f70d33b7922164736f6c634300080a0033","opcodes":"PUSH1 0x80 PUSH1 0x40 MSTORE CALLVALUE DUP1 ISZERO PUSH3 0x11 JUMPI PUSH1 0x0 DUP1 REVERT JUMPDEST POP PUSH1 0x40 MLOAD PUSH3 0x1F02 CODESIZE SUB DUP1 PUSH3 0x1F02 DUP4 CODECOPY DUP2 DUP2 ADD PUSH1 0x40 MSTORE DUP2 ADD SWAP1 PUSH3 0x37 SWAP2 SWAP1 PUSH3 0x39D JUMP JUMPDEST DUP1 PUSH1 0x0 DUP1 PUSH2 0x100 EXP DUP2 SLOAD DUP2 PUSH20 0xFFFFFFFFFFFFFFFFFFFFFFFFFFFFFFFFFFFFFFFF MUL NOT AND SWAP1 DUP4 PUSH20 0xFFFFFFFFFFFFFFFFFFFFFFFFFFFFFFFFFFFFFFFF AND MUL OR SWAP1 SSTORE POP DUP5 PUSH1 0x1 SWAP1 DUP1 MLOAD SWAP1 PUSH1 0x20 ADD SWAP1 PUSH3 0x8F SWAP3 SWAP2 SWAP1 PUSH3 0xB0 JUMP JUMPDEST POP DUP4 PUSH1 0x2 DUP2 SWAP1 SSTORE POP DUP3 PUSH1 0x3 DUP2 SWAP1 SSTORE POP DUP2 PUSH1 0x4 DUP2 SWAP1 SSTORE POP POP POP POP POP POP PUSH3 0x4A9 JUMP JUMPDEST DUP3 DUP1 SLOAD PUSH3 0xBE SWAP1 PUSH3 0x473 JUMP JUMPDEST SWAP1 PUSH1 0x0 MSTORE PUSH1 0x20 PUSH1 0x0 KECCAK256 SWAP1 PUSH1 0x1F ADD PUSH1 0x20 SWAP1 DIV DUP2 ADD SWAP3 DUP3 PUSH3 0xE2 JUMPI PUSH1 0x0 DUP6 SSTORE PUSH3 0x12E JUMP JUMPDEST DUP3 PUSH1 0x1F LT PUSH3 0xFD JUMPI DUP1 MLOAD PUSH1 0xFF NOT AND DUP4 DUP1 ADD OR DUP6 SSTORE PUSH3 0x12E JUMP JUMPDEST DUP3 DUP1 ADD PUSH1 0x1 ADD DUP6 SSTORE DUP3 ISZERO PUSH3 0x12E JUMPI SWAP2 DUP3 ADD JUMPDEST DUP3 DUP2 GT ISZERO PUSH3 0x12D JUMPI DUP3 MLOAD DUP3 SSTORE SWAP2 PUSH1 0x20 ADD SWAP2 SWAP1 PUSH1 0x1 ADD SWAP1 PUSH3 0x110 JUMP JUMPDEST JUMPDEST POP SWAP1 POP PUSH3 0x13D SWAP2 SWAP1 PUSH3 0x141 JUMP JUMPDEST POP SWAP1 JUMP JUMPDEST JUMPDEST DUP1 DUP3 GT ISZERO PUSH3 0x15C JUMPI PUSH1 0x0 DUP2 PUSH1 0x0 SWAP1 SSTORE POP PUSH1 0x1 ADD PUSH3 0x142 JUMP JUMPDEST POP SWAP1 JUMP JUMPDEST PUSH1 0x0 PUSH1 0x40 MLOAD SWAP1 POP SWAP1 JUMP JUMPDEST PUSH1 0x0 DUP1 REVERT JUMPDEST PUSH1 0x0 DUP1 REVERT JUMPDEST PUSH1 0x0 DUP1 REVERT JUMPDEST PUSH1 0x0 DUP1 REVERT JUMPDEST PUSH1 0x0 PUSH1 0x1F NOT PUSH1 0x1F DUP4 ADD AND SWAP1 POP SWAP2 SWAP1 POP JUMP JUMPDEST PUSH32 0x4E487B7100000000000000000000000000000000000000000000000000000000 PUSH1 0x0 MSTORE PUSH1 0x41 PUSH1 0x4 MSTORE PUSH1 0x24 PUSH1 0x0 REVERT JUMPDEST PUSH3 0x1C9 DUP3 PUSH3 0x17E JUMP JUMPDEST DUP2 ADD DUP2 DUP2 LT PUSH8 0xFFFFFFFFFFFFFFFF DUP3 GT OR ISZERO PUSH3 0x1EB JUMPI PUSH3 0x1EA PUSH3 0x18F JUMP JUMPDEST JUMPDEST DUP1 PUSH1 0x40 MSTORE POP POP POP JUMP JUMPDEST PUSH1 0x0 PUSH3 0x200 PUSH3 0x160 JUMP JUMPDEST SWAP1 POP PUSH3 0x20E DUP3 DUP3 PUSH3 0x1BE JUMP JUMPDEST SWAP2 SWAP1 POP JUMP JUMPDEST PUSH1 0x0 PUSH8 0xFFFFFFFFFFFFFFFF DUP3 GT ISZERO PUSH3 0x231 JUMPI PUSH3 0x230 PUSH3 0x18F JUMP JUMPDEST JUMPDEST PUSH3 0x23C DUP3 PUSH3 0x17E JUMP JUMPDEST SWAP1 POP PUSH1 0x20 DUP2 ADD SWAP1 POP SWAP2 SWAP1 POP JUMP JUMPDEST PUSH1 0x0 JUMPDEST DUP4 DUP2 LT ISZERO PUSH3 0x269 JUMPI DUP1 DUP3 ADD MLOAD DUP2 DUP5 ADD MSTORE PUSH1 0x20 DUP2 ADD SWAP1 POP PUSH3 0x24C JUMP JUMPDEST DUP4 DUP2 GT ISZERO PUSH3 0x279 JUMPI PUSH1 0x0 DUP5 DUP5 ADD MSTORE JUMPDEST POP POP POP POP JUMP JUMPDEST PUSH1 0x0 PUSH3 0x296 PUSH3 0x290 DUP5 PUSH3 0x213 JUMP JUMPDEST PUSH3 0x1F4 JUMP JUMPDEST SWAP1 POP DUP3 DUP2 MSTORE PUSH1 0x20 DUP2 ADD DUP5 DUP5 DUP5 ADD GT ISZERO PUSH3 0x2B5 JUMPI PUSH3 0x2B4 PUSH3 0x179 JUMP JUMPDEST JUMPDEST PUSH3 0x2C2 DUP5 DUP3 DUP6 PUSH3 0x249 JUMP JUMPDEST POP SWAP4 SWAP3 POP POP POP JUMP JUMPDEST PUSH1 0x0 DUP3 PUSH1 0x1F DUP4 ADD SLT PUSH3 0x2E2 JUMPI PUSH3 0x2E1 PUSH3 0x174 JUMP JUMPDEST JUMPDEST DUP2 MLOAD PUSH3 0x2F4 DUP5 DUP3 PUSH1 0x20 DUP7 ADD PUSH3 0x27F JUMP JUMPDEST SWAP2 POP POP SWAP3 SWAP2 POP POP JUMP JUMPDEST PUSH1 0x0 DUP2 SWAP1 POP SWAP2 SWAP1 POP JUMP JUMPDEST PUSH3 0x312 DUP2 PUSH3 0x2FD JUMP JUMPDEST DUP2 EQ PUSH3 0x31E JUMPI PUSH1 0x0 DUP1 REVERT JUMPDEST POP JUMP JUMPDEST PUSH1 0x0 DUP2 MLOAD SWAP1 POP PUSH3 0x332 DUP2 PUSH3 0x307 JUMP JUMPDEST SWAP3 SWAP2 POP POP JUMP JUMPDEST PUSH1 0x0 PUSH20 0xFFFFFFFFFFFFFFFFFFFFFFFFFFFFFFFFFFFFFFFF DUP3 AND SWAP1 POP SWAP2 SWAP1 POP JUMP JUMPDEST PUSH1 0x0 PUSH3 0x365 DUP3 PUSH3 0x338 JUMP JUMPDEST SWAP1 POP SWAP2 SWAP1 POP JUMP JUMPDEST PUSH3 0x377 DUP2 PUSH3 0x358 JUMP JUMPDEST DUP2 EQ PUSH3 0x383 JUMPI PUSH1 0x0 DUP1 REVERT JUMPDEST POP JUMP JUMPDEST PUSH1 0x0 DUP2 MLOAD SWAP1 POP PUSH3 0x397 DUP2 PUSH3 0x36C JUMP JUMPDEST SWAP3 SWAP2 POP POP JUMP JUMPDEST PUSH1 0x0 DUP1 PUSH1 0x0 DUP1 PUSH1 0x0 PUSH1 0xA0 DUP7 DUP9 SUB SLT ISZERO PUSH3 0x3BC JUMPI PUSH3 0x3BB PUSH3 0x16A JUMP JUMPDEST JUMPDEST PUSH1 0x0 DUP7 ADD MLOAD PUSH8 0xFFFFFFFFFFFFFFFF DUP2 GT ISZERO PUSH3 0x3DD JUMPI PUSH3 0x3DC PUSH3 0x16F JUMP JUMPDEST JUMPDEST PUSH3 0x3EB DUP9 DUP3 DUP10 ADD PUSH3 0x2CA JUMP JUMPDEST SWAP6 POP POP PUSH1 0x20 PUSH3 0x3FE DUP9 DUP3 DUP10 ADD PUSH3 0x321 JUMP JUMPDEST SWAP5 POP POP PUSH1 0x40 PUSH3 0x411 DUP9 DUP3 DUP10 ADD PUSH3 0x321 JUMP JUMPDEST SWAP4 POP POP PUSH1 0x60 PUSH3 0x424 DUP9 DUP3 DUP10 ADD PUSH3 0x321 JUMP JUMPDEST SWAP3 POP POP PUSH1 0x80 PUSH3 0x437 DUP9 DUP3 DUP10 ADD PUSH3 0x386 JUMP JUMPDEST SWAP2 POP POP SWAP3 SWAP6 POP SWAP3 SWAP6 SWAP1 SWAP4 POP JUMP JUMPDEST PUSH32 0x4E487B7100000000000000000000000000000000000000000000000000000000 PUSH1 0x0 MSTORE PUSH1 0x22 PUSH1 0x4 MSTORE PUSH1 0x24 PUSH1 0x0 REVERT JUMPDEST PUSH1 0x0 PUSH1 0x2 DUP3 DIV SWAP1 POP PUSH1 0x1 DUP3 AND DUP1 PUSH3 0x48C JUMPI PUSH1 0x7F DUP3 AND SWAP2 POP JUMPDEST PUSH1 0x20 DUP3 LT DUP2 EQ ISZERO PUSH3 0x4A3 JUMPI PUSH3 0x4A2 PUSH3 0x444 JUMP JUMPDEST JUMPDEST POP SWAP2 SWAP1 POP JUMP JUMPDEST PUSH2 0x1A49 DUP1 PUSH3 0x4B9 PUSH1 0x0 CODECOPY PUSH1 0x0 RETURN INVALID PUSH1 0x80 PUSH1 0x40 MSTORE PUSH1 0x4 CALLDATASIZE LT PUSH2 0xFE JUMPI PUSH1 0x0 CALLDATALOAD PUSH1 0xE0 SHR DUP1 PUSH4 0x71AAD10D GT PUSH2 0x95 JUMPI DUP1 PUSH4 0xB11A19E8 GT PUSH2 0x64 JUMPI DUP1 PUSH4 0xB11A19E8 EQ PUSH2 0x36A JUMPI DUP1 PUSH4 0xD2B8B867 EQ PUSH2 0x3A7 JUMPI DUP1 PUSH4 0xD7BB99BA EQ PUSH2 0x3D0 JUMPI DUP1 PUSH4 0xD7E64C00 EQ PUSH2 0x3DA JUMPI DUP1 PUSH4 0xDE14C818 EQ PUSH2 0x405 JUMPI PUSH2 0xFE JUMP JUMPDEST DUP1 PUSH4 0x71AAD10D EQ PUSH2 0x296 JUMPI DUP1 PUSH4 0x7284E416 EQ PUSH2 0x2D3 JUMPI DUP1 PUSH4 0x87D81789 EQ PUSH2 0x2FE JUMPI DUP1 PUSH4 0x8DA5CB5B EQ PUSH2 0x33F JUMPI PUSH2 0xFE JUMP JUMPDEST DUP1 PUSH4 0x56CA623E GT PUSH2 0xD1 JUMPI DUP1 PUSH4 0x56CA623E EQ PUSH2 0x1B4 JUMPI DUP1 PUSH4 0x63FD9E38 EQ PUSH2 0x1F1 JUMPI DUP1 PUSH4 0x6900A3AE EQ PUSH2 0x21C JUMPI DUP1 PUSH4 0x6F7BC9BE EQ PUSH2 0x259 JUMPI PUSH2 0xFE JUMP JUMPDEST DUP1 PUSH4 0x3120D46 EQ PUSH2 0x103 JUMPI DUP1 PUSH4 0x3110235A EQ PUSH2 0x12C JUMPI DUP1 PUSH4 0x40193883 EQ PUSH2 0x157 JUMPI DUP1 PUSH4 0x4051DDAC EQ PUSH2 0x182 JUMPI JUMPDEST PUSH1 0x0 DUP1 REVERT JUMPDEST CALLVALUE DUP1 ISZERO PUSH2 0x10F JUMPI PUSH1 0x0 DUP1 REVERT JUMPDEST POP PUSH2 0x12A PUSH1 0x4 DUP1 CALLDATASIZE SUB DUP2 ADD SWAP1 PUSH2 0x125 SWAP2 SWAP1 PUSH2 0x1296 JUMP JUMPDEST PUSH2 0x42E JUMP JUMPDEST STOP JUMPDEST CALLVALUE DUP1 ISZERO PUSH2 0x138 JUMPI PUSH1 0x0 DUP1 REVERT JUMPDEST POP PUSH2 0x141 PUSH2 0x567 JUMP JUMPDEST PUSH1 0x40 MLOAD PUSH2 0x14E SWAP2 SWAP1 PUSH2 0x1314 JUMP JUMPDEST PUSH1 0x40 MLOAD DUP1 SWAP2 SUB SWAP1 RETURN JUMPDEST CALLVALUE DUP1 ISZERO PUSH2 0x163 JUMPI PUSH1 0x0 DUP1 REVERT JUMPDEST POP PUSH2 0x16C PUSH2 0x56D JUMP JUMPDEST PUSH1 0x40 MLOAD PUSH2 0x179 SWAP2 SWAP1 PUSH2 0x1314 JUMP JUMPDEST PUSH1 0x40 MLOAD DUP1 SWAP2 SUB SWAP1 RETURN JUMPDEST CALLVALUE DUP1 ISZERO PUSH2 0x18E JUMPI PUSH1 0x0 DUP1 REVERT JUMPDEST POP PUSH2 0x197 PUSH2 0x573 JUMP JUMPDEST PUSH1 0x40 MLOAD PUSH2 0x1AB SWAP9 SWAP8 SWAP7 SWAP6 SWAP5 SWAP4 SWAP3 SWAP2 SWAP1 PUSH2 0x13D8 JUMP JUMPDEST PUSH1 0x40 MLOAD DUP1 SWAP2 SUB SWAP1 RETURN JUMPDEST CALLVALUE DUP1 ISZERO PUSH2 0x1C0 JUMPI PUSH1 0x0 DUP1 REVERT JUMPDEST POP PUSH2 0x1DB PUSH1 0x4 DUP1 CALLDATASIZE SUB DUP2 ADD SWAP1 PUSH2 0x1D6 SWAP2 SWAP1 PUSH2 0x1489 JUMP JUMPDEST PUSH2 0x65C JUMP JUMPDEST PUSH1 0x40 MLOAD PUSH2 0x1E8 SWAP2 SWAP1 PUSH2 0x14B6 JUMP JUMPDEST PUSH1 0x40 MLOAD DUP1 SWAP2 SUB SWAP1 RETURN JUMPDEST CALLVALUE DUP1 ISZERO PUSH2 0x1FD JUMPI PUSH1 0x0 DUP1 REVERT JUMPDEST POP PUSH2 0x206 PUSH2 0x68D JUMP JUMPDEST PUSH1 0x40 MLOAD PUSH2 0x213 SWAP2 SWAP1 PUSH2 0x1314 JUMP JUMPDEST PUSH1 0x40 MLOAD DUP1 SWAP2 SUB SWAP1 RETURN JUMPDEST CALLVALUE DUP1 ISZERO PUSH2 0x228 JUMPI PUSH1 0x0 DUP1 REVERT JUMPDEST POP PUSH2 0x243 PUSH1 0x4 DUP1 CALLDATASIZE SUB DUP2 ADD SWAP1 PUSH2 0x23E SWAP2 SWAP1 PUSH2 0x14D8 JUMP JUMPDEST PUSH2 0x693 JUMP JUMPDEST PUSH1 0x40 MLOAD PUSH2 0x250 SWAP2 SWAP1 PUSH2 0x14B6 JUMP JUMPDEST PUSH1 0x40 MLOAD DUP1 SWAP2 SUB SWAP1 RETURN JUMPDEST CALLVALUE DUP1 ISZERO PUSH2 0x265 JUMPI PUSH1 0x0 DUP1 REVERT JUMPDEST POP PUSH2 0x280 PUSH1 0x4 DUP1 CALLDATASIZE SUB DUP2 ADD SWAP1 PUSH2 0x27B SWAP2 SWAP1 PUSH2 0x1489 JUMP JUMPDEST PUSH2 0x6C4 JUMP JUMPDEST PUSH1 0x40 MLOAD PUSH2 0x28D SWAP2 SWAP1 PUSH2 0x1314 JUMP JUMPDEST PUSH1 0x40 MLOAD DUP1 SWAP2 SUB SWAP1 RETURN JUMPDEST CALLVALUE DUP1 ISZERO PUSH2 0x2A2 JUMPI PUSH1 0x0 DUP1 REVERT JUMPDEST POP PUSH2 0x2BD PUSH1 0x4 DUP1 CALLDATASIZE SUB DUP2 ADD SWAP1 PUSH2 0x2B8 SWAP2 SWAP1 PUSH2 0x15A6 JUMP JUMPDEST PUSH2 0x6DC JUMP JUMPDEST PUSH1 0x40 MLOAD PUSH2 0x2CA SWAP2 SWAP1 PUSH2 0x14B6 JUMP JUMPDEST PUSH1 0x40 MLOAD DUP1 SWAP2 SUB SWAP1 RETURN JUMPDEST CALLVALUE DUP1 ISZERO PUSH2 0x2DF JUMPI PUSH1 0x0 DUP1 REVERT JUMPDEST POP PUSH2 0x2E8 PUSH2 0x9D6 JUMP JUMPDEST PUSH1 0x40 MLOAD PUSH2 0x2F5 SWAP2 SWAP1 PUSH2 0x14B6 JUMP JUMPDEST PUSH1 0x40 MLOAD DUP1 SWAP2 SUB SWAP1 RETURN JUMPDEST CALLVALUE DUP1 ISZERO PUSH2 0x30A JUMPI PUSH1 0x0 DUP1 REVERT JUMPDEST POP PUSH2 0x325 PUSH1 0x4 DUP1 CALLDATASIZE SUB DUP2 ADD SWAP1 PUSH2 0x320 SWAP2 SWAP1 PUSH2 0x14D8 JUMP JUMPDEST PUSH2 0xA64 JUMP JUMPDEST PUSH1 0x40 MLOAD PUSH2 0x336 SWAP6 SWAP5 SWAP4 SWAP3 SWAP2 SWAP1 PUSH2 0x1619 JUMP JUMPDEST PUSH1 0x40 MLOAD DUP1 SWAP2 SUB SWAP1 RETURN JUMPDEST CALLVALUE DUP1 ISZERO PUSH2 0x34B JUMPI PUSH1 0x0 DUP1 REVERT JUMPDEST POP PUSH2 0x354 PUSH2 0xB5F JUMP JUMPDEST PUSH1 0x40 MLOAD PUSH2 0x361 SWAP2 SWAP1 PUSH2 0x1673 JUMP JUMPDEST PUSH1 0x40 MLOAD DUP1 SWAP2 SUB SWAP1 RETURN JUMPDEST CALLVALUE DUP1 ISZERO PUSH2 0x376 JUMPI PUSH1 0x0 DUP1 REVERT JUMPDEST POP PUSH2 0x391 PUSH1 0x4 DUP1 CALLDATASIZE SUB DUP2 ADD SWAP1 PUSH2 0x38C SWAP2 SWAP1 PUSH2 0x16C4 JUMP JUMPDEST PUSH2 0xB83 JUMP JUMPDEST PUSH1 0x40 MLOAD PUSH2 0x39E SWAP2 SWAP1 PUSH2 0x14B6 JUMP JUMPDEST PUSH1 0x40 MLOAD DUP1 SWAP2 SUB SWAP1 RETURN JUMPDEST CALLVALUE DUP1 ISZERO PUSH2 0x3B3 JUMPI PUSH1 0x0 DUP1 REVERT JUMPDEST POP PUSH2 0x3CE PUSH1 0x4 DUP1 CALLDATASIZE SUB DUP2 ADD SWAP1 PUSH2 0x3C9 SWAP2 SWAP1 PUSH2 0x14D8 JUMP JUMPDEST PUSH2 0xBB4 JUMP JUMPDEST STOP JUMPDEST PUSH2 0x3D8 PUSH2 0xD0D JUMP JUMPDEST STOP JUMPDEST CALLVALUE DUP1 ISZERO PUSH2 0x3E6 JUMPI PUSH1 0x0 DUP1 REVERT JUMPDEST POP PUSH2 0x3EF PUSH2 0xE8E JUMP JUMPDEST PUSH1 0x40 MLOAD PUSH2 0x3FC SWAP2 SWAP1 PUSH2 0x1314 JUMP JUMPDEST PUSH1 0x40 MLOAD DUP1 SWAP2 SUB SWAP1 RETURN JUMPDEST CALLVALUE DUP1 ISZERO PUSH2 0x411 JUMPI PUSH1 0x0 DUP1 REVERT JUMPDEST POP PUSH2 0x42C PUSH1 0x4 DUP1 CALLDATASIZE SUB DUP2 ADD SWAP1 PUSH2 0x427 SWAP2 SWAP1 PUSH2 0x14D8 JUMP JUMPDEST PUSH2 0xE94 JUMP JUMPDEST STOP JUMPDEST PUSH1 0x0 DUP1 SLOAD SWAP1 PUSH2 0x100 EXP SWAP1 DIV PUSH20 0xFFFFFFFFFFFFFFFFFFFFFFFFFFFFFFFFFFFFFFFF AND PUSH20 0xFFFFFFFFFFFFFFFFFFFFFFFFFFFFFFFFFFFFFFFF AND CALLER PUSH20 0xFFFFFFFFFFFFFFFFFFFFFFFFFFFFFFFFFFFFFFFF AND EQ PUSH2 0x486 JUMPI PUSH1 0x0 DUP1 REVERT JUMPDEST PUSH1 0x0 PUSH1 0x7 DUP1 SLOAD SWAP1 POP SWAP1 POP PUSH1 0x7 PUSH1 0x1 DUP2 PUSH1 0x1 DUP2 SLOAD ADD DUP1 DUP3 SSTORE DUP1 SWAP2 POP POP SUB SWAP1 PUSH1 0x0 MSTORE PUSH1 0x20 PUSH1 0x0 KECCAK256 SWAP1 POP POP PUSH1 0x0 PUSH1 0x7 DUP3 DUP2 SLOAD DUP2 LT PUSH2 0x4C4 JUMPI PUSH2 0x4C3 PUSH2 0x16F1 JUMP JUMPDEST JUMPDEST SWAP1 PUSH1 0x0 MSTORE PUSH1 0x20 PUSH1 0x0 KECCAK256 SWAP1 PUSH1 0x5 MUL ADD SWAP1 POP DUP5 DUP2 PUSH1 0x0 ADD SWAP1 DUP1 MLOAD SWAP1 PUSH1 0x20 ADD SWAP1 PUSH2 0x4EC SWAP3 SWAP2 SWAP1 PUSH2 0x1005 JUMP JUMPDEST POP DUP4 DUP2 PUSH1 0x1 ADD DUP2 SWAP1 SSTORE POP DUP3 DUP2 PUSH1 0x2 ADD PUSH1 0x0 PUSH2 0x100 EXP DUP2 SLOAD DUP2 PUSH20 0xFFFFFFFFFFFFFFFFFFFFFFFFFFFFFFFFFFFFFFFF MUL NOT AND SWAP1 DUP4 PUSH20 0xFFFFFFFFFFFFFFFFFFFFFFFFFFFFFFFFFFFFFFFF AND MUL OR SWAP1 SSTORE POP PUSH1 0x0 DUP2 PUSH1 0x2 ADD PUSH1 0x14 PUSH2 0x100 EXP DUP2 SLOAD DUP2 PUSH1 0xFF MUL NOT AND SWAP1 DUP4 ISZERO ISZERO MUL OR SWAP1 SSTORE POP PUSH1 0x0 DUP2 PUSH1 0x4 ADD DUP2 SWAP1 SSTORE POP POP POP POP POP POP JUMP JUMPDEST PUSH1 0x3 SLOAD DUP2 JUMP JUMPDEST PUSH1 0x4 SLOAD DUP2 JUMP JUMPDEST PUSH1 0x60 PUSH1 0x0 DUP1 PUSH1 0x0 DUP1 PUSH1 0x0 DUP1 PUSH1 0x0 PUSH1 0x1 PUSH1 0x2 SLOAD PUSH1 0x3 SLOAD PUSH1 0x4 SLOAD SELFBALANCE PUSH1 0x5 SLOAD PUSH1 0x7 DUP1 SLOAD SWAP1 POP PUSH1 0x0 DUP1 SLOAD SWAP1 PUSH2 0x100 EXP SWAP1 DIV PUSH20 0xFFFFFFFFFFFFFFFFFFFFFFFFFFFFFFFFFFFFFFFF AND DUP8 DUP1 SLOAD PUSH2 0x5C2 SWAP1 PUSH2 0x174F JUMP JUMPDEST DUP1 PUSH1 0x1F ADD PUSH1 0x20 DUP1 SWAP2 DIV MUL PUSH1 0x20 ADD PUSH1 0x40 MLOAD SWAP1 DUP2 ADD PUSH1 0x40 MSTORE DUP1 SWAP3 SWAP2 SWAP1 DUP2 DUP2 MSTORE PUSH1 0x20 ADD DUP3 DUP1 SLOAD PUSH2 0x5EE SWAP1 PUSH2 0x174F JUMP JUMPDEST DUP1 ISZERO PUSH2 0x63B JUMPI DUP1 PUSH1 0x1F LT PUSH2 0x610 JUMPI PUSH2 0x100 DUP1 DUP4 SLOAD DIV MUL DUP4 MSTORE SWAP2 PUSH1 0x20 ADD SWAP2 PUSH2 0x63B JUMP JUMPDEST DUP3 ADD SWAP2 SWAP1 PUSH1 0x0 MSTORE PUSH1 0x20 PUSH1 0x0 KECCAK256 SWAP1 JUMPDEST DUP2 SLOAD DUP2 MSTORE SWAP1 PUSH1 0x1 ADD SWAP1 PUSH1 0x20 ADD DUP1 DUP4 GT PUSH2 0x61E JUMPI DUP3 SWAP1 SUB PUSH1 0x1F AND DUP3 ADD SWAP2 JUMPDEST POP POP POP POP POP SWAP8 POP SWAP8 POP SWAP8 POP SWAP8 POP SWAP8 POP SWAP8 POP SWAP8 POP SWAP8 POP SWAP8 POP SWAP1 SWAP2 SWAP3 SWAP4 SWAP5 SWAP6 SWAP7 SWAP8 JUMP JUMPDEST PUSH1 0x60 PUSH2 0x686 DUP3 PUSH1 0x40 MLOAD PUSH1 0x20 ADD PUSH2 0x672 SWAP2 SWAP1 PUSH2 0x17C9 JUMP JUMPDEST PUSH1 0x40 MLOAD PUSH1 0x20 DUP2 DUP4 SUB SUB DUP2 MSTORE SWAP1 PUSH1 0x40 MSTORE PUSH2 0x6DC JUMP JUMPDEST SWAP1 POP SWAP2 SWAP1 POP JUMP JUMPDEST PUSH1 0x2 SLOAD DUP2 JUMP JUMPDEST PUSH1 0x60 PUSH2 0x6BD DUP3 PUSH1 0x40 MLOAD PUSH1 0x20 ADD PUSH2 0x6A9 SWAP2 SWAP1 PUSH2 0x1805 JUMP JUMPDEST PUSH1 0x40 MLOAD PUSH1 0x20 DUP2 DUP4 SUB SUB DUP2 MSTORE SWAP1 PUSH1 0x40 MSTORE PUSH2 0x6DC JUMP JUMPDEST SWAP1 POP SWAP2 SWAP1 POP JUMP JUMPDEST PUSH1 0x6 PUSH1 0x20 MSTORE DUP1 PUSH1 0x0 MSTORE PUSH1 0x40 PUSH1 0x0 KECCAK256 PUSH1 0x0 SWAP2 POP SWAP1 POP SLOAD DUP2 JUMP JUMPDEST PUSH1 0x60 PUSH1 0x0 PUSH1 0x40 MLOAD DUP1 PUSH1 0x40 ADD PUSH1 0x40 MSTORE DUP1 PUSH1 0x10 DUP2 MSTORE PUSH1 0x20 ADD PUSH32 0x3031323334353637383961626364656600000000000000000000000000000000 DUP2 MSTORE POP SWAP1 POP PUSH1 0x0 PUSH1 0x2 DUP5 MLOAD PUSH2 0x728 SWAP2 SWAP1 PUSH2 0x184F JUMP JUMPDEST PUSH1 0x2 PUSH2 0x734 SWAP2 SWAP1 PUSH2 0x18A9 JUMP JUMPDEST PUSH8 0xFFFFFFFFFFFFFFFF DUP2 GT ISZERO PUSH2 0x74D JUMPI PUSH2 0x74C PUSH2 0x10D7 JUMP JUMPDEST JUMPDEST PUSH1 0x40 MLOAD SWAP1 DUP1 DUP3 MSTORE DUP1 PUSH1 0x1F ADD PUSH1 0x1F NOT AND PUSH1 0x20 ADD DUP3 ADD PUSH1 0x40 MSTORE DUP1 ISZERO PUSH2 0x77F JUMPI DUP2 PUSH1 0x20 ADD PUSH1 0x1 DUP3 MUL DUP1 CALLDATASIZE DUP4 CALLDATACOPY DUP1 DUP3 ADD SWAP2 POP POP SWAP1 POP JUMPDEST POP SWAP1 POP PUSH32 0x3000000000000000000000000000000000000000000000000000000000000000 DUP2 PUSH1 0x0 DUP2 MLOAD DUP2 LT PUSH2 0x7B7 JUMPI PUSH2 0x7B6 PUSH2 0x16F1 JUMP JUMPDEST JUMPDEST PUSH1 0x20 ADD ADD SWAP1 PUSH31 0xFFFFFFFFFFFFFFFFFFFFFFFFFFFFFFFFFFFFFFFFFFFFFFFFFFFFFFFFFFFFFF NOT AND SWAP1 DUP2 PUSH1 0x0 BYTE SWAP1 MSTORE8 POP PUSH32 0x7800000000000000000000000000000000000000000000000000000000000000 DUP2 PUSH1 0x1 DUP2 MLOAD DUP2 LT PUSH2 0x81B JUMPI PUSH2 0x81A PUSH2 0x16F1 JUMP JUMPDEST JUMPDEST PUSH1 0x20 ADD ADD SWAP1 PUSH31 0xFFFFFFFFFFFFFFFFFFFFFFFFFFFFFFFFFFFFFFFFFFFFFFFFFFFFFFFFFFFFFF NOT AND SWAP1 DUP2 PUSH1 0x0 BYTE SWAP1 MSTORE8 POP PUSH1 0x0 JUMPDEST DUP5 MLOAD DUP2 LT ISZERO PUSH2 0x9CB JUMPI DUP3 PUSH1 0x4 DUP7 DUP4 DUP2 MLOAD DUP2 LT PUSH2 0x86C JUMPI PUSH2 0x86B PUSH2 0x16F1 JUMP JUMPDEST JUMPDEST PUSH1 0x20 ADD ADD MLOAD PUSH1 0xF8 SHR PUSH1 0xF8 SHL PUSH31 0xFFFFFFFFFFFFFFFFFFFFFFFFFFFFFFFFFFFFFFFFFFFFFFFFFFFFFFFFFFFFFF NOT AND SWAP1 SHR PUSH1 0xF8 SHR PUSH1 0xFF AND DUP2 MLOAD DUP2 LT PUSH2 0x8B2 JUMPI PUSH2 0x8B1 PUSH2 0x16F1 JUMP JUMPDEST JUMPDEST PUSH1 0x20 ADD ADD MLOAD PUSH1 0xF8 SHR PUSH1 0xF8 SHL DUP3 PUSH1 0x2 DUP4 PUSH2 0x8CB SWAP2 SWAP1 PUSH2 0x184F JUMP JUMPDEST PUSH1 0x2 PUSH2 0x8D7 SWAP2 SWAP1 PUSH2 0x18A9 JUMP JUMPDEST DUP2 MLOAD DUP2 LT PUSH2 0x8E8 JUMPI PUSH2 0x8E7 PUSH2 0x16F1 JUMP JUMPDEST JUMPDEST PUSH1 0x20 ADD ADD SWAP1 PUSH31 0xFFFFFFFFFFFFFFFFFFFFFFFFFFFFFFFFFFFFFFFFFFFFFFFFFFFFFFFFFFFFFF NOT AND SWAP1 DUP2 PUSH1 0x0 BYTE SWAP1 MSTORE8 POP DUP3 PUSH1 0xF PUSH1 0xF8 SHL DUP7 DUP4 DUP2 MLOAD DUP2 LT PUSH2 0x930 JUMPI PUSH2 0x92F PUSH2 0x16F1 JUMP JUMPDEST JUMPDEST PUSH1 0x20 ADD ADD MLOAD PUSH1 0xF8 SHR PUSH1 0xF8 SHL AND PUSH1 0xF8 SHR PUSH1 0xFF AND DUP2 MLOAD DUP2 LT PUSH2 0x953 JUMPI PUSH2 0x952 PUSH2 0x16F1 JUMP JUMPDEST JUMPDEST PUSH1 0x20 ADD ADD MLOAD PUSH1 0xF8 SHR PUSH1 0xF8 SHL DUP3 PUSH1 0x2 DUP4 PUSH2 0x96C SWAP2 SWAP1 PUSH2 0x184F JUMP JUMPDEST PUSH1 0x3 PUSH2 0x978 SWAP2 SWAP1 PUSH2 0x18A9 JUMP JUMPDEST DUP2 MLOAD DUP2 LT PUSH2 0x989 JUMPI PUSH2 0x988 PUSH2 0x16F1 JUMP JUMPDEST JUMPDEST PUSH1 0x20 ADD ADD SWAP1 PUSH31 0xFFFFFFFFFFFFFFFFFFFFFFFFFFFFFFFFFFFFFFFFFFFFFFFFFFFFFFFFFFFFFF NOT AND SWAP1 DUP2 PUSH1 0x0 BYTE SWAP1 MSTORE8 POP DUP1 DUP1 PUSH2 0x9C3 SWAP1 PUSH2 0x18FF JUMP JUMPDEST SWAP2 POP POP PUSH2 0x84D JUMP JUMPDEST POP DUP1 SWAP3 POP POP POP SWAP2 SWAP1 POP JUMP JUMPDEST PUSH1 0x1 DUP1 SLOAD PUSH2 0x9E3 SWAP1 PUSH2 0x174F JUMP JUMPDEST DUP1 PUSH1 0x1F ADD PUSH1 0x20 DUP1 SWAP2 DIV MUL PUSH1 0x20 ADD PUSH1 0x40 MLOAD SWAP1 DUP2 ADD PUSH1 0x40 MSTORE DUP1 SWAP3 SWAP2 SWAP1 DUP2 DUP2 MSTORE PUSH1 0x20 ADD DUP3 DUP1 SLOAD PUSH2 0xA0F SWAP1 PUSH2 0x174F JUMP JUMPDEST DUP1 ISZERO PUSH2 0xA5C JUMPI DUP1 PUSH1 0x1F LT PUSH2 0xA31 JUMPI PUSH2 0x100 DUP1 DUP4 SLOAD DIV MUL DUP4 MSTORE SWAP2 PUSH1 0x20 ADD SWAP2 PUSH2 0xA5C JUMP JUMPDEST DUP3 ADD SWAP2 SWAP1 PUSH1 0x0 MSTORE PUSH1 0x20 PUSH1 0x0 KECCAK256 SWAP1 JUMPDEST DUP2 SLOAD DUP2 MSTORE SWAP1 PUSH1 0x1 ADD SWAP1 PUSH1 0x20 ADD DUP1 DUP4 GT PUSH2 0xA3F JUMPI DUP3 SWAP1 SUB PUSH1 0x1F AND DUP3 ADD SWAP2 JUMPDEST POP POP POP POP POP DUP2 JUMP JUMPDEST PUSH1 0x7 DUP2 DUP2 SLOAD DUP2 LT PUSH2 0xA74 JUMPI PUSH1 0x0 DUP1 REVERT JUMPDEST SWAP1 PUSH1 0x0 MSTORE PUSH1 0x20 PUSH1 0x0 KECCAK256 SWAP1 PUSH1 0x5 MUL ADD PUSH1 0x0 SWAP2 POP SWAP1 POP DUP1 PUSH1 0x0 ADD DUP1 SLOAD PUSH2 0xA97 SWAP1 PUSH2 0x174F JUMP JUMPDEST DUP1 PUSH1 0x1F ADD PUSH1 0x20 DUP1 SWAP2 DIV MUL PUSH1 0x20 ADD PUSH1 0x40 MLOAD SWAP1 DUP2 ADD PUSH1 0x40 MSTORE DUP1 SWAP3 SWAP2 SWAP1 DUP2 DUP2 MSTORE PUSH1 0x20 ADD DUP3 DUP1 SLOAD PUSH2 0xAC3 SWAP1 PUSH2 0x174F JUMP JUMPDEST DUP1 ISZERO PUSH2 0xB10 JUMPI DUP1 PUSH1 0x1F LT PUSH2 0xAE5 JUMPI PUSH2 0x100 DUP1 DUP4 SLOAD DIV MUL DUP4 MSTORE SWAP2 PUSH1 0x20 ADD SWAP2 PUSH2 0xB10 JUMP JUMPDEST DUP3 ADD SWAP2 SWAP1 PUSH1 0x0 MSTORE PUSH1 0x20 PUSH1 0x0 KECCAK256 SWAP1 JUMPDEST DUP2 SLOAD DUP2 MSTORE SWAP1 PUSH1 0x1 ADD SWAP1 PUSH1 0x20 ADD DUP1 DUP4 GT PUSH2 0xAF3 JUMPI DUP3 SWAP1 SUB PUSH1 0x1F AND DUP3 ADD SWAP2 JUMPDEST POP POP POP POP POP SWAP1 DUP1 PUSH1 0x1 ADD SLOAD SWAP1 DUP1 PUSH1 0x2 ADD PUSH1 0x0 SWAP1 SLOAD SWAP1 PUSH2 0x100 EXP SWAP1 DIV PUSH20 0xFFFFFFFFFFFFFFFFFFFFFFFFFFFFFFFFFFFFFFFF AND SWAP1 DUP1 PUSH1 0x2 ADD PUSH1 0x14 SWAP1 SLOAD SWAP1 PUSH2 0x100 EXP SWAP1 DIV PUSH1 0xFF AND SWAP1 DUP1 PUSH1 0x4 ADD SLOAD SWAP1 POP DUP6 JUMP JUMPDEST PUSH1 0x0 DUP1 SLOAD SWAP1 PUSH2 0x100 EXP SWAP1 DIV PUSH20 0xFFFFFFFFFFFFFFFFFFFFFFFFFFFFFFFFFFFFFFFF AND DUP2 JUMP JUMPDEST PUSH1 0x60 PUSH2 0xBAD DUP3 PUSH1 0x40 MLOAD PUSH1 0x20 ADD PUSH2 0xB99 SWAP2 SWAP1 PUSH2 0x1969 JUMP JUMPDEST PUSH1 0x40 MLOAD PUSH1 0x20 DUP2 DUP4 SUB SUB DUP2 MSTORE SWAP1 PUSH1 0x40 MSTORE PUSH2 0x6DC JUMP JUMPDEST SWAP1 POP SWAP2 SWAP1 POP JUMP JUMPDEST PUSH1 0x0 DUP1 SLOAD SWAP1 PUSH2 0x100 EXP SWAP1 DIV PUSH20 0xFFFFFFFFFFFFFFFFFFFFFFFFFFFFFFFFFFFFFFFF AND PUSH20 0xFFFFFFFFFFFFFFFFFFFFFFFFFFFFFFFFFFFFFFFF AND CALLER PUSH20 0xFFFFFFFFFFFFFFFFFFFFFFFFFFFFFFFFFFFFFFFF AND EQ PUSH2 0xC0C JUMPI PUSH1 0x0 DUP1 REVERT JUMPDEST PUSH1 0x0 PUSH1 0x7 DUP3 DUP2 SLOAD DUP2 LT PUSH2 0xC22 JUMPI PUSH2 0xC21 PUSH2 0x16F1 JUMP JUMPDEST JUMPDEST SWAP1 PUSH1 0x0 MSTORE PUSH1 0x20 PUSH1 0x0 KECCAK256 SWAP1 PUSH1 0x5 MUL ADD SWAP1 POP DUP1 PUSH1 0x2 ADD PUSH1 0x14 SWAP1 SLOAD SWAP1 PUSH2 0x100 EXP SWAP1 DIV PUSH1 0xFF AND ISZERO PUSH2 0xC4E JUMPI PUSH1 0x0 DUP1 REVERT JUMPDEST DUP1 PUSH1 0x1 ADD SLOAD SELFBALANCE LT ISZERO PUSH2 0xC5F JUMPI PUSH1 0x0 DUP1 REVERT JUMPDEST PUSH1 0x2 PUSH1 0x5 SLOAD PUSH2 0xC6E SWAP2 SWAP1 PUSH2 0x19B3 JUMP JUMPDEST DUP2 PUSH1 0x4 ADD SLOAD GT PUSH2 0xC7D JUMPI PUSH1 0x0 DUP1 REVERT JUMPDEST DUP1 PUSH1 0x2 ADD PUSH1 0x0 SWAP1 SLOAD SWAP1 PUSH2 0x100 EXP SWAP1 DIV PUSH20 0xFFFFFFFFFFFFFFFFFFFFFFFFFFFFFFFFFFFFFFFF AND PUSH20 0xFFFFFFFFFFFFFFFFFFFFFFFFFFFFFFFFFFFFFFFF AND PUSH2 0x8FC DUP3 PUSH1 0x1 ADD SLOAD SWAP1 DUP2 ISZERO MUL SWAP1 PUSH1 0x40 MLOAD PUSH1 0x0 PUSH1 0x40 MLOAD DUP1 DUP4 SUB DUP2 DUP6 DUP9 DUP9 CALL SWAP4 POP POP POP POP ISZERO DUP1 ISZERO PUSH2 0xCEB JUMPI RETURNDATASIZE PUSH1 0x0 DUP1 RETURNDATACOPY RETURNDATASIZE PUSH1 0x0 REVERT JUMPDEST POP PUSH1 0x1 DUP2 PUSH1 0x2 ADD PUSH1 0x14 PUSH2 0x100 EXP DUP2 SLOAD DUP2 PUSH1 0xFF MUL NOT AND SWAP1 DUP4 ISZERO ISZERO MUL OR SWAP1 SSTORE POP POP POP JUMP JUMPDEST PUSH1 0x2 SLOAD CALLVALUE LT ISZERO PUSH2 0xD1C JUMPI PUSH1 0x0 DUP1 REVERT JUMPDEST PUSH1 0x3 SLOAD CALLVALUE GT ISZERO PUSH2 0xD2B JUMPI PUSH1 0x0 DUP1 REVERT JUMPDEST PUSH1 0x0 PUSH2 0xD40 CALLVALUE SELFBALANCE PUSH2 0xFD9 SWAP1 SWAP2 SWAP1 PUSH4 0xFFFFFFFF AND JUMP JUMPDEST SWAP1 POP PUSH1 0x4 SLOAD DUP2 GT ISZERO PUSH2 0xD51 JUMPI PUSH1 0x0 DUP1 REVERT JUMPDEST PUSH1 0x0 PUSH1 0x6 PUSH1 0x0 CALLER PUSH20 0xFFFFFFFFFFFFFFFFFFFFFFFFFFFFFFFFFFFFFFFF AND PUSH20 0xFFFFFFFFFFFFFFFFFFFFFFFFFFFFFFFFFFFFFFFF AND DUP2 MSTORE PUSH1 0x20 ADD SWAP1 DUP2 MSTORE PUSH1 0x20 ADD PUSH1 0x0 KECCAK256 SLOAD GT ISZERO PUSH2 0xE2C JUMPI CALLVALUE PUSH1 0x6 PUSH1 0x0 CALLER PUSH20 0xFFFFFFFFFFFFFFFFFFFFFFFFFFFFFFFFFFFFFFFF AND PUSH20 0xFFFFFFFFFFFFFFFFFFFFFFFFFFFFFFFFFFFFFFFF AND DUP2 MSTORE PUSH1 0x20 ADD SWAP1 DUP2 MSTORE PUSH1 0x20 ADD PUSH1 0x0 KECCAK256 SLOAD PUSH2 0xDE4 SWAP2 SWAP1 PUSH2 0x18A9 JUMP JUMPDEST PUSH1 0x6 PUSH1 0x0 CALLER PUSH20 0xFFFFFFFFFFFFFFFFFFFFFFFFFFFFFFFFFFFFFFFF AND PUSH20 0xFFFFFFFFFFFFFFFFFFFFFFFFFFFFFFFFFFFFFFFF AND DUP2 MSTORE PUSH1 0x20 ADD SWAP1 DUP2 MSTORE PUSH1 0x20 ADD PUSH1 0x0 KECCAK256 DUP2 SWAP1 SSTORE POP PUSH2 0xE8B JUMP JUMPDEST CALLVALUE PUSH1 0x6 PUSH1 0x0 CALLER PUSH20 0xFFFFFFFFFFFFFFFFFFFFFFFFFFFFFFFFFFFFFFFF AND PUSH20 0xFFFFFFFFFFFFFFFFFFFFFFFFFFFFFFFFFFFFFFFF AND DUP2 MSTORE PUSH1 0x20 ADD SWAP1 DUP2 MSTORE PUSH1 0x20 ADD PUSH1 0x0 KECCAK256 DUP2 SWAP1 SSTORE POP PUSH1 0x1 PUSH1 0x5 PUSH1 0x0 DUP3 DUP3 SLOAD PUSH2 0xE83 SWAP2 SWAP1 PUSH2 0x18A9 JUMP JUMPDEST SWAP3 POP POP DUP2 SWAP1 SSTORE POP JUMPDEST POP JUMP JUMPDEST PUSH1 0x5 SLOAD DUP2 JUMP JUMPDEST PUSH1 0x0 PUSH1 0x7 DUP3 DUP2 SLOAD DUP2 LT PUSH2 0xEAA JUMPI PUSH2 0xEA9 PUSH2 0x16F1 JUMP JUMPDEST JUMPDEST SWAP1 PUSH1 0x0 MSTORE PUSH1 0x20 PUSH1 0x0 KECCAK256 SWAP1 PUSH1 0x5 MUL ADD SWAP1 POP PUSH1 0x0 PUSH1 0x6 PUSH1 0x0 CALLER PUSH20 0xFFFFFFFFFFFFFFFFFFFFFFFFFFFFFFFFFFFFFFFF AND PUSH20 0xFFFFFFFFFFFFFFFFFFFFFFFFFFFFFFFFFFFFFFFF AND DUP2 MSTORE PUSH1 0x20 ADD SWAP1 DUP2 MSTORE PUSH1 0x20 ADD PUSH1 0x0 KECCAK256 SLOAD GT PUSH2 0xF06 JUMPI PUSH1 0x0 DUP1 REVERT JUMPDEST DUP1 PUSH1 0x3 ADD PUSH1 0x0 CALLER PUSH20 0xFFFFFFFFFFFFFFFFFFFFFFFFFFFFFFFFFFFFFFFF AND PUSH20 0xFFFFFFFFFFFFFFFFFFFFFFFFFFFFFFFFFFFFFFFF AND DUP2 MSTORE PUSH1 0x20 ADD SWAP1 DUP2 MSTORE PUSH1 0x20 ADD PUSH1 0x0 KECCAK256 PUSH1 0x0 SWAP1 SLOAD SWAP1 PUSH2 0x100 EXP SWAP1 DIV PUSH1 0xFF AND ISZERO PUSH2 0xF5F JUMPI PUSH1 0x0 DUP1 REVERT JUMPDEST PUSH1 0x1 DUP2 PUSH1 0x3 ADD PUSH1 0x0 CALLER PUSH20 0xFFFFFFFFFFFFFFFFFFFFFFFFFFFFFFFFFFFFFFFF AND PUSH20 0xFFFFFFFFFFFFFFFFFFFFFFFFFFFFFFFFFFFFFFFF AND DUP2 MSTORE PUSH1 0x20 ADD SWAP1 DUP2 MSTORE PUSH1 0x20 ADD PUSH1 0x0 KECCAK256 PUSH1 0x0 PUSH2 0x100 EXP DUP2 SLOAD DUP2 PUSH1 0xFF MUL NOT AND SWAP1 DUP4 ISZERO ISZERO MUL OR SWAP1 SSTORE POP PUSH1 0x1 DUP2 PUSH1 0x4 ADD PUSH1 0x0 DUP3 DUP3 SLOAD PUSH2 0xFCE SWAP2 SWAP1 PUSH2 0x18A9 JUMP JUMPDEST SWAP3 POP POP DUP2 SWAP1 SSTORE POP POP POP JUMP JUMPDEST PUSH1 0x0 DUP1 DUP3 DUP5 PUSH2 0xFE8 SWAP2 SWAP1 PUSH2 0x18A9 JUMP JUMPDEST SWAP1 POP DUP4 DUP2 LT ISZERO PUSH2 0xFFB JUMPI PUSH2 0xFFA PUSH2 0x19E4 JUMP JUMPDEST JUMPDEST DUP1 SWAP2 POP POP SWAP3 SWAP2 POP POP JUMP JUMPDEST DUP3 DUP1 SLOAD PUSH2 0x1011 SWAP1 PUSH2 0x174F JUMP JUMPDEST SWAP1 PUSH1 0x0 MSTORE PUSH1 0x20 PUSH1 0x0 KECCAK256 SWAP1 PUSH1 0x1F ADD PUSH1 0x20 SWAP1 DIV DUP2 ADD SWAP3 DUP3 PUSH2 0x1033 JUMPI PUSH1 0x0 DUP6 SSTORE PUSH2 0x107A JUMP JUMPDEST DUP3 PUSH1 0x1F LT PUSH2 0x104C JUMPI DUP1 MLOAD PUSH1 0xFF NOT AND DUP4 DUP1 ADD OR DUP6 SSTORE PUSH2 0x107A JUMP JUMPDEST DUP3 DUP1 ADD PUSH1 0x1 ADD DUP6 SSTORE DUP3 ISZERO PUSH2 0x107A JUMPI SWAP2 DUP3 ADD JUMPDEST DUP3 DUP2 GT ISZERO PUSH2 0x1079 JUMPI DUP3 MLOAD DUP3 SSTORE SWAP2 PUSH1 0x20 ADD SWAP2 SWAP1 PUSH1 0x1 ADD SWAP1 PUSH2 0x105E JUMP JUMPDEST JUMPDEST POP SWAP1 POP PUSH2 0x1087 SWAP2 SWAP1 PUSH2 0x108B JUMP JUMPDEST POP SWAP1 JUMP JUMPDEST JUMPDEST DUP1 DUP3 GT ISZERO PUSH2 0x10A4 JUMPI PUSH1 0x0 DUP2 PUSH1 0x0 SWAP1 SSTORE POP PUSH1 0x1 ADD PUSH2 0x108C JUMP JUMPDEST POP SWAP1 JUMP JUMPDEST PUSH1 0x0 PUSH1 0x40 MLOAD SWAP1 POP SWAP1 JUMP JUMPDEST PUSH1 0x0 DUP1 REVERT JUMPDEST PUSH1 0x0 DUP1 REVERT JUMPDEST PUSH1 0x0 DUP1 REVERT JUMPDEST PUSH1 0x0 DUP1 REVERT JUMPDEST PUSH1 0x0 PUSH1 0x1F NOT PUSH1 0x1F DUP4 ADD AND SWAP1 POP SWAP2 SWAP1 POP JUMP JUMPDEST PUSH32 0x4E487B7100000000000000000000000000000000000000000000000000000000 PUSH1 0x0 MSTORE PUSH1 0x41 PUSH1 0x4 MSTORE PUSH1 0x24 PUSH1 0x0 REVERT JUMPDEST PUSH2 0x110F DUP3 PUSH2 0x10C6 JUMP JUMPDEST DUP2 ADD DUP2 DUP2 LT PUSH8 0xFFFFFFFFFFFFFFFF DUP3 GT OR ISZERO PUSH2 0x112E JUMPI PUSH2 0x112D PUSH2 0x10D7 JUMP JUMPDEST JUMPDEST DUP1 PUSH1 0x40 MSTORE POP POP POP JUMP JUMPDEST PUSH1 0x0 PUSH2 0x1141 PUSH2 0x10A8 JUMP JUMPDEST SWAP1 POP PUSH2 0x114D DUP3 DUP3 PUSH2 0x1106 JUMP JUMPDEST SWAP2 SWAP1 POP JUMP JUMPDEST PUSH1 0x0 PUSH8 0xFFFFFFFFFFFFFFFF DUP3 GT ISZERO PUSH2 0x116D JUMPI PUSH2 0x116C PUSH2 0x10D7 JUMP JUMPDEST JUMPDEST PUSH2 0x1176 DUP3 PUSH2 0x10C6 JUMP JUMPDEST SWAP1 POP PUSH1 0x20 DUP2 ADD SWAP1 POP SWAP2 SWAP1 POP JUMP JUMPDEST DUP3 DUP2 DUP4 CALLDATACOPY PUSH1 0x0 DUP4 DUP4 ADD MSTORE POP POP POP JUMP JUMPDEST PUSH1 0x0 PUSH2 0x11A5 PUSH2 0x11A0 DUP5 PUSH2 0x1152 JUMP JUMPDEST PUSH2 0x1137 JUMP JUMPDEST SWAP1 POP DUP3 DUP2 MSTORE PUSH1 0x20 DUP2 ADD DUP5 DUP5 DUP5 ADD GT ISZERO PUSH2 0x11C1 JUMPI PUSH2 0x11C0 PUSH2 0x10C1 JUMP JUMPDEST JUMPDEST PUSH2 0x11CC DUP5 DUP3 DUP6 PUSH2 0x1183 JUMP JUMPDEST POP SWAP4 SWAP3 POP POP POP JUMP JUMPDEST PUSH1 0x0 DUP3 PUSH1 0x1F DUP4 ADD SLT PUSH2 0x11E9 JUMPI PUSH2 0x11E8 PUSH2 0x10BC JUMP JUMPDEST JUMPDEST DUP2 CALLDATALOAD PUSH2 0x11F9 DUP5 DUP3 PUSH1 0x20 DUP7 ADD PUSH2 0x1192 JUMP JUMPDEST SWAP2 POP POP SWAP3 SWAP2 POP POP JUMP JUMPDEST PUSH1 0x0 DUP2 SWAP1 POP SWAP2 SWAP1 POP JUMP JUMPDEST PUSH2 0x1215 DUP2 PUSH2 0x1202 JUMP JUMPDEST DUP2 EQ PUSH2 0x1220 JUMPI PUSH1 0x0 DUP1 REVERT JUMPDEST POP JUMP JUMPDEST PUSH1 0x0 DUP2 CALLDATALOAD SWAP1 POP PUSH2 0x1232 DUP2 PUSH2 0x120C JUMP JUMPDEST SWAP3 SWAP2 POP POP JUMP JUMPDEST PUSH1 0x0 PUSH20 0xFFFFFFFFFFFFFFFFFFFFFFFFFFFFFFFFFFFFFFFF DUP3 AND SWAP1 POP SWAP2 SWAP1 POP JUMP JUMPDEST PUSH1 0x0 PUSH2 0x1263 DUP3 PUSH2 0x1238 JUMP JUMPDEST SWAP1 POP SWAP2 SWAP1 POP JUMP JUMPDEST PUSH2 0x1273 DUP2 PUSH2 0x1258 JUMP JUMPDEST DUP2 EQ PUSH2 0x127E JUMPI PUSH1 0x0 DUP1 REVERT JUMPDEST POP JUMP JUMPDEST PUSH1 0x0 DUP2 CALLDATALOAD SWAP1 POP PUSH2 0x1290 DUP2 PUSH2 0x126A JUMP JUMPDEST SWAP3 SWAP2 POP POP JUMP JUMPDEST PUSH1 0x0 DUP1 PUSH1 0x0 PUSH1 0x60 DUP5 DUP7 SUB SLT ISZERO PUSH2 0x12AF JUMPI PUSH2 0x12AE PUSH2 0x10B2 JUMP JUMPDEST JUMPDEST PUSH1 0x0 DUP5 ADD CALLDATALOAD PUSH8 0xFFFFFFFFFFFFFFFF DUP2 GT ISZERO PUSH2 0x12CD JUMPI PUSH2 0x12CC PUSH2 0x10B7 JUMP JUMPDEST JUMPDEST PUSH2 0x12D9 DUP7 DUP3 DUP8 ADD PUSH2 0x11D4 JUMP JUMPDEST SWAP4 POP POP PUSH1 0x20 PUSH2 0x12EA DUP7 DUP3 DUP8 ADD PUSH2 0x1223 JUMP JUMPDEST SWAP3 POP POP PUSH1 0x40 PUSH2 0x12FB DUP7 DUP3 DUP8 ADD PUSH2 0x1281 JUMP JUMPDEST SWAP2 POP POP SWAP3 POP SWAP3 POP SWAP3 JUMP JUMPDEST PUSH2 0x130E DUP2 PUSH2 0x1202 JUMP JUMPDEST DUP3 MSTORE POP POP JUMP JUMPDEST PUSH1 0x0 PUSH1 0x20 DUP3 ADD SWAP1 POP PUSH2 0x1329 PUSH1 0x0 DUP4 ADD DUP5 PUSH2 0x1305 JUMP JUMPDEST SWAP3 SWAP2 POP POP JUMP JUMPDEST PUSH1 0x0 DUP2 MLOAD SWAP1 POP SWAP2 SWAP1 POP JUMP JUMPDEST PUSH1 0x0 DUP3 DUP3 MSTORE PUSH1 0x20 DUP3 ADD SWAP1 POP SWAP3 SWAP2 POP POP JUMP JUMPDEST PUSH1 0x0 JUMPDEST DUP4 DUP2 LT ISZERO PUSH2 0x1369 JUMPI DUP1 DUP3 ADD MLOAD DUP2 DUP5 ADD MSTORE PUSH1 0x20 DUP2 ADD SWAP1 POP PUSH2 0x134E JUMP JUMPDEST DUP4 DUP2 GT ISZERO PUSH2 0x1378 JUMPI PUSH1 0x0 DUP5 DUP5 ADD MSTORE JUMPDEST POP POP POP POP JUMP JUMPDEST PUSH1 0x0 PUSH2 0x1389 DUP3 PUSH2 0x132F JUMP JUMPDEST PUSH2 0x1393 DUP2 DUP6 PUSH2 0x133A JUMP JUMPDEST SWAP4 POP PUSH2 0x13A3 DUP2 DUP6 PUSH1 0x20 DUP7 ADD PUSH2 0x134B JUMP JUMPDEST PUSH2 0x13AC DUP2 PUSH2 0x10C6 JUMP JUMPDEST DUP5 ADD SWAP2 POP POP SWAP3 SWAP2 POP POP JUMP JUMPDEST PUSH1 0x0 PUSH2 0x13C2 DUP3 PUSH2 0x1238 JUMP JUMPDEST SWAP1 POP SWAP2 SWAP1 POP JUMP JUMPDEST PUSH2 0x13D2 DUP2 PUSH2 0x13B7 JUMP JUMPDEST DUP3 MSTORE POP POP JUMP JUMPDEST PUSH1 0x0 PUSH2 0x100 DUP3 ADD SWAP1 POP DUP2 DUP2 SUB PUSH1 0x0 DUP4 ADD MSTORE PUSH2 0x13F3 DUP2 DUP12 PUSH2 0x137E JUMP JUMPDEST SWAP1 POP PUSH2 0x1402 PUSH1 0x20 DUP4 ADD DUP11 PUSH2 0x1305 JUMP JUMPDEST PUSH2 0x140F PUSH1 0x40 DUP4 ADD DUP10 PUSH2 0x1305 JUMP JUMPDEST PUSH2 0x141C PUSH1 0x60 DUP4 ADD DUP9 PUSH2 0x1305 JUMP JUMPDEST PUSH2 0x1429 PUSH1 0x80 DUP4 ADD DUP8 PUSH2 0x1305 JUMP JUMPDEST PUSH2 0x1436 PUSH1 0xA0 DUP4 ADD DUP7 PUSH2 0x1305 JUMP JUMPDEST PUSH2 0x1443 PUSH1 0xC0 DUP4 ADD DUP6 PUSH2 0x1305 JUMP JUMPDEST PUSH2 0x1450 PUSH1 0xE0 DUP4 ADD DUP5 PUSH2 0x13C9 JUMP JUMPDEST SWAP10 SWAP9 POP POP POP POP POP POP POP POP POP JUMP JUMPDEST PUSH2 0x1466 DUP2 PUSH2 0x13B7 JUMP JUMPDEST DUP2 EQ PUSH2 0x1471 JUMPI PUSH1 0x0 DUP1 REVERT JUMPDEST POP JUMP JUMPDEST PUSH1 0x0 DUP2 CALLDATALOAD SWAP1 POP PUSH2 0x1483 DUP2 PUSH2 0x145D JUMP JUMPDEST SWAP3 SWAP2 POP POP JUMP JUMPDEST PUSH1 0x0 PUSH1 0x20 DUP3 DUP5 SUB SLT ISZERO PUSH2 0x149F JUMPI PUSH2 0x149E PUSH2 0x10B2 JUMP JUMPDEST JUMPDEST PUSH1 0x0 PUSH2 0x14AD DUP5 DUP3 DUP6 ADD PUSH2 0x1474 JUMP JUMPDEST SWAP2 POP POP SWAP3 SWAP2 POP POP JUMP JUMPDEST PUSH1 0x0 PUSH1 0x20 DUP3 ADD SWAP1 POP DUP2 DUP2 SUB PUSH1 0x0 DUP4 ADD MSTORE PUSH2 0x14D0 DUP2 DUP5 PUSH2 0x137E JUMP JUMPDEST SWAP1 POP SWAP3 SWAP2 POP POP JUMP JUMPDEST PUSH1 0x0 PUSH1 0x20 DUP3 DUP5 SUB SLT ISZERO PUSH2 0x14EE JUMPI PUSH2 0x14ED PUSH2 0x10B2 JUMP JUMPDEST JUMPDEST PUSH1 0x0 PUSH2 0x14FC DUP5 DUP3 DUP6 ADD PUSH2 0x1223 JUMP JUMPDEST SWAP2 POP POP SWAP3 SWAP2 POP POP JUMP JUMPDEST PUSH1 0x0 PUSH8 0xFFFFFFFFFFFFFFFF DUP3 GT ISZERO PUSH2 0x1520 JUMPI PUSH2 0x151F PUSH2 0x10D7 JUMP JUMPDEST JUMPDEST PUSH2 0x1529 DUP3 PUSH2 0x10C6 JUMP JUMPDEST SWAP1 POP PUSH1 0x20 DUP2 ADD SWAP1 POP SWAP2 SWAP1 POP JUMP JUMPDEST PUSH1 0x0 PUSH2 0x1549 PUSH2 0x1544 DUP5 PUSH2 0x1505 JUMP JUMPDEST PUSH2 0x1137 JUMP JUMPDEST SWAP1 POP DUP3 DUP2 MSTORE PUSH1 0x20 DUP2 ADD DUP5 DUP5 DUP5 ADD GT ISZERO PUSH2 0x1565 JUMPI PUSH2 0x1564 PUSH2 0x10C1 JUMP JUMPDEST JUMPDEST PUSH2 0x1570 DUP5 DUP3 DUP6 PUSH2 0x1183 JUMP JUMPDEST POP SWAP4 SWAP3 POP POP POP JUMP JUMPDEST PUSH1 0x0 DUP3 PUSH1 0x1F DUP4 ADD SLT PUSH2 0x158D JUMPI PUSH2 0x158C PUSH2 0x10BC JUMP JUMPDEST JUMPDEST DUP2 CALLDATALOAD PUSH2 0x159D DUP5 DUP3 PUSH1 0x20 DUP7 ADD PUSH2 0x1536 JUMP JUMPDEST SWAP2 POP POP SWAP3 SWAP2 POP POP JUMP JUMPDEST PUSH1 0x0 PUSH1 0x20 DUP3 DUP5 SUB SLT ISZERO PUSH2 0x15BC JUMPI PUSH2 0x15BB PUSH2 0x10B2 JUMP JUMPDEST JUMPDEST PUSH1 0x0 DUP3 ADD CALLDATALOAD PUSH8 0xFFFFFFFFFFFFFFFF DUP2 GT ISZERO PUSH2 0x15DA JUMPI PUSH2 0x15D9 PUSH2 0x10B7 JUMP JUMPDEST JUMPDEST PUSH2 0x15E6 DUP5 DUP3 DUP6 ADD PUSH2 0x1578 JUMP JUMPDEST SWAP2 POP POP SWAP3 SWAP2 POP POP JUMP JUMPDEST PUSH2 0x15F8 DUP2 PUSH2 0x1258 JUMP JUMPDEST DUP3 MSTORE POP POP JUMP JUMPDEST PUSH1 0x0 DUP2 ISZERO ISZERO SWAP1 POP SWAP2 SWAP1 POP JUMP JUMPDEST PUSH2 0x1613 DUP2 PUSH2 0x15FE JUMP JUMPDEST DUP3 MSTORE POP POP JUMP JUMPDEST PUSH1 0x0 PUSH1 0xA0 DUP3 ADD SWAP1 POP DUP2 DUP2 SUB PUSH1 0x0 DUP4 ADD MSTORE PUSH2 0x1633 DUP2 DUP9 PUSH2 0x137E JUMP JUMPDEST SWAP1 POP PUSH2 0x1642 PUSH1 0x20 DUP4 ADD DUP8 PUSH2 0x1305 JUMP JUMPDEST PUSH2 0x164F PUSH1 0x40 DUP4 ADD DUP7 PUSH2 0x15EF JUMP JUMPDEST PUSH2 0x165C PUSH1 0x60 DUP4 ADD DUP6 PUSH2 0x160A JUMP JUMPDEST PUSH2 0x1669 PUSH1 0x80 DUP4 ADD DUP5 PUSH2 0x1305 JUMP JUMPDEST SWAP7 SWAP6 POP POP POP POP POP POP JUMP JUMPDEST PUSH1 0x0 PUSH1 0x20 DUP3 ADD SWAP1 POP PUSH2 0x1688 PUSH1 0x0 DUP4 ADD DUP5 PUSH2 0x13C9 JUMP JUMPDEST SWAP3 SWAP2 POP POP JUMP JUMPDEST PUSH1 0x0 DUP2 SWAP1 POP SWAP2 SWAP1 POP JUMP JUMPDEST PUSH2 0x16A1 DUP2 PUSH2 0x168E JUMP JUMPDEST DUP2 EQ PUSH2 0x16AC JUMPI PUSH1 0x0 DUP1 REVERT JUMPDEST POP JUMP JUMPDEST PUSH1 0x0 DUP2 CALLDATALOAD SWAP1 POP PUSH2 0x16BE DUP2 PUSH2 0x1698 JUMP JUMPDEST SWAP3 SWAP2 POP POP JUMP JUMPDEST PUSH1 0x0 PUSH1 0x20 DUP3 DUP5 SUB SLT ISZERO PUSH2 0x16DA JUMPI PUSH2 0x16D9 PUSH2 0x10B2 JUMP JUMPDEST JUMPDEST PUSH1 0x0 PUSH2 0x16E8 DUP5 DUP3 DUP6 ADD PUSH2 0x16AF JUMP JUMPDEST SWAP2 POP POP SWAP3 SWAP2 POP POP JUMP JUMPDEST PUSH32 0x4E487B7100000000000000000000000000000000000000000000000000000000 PUSH1 0x0 MSTORE PUSH1 0x32 PUSH1 0x4 MSTORE PUSH1 0x24 PUSH1 0x0 REVERT JUMPDEST PUSH32 0x4E487B7100000000000000000000000000000000000000000000000000000000 PUSH1 0x0 MSTORE PUSH1 0x22 PUSH1 0x4 MSTORE PUSH1 0x24 PUSH1 0x0 REVERT JUMPDEST PUSH1 0x0 PUSH1 0x2 DUP3 DIV SWAP1 POP PUSH1 0x1 DUP3 AND DUP1 PUSH2 0x1767 JUMPI PUSH1 0x7F DUP3 AND SWAP2 POP JUMPDEST PUSH1 0x20 DUP3 LT DUP2 EQ ISZERO PUSH2 0x177B JUMPI PUSH2 0x177A PUSH2 0x1720 JUMP JUMPDEST JUMPDEST POP SWAP2 SWAP1 POP JUMP JUMPDEST PUSH1 0x0 DUP2 PUSH1 0x60 SHL SWAP1 POP SWAP2 SWAP1 POP JUMP JUMPDEST PUSH1 0x0 PUSH2 0x1799 DUP3 PUSH2 0x1781 JUMP JUMPDEST SWAP1 POP SWAP2 SWAP1 POP JUMP JUMPDEST PUSH1 0x0 PUSH2 0x17AB DUP3 PUSH2 0x178E JUMP JUMPDEST SWAP1 POP SWAP2 SWAP1 POP JUMP JUMPDEST PUSH2 0x17C3 PUSH2 0x17BE DUP3 PUSH2 0x13B7 JUMP JUMPDEST PUSH2 0x17A0 JUMP JUMPDEST DUP3 MSTORE POP POP JUMP JUMPDEST PUSH1 0x0 PUSH2 0x17D5 DUP3 DUP5 PUSH2 0x17B2 JUMP JUMPDEST PUSH1 0x14 DUP3 ADD SWAP2 POP DUP2 SWAP1 POP SWAP3 SWAP2 POP POP JUMP JUMPDEST PUSH1 0x0 DUP2 SWAP1 POP SWAP2 SWAP1 POP JUMP JUMPDEST PUSH2 0x17FF PUSH2 0x17FA DUP3 PUSH2 0x1202 JUMP JUMPDEST PUSH2 0x17E4 JUMP JUMPDEST DUP3 MSTORE POP POP JUMP JUMPDEST PUSH1 0x0 PUSH2 0x1811 DUP3 DUP5 PUSH2 0x17EE JUMP JUMPDEST PUSH1 0x20 DUP3 ADD SWAP2 POP DUP2 SWAP1 POP SWAP3 SWAP2 POP POP JUMP JUMPDEST PUSH32 0x4E487B7100000000000000000000000000000000000000000000000000000000 PUSH1 0x0 MSTORE PUSH1 0x11 PUSH1 0x4 MSTORE PUSH1 0x24 PUSH1 0x0 REVERT JUMPDEST PUSH1 0x0 PUSH2 0x185A DUP3 PUSH2 0x1202 JUMP JUMPDEST SWAP2 POP PUSH2 0x1865 DUP4 PUSH2 0x1202 JUMP JUMPDEST SWAP3 POP DUP2 PUSH32 0xFFFFFFFFFFFFFFFFFFFFFFFFFFFFFFFFFFFFFFFFFFFFFFFFFFFFFFFFFFFFFFFF DIV DUP4 GT DUP3 ISZERO ISZERO AND ISZERO PUSH2 0x189E JUMPI PUSH2 0x189D PUSH2 0x1820 JUMP JUMPDEST JUMPDEST DUP3 DUP3 MUL SWAP1 POP SWAP3 SWAP2 POP POP JUMP JUMPDEST PUSH1 0x0 PUSH2 0x18B4 DUP3 PUSH2 0x1202 JUMP JUMPDEST SWAP2 POP PUSH2 0x18BF DUP4 PUSH2 0x1202 JUMP JUMPDEST SWAP3 POP DUP3 PUSH32 0xFFFFFFFFFFFFFFFFFFFFFFFFFFFFFFFFFFFFFFFFFFFFFFFFFFFFFFFFFFFFFFFF SUB DUP3 GT ISZERO PUSH2 0x18F4 JUMPI PUSH2 0x18F3 PUSH2 0x1820 JUMP JUMPDEST JUMPDEST DUP3 DUP3 ADD SWAP1 POP SWAP3 SWAP2 POP POP JUMP JUMPDEST PUSH1 0x0 PUSH2 0x190A DUP3 PUSH2 0x1202 JUMP JUMPDEST SWAP2 POP PUSH32 0xFFFFFFFFFFFFFFFFFFFFFFFFFFFFFFFFFFFFFFFFFFFFFFFFFFFFFFFFFFFFFFFF DUP3 EQ ISZERO PUSH2 0x193D JUMPI PUSH2 0x193C PUSH2 0x1820 JUMP JUMPDEST JUMPDEST PUSH1 0x1 DUP3 ADD SWAP1 POP SWAP2 SWAP1 POP JUMP JUMPDEST PUSH1 0x0 DUP2 SWAP1 POP SWAP2 SWAP1 POP JUMP JUMPDEST PUSH2 0x1963 PUSH2 0x195E DUP3 PUSH2 0x168E JUMP JUMPDEST PUSH2 0x1948 JUMP JUMPDEST DUP3 MSTORE POP POP JUMP JUMPDEST PUSH1 0x0 PUSH2 0x1975 DUP3 DUP5 PUSH2 0x1952 JUMP JUMPDEST PUSH1 0x20 DUP3 ADD SWAP2 POP DUP2 SWAP1 POP SWAP3 SWAP2 POP POP JUMP JUMPDEST PUSH32 0x4E487B7100000000000000000000000000000000000000000000000000000000 PUSH1 0x0 MSTORE PUSH1 0x12 PUSH1 0x4 MSTORE PUSH1 0x24 PUSH1 0x0 REVERT JUMPDEST PUSH1 0x0 PUSH2 0x19BE DUP3 PUSH2 0x1202 JUMP JUMPDEST SWAP2 POP PUSH2 0x19C9 DUP4 PUSH2 0x1202 JUMP JUMPDEST SWAP3 POP DUP3 PUSH2 0x19D9 JUMPI PUSH2 0x19D8 PUSH2 0x1984 JUMP JUMPDEST JUMPDEST DUP3 DUP3 DIV SWAP1 POP SWAP3 SWAP2 POP POP JUMP JUMPDEST PUSH32 0x4E487B7100000000000000000000000000000000000000000000000000000000 PUSH1 0x0 MSTORE PUSH1 0x1 PUSH1 0x4 MSTORE PUSH1 0x24 PUSH1 0x0 REVERT INVALID LOG2 PUSH5 0x6970667358 0x22 SLT KECCAK256 EXTCODEHASH 0x5C DUP6 CALLDATASIZE 0xF CREATE2 LOG0 PUSH13 0x10A6A9CFBD0DCA3D73885ECEF 0xC4 CALLDATALOAD RETURNDATACOPY RETURNDATASIZE PUSH23 0xF70D33B7922164736F6C634300080A0033000000000000 "},"gasEstimates":{"creation":{"codeDepositCost":"1345800","executionCost":"infinite","totalCost":"infinite"},"external":{"approvePayment(uint256)":"infinite","contribute()":"infinite","createPayment(string,uint256,address)":"infinite","description()":"infinite","doPayment(uint256)":"infinite","getSummary()":"infinite","goal()":"2497","investorCount()":"2517","investors(address)":"2903","maxInvest()":"2475","minInvest()":"2474","owner()":"2600","payments(uint256)":"infinite","toString(address)":"infinite","toString(bytes)":"infinite","toString(bytes32)":"infinite","toString(uint256)":"infinite"},"internal":{"append(string memory,string memory,string memory)":"infinite"}},"methodIdentifiers":{"approvePayment(uint256)":"de14c818","contribute()":"d7bb99ba","createPayment(string,uint256,address)":"03120d46","description()":"7284e416","doPayment(uint256)":"d2b8b867","getSummary()":"4051ddac","goal()":"40193883","investorCount()":"d7e64c00","investors(address)":"6f7bc9be","maxInvest()":"3110235a","minInvest()":"63fd9e38","owner()":"8da5cb5b","payments(uint256)":"87d81789","toString(address)":"56ca623e","toString(bytes)":"71aad10d","toString(bytes32)":"b11a19e8","toString(uint256)":"6900a3ae"}},"storageLayout":{"storage":[{"astId":55,"contract":"Project.sol:Project","label":"owner","offset":0,"slot":"0","type":"t_address"},{"astId":57,"contract":"Project.sol:Project","label":"description","offset":0,"slot":"1","type":"t_string_storage"},{"astId":59,"contract":"Project.sol:Project","label":"minInvest","offset":0,"slot":"2","type":"t_uint256"},{"astId":61,"contract":"Project.sol:Project","label":"maxInvest","offset":0,"slot":"3","type":"t_uint256"},{"astId":63,"contract":"Project.sol:Project","label":"goal","offset":0,"slot":"4","type":"t_uint256"},{"astId":65,"contract":"Project.sol:Project","label":"investorCount","offset":0,"slot":"5","type":"t_uint256"},{"astId":69,"contract":"Project.sol:Project","label":"investors","offset":0,"slot":"6","type":"t_mapping(t_address,t_uint256)"},{"astId":73,"contract":"Project.sol:Project","label":"payments","offset":0,"slot":"7","type":"t_array(t_struct(Payment)53_storage)dyn_storage"}],"types":{"t_address":{"encoding":"inplace","label":"address","numberOfBytes":"20"},"t_address_payable":{"encoding":"inplace","label":"address payable","numberOfBytes":"20"},"t_array(t_struct(Payment)53_storage)dyn_storage":{"base":"t_struct(Payment)53_storage","encoding":"dynamic_array","label":"struct Project.Payment[]","numberOfBytes":"32"},"t_bool":{"encoding":"inplace","label":"bool","numberOfBytes":"1"},"t_mapping(t_address,t_bool)":{"encoding":"mapping","key":"t_address","label":"mapping(address => bool)","numberOfBytes":"32","value":"t_bool"},"t_mapping(t_address,t_uint256)":{"encoding":"mapping","key":"t_address","label":"mapping(address => uint256)","numberOfBytes":"32","value":"t_uint256"},"t_string_storage":{"encoding":"bytes","label":"string","numberOfBytes":"32"},"t_struct(Payment)53_storage":{"encoding":"inplace","label":"struct Project.Payment","members":[{"astId":40,"contract":"Project.sol:Project","label":"description","offset":0,"slot":"0","type":"t_string_storage"},{"astId":42,"contract":"Project.sol:Project","label":"amount","offset":0,"slot":"1","type":"t_uint256"},{"astId":44,"contract":"Project.sol:Project","label":"receiver","offset":0,"slot":"2","type":"t_address_payable"},{"astId":46,"contract":"Project.sol:Project","label":"completed","offset":20,"slot":"2","type":"t_bool"},{"astId":50,"contract":"Project.sol:Project","label":"voters","offset":0,"slot":"3","type":"t_mapping(t_address,t_bool)"},{"astId":52,"contract":"Project.sol:Project","label":"voterCount","offset":0,"slot":"4","type":"t_uint256"}],"numberOfBytes":"160"},"t_uint256":{"encoding":"inplace","label":"uint256","numberOfBytes":"32"}}},"userdoc":{"kind":"user","methods":{},"version":1}}